S01800006275696C642F6D6963617A2F6D61696E2E73726563E5
S11300000C9482010C941F140C9429140C94331432
S11300100C943D140C9447140C9451140C94AE1984
S11300200C945B140C94A1010C94A1010C9468250C
S11300300C94E3210C94E9130C94FF130C946514B1
S11300400C9419100C94DA240C94E7110C94A1016B
S11300500C9463120C9420170C94A1010C94A1012C
S11300600C94F4130C94B6130C9495130C94A013E1
S11300700C94AB130C94C9130C9478130C94A10135
S11300800C948A130C94EB1F0C94A101EF33663487
S11300909B34F334F634F934FC34FF342A352D35EB
S11300A030353335363544359635B235B935F135D5
S11300B0F435F735FA35FD350036D736DA36DD3620
S11300C0E036E33622376A396D3970397339773956
S11300D09E39B139C439C739CC39CF39D239E43929
S11300E0E739EA39FE39013A893A043A1E3A213AA3
S11300F0243A2C3A893A2F3A323A3A3A4A3A0000A8
S11301002110422063308440A550C660E770088106
S113011029914AA16BB18CC1ADD1CEE1EFF131127D
S1130120100273325222B5529442F772D662399356
S113013018837BB35AA3BDD39CC3FFF3DEE36224CD
S1130140433420040114E664C774A44485546AA5A6
S11301504BB528850995EEE5CFF5ACC58DD553365D
S1130160722611163006D776F6669556B4465BB7F6
S11301707AA719973887DFF7FEE79DD7BCC7C4482D
S1130180E5588668A7784008611802282338CCC946
S1130190EDD98EE9AFF9488969990AA92BB9F55ABD
S11301A0D44AB77A966A711A500A333A122AFDDB96
S11301B0DCCBBFFB9EEB799B588B3BBB1AABA66C8D
S11301C0877CE44CC55C222C033C600C411CAEEDE6
S11301D08FFDECCDCDDD2AAD0BBD688D499D977E9D
S11301E0B66ED55EF44E133E322E511E700E9FFF36
S11301F0BEEFDDDFFCCF1BBF3AAF599F788F8891EC
S1130200A981CAB1EBA10CD12DC14EF16FE18010CF
S1130210A100C230E3200450254046706760B983D2
S11302209893FBA3DAB33DC31CD37FE35EF3B1021F
S11302309012F322D2323542145277625672EAB5E2
S1130240CBA5A89589856EF54FE52CD50DC5E2346F
S1130250C324A01481046674476424540544DBA7B2
S1130260FAB79987B8975FE77EF71DC73CD7D326BF
S1130270F2369106B01657667676154634564CD942
S11302806DC90EF92FE9C899E9898AB9ABA944580F
S1130290654806782768C018E1088238A3287DCB12
S11302A05CDB3FEB1EFBF98BD89BBBAB9ABB754A5F
S11302B0545A376A167AF10AD01AB32A923A2EFDA2
S11302C00FED6CDD4DCDAABD8BADE89DC98D267CAF
S11302D0076C645C454CA23C832CE01CC10C1FEFF2
S11302E03EFF5DCF7CDF9BAFBABFD98FF89F176EFF
S11302F0367E554E745E932EB23ED10EF01E00082B
S11303001C18141011241FBECFEFD0E1DEBFCDBFE7
S113031011E0A0E0B1E0E8ECF8E800E00BBF02C0B7
S113032007900D92A83AB107D9F71DE0A8EAB1E009
S113033001C01D92AF36B107E1F70E94B93A0C949F
S113034063440C9400008FB7F894992708958FBFE5
S113035008958FB7F89499272091BF013091C00177
S1130360409124028FBF8FB7F894E42FFF27EE0F3C
S1130370FF1FEA58FE4F318320832091B2014423AA
S113038011F02B7F01C02D7F2093B2011092BD018B
S113039099278FBF0895282F9FB7F894E82FFF2738
S11303A0E85DFD4F80818F3F81F4E0914A0DE217B3
S11303B071F40BC02093E80C04C0FF27E85DFD4FE7
S11303C0208320934A0D20E007C025E005C08091DA
S11303D0E80C8F3F91F7EECF892F99278FBF822F9B
S11303E09927089586E00E94CB01992708958CE00F
S11303F00E94CB01992708958BE00E94CB01992795
S113040008958FE00E94CB019927089580E10E940E
S1130410CB01992708952FB7F89433278091C90207
S11304208093800182E08093C8012FBF8091800176
S1130430882329F4B89AC09881E10E94CB010895D9
S113044086E30E94CB019927089586E10E94CB019F
S1130450992708958BE20E94CB019927089582E29F
S11304600E94CB019927089583E20E94CB0199272A
S1130470089588E20E94CB0199270895A898A0982E
S113048089E20E94CB0180E090E008951F931FB79A
S1130490F8948091430D882341F483E00E94CB01BA
S11304A0882319F481E08093430D812F99278FBF0E
S11304B01F910895382FFA01422F293218F082E053
S11304C090E008956683872F992785833387418732
S11304D08091B6019091B701892B19F085E090E0E5
S11304E008952FB7F894332785E08093B9011092CB
S11304F0BA01F093B501E093B40182E090E09093E7
S1130500B7018093B6011092BC011092BB01445F05
S11305104093B8012FBF8FB7F894282F33278091C9
S1130520BC078A3011F42FBF19C02FBF9FB7F894AE
S11305308091DE03882311F020E006C081E08093DF
S1130540DE031092DF0321E0892F99278FBF222336
S113055029F00E94460280E090E008951092B701CD
S11305601092B60181E090E00895CF93DF93582F65
S1130570DB01823018F081E090E038C0C82FDD271D
S1130580CC0FDD1FC355DA4F88819981892B19F06F
S113059085E090E02BC0798368839B012B5F3F4FFC
S11305A0F901448380917C01823018F480E090E06A
S11305B01DC0F9018681FB0165817727762F6627A7
S11305C0F90121813327622B732B50937C01242F53
S11305D0AD010E945A029927282F882329F082E02E
S11305E080937C0119821882822F9927DF91CF9101
S11305F00895CF93DF93FB01DB011596ED01898309
S1130600892F9927858384E68E8381E00E94B50231
S11306109927DF91CF91089588E30E94CB01992710
S11306200895982F969596959695E6E2F2E0E90F4F
S1130630F11D877021E030E002C0220F331F8A953C
S1130640E2F780818223992708950F931F93182F2F
S11306508FB7F894282F3327022F8091DC01882349
S113066099F491E09093DC011093AF032FBF809134
S1130670DD01882321F48FE10E94CB0102C0909315
S1130680DE0180E090E023C08091AF03811711F474
S11306902FBFF7CF812F0E941103882319F085E023
S11306A090E014C0E12FE695E695E695FF27EA5D14
S11306B0FD4F177081E090E002C0880F991F1A95D2
S11306C0E2F72081282B208380E090E00FBF1F9168
S11306D00F91089581E00E94250399270895EF92D0
S11306E00F931F93AE2D99E0899FF0011124E95BCC
S11306F0F94F408351836283738304831583268374
S11307003783A17080858E7F8A2B8260808782E008
S11307100E94CB011F910F91EF9008957FB7F89439
S113072062B7209105023091060240910702509170
S1130730080206B601FE0FC081B792B7280F311D1B
S1130740411D511D2F5F3F4F4F4F5F4F290F311DEB
S1130750411D511D04C0260F311D411D511D872F00
S113076099278FBFCA01B9010895AF92BF92CF9262
S1130770DF92EF92FF920F931F93F82E5A016B01B1
S11307800E948E03AB01BC01B1E0EB2E9601850102
S11307908F2D0E946F031F910F91FF90EF90DF90B8
S11307A0CF90BF90AF900895782F522FBFB7F89491
S11307B08091BF028E7F8093BF0287B1A82FAF7153
S11307C0262F332782958695869583709927281737
S11307D0390719F020E030E013C0872F88508631A4
S11307E018F021E030E00CC0E0E0F0E0272F3327E0
S11307F08A2F99272817390711F4E1E0F0E09F01C7
S1130800E22FE1702E2F220F8091BF028178372FC3
S11308103F71932F990F990F822B892B8093BF02DD
S113082041704295440F407E40726295660F660F98
S1130830607C432B462B842F992787B9583061F568
S11308408091E90C9091EA0C21E08638920718F027
S113085027E030E020C0833C910518F026E030E02A
S11308601AC08136910518F025E030E014C08033B9
S1130870910518F024E030E00EC08831910518F09D
S113088023E030E008C08C30910518F022E030E01D
S113089002C020E030E0522F5770887D852B886D90
S11308A0992786B98B2F99278FBF8E2F9927089563
S11308B024E040E060E082E00E94D4030895982F91
S11308C0969596959695E6E4F6E0E90FF11D877006
S11308D021E030E002C0220F331F8A95E2F78081C5
S11308E08223992708950F931F93CF93DF93182F93
S11308F08FB7F894282F3327022F8091DA018823A9
S113090059F581E08093DA0110934D092FBF8FB719
S1130910F8949927379A8FBF8FB7F894C82FDD279B
S11309209C2F80918D018830A9F48091DA01813067
S113093021F48BE10E94CB0109C0823059F48091EB
S11309404D0980938D0183E08093DA01CFBF80E06D
S113095090E025C09FBFFBCF80914D09811711F412
S11309602FBFF5CF812F0E945F04882319F085E003
S113097090E014C0E12FE695E695E695FF27EA5B43
S1130980F94F177081E090E002C0880F991F1A9503
S1130990E2F72081282B208380E090E00FBFDF91D5
S11309A0CF911F910F9108958330A9F0843028F4DA
S11309B0813069F0823068F408C0853081F0853078
S11309C060F0863071F081E00FC080E00BC081E000
S11309D009C082E007C083E005C084E003C085E06D
S11309E001C086E00E947304992708958FB7F89494
S11309F099272091AF0320938E0123E02093DC01FB
S1130A008FBF80918E01882321F481E00E94D40459
S1130A100895813019F482E00E94D40408958FB7B8
S1130A20F89499271092F4011092F5011092F601AE
S1130A301092F7011092FF011092FE018FBF87E020
S1130A400E947304992708958FB7F89499272091E9
S1130A507400209387078FBF08951F93CF93DF936C
S1130A60982F8FB7F894282F3327422F8091E901CC
S1130A70882309F043C011E01093E9019093000228
S1130A802FBF8FB7F894C82FDD278091EA01882300
S1130A90C9F4909A919A889889981092710081E487
S1130AA08093700010927200109274000E942405CA
S1130AB08091870784608E7F80938707809374007A
S1130AC01093EA01CFBF8FB7F894C82FDD272C2FDE
S1130AD0909195019330B1F48091E901813021F432
S1130AE08AE20E94CB0108C0823061F48091000246
S1130AF0809395019093E901CFBF05C080910002D6
S1130B00891721F42FBF80E090E021C0E92FFF274F
S1130B10EE50F34F80818F3F89F4E0919401E917FF
S1130B2089F40CC09093930104C0FF27EE50F34F57
S1130B3090839093940180E090E002C085E090E07F
S1130B404FBF05C0809193018F3F79F7EBCFDF91C1
S1130B50CF911F9108950E942405809187078E7F6D
S1130B60806980938707809374000895982F9695E1
S1130B7096959695E0ECF2E0E90FF11D877021E07F
S1130B8030E002C0220F331F8A95E2F7808182236E
S1130B9099270895EF92FF920F931F93CF93DF93BA
S1130BA0982F8FB7F894E82E8091E001833009F0F4
S1130BB045C080918F01891709F040C08091C0021F
S1130BC0882309F045C03EC0EF2DE695E695E695ED
S1130BD0FF274F2D5527E054FD4F9A0127703070A1
S1130BE081E090E002C0880F991F2A95E2F7809572
S1130BF0208128232083C093DF0111C02196C230B5
S1130C00D10511F4C0E0D0E0FC2E8C2F0E94B60573
S1130C108823D1F6C017D10789F74FEF50E04093EE
S1130C20A3028FEF80938F0181E08093E00181E242
S1130C300E94CB01EFBE80E090E010C0EFBE81E0E7
S1130C4090E00CC082E080938F011092E001F2CF1B
S1130C508091DF01082F1127E801D0CFDF91CF91D8
S1130C601F910F91FF90EF900895982F9695969568
S1130C709695ECEBF2E0E90FF11D877021E030E08E
S1130C8002C0220F331F8A95E2F7808182239927BD
S1130C9008959C01685F693218F080E090E008953F
S1130CA00C9611F0C90144960895FC01892B69F052
S1130CB08091720C9091730C2FEF8F3F920729F063
S1130CC09183808380E090E0089581E090E008952E
S1130CD0AC012091D2012D3018F081E090E008950C
S1130CE08091D101E82FFF27EE0FFF1FEF5AF34F3A
S1130CF0518340838F5F8093D1018D3011F4109222
S1130D00D1012F5F2093D20180E090E008958FB746
S1130D10F89499272BB332E023272BBB8FBF089578
S1130D200F931F93182F8FB7F894282F3327022F70
S1130D308091F101882399F491E09093F10110934B
S1130D4088072FBF8091F201882321F480E30E9459
S1130D50CB0102C09093F30180E090E023C0809126
S1130D608807811711F42FBFF7CF812F0E94350612
S1130D70882319F085E090E014C0E12FE695E6950C
S1130D80E695FF27E454FD4F177081E090E002C020
S1130D90880F991F1A95E2F72081282B208380E081
S1130DA090E00FBF1F910F91089580E00E9490067C
S1130DB0992708959FB7F894292F3327422F9091AC
S1130DC08F01981741F48091E001833021F42FBF03
S1130DD081E090E008954FBF80E090E0089580E0C6
S1130DE00E94DA069927089581E00E94DA0699277D
S1130DF00895982F969596959695E7EBF5E0E90F6B
S1130E00F11D877021E030E002C0220F331F8A9564
S1130E10E2F78081822399270895982F96959695D5
S1130E209695EDE7FCE0E90FF11D877021E030E0D5
S1130E3002C0220F331F8A95E2F78081822399270B
S1130E4008958091F00C833099F0843028F4813037
S1130E5099F0823078F412C0853031F0853030F06A
S1130E60863071F428E031C028E02CC028E027C087
S1130E7028E022C028E01DC028E018C028E013C0E4
S1130E808330C9F0843028F4813079F0823080F4E2
S1130E9009C08530B1F0853088F08630A9F08FE143
S1130EA020E014C020E08EE111C020E083E00EC0F9
S1130EB020E084E00BC020E081E008C020E082E074
S1130EC005C020E086E002C020E085E040E060E06C
S1130ED00E94D403089591E09093E0038093F00C72
S1130EE00E94210780E090E00895AC01E8EBF5E072
S1130EF080E090E09C01858180FF05C08081918124
S1130F008417950741F0C90101963E968A309105F0
S1130F1089F72FEF30E0C90108950E9475078F3FCC
S1130F2099F09927880F991FFC0123E0EE0FFF1F0A
S1130F302A95E1F7E81BF90BE854FA4F858181FF04
S1130F4003C08285938508958FEF90E008950E94F1
S1130F5075078F3F19F481E090E008959927880F71
S1130F60991FFC0143E0EE0FFF1F4A95E1F7E81BD0
S1130F70F90BE854FA4F85818860858380E090E01E
S1130F8008952F923F924F925F926F927F928F9229
S1130F909F92AF92BF92CF92DF92EF92FF920F9304
S1130FA01F93CF93DF93CDB7DEB729970FB6F8948D
S1130FB0DEBF0FBECDBF6FB76983F8942090B7032F
S1130FC03090B8034090B9035090BA036624772454
S1130FD08824EEE4AE2E73E8B72ECC24DD24EE2470
S1130FE0FF2400E010E0222D332D442D552D662DD5
S1130FF0772D882D90E00E94F93D2A833B834C8312
S11310005D836E837F8388879987822E932EA42E97
S1131010B52E2401350100E20E94F73EA22EB32E24
S1131020C42ED52EA3019201569547953795279541
S11310302A0D3B1D4C1D5D1D57FF05C05F772F5FBB
S11310403F4F4F4F5F4F2093B7033093B803409304
S1131050B9035093BA03E9818E2F99278FBFCA0130
S1131060B90129960FB6F894DEBF0FBECDBFDF914C
S1131070CF911F910F91FF90EF90DF90CF90BF9091
S1131080AF909F908F907F906F905F904F903F9024
S11310902F9008959C016E5F693218F080E090E013
S11310A008950C9611F0C9010E960895FC0166830B
S11310B0672F772767830895FC0182819927582F2A
S11310C0442781819927482B592BCA01892F9927B5
S11310D086958695837090708230910559F083309F
S11310E0910559F0892B19F420E030E008C02CE96F
S11310F03FEF05C022E030E002C028E030E0CA0142
S113110084E0989F812D992711248230910559F00C
S11311108330910559F0892B19F480E090E008C0E0
S11311208CE99FEF05C082E090E002C088E090E087
S1131130280F391F2A5F3F4FCF01820F931F089555
S1131140282F9FB7F894662349F0E82FFF27EC5B1C
S1131150F74F8081882311F021E006C0E22FFF279A
S1131160EC5BF74F608320E0892F99278FBF822F94
S113117099270895E82F8FB7F894282F332790E004
S1131180FF27EC5BF74F8081861709F491E02FBFAE
S1131190892F99270895682F81E00E94BA0899271A
S11311A00895882311F06E9A08956E9808958823FF
S11311B011F06F9A08956F98089580E00E94D10805
S11311C0BA9ABB98B99AB89A6C9A80E00E94D708E8
S11311D06B986A9881E00E94D108709A8DB18C7FD7
S11311E08DB908950F931F93CF93DF93182F8FB763
S11311F0F894C82FDD270C2F61E080E00E94A0083E
S1131200882321F0CFBF85E090E024C08091800145
S11312108823A1F48091C801823081F409C082E05E
S11312208093C801109280010E94DD08B89AC0988A
S113123010937D0180E00FBF99270CC08091C801F5
S1131240882369F38FB7F8949927109244088FBFC5
S113125081E0F1CFDF91CF911F910F9108951F93FA
S1131260182F81E00E94D1081FB9779BFECF8FB160
S113127099271F9108958F929F92AF92BF92CF9218
S1131280DF92EF92FF920F931F93CF93DF938FB769
S1131290F8949927C090FF0CD090000D80904507DA
S11312A090904607C091AB05D091AC052091010206
S11312B0309102024AE0A42EB12CAC0EBD1E2A15B8
S11312C03B0508F459018FBF7401EC0EFD1E860125
S11312D00C0F1D1F14C0C114D10419F0F801808132
S11312E001C080E00E942F098114910411F0F701DC
S11312F0808321960894E11CF11C0F5F1F4FC501E8
S11313000197C817D90738F381E00E94D7089FB71F
S1131310F894C114D10431F0CC0EDD1EF6018081A5
S11313208FB901C01FB8D093AC05C093AB05892F0A
S113133099278FBF80E090E0DF91CF911F910F91AB
S1131340FF90EF90DF90CF90BF90AF909F908F90E1
S113135008952FB7F8943327509302024093010263
S11313609093000D8093FF0C70934607609345079C
S11313701092AC051092AB052FBF452B29F08FB10D
S11313800E943B099927089582E10E94CB0180E0E5
S113139090E008958FB7F8949927109246088FBF6C
S11313A00895FC01CB01428553859A0163E0220F25
S11313B0331F6A95E1F7240F351F2B5F3F4F820FD0
S11313C0931F6AE070E00E94084173876287089562
S11313D0FC0164859585662339F48AE0989FB00101
S11313E011246A5070400BC077278AE0989FC0018F
S11313F011240E941C416A50704014861586CF0146
S11314000E94D10908958091D001E82FFF27EE0FA3
S1131410FF1FEF5AF34F0190F081E02D2091D2018C
S1131420222351F08F5F8093D0018D3011F41092FC
S1131430D00121502093D201CF010895CF92DF92A1
S1131440FF920F931F93CF93DF936C01F0900B02E5
S113145060919F0570E08C01005F1F4F2CC0D60186
S11314601C96462F43705527E60128893327322FCF
S11314702227F80181819927282B392BFA01EE0FB5
S1131480FF1FEE0FFF1FE40FF51FE855FD4F80818E
S113149091812817390769F4ED019E8182818917AA
S11314A041F499818481891721F49F81838189176B
S11314B021F07F5F6F5F7F1591F6872F9927DF916A
S11314C0CF911F910F91FF90DF90CF9008950E94CC
S11314D01E0A20E030E090910B02891710F421E0FD
S11314E030E0C9010895AC012091E4032C3018F0D8
S11314F081E090E008958091BC03682F620F712D04
S1131500711DFB016C30710508F03C97EE0FFF1F55
S1131510EB5DF74F518340832F5F2093E40380E01A
S113152090E00895AC012091E3032C3018F081E0A1
S113153090E008958091F60C682F620F712D711D53
S1131540FB016C30710508F03C97EE0FFF1FE45B64
S1131550F24F518340832F5F2093E30380E090E0B8
S113156008950F931F93CF93DF93EC01892BE9F038
S11315702091720C3091730C8FEF2F3F3807A9F034
S113158080910C02813019F4198218820BC00091E9
S1131590740C1091750CC9010E948D07080F191F56
S11315A01983088380E090E002C081E090E0DF913D
S11315B0CF911F910F910895CF93DF93CDB7DEB7ED
S11315C02091AF013091B0012431310518F081E050
S11315D090E028C04091AD015091AE0186E190E0C9
S11315E0489FF001499FF00D589FF00D1124E951D7
S11315F0FC4FDE01159686E10D9001928150E1F7D2
S1131600CA01019664E170E00E9408419093AE0122
S11316108093AD012F5F3F4F3093B0012093AF0112
S113162080E090E0DF91CF910895CF92DF92EF9226
S1131630FF921F93CF93DF93CDB7DEB766970FB6B4
S1131640F894DEBF0FBECDBF6C017B01142F0E9446
S11316508706163149F58091A801882329F1DE0116
S11316601196F70186E101900D928150E1F78DB753
S11316709EB746970FB6F8949EBF0FBE8DBFEDB7C9
S1131680FEB73196DE01119686E10D9001928150EC
S1131690E1F70E94DC0A8DB79EB746960FB6F89420
S11316A09EBF0FBE8DBF03C0DA98D998D898C601E3
S11316B066960FB6F894DEBF0FBECDBFDF91CF9113
S11316C01F91FF90EF90DF90CF90089508950F93AE
S11316D01F93CF93DF93282F3327C901880F991FB6
S11316E0FC0113E0EE0FFF1F1A95E1F7E81BF90B5D
S11316F0E854FA4F858182FF03C062838B7F858320
S11317008281962F981B628383818F5F838386E017
S11317108683992361F08481890F815084839B306F
S113172030F0148281E08383178211861086C90108
S1131730880F991FFC01A3E0EE0FFF1FAA95E1F7A4
S1131740E81BF90BE854FA4F8381833008F471C025
S113175000811181C8EBD5E08881998180179107B8
S113176009F061C08D8180FF5EC08E81882311F0F5
S113177081508E838F81882311F081508F838E81D5
S1131780882351F48F81882339F48D8191E089274E
S11317908D831986188642C08D8182608D839B81DA
S11317A06C81690F633008F463E077278FEF989FAB
S11317B0C00111240E941C41888529E0829FC00138
S11317C011240596860F911D6AE070E00E941C4169
S11317D068871B821C824985662301F14423F1F04A
S11317E0772781E09EEF0E940841CB019B01F3E043
S11317F0220F331FFA95E1F7642F7727880F991F7B
S1131800820F931F0E9408416A5070406F3F710518
S113181019F010F06CE370E0772702C06CE370E01D
S1131820CE010E94D1092E9686E0C434D80709F06F
S113183093CFDF91CF911F910F91089580E090E0B5
S1131840EDEBF5E09C01808180FF08C0C9010196A1
S11318503E968A309105B1F72FEF30E0C901089523
S11318609EE0899FF0011124E854FA4F718360834C
S113187012821382148285E0858386E086838783BF
S113188010861186138612860895982FAFEF60E0B4
S113189070E040E050E0EDEBF5E08081282F332745
S11318A020FF0BC021FF09C023FD07C0258136811D
S11318B02617370710F0A42FB9014F5F5F4F3E96EC
S11318C04A30510551F7892F99276817790718F479
S11318D08FEF90E008958A2F99270895AC013091F5
S11318E025028FEF4F3F580711F020E012C0832FDD
S11318F099270895E22FFF2783E0EE0FFF1F8A95B3
S1131900E1F7E553FD4F808191818417950719F024
S11319102F5F231779F7822F992708951F93CF9369
S1131920DF93162FC0E0D0E066E20E944A08FC0173
S113193080818123811711F4C1E0D0E0CE01DF91D1
S1131940CF911F910895FC018081448555274F70E4
S113195050709A01220F331F240F351F821B8F50A2
S11319609927089580E880932202109261031092CF
S1131970F10C1092E70C1092C6020895CF93DF93F6
S1131980FC0111AEDC01DA96ED011B821A82198288
S113199080E882AFDF91CF9108958FB7F89460917A
S11319A0BD037091BE032CB53DB506B602FE04C05E
S11319B06F5F7F4F2CB53DB599278FBF8827992737
S11319C0CB017727662744275527622B732B842B5B
S11319D0952B0895EF92FF920F931F930E94CD0CC5
S11319E07B018C012091CB033091CC034091CD033A
S11319F05091CE038091C1039091C203A091C3037F
S1131A00B091C403820F931FA41FB51FE216F306FF
S1131A100407150730F082179307A407B50758F099
S1131A2005C082179307A407B507E0F5E816F90681
S1131A300A071B07B8F59C01AD012E193F09400B9D
S1131A40510B213060E8360760E0460760E0560736
S1131A5068F180E090E8A0E0B0E0E80EF91E0A1F0B
S1131A601B1FE092CB03F092CC030093CD031093A1
S1131A70CE0380E090E8AFEFBFEFE80EF91E0A1F37
S1131A801B1F20503048404050402093C1033093E6
S1131A90C2034093C3035093C40320E030E840E002
S1131AA050E014C020E030E040E050E08093CB03ED
S1131AB09093CC03A093CD03B093CE031092C103B3
S1131AC01092C2031092C3031092C403A901B70178
S1131AD02CB53DB5C9018E199F0903968417950746
S1131AE020F0B9016D5F7F4F02C0640F751F61154F
S1131AF0710511F461E070E0615070407BBD6ABD16
S1131B0080E186BF87B7806187BF1F910F91FF90E7
S1131B10EF9008950F931F930FB7F89411276093D4
S1131B20CB037093CC038093CD039093CE03209387
S1131B30C1033093C2034093C3035093C4030E9470
S1131B40EA0C0FBF1F910F91089597B79F7D97BF20
S1131B5090E296BF882319F08EB5806402C08EB5DA
S1131B608F7B8EBD87B7806287BF80E090E0089549
S1131B70AF92BF92CF92DF92EF92FF920F931F9397
S1131B80F82E5A016B010E948E03AB01BC01EE24B6
S1131B90960185018F2D0E946F031F910F91FF9075
S1131BA0EF90DF90CF90BF90AF90089556985798DC
S1131BB0109289071092A703539A549A579A8FB791
S1131BC0F89499271092BC07109264038FBF48E8D9
S1131BD053E160E070E081E00E94B80D80E00E9473
S1131BE0CB0108958091BC078A3021F4809164036D
S1131BF0843021F081E08093B101089585E00E9452
S1131C00CB011092B10108952FB7F89433278CB902
S1131C105E9A2FBF0895FC016115710519F481E0E6
S1131C2090E008958091D5039091D603892B19F003
S1131C3085E090E0089570937B0C60937A0CF093A8
S1131C40D603E093D5031092A6031092A50381E076
S1131C508093A7035E9A569A808121E030E0309306
S1131C60A6032093A5030E94040E80E090E008954B
S1131C708FB7F89499272091C2012E7F2093C20137
S1131C802EE72093A7028FBF61E070E087EA92E01D
S1131C900E940B0E992708951F93CF93DF938FB75C
S1131CA0F8941092430D2091BC0740E0283009F4C9
S1131CB041E030E0293009F431E0442311F43323C6
S1131CC051F01092BC07E0914406FF27EE0FFF1F6E
S1131CD0E452FC4F108299278FBF442311F433231D
S1131CE031F19FB7F8948091EF0C8F5F8093EF0CE4
S1131CF08091CA03833479F42091A4058091A305CB
S1131D00821779F0822F8F5F8093A405863048F084
S1131D101092A40506C0A0E0442309F4A1E071E0F8
S1131D2002C0A0E070E0892F99278FBF06C022234C
S1131D3011F010E06CC0A0E070E08FB7F894992720
S1131D402091B1018FBF222341F08FB7F8949927D6
S1131D502AE02093BC078FBF42C08FB7F89499271D
S1131D606091DC034091DE038FBF8FB7F894282F76
S1131D70332750E09091A3058091A405981709F4A6
S1131D8051E02FBF552341F5662331F55FB7F89431
S1131D9082E08093DC038FB7F894282F332740E048
S1131DA09091A3058091A405981709F441E02FBFF1
S1131DB0442311F080E006C0E091A405FF27ED550F
S1131DC0FA4F82818093DD0383E48093CA031092E7
S1131DD04406852F99270EC04150423010F010E080
S1131DE00BC08FB7F894992725E42093CA0321E008
S1131DF0209344068FBF11E0772349F08FB7F894FE
S1131E009927A093BA018FBF87E00E94CB018FB7B7
S1131E10F894C82FDD278091BC078A3021F40E94F2
S1131E20F20DCFBF1DC0CFBF1123D1F02FB7F8944F
S1131E3033271092660D1092650D1092C00381E055
S1131E408093BC072FBF0E94380E882349F08FB7B8
S1131E50F894992729E02093BC078FBF0E9446027B
S1131E60DF91CF911F910895DF92EF92FF920F932C
S1131E701F938FB7F894282F3327D22E91B782B7A8
S1131E8046B7981711F041FF02C02FBF6AC0809176
S1131E90A2058823E1F10E948E03E0904008F090AF
S1131EA04108009142081091430820911E0230918C
S1131EB01F0240912002509121026E197F09800B6C
S1131EC0910B621773078407950720F01092A205FF
S1131ED071E01EC02E0D3F1D401F511F8091050251
S1131EE090910602A0910702B0910802281B390BB9
S1131EF04A0B5B0B273E31054105510540F4822F07
S1131F00223010F070E005C070E082E002C070E0A2
S1131F1086EE682F615000B601FCFDCF82B76817CA
S1131F2009F46F5F20910502309106024091070287
S1131F3050910802DA01C9010196A11DB11D860F55
S1131F40911DA11DB11D82179307A407B50710F4B5
S1131F50622F609561BFDFBE772319F081E00E9494
S1131F60CB011F910F91FF90EF90DF900895AFB7D1
S1131F70F894BB27E1E0E093A205609340087093D6
S1131F804108809342089093430820931E023093A3
S1131F901F024093200250932102AFBF0E94340FCE
S1131FA00895AF92BF92CF92DF92EF92FF920F9378
S1131FB01F93CF93DF93CDB7DEB728970FB6F8946E
S1131FC0DEBF0FBECDBF20E070E0E0917301F09161
S1131FD0740132E14DE65CE46FE4809174019E2F5C
S1131FE028960FB6F894DEBF0FBECDBFDF91CF9118
S1131FF01F910F91FF90EF90DF90CF90BF90AF9023
S113200008958FB7F894282F3327922F8091BC0717
S11320108A3041F080916403843021F02FBF89E03D
S113202090E008959FBF84E00E94CB0180E090E09F
S113203008951F920F920FB60F9211248F9383B7B6
S113204083BF00B600FCFDCF8F910F900FBE0F90A1
S11320501F901895EEEFF0E06927660FF11DE60F6B
S1132060F11DC895982F802D3196C8959025089517
S1132070982F8091BD01882389F5992379F531E062
S11320803093BD01809175018093BE012091B2010E
S1132090822F81708093240280917A0190917B0138
S11320A09093C0018093BF018091B3018093C101DB
S11320B032273170267EE32FFF27EE0FFF1FEA58E9
S11320C0FE4F8081918190937B0180937A01232B31
S11320D02093B20188E00E94CB0108958091B2015F
S11320E080FF02C08B7F01C08D7F8093B201089571
S11320F00F931F93082F162F809164038130D9F01A
S1132100813038F0823009F44AC0833009F028C1A4
S113211059C0002309F458C110926E0C10926D0C32
S11321201092240810927E0C1092A8031092B40509
S11321301092B30539C1002309F046C18091B3055B
S11321409091B4050E942A109093B4058093B3052E
S113215082E08093640310937E0C143409F000C170
S113216025C18695869503C08091B20186958170BC
S113217009F0F6C08091B201992311F0846001C086
S113218082608093B2018091B201877E88608093DF
S1132190B2011092B3018FEF8093750115C1002332
S11321A009F0DEC06093A8038091B3059091B40553
S11321B00E942A109093B4058093B30583E0809322
S11321C0640302C1809124088F3F09F4C9C000232D
S11321D009F461C0823008F4C3C0E0916D0CEE23B1
S11321E009F4EBC04E2F4150E42FFF27E359F34F7E
S11321F082819927382F2227442311F4E2E002C078
S1132200E42FE150FF27E359F34F82819927282BCC
S1132210392B8091B3059091B4052817390709F03B
S11322209FC080E00E9438103091A8038091A305DC
S11322302091A405982F9F5F963008F090E09217A4
S113224071F0E82FFF27ED55FA4F32838F5F8093AB
S1132250A305863010F01092A3050E944602109246
S11322606E0C10926D0C94E0909364031092240809
S113227010927E0C1092A8031092B4051092B3052C
S11322808091C2018D7F8093C2018091B101882326
S113229009F49AC084C0823008F44EC0E0916E0CF8
S11322A0FF27E359F34F8281482F5527342F20917C
S11322B0B201822F86958695869583709927813001
S11322C0910519F00297F9F40EC0277E206120933E
S11322D0B201442311F485E001C080E08093B3018E
S11322E03093750110C08091B301803460F4E091A3
S11322F07A01F0917B01E80FF11D40838091B301D5
S11323008F5F8093B30180916E0CE82FFF27E35910
S1132310F34F62818F5F80936E0C833010F01092C4
S11323206E0C77278091B3059091B4050E942A1012
S11323309093B4058093B30580916D0CE82FFF272B
S1132340E359F34F12838F5F80936D0C833010F049
S113235010926D0C809124088F5F8093240834C000
S113236010926E0C10926D0C14E010936403109292
S1132370240810927E0C1092A8031092B4051092B7
S1132380B3058091C2018D7F8093C20181E00E94D8
S113239038108091B101882329F0109364030E94BE
S11323A0F20D12C0002381F081E009CF8091B201C7
S11323B0982F917080FDD5CED7CE8091710C99273E
S11323C0382F222742E01CCF1F910F9108951F92AE
S11323D00F920FB60F9211242F933F934F935F9355
S11323E06F937F938F939F93AF93BF93EF93FF93D9
S11323F05F9B3DC06CB1E091B505F091B605309797
S1132400F9F08091410D9091420DE80FF91F60831E
S113241001969093420D8093410D2091670D309168
S1132420680D8217930718F11092B6051092B5053E
S1132430809189078330D9F057981092890717C083
S11324406E3719F460E081E010C08091C2016D37ED
S113245021F482608093C2010AC081FF05C08D7F90
S11324608093C20180E2682780E00E947810FF9187
S1132470EF91BF91AF919F918F917F916F915F91F8
S11324804F913F912F910F900FBE0F901F90189571
S1132490982F8D57823068F48091C20181608093B7
S11324A0C20180E28927809323088DE78093A702E5
S11324B002C09093A70261E070E087EA92E00E9474
S11324C00B0E9927089578941F920F920FB60F92CE
S11324D01124FF920F931F932F933F934F935F9376
S11324E06F937F938F939F93AF93BF93CF93DF9318
S11324F0EF93FF932091A5033091A60380917A0C6A
S113250090917B0C2817390780F4E091D503F09162
S1132510D603E20FF31F80812F5F3F4F3093A60352
S11325202093A5030E94040ECDC01092D6031092EE
S1132530D5031092A7035698FFB6F8948091C20170
S113254080FF0EC08E7F8093C20180912308809308
S1132550A70261E070E087EA92E00E940B0EAFC030
S11325608091BC07843009F48CC0853040F48230FB
S113257021F18330B8F5813009F09CC00DC086305C
S113258009F48DC0863008F483C0873009F48EC006
S1132590883009F08FC091C08091CA030E9448120C
S11325A0082F83E08093BC076091CA038091650D76
S11325B09091660D0E942A1010C08091EF0C0E9429
S11325C04812082F83E08093BC076091EF0C809140
S11325D0650D9091660D0E942A109093660D80936C
S11325E0650D66C0E0914406FF27EE0FFF1FE3521E
S11325F0FC4F80810E944812082F10914406C12F7D
S1132600DD27FE01EE0FFF1FE352FC4F6081809136
S1132610650D9091660D0E942A109093660D80932B
S1132620650D2091C0032F5F2093C003113039F54D
S11326308091B901E091B401F091B501E80FF11D69
S1132640E0818F5F8093B9019091B801981730F4BD
S113265082E08093DE0340E050E002C04E2F552715
S1132660DE01AA0FBB1FFD01E452FC4F80818230C2
S113267031F02F3F21F0A352BC4F4C9319C084E09A
S113268012C08091650D0E944812082F85E00BC08E
S11326908091660D0E944812082F86E004C00E94B3
S11326A0380E082F87E08093BC0702C088E003C07F
S11326B0002329F089E08093BC070E9446028F2DF5
S11326C099278FBFFF91EF91DF91CF91BF91AF9188
S11326D09F918F917F916F915F914F913F912F9136
S11326E01F910F91FF900F900FBE0F901F901895A0
S11326F01F920F920FB60F9211248F9380919B001B
S113270087FF02C080919C008F910F900FBE0F90A5
S11327101F90189578941F920F920FB60F92112460
S11327200F900FBE0F901F90189578941F920F92E0
S11327300FB60F9211240F900FBE0F901F90189593
S113274078941F920F920FB60F9211240F900FBE20
S11327500F901F90189578941F920F920FB60F92B6
S113276011240F900FBE0F901F90189578941F920C
S11327700F920FB60F9211248F939F938091800034
S1132780909181009F918F910F900FBE0F901F9099
S1132790189578941F920F920FB60F9211242F93CD
S11327A03F938F939F932FB7F89433278091B1056C
S11327B09091B20501969093B2058093B1052FBF15
S11327C09F918F913F912F910F900FBE0F901F906B
S11327D0189578941F920F920FB60F9211240F90B0
S11327E00FBE0F901F90189578941F920F920FB6FA
S11327F00F9211240F900FBE0F901F90189578948C
S11328001F920F920FB60F9211242F933F938F9321
S11328109F932FB7F89433278091BD039091BE0303
S113282001969093BE038093BD032FBF9F918F9118
S11328303F912F910F900FBE0F901F9018951F92EC
S11328400F920FB60F9211240F900FBE0F901F908E
S113285018951F920F920FB60F9211240F900FBE6E
S11328600F901F9018951F920F920FB60F9211247C
S11328700F900FBE0F901F9018951F920F920FB6D6
S11328800F9211240F900FBE0F901F9018951F9256
S11328900F920FB60F9211240F900FBE0F901F903E
S11328A018951F920F920FB60F9211240F900FBE1E
S11328B00F901F9018951F920F920FB60F9211242C
S11328C00F900FBE0F901F9018951F920F920FB686
S11328D00F9211242F933F934F935F936F937F93A2
S11328E08F939F93AF93BF93EF93FF9383B783BF6C
S11328F000B600FCFDCF81B799270196AA27BB2714
S1132900209105023091060240910702509108027D
S1132910280F391F4A1F5B1F2093050230930602BC
S1132920409307025093080278940E94340FFF9159
S1132930EF91BF91AF919F918F917F916F915F9133
S11329404F913F912F910F900FBE0F901F901895AC
S1132950EF92FF920F931F93CF93DF93982F8FB72C
S1132960F894E82E8091DA01833009F045C0809113
S11329708D01891709F040C080914606882309F02B
S113298046C03EC0EF2DE695E695E695FF274F2D10
S11329905527EA5BF94F9A012770307081E090E087
S11329A002C0880F991F2A95E2F780952081282379
S11329B02083C093D90111C02196C830D10511F4E8
S11329C0C0E0D0E0FC2E8C2F0E945F048823D1F657
S11329D0C017D10789F74FEF50E040934D098FEFAF
S11329E080938D0181E08093DA018BE10E94CB0119
S11329F0EFBE80E090E011C0EFBE81E090E00DC03A
S1132A0088E080938D011092DA013798F1CF80919C
S1132A10D901082F1127E801CFCFDF91CF911F9162
S1132A200F91FF90EF9008950F931F93CF93DF932F
S1132A30182F8FB7F894282F3327022F8091E001A5
S1132A40882331F581E08093E0011093A3022FBF26
S1132A508FB7F894C82FDD279C2F80918F01823087
S1132A60A9F48091E001813021F481E20E94CB013C
S1132A7009C0823059F48091A30280938F0183E0CE
S1132A808093E001CFBF80E090E025C09FBFFBCFE3
S1132A908091A302811711F42FBFF5CF812F0E94DB
S1132AA0B605882319F085E090E014C0E12FE6957F
S1132AB0E695E695FF27E054FD4F177081E090E01E
S1132AC002C0880F991F1A95E2F72081282B2083D2
S1132AD080E090E00FBFDF91CF911F910F91089597
S1132AE080E00E9414159927089581E00E9414152E
S1132AF09927089581E00E94CA058091E8018130F8
S1132B0011F40E9414158FB7F89499271092E801D4
S1132B101092E7018FBF0895982F4091E901433047
S1132B2009F046C080919501891709F041C0809150
S1132B30930120E030E08F3F11F421E030E0232BBB
S1132B40F9F48F3F19F42FEF30E00EC0282F33270C
S1132B50F901EE50F34F8081809393018F3F11F47C
S1132B60809394018FEF8083209300028FEF8093F2
S1132B70950181E08093E9018AE20E94CB0115C0AE
S1132B80409395011092E9018091EA01813069F442
S1132B900E942405809187078A7680938707809313
S1132BA07400909891981092EA0180E090E0089562
S1132BB081E090E00895EF92FF920F931F93CF93DB
S1132BC0DF93982F8FB7F894E82E8091DC0183303F
S1132BD009F045C080918E01891709F040C08091A9
S1132BE02602882309F049C03EC0EF2DE695E695FC
S1132BF0E695FF274F2D5527EA5DFD4F9A01277073
S1132C00307081E090E002C0880F991F2A95E2F7A6
S1132C108095208128232083C093DB0111C0219655
S1132C20C230D10511F4C0E0D0E0FC2E8C2F0E94FC
S1132C3011038823D1F6C017D10789F74FEF50E06D
S1132C404093AF038FEF80938E0181E08093DC018A
S1132C508EE10E94CB01EFBE80E090E014C0EFBE95
S1132C6081E090E010C082E080938E011092DC013C
S1132C7081E08093DD0180E2ECCF8091DB01082FBD
S1132C801127E801CCCFDF91CF911F910F91FF90D5
S1132C90EF900895EF92FF920F931F93CF93DF93DA
S1132CA0982F8FB7F894E82E8091F101833009F0C2
S1132CB045C080919801891709F040C08091BC02F9
S1132CC0882309F049C03EC0EF2DE695E695E695C8
S1132CD0FF274F2D5527E454FD4F9A01277030707C
S1132CE081E090E002C0880F991F2A95E2F7809551
S1132CF0208128232083C093F00111C02196C23083
S1132D00D10511F4C0E0D0E0FC2E8C2F0E943506D2
S1132D108823D1F6C017D10789F74FEF50E04093CD
S1132D2088078FEF8093980181E08093F1018FE20F
S1132D300E94CB01EFBE80E090E014C0EFBE81E0C2
S1132D4090E010C082E0809398011092F10181E03C
S1132D508093F20181E3ECCF8091F001082F1127D9
S1132D60E801CCCFDF91CF911F910F91FF90EF90AD
S1132D7008950F931F93182F0FB7F89461E080E024
S1132D800E94A008882371F510937D018091800131
S1132D908823A9F58091C801823089F581E10CC0AE
S1132DA00E94DD088091C801882349F481E0809362
S1132DB0C8011092C90283E10E94CB012AC080910C
S1132DC0C9038F3F31F5E0917F01EE2311F11CC05F
S1132DD010927E0104C0FF27E753FC4F108210922B
S1132DE07F0117C081E090E002C0880F991F1A95F7
S1132DF0E2F72091C701282B2093C7010AC08091D4
S1132E00C8018823E1F6CCCF80917E018F3F19F76A
S1132E10DFCF802F99278FBF80E090E01F910F9123
S1132E2008951F9383E00E94F2089927182F88239E
S1132E3019F083E00E94B916812F99271F910895F4
S1132E401F920F920FB60F9211240F931F932F937B
S1132E503F934F935F936F937F938F939F93AF931E
S1132E60BF93CF93DF93EF93FF93C4B1D5B178941D
S1132E708FB7F89499272091BF02122F16951170DD
S1132E8021708FBF222309F0BAC033980FB7F8948A
S1132E908091F4019091F501A091F601B091F701B0
S1132EA0FC01EE0FFF1FE354F84FD183C08301965A
S1132EB0A11DB11D8093F4019093F501A093F60137
S1132EC0B093F701212F33273F932F93DF93CF93B1
S1132ED0BF93AF939F938F9380E091E09F938F93E1
S1132EE00E94BB418091F4019091F501A091F601FB
S1132EF0B091F7012DB73EB7265F3F4F0FB6F89458
S1132F003EBF0FBE2DBF82339105A105B10508F464
S1132F1043C01092F4011092F5011092F601109240
S1132F20F70180E090E060E070E0EDEBF7E02081F5
S1132F30318141E02D32340720F06F5F7F4F820FE3
S1132F40931F329628E0E132F20789F76115710583
S1132F5069F00E941C417093FF016093FE0187E0B9
S1132F600E94A81487E30E94CB012CC01F921F92D9
S1132F701F921F928AE391E09F938F930E94BB411B
S1132F8086E30E94CB018DB79EB706960FB6F894E0
S1132F909EBF0FBE8DBF16C0BF93AF939F938F93F9
S1132FA088E591E09F938F930E94BB4186E30E9442
S1132FB0CB012DB73EB72A5F3F4F0FB6F8943EBF03
S1132FC00FBE2DBF802F99278FBF8091E0038130E2
S1132FD021F0823009F039C00AC0112351F0D09396
S1132FE0BB07C093BA078CE10E94CB012EC011230A
S1132FF019F40E94210729C01092E00326C08FB75C
S1133000F89499278FBF2FB7F894332786B1582F98
S11330105770482F4072987D942B952B8074977B22
S1133020982B90619F77892F992786B9887D842B67
S1133030852B87738061992786B9887D842B852B9E
S1133040877B8069992786B92FBFFF91EF91DF9124
S1133050CF91BF91AF919F918F917F916F915F912C
S11330604F913F912F911F910F910F900FBE0F9091
S11330701F9018958091FA018C3118F04CE150E0C2
S113308002C0482F55278CE1EDE0FDE011928A95AE
S1133090E9F79091FA018091F80120E030E0ADE089
S11330A0BDE00FC0E82FFF27ED5AF74FE0819923C9
S11330B029F08F5F8A3F09F480E09150ED932F5FF0
S11330C03F4F2417350771F79093FA018093F80165
S11330D04CE161E07DE08FEF9FEF0E94F9028823CD
S11330E019F088E30E94CB0108958FB7F894282F34
S11330F033278091FB01813021F42FBF80E090E0E1
S1133100089590E08091FA01882309F491E09923CD
S113311021F02FBF81E090E0089581E08093FB01CE
S11331202FBF0E943A1880E090E008951F93182F53
S11331308091FB01882349F48091FA018D3728F0AE
S113314081E08093FB010E943A188FB7F894282FEE
S113315033279091FA019A3FA8F48091F901E82F5E
S1133160FF27ED5AF74F10838F5F8093F9018A3F51
S113317011F41092F9019F5F9093FA012FBF80E040
S113318090E003C02FBF8FEF9FEF1F910895662338
S113319051F48091FA01882319F00E943A18089595
S11331A01092FB01089588E30E94CB0108950F93C8
S11331B01F938091F50C882389F110E001E02091A0
S11331C0F50C822F802311F1E12FFF27EE0FFF1F53
S11331D0E355FA4F4081518111821082802F8095EE
S11331E028232093F50C112319F0113079F409C028
S11331F04052534081F41092AA0180E00E94CB0116
S11332000AC063E0CA010E94C71805C01F5F1830D6
S113321028F4000FD4CF000F1F5FD1CF1F910F915F
S11332200895CF93DF93EC010E946E0C282F8091B8
S113323025022817D1F0382F31503093250213C0BE
S1133240822F992743E0880F991F4A95E1F7DC0103
S1133250A553BD4FFC01ED52FD4F88E001900D9246
S11332608150E1F72F5F231758F38091720C9091EE
S1133270730C8C179D07A1F48FEF9FEF9093730C41
S11332808093720C1092750C1092740C1092760C40
S11332901092770C81E08093D80189E10E94CB01E0
S11332A0DF91CF910895EF92FF920F931F93CF93E5
S11332B0DF93182F7B01042F8FB7F894C82FDD27D5
S11332C060E080E00E94BA08882321F0CFBF80E04C
S11332D090E014C0CFBF1064812F99279093D80336
S11332E08093D7030E942F09182F402F5527B70129
S11332F080E090E00E94A909812F9927DF91CF9166
S11333001F910F91FF90EF900895C0986091FC0178
S11333107091FD0141E08FE30E945319089582E00A
S113332090E0909362028093610281E08093610354
S113333020E030E080917D01843011F421E030E020
S1133340232B29F484E00E94F208882319F40E94B4
S11333508519089584E00E94B91608951F920F926A
S11333600FB60F9211242F933F934F935F936F9354
S11333707F938F939F93AF93BF93EF93FF9380912A
S1133380610290916202019749F482E090E0909387
S11333906202809361020E948F1905C08091C60267
S11333A08F5F8093C602FF91EF91BF91AF919F9180
S11333B08F917F916F915F914F913F912F910F90DA
S11333C00FBE0F901F9018951F938091C7018823FB
S11333D009F04BC010917D011F3F09F046C060E029
S11333E00E94BA08882309F440C081E080934F0CFE
S11333F0809127028823E1F110924F0C85E090E040
S113340045C0923069F5C09A80917E0120E030E099
S11334108F3F11F421E030E0232BE9F41093800175
S11334208F3F19F42FEF30E00DC0282F3327F90117
S1133430E753FC4F808180937E018F3F11F41093FA
S11334407F0110832093C90281E08093C80183E146
S11334500E94CB0105C0109380011092C80111C0D5
S11334608091C801882369F00FC081E090E00EC00C
S1133470809180019091C801882319F2923021F043
S1133480EFCF80E00E94D10880E090E01F91089582
S11334901F93CF93DF939FB7F894C92FDD271C2F79
S11334A090917D01981721F0CFBF81E090E03AC060
S11334B08FEF80937D013091C7013323F1F48FB7EF
S11334C0F8949927109244088FBF0E94E419CFBF43
S11334D011C020937D0181E090E002C0880F991F04
S11334E04A95E2F7809538233093C70181E10E9421
S11334F0CB011FBF80E090E015C080E065E0E32FC2
S1133500FF270E94FC40292F492F5527CF01042E65
S113351002C0959587950A94E2F780FDDACF822F51
S11335208F5FEFCFDF91CF911F91089583E00E94C9
S1133530481A992708951F93CF93DF938FB7F89470
S1133540C82FDD271C2F8091610290916202892B84
S113355029F484E00E94481ACFBF1EC01092610370
S11335608091C602882311F0B79904C00E9908C04F
S1133570882319F081508093C6020E948F190BC0D2
S113358081E090E090936202809361021092C602FF
S113359084E00E94481A1FBFDF91CF911F910895C4
S11335A0FF920F931F93CF93DF93F82E8B018FB766
S11335B0F894C82FDD2760E080E00E94BA088823D1
S11335C021F0CFBF80E090E00CC0CFBF8F2D0E94D0
S11335D02F09812F99270E942F09802F0E942F09DC
S11335E09927DF91CF911F910F91FF9008951F9319
S11335F01FB7F8948091C502882319F460E070E045
S113360009C060E08091FC0C882309F461E081E04A
S1133610682777278091B003882319F480E090E02D
S11336200AC090E080914A08882309F491E081E07F
S11336309827892F9927762F6627770F770F770F8B
S1133640E4E0880F991FEA95E1F7826E9262682B95
S1133650792B81E10E94D01A812F99278FBF1F9166
S113366008958FB7F894992760914E098FBF85E02C
S1133670689FB0011124625D7E4F706488E10E94EE
S1133680D01A0895BC018DE10E94D01A992708959B
S1133690EF92FF921F93CF93DF93E090B103F090EA
S11336A0B203F70186A99927182F882309F41FE18B
S11336B0C0988091BE02811749F0612F77276F71FE
S11336C07070606E706885E10E94D01A1093BE021B
S11336D0F70110818FB7F894C82FDD2760E080E0F0
S11336E00E94BA08882311F0CFBF12C0CFBF8EE367
S11336F090E09093D8038093D7038EE30E942F0920
S11337001150412F552760E070E0C7010E94A909BC
S1133710DF91CF911F91FF90EF9008950F931F9326
S1133720CF93DF93EC010FB7F89411270E945C0844
S1133730FC018FE380830FBF1092F80C1092F70CFA
S113374061E082E00E94A008882319F085E090E0FF
S113375072C08091500C8F5F8093500C81508B838A
S11337608FB7F894082F112762E081E00E94BA080D
S1133770882329F40FBF0E94CA0981E05BC08FB778
S1133780F894992724E0209345088FBFD093E6034B
S1133790C093E5030FBFFE013196818129819927EA
S11337A0982F88273327822B932B80729C7C8983C4
S11337B0892F992781832981982F8827332721648A
S11337C0822B932B8983892F9927818318AE1CAA76
S11337D01DAA1DAE1CAE1BAE80E88AAF61E06093EB
S11337E048084091E5035091E6038FB7F894282FD9
S11337F033278091C9019091CA018830910511F055
S1133800019711F02FBF15C082E090E09093CA0198
S11338108093C90160934B0D5093B2034093B1035D
S1133820109203022FBF0E941117882311F40E94E3
S1133830481B80E09927DF91CF911F910F91089544
S1133840CF93DF93DA01422F293218F082E090E01F
S11338505EC0ED018B876E83872F99278F832FB7E7
S1133860F89433278091A9039091AA032FBFFD01F7
S11338708483892F992785832FB7F89433278091E0
S11338808101909182012FBF8887892F9927898789
S11338903196818129819927982F8827332720649D
S11338A03868822B932B8983892F99278183435FDF
S11338B04C934D5080918401882359F010928401D7
S11338C0642FCD010E948E1B9927282F8823A9F4E9
S11338D017C0842F99279093E2038093E103B09358
S11338E0CE01A093CD0185E10E94CB01809184019A
S11338F0882349F489E090E00AC08FEF8093840123
S1133900822F992704C01092BB0380E090E0DF91DE
S1133910CF910895CF93DF93582FFB01823018F095
S113392081E090E033C0C82FDD27CC0FDD1FCD55DB
S1133930D34F88819981892B19F085E090E026C0C6
S113394079836883435F40834D508091870182303F
S113395018F480E090E01AC0838567817727762F7A
S1133960662726813327622B732B50938701242FDC
S1133970AF010E94201C9927282F882329F082E078
S11339808093870119821882822F9927DF91CF9122
S11339900895AF92BF92CF92DF92EF92FF920F936E
S11339A01F93CF93DF938091D701882309F0BAC086
S11339B0E091C703F091C80310828091720C90913A
S11339C0730CE091C703F091C8038283892F992770
S11339D0818380910C02882329F08091740C90914A
S11339E0750C20C08091720C9091730CC091740C72
S11339F0D091750C2FEF8F3F920781F4E091C703AC
S1133A00F091C803C4838D2F99278383E091C70362
S1133A10F091C8038081806880830CC00E948D0768
S1133A208C0F9D1FE091C703F091C8038483892FF5
S1133A3099278383E1E7CE2EE3E0DE2E68E0C6011A
S1133A400C970E944A0875E0E72EF12CE80EF91E47
S1133A5010E040E0AA24BB2403E08091D40199271C
S1133A6001968A0D9B1D6AE070E00E941C419C0136
S1133A709927880F991FDC0153E0AA0FBB1F5A95A1
S1133A80E1F7A81BB90BA854BA4FED018D81992712
S1133A9080FF11C081FF0FC08D919C91109FF00198
S1133AA01124EE0DFF1D8183892F9927808388853A
S1133AB082831F5F422FE9E0AE16B10429F0089417
S1133AC0A11CB11C1B3048F24093D4018091D30156
S1133AD08F5F8093D3018150E6018983812F8F709A
S1133AE0809371036FEF7FEF85E693E00E945608A1
S1133AF080E78093700383E0189FC0011124895FDD
S1133B00482F552765E673E081E00E948A1C9927B7
S1133B10882321F481E08093D70104C0843011F418
S1133B201092D501DF91CF911F910F91FF90EF90EB
S1133B30DF90CF90BF90AF900895CF92DF92EF9235
S1133B40FF920F931F93CF93DF938C01F62E6A019C
S1133B50E22E8FB7F894C82FDD2760E080E00E9442
S1133B60BA08882321F0CFBF80E090E01EC0CFBF09
S1133B700F0D111D802F80680E942F09F82E1695B5
S1133B800795802F807C0E942F090E2D0AC0EE2DF0
S1133B90FF27E01BF109EC0DFD1D80810E942F0918
S1133BA001500023A1F78F2D9927DF91CF911F9109
S1133BB00F91FF90EF90DF90CF900895CF93DF9314
S1133BC0CDB7DEB72C970FB6F894DEBF0FBECDBFCE
S1133BD08FB7F894282FAE014F5F5F4FDA01EBE403
S1133BE0F8E088E001900D928150E1F78091A903FB
S1133BF09091AA038987892F99278A878091CF0377
S1133C009091D0038B87892F99278C872FBF2CE025
S1133C1060E080E691E00E949D1D2C960FB6F8941A
S1133C20DEBF0FBECDBFDF91CF9108951F93CF9319
S1133C30DF93182F8FB7F894C82FDD2760E080E05A
S1133C400E94BA08882321F0CFBF80E090E005C02D
S1133C50CFBF812F0E942F099927DF91CF911F9108
S1133C6008950E94B20CC09AC09888E00E94161E63
S1133C7088E00E94161EC09A84E00E94481A0E949E
S1133C809B1A08951F93182F81E090E09093CA0126
S1133C908093C901109227020E94E4198FB7F89407
S1133CA099271093C3018FBF8DE00E94CB011F9110
S1133CB00895CF92DF92FF920F931F93CF93DF93D8
S1133CC0082F6B01F42EE82FFF27EE0FFF1FE3559B
S1133CD0FA4F1182108280917C019927019662E04B
S1133CE070E00E941C41682F80937C0110E0462FF5
S1133CF05527FA01EE0FFF1FE355FA4FA081B1815A
S1133D00109799F0E62FE695E695E695FF27EB5098
S1133D10F34F808199279A012770307002C09595DE
S1133D2087952A95E2F780FF0DC0CA01019662E0EB
S1133D3070E00E941C41682F1F5F1230C1F610937F
S1133D407C011AC060937C016230B0F4FD013596A9
S1133D5024813327ED016D817727762F66278181B2
S1133D609927682B792BAD0186810E945A028823FA
S1133D7019F08AE00E94CB01002319F0013081F48C
S1133D800BC080E2C81683E0D80651F41092AA0151
S1133D9080E00E94CB0104C06F2DC6010E94C718A9
S1133DA0DF91CF911F910F91FF90DF90CF900895F5
S1133DB080917C01E82FFF27EE0FFF1FE355FA4F98
S1133DC06081718141E00E94591E08951F93182F4C
S1133DD00E942405809187078A7F809387078093B8
S1133DE074000E942405809187078460809387076C
S1133DF08093740081E08093EA018091EB01882331
S1133E0021F580919601813059F0813018F082308B
S1133E10E1F40FC00E94AB0580E00E948C1515C030
S1133E200E94AB0581E00E948C151093C4028EE2BF
S1133E300AC00E94AB0582E00E948C15112311F484
S1133E4082E301C083E30E94CB011F910895EF92A6
S1133E50FF920F931F93F62EE22E9FB7F894292F0B
S1133E60332790919601981711F02FBFA5C02FBF4B
S1133E708FB7F894282F33278091EA01813041F5D8
S1133E8082E08093EA012FBF8FB7F894992750936B
S1133E90B4034093B3031093C8020093C702E092A3
S1133EA004026093640D10927C0C1092EB018FBF9E
S1133EB00E9424058FB7F894182F90918707916C6E
S1133EC09F7E909387076F2D772760FD0BC011C0ED
S1133ED0882321F42FBF84E090E078C02FBF85E0D1
S1133EE090E074C090629093870784E08093EA0125
S1133EF066C0EE2009F452C083E08093EA01209169
S1133F007C0C80910402281778F4E091C702F091A8
S1133F10C802E20FF11D8081809373002F5F20930C
S1133F207C0C909374004FC0292F2E7F2093870719
S1133F308091640D81FF07C08D7F8093640D2061A3
S1133F402093870703C09E77909387078091870704
S1133F508093740081E08093EA018091960181301E
S1133F6059F0813018F0823071F50FC00E94AB0512
S1133F7080E00E948C1527C00E94AB0581E00E945E
S1133F808C151092C4028EE206C00E94AB0582E03A
S1133F900E948C1582E30E94CB0115C061FF08C00A
S1133FA085E08093EA019F7B90619093870707C027
S1133FB081E08093EA011FBF81E090E007C0809117
S1133FC08707809374001FBF80E090E01F910F91DA
S1133FD0FF90EF9008951F920F920FB60F92112445
S1133FE02F933F934F935F936F937F938F939F93FD
S1133FF0AF93BF93EF93FF930E9424058091EA014E
S1134000843009F4E5C0863021F0833009F00DC115
S113401044C090917100987F8091EB01813041F40C
S11340209034C9F583E08093EA0120917C0C4AC066
S1134030983189F583E08093EA0190917C0C80911A
S1134040040220918707981708F478C0922F9E7F66
S1134050909387078091640D81FF07C08D7F8093C3
S1134060640D90619093870703C02E772093870790
S1134070809187078093740081E08093EA018091A6
S11340809601813009F492C0813008F489C08230ED
S113409009F0CBC094C084E0B0C08091EB01909152
S11340A07C0C813009F044C0E091C702F091C80251
S11340B0E90FF11D80917300808320917C0C2F5FA8
S11340C020937C0C809104022817A0F433279927AD
S11340D001972817390749F48091640D82FD05C0C2
S11340E0809187078F7B80938707809187078093D0
S11340F074009BC090918707292F2E7F20938707F8
S11341008091640D81FF09C08D7F8093640D2061CF
S1134110209387078091710003C09E77909387074F
S1134120809187078093740081E08093EA017DC0C9
S11341308091040220918707981778F4E091C702D0
S1134140F091C802E90FF11D8081809373009F5F95
S113415090937C0C2093740068C0922F9E7F909360
S113416087078091640D81FF07C08D7F8093640D64
S113417090619093870703C02E77209387078091DF
S113418087078093740081E08093EA01809196010F
S1134190813061F0813020F0823009F046C00FC0D8
S11341A00E94AB0580E00E948C153FC00E94AB05C5
S11341B081E00E948C151092C4028EE206C00E9417
S11341C0AB0582E00E948C1582E30E94CB012DC0D6
S11341D08091640D8E7F8093640D909187079F7DFD
S11341E09093870780917100887F883049F080918F
S11341F07100887F803121F081E00E94E61E15C0A5
S1134200392F3064309387079091B303990F20E0DE
S11342108091EB01813009F421E0922B909373009B
S113422086E08093EA0130937400FF91EF91BF918F
S1134230AF919F918F917F916F915F914F913F913A
S11342402F910F900FBE0F901F90189561E081E0A1
S11342500E94A0088823E9F48FB7F894282F332705
S11342608091C4019091C501892B11F02FBF20C00A
S113427081E090E09093C5018093C4012FBFDD9A43
S11342800E94CD0C24E130E040E050E00E948A0D11
S11342900FC062E081E00E94BA08882319F089E027
S11342A090E0089561E081E00E94BA08882319F043
S11342B080E090E0089585E090E00895CF92DF9249
S11342C0EF92FF920F931F93CFB6F894DD240E94D0
S11342D0C107DC01CB0166E470E00E9408413BE0C9
S11342E0E32EF12CE80EF91EF092480DE092470DF2
S11342F00E94CD0C00271127A80197010E948A0D66
S1134300CFBE1F910F91FF90EF90DF90CF90089553
S11343101F93CF93DF938FB7F894C82FDD271C2FFB
S11343208091C9019091CA010897C9F489E00E945B
S1134330161E83E00E94481AC09A81E090E0909390
S1134340CA018093C9018FB7F894992723E0209379
S1134350C3018FBF8DE00E94CB01CFBF30C0C09896
S113436080914B0D882311F085E001C084E00E9408
S1134370161E83FD09C080E00E94161E83FF04C040
S113438085E090E020E003C083E090E021E090939A
S1134390CA018093C901C09A1FBF222341F0109221
S11343A0030283E00E94481A0E945E2108C00E9412
S11343B0CD0C20E431E040E050E00E948A0DDF9112
S11343C0CF911F91089578941F920F920FB60F9278
S11343D011241F932F933F934F935F936F937F9376
S11343E08F939F93AF93BF93EF93FF9387B78F7E82
S11343F087BF78941FB7F8948091C1039091C2034A
S1134400A091C303B091C4030097A105B10509F0BD
S113441051C08091C9019091CA018530910561F123
S11344208630910530F48330910549F0049781F585
S11344301AC087309105F1F0089751F514C0869B96
S11344400FC084E090E09093CA018093C9010E9458
S1134450CD0C27E030E040E050E00E948A0D18C007
S11344600E945E2115C00E941117882389F40E94BE
S113447088210EC080E00AC089E00E94161E81E0F7
S11344800E94A50D83E00E94481A87E00E94421E04
S11344908091C4019091C501019771F482E090E08C
S11344A09093C5018093C401DE98DE9A80E00E9457
S11344B0B91602C00E94EA0C812F99278FBFFF9181
S11344C0EF91BF91AF919F918F917F916F915F9188
S11344D04F913F912F911F910F900FBE0F901F90FE
S11344E018951F93CF93DF938FB7F8949927109162
S11344F07D018FBF123009F465C0133030F41123ED
S113450059F0113009F0ACC048C0133009F474C03C
S1134510143009F0A5C0A2C0C0988FB7F894C82F72
S1134520DD278091C4019091C5010297A1F583E034
S113453090E09093C5018093C40168E170E08DE13F
S11345400E94D01A81E08093D3031092C60180B3F5
S1134550992746E0969587954A95E1F78170907082
S11345608093D40380E10E94CB0181E00E94161E57
S11345706FE772E08CE10E94D01A0E94311B0E9406
S1134580F71A66E57AE287E10E94D01A6FEF70E8C5
S113459085E10E94D01ACFBF63C0C09886E00E9414
S11345A0161E0E94311B0E94F71A0E94DE1DC09A3B
S11345B0C09883E00E94161EC09A81E00E94481AA7
S11345C08FE045C0C0988FB7F894C82FDD2760E00E
S11345D080E00E94BA08882311F0CFBF0AC0CFBF81
S11345E083E50E942F0980E00E942F0980E00E9449
S11345F02F09C09A82E02FC08FB7F8949927209191
S1134600C9018FBF243039F0283041F0223011F530
S11346100E94481B25C00E94882122C0C09889E0BE
S11346200E94161EC09A83E00E94481A8FB7F8941D
S1134630992721E030E03093CA012093C9018FBF4C
S11346408FB7F89499271093C3018FBF8DE00E9410
S1134650CB0106C083E00E94481A02C00E9485195B
S1134660DF91CF911F910895EF92FF920F931F93C3
S1134670CF93DF938B018091D7039091D80386FF6A
S113468040C18F7B8F3309F08EC1C091FC01D09162
S1134690FD0158815093A6028091610290916202BB
S11346A08530910509F443C08630910509F48AC028
S11346B0029709F01FC185E090E090936202809315
S11346C0610240912202852F99270196242F3327D6
S11346D0281739074CF1B79906C00E9904C0451B39
S11346E04150409322024091A6024633E8F4442309
S11346F0A1F0BE016F5F7F4F483018F047E050E0F3
S113470007C086E090E0909362028093610255278F
S113471080E090E00E94A90946C110926103C09A0A
S113472084E00E94481AE3C00E94311E3CC186E026
S113473090E090936202809361028091B003882399
S113474009F439C080914A088823A9F5898185FF35
S113475032C08F814E812FB7F89433276091CF03F5
S11347607091D0032FBF9927982F88275527842B22
S1134770952B8617970759F08F812E819927982FAB
S113478088273327822B932B8F5F9F4FA1F4898136
S11347908770813081F4C09AC0988AE00E94161E06
S11347A0C09AC0984091A60247502896BE018FE354
S11347B00E945319F8C04091A602475055272896E5
S11347C0BE01A6CFC09A8091C602882339F484E042
S11347D00E94481A8091C602882311F0B7990AC032
S11347E00E9B08C09091E70C992321F08091A602BA
S11347F08B3038F48091FC019091FD010E94BE0C35
S11348003DC0913001F5E091F10CFF27EE0FFF1F41
S1134810EE0FFF1FED57F34F208131814281538109
S1134820E091FC01F091FD0125AFBB27A52F942F4A
S1134830832F84AFCA01AA27BB2783AF252F332731
S11348404427552722AF8091F10C9927019668E0FF
S113485070E00E941C418093F10C8091E70C815020
S11348608093E70C882351F08091FC019091FD0125
S11348700E94BE0C1092F10C1092E70C8091A602DB
S1134880FE01E80FF11D808187FF31C0012B79F112
S113489069816770E091FC01F091FD01623019F5C6
S11348A0A091B103B091B203109709F18091C901AD
S11348B09091CA010797D9F4ED019B8183819817E0
S11348C0B1F487B78F7E87BF908181E088AFE90F0D
S11348D0F11D829131968CAB80818F778DAB80E016
S11348E00E94421E04C0613011F484E12AC00E9477
S11348F09B1A59C010926103C09A84E00E94481A1E
S113490052C08E3309F04FC0C09A8091C901909172
S1134910CA010897C9F4C09889E00E94161EC09A7B
S113492083E00E94481A81E090E09093CA0180934A
S1134930C9018FB7F894992723E02093C3018FBF4F
S11349408DE00E94CB012FC080914B0D882349F448
S113495084E090E09093CA018093C9010E94882169
S113496022C083E00E94481A83E090E09093CA0139
S11349708093C9010E94C107DC01CB0166E371E0A9
S11349800E9408415BE0E52EF12CE80EF91EF0923E
S11349901A02E09219020E94CD0C00271127A801E7
S11349A097010E948A0DDF91CF911F910F91FF9083
S11349B0EF9008951F920F920FB60F9211242F9328
S11349C03F934F935F936F937F938F939F93AF9393
S11349D0BF93EF93FF932FB1E0914507F091460702
S11349E0309739F08091AB059091AC05E80FF91F31
S11349F020838091AB059091AC0501969093AC0512
S1134A008093AB0580E00E94D70840910102509149
S1134A1002028091AB059091AC058417950718F4B8
S1134A200E943B091CC06091450770914607809124
S1134A30FF0C9091000D10924607109245071092BA
S1134A40000D1092FF0C10920202109201021092BB
S1134A50AC051092AB052FB120E00E943423FF91E6
S1134A60EF91BF91AF919F918F917F916F915F91E2
S1134A704F913F912F910F900FBE0F901F9018955B
S1134A800F931F930FB7F89411274091010250918F
S1134A90020260914507709146078091FF0C909146
S1134AA0000D10924607109245071092000D1092C7
S1134AB0FF0C10920202109201021092AC051092A7
S1134AC0AB0520E00E9434230FBF1F910F9108957E
S1134AD078941F920F920FB60F9211242F923F9247
S1134AE04F925F926F927F928F929F92AF92BF92FA
S1134AF0CF92DF92EF92FF920F931F932F933F93E6
S1134B004F935F936F937F938F939F93AF93BF93D1
S1134B10CF93DF93EF93FF93C6B5D7B58FB7F894D0
S1134B20282E0E94CD0C9B012C1B3D0B442755279E
S1134B302B013C01421A530A640A750A8091C90187
S1134B409091CA018530910521F0069709F0E0C0E3
S1134B50BFC086E090E09093CA018093C90131E020
S1134B60332E30921F031092CB0180E00E94A50DDA
S1134B70E091B103F091B20345AEBB27A72D962D6A
S1134B80852D84AFC301AA27BB2783AF872D99271F
S1134B90AA27BB2782AFE091B103F091B20381ADA4
S1134BA0882309F484C06081655077274F01860EFD
S1134BB0971EF4012081E1808281A3809927AA278E
S1134BC0BB27BA2FA92F982F882733274427552787
S1134BD0522F442733272227FF2400271127870138
S1134BE0FF24EE242E293F29402B512BBB24CC2417
S1134BF0DD242A293B294C295D29822B932BA42BC4
S1134C00B52B84199509A609B7098383292F3A2F4F
S1134C104B2F552722839D014427552721838B2F12
S1134C209927AA27BB278083C09824E0A40180E0A9
S1134C3090E00E949D1DC09AF4012081E180828150
S1134C40A3809927AA27BB27BA2FA92F982F882793
S1134C50332744275527522F442733272227FF245D
S1134C60002711278701FF24EE242E293F29402BFA
S1134C70512BBB24CC24DD242A293B294C295D2932
S1134C80822B932BA42BB52B840D951DA61DB71D2C
S1134C908383292F3A2F4B2F552722839D014427A5
S1134CA0552721838B2F9927AA27BB278083E0913F
S1134CB0B103F091B203818185FF02C030922702D3
S1134CC083E00E94481A87B78F7E87BF84997AC091
S1134CD010921F0381E00E94A50DE091B103F091B1
S1134CE0B203818185FF0FC087E090E09093CA01F1
S1134CF08093C9010E94CD0C20E031E040E050E0F7
S1134D000E948A0D03C080E00E94421E849B5AC008
S1134D108091CB01882391F580911F03882371F53D
S1134D2011E010931F030E94A50D80B32091E70C9E
S1134D30283098F4E091F10CE20FFF27E770F0704F
S1134D40EE0FFF1FEE0FFF1FED57F34F408251820E
S1134D50628273822F5F2093E70C1093CB01D09370
S1134D60DA03C093D90384992DC0992724E096953A
S1134D7087952A95E1F7182F117001C010E08091F2
S1134D801F038130F9F410921F030E94A50D1092A5
S1134D90CB011123B9F48091D9039091DA03C81B94
S1134DA0D90B2A9778F48091E70C882319F0815065
S1134DB08093E70C8091B1039091B203009711F0B6
S1134DC00E94BE0C2FBEFF91EF91DF91CF91BF9156
S1134DD0AF919F918F917F916F915F914F913F918F
S1134DE02F911F910F91FF90EF90DF90CF90BF9084
S1134DF0AF909F908F907F906F905F904F903F9077
S1134E002F900F900FBE0F901F901895AF92BF92E6
S1134E10CF92DF92EF920F931F935B016C010E947C
S1134E208E03AB01BC01E1E0EE2E9601850186E024
S1134E300E946F031F910F91EF90DF90CF90BF906E
S1134E40AF900895CF92DF92EF92FF920F931F934A
S1134E506C017B010E94C107DC01CB01B6010E94F9
S1134E600841E80EF91E00271127C801B7010E9466
S1134E7006271F910F91FF90EF90DF90CF90089538
S1134E80AF92BF92CF92DF92EF920F931F935B0189
S1134E906C010E948E03AB01BC01F1E0EF2E960180
S1134EA0850184E00E946F031F910F91EF90DF90C2
S1134EB0CF90BF90AF900895EF92FF920F931F93FE
S1134EC08091890190918A01A0918B01B0918C010C
S1134ED0B695A7959795879580931B0390931C038C
S1134EE0A0931D03B0931E030E94C107E0901B030F
S1134EF0F0901C0300911D0310911E03A80197015B
S1134F000E942F416E0D7F1D801F911F60931B0314
S1134F1070931C0380931D0390931E0310926B0CDB
S1134F200E9440271F910F91FF90EF900895AF9238
S1134F30BF92CF92DF92EF92FF920F931F93CF9382
S1134F40DF9380910C02882309F0E8C00FEF1FEF74
S1134F505FEFA52EB52ECC24DD24EE24FF2445C01E
S1134F60C22FDD2743E0CC0FDD1F4A95E1F7C5537F
S1134F70DD4F2A813B818FEF2F3F380799F18091D4
S1134F803D0890913E082817390761F1888199817D
S1134F900E948D07BC014C815D81480F591F2881F7
S1134FA039818091720C9091730C2817390779F428
S1134FB08FB7F89499272C813D813093750C2093F9
S1134FC0740C2F812093770C8FBF5A010BC08F81F3
S1134FD0882341F46233710528F44017510710F413
S1134FE08A016E010894E11CF11C2E2D809125028A
S1134FF0E81608F4B5CFEFEF0F3F1E0709F47DC0A4
S1135000FFEFAF16FFEFBF0691F08091770C882376
S113501041F08091740C9091750C0A960817190749
S113502030F0C8010F968A159B0508F066C0809180
S1135030EB0C9091EC0CA091ED0CB091EE0C019660
S1135040A11DB11D8093EB0C9093EC0CA093ED0C7F
S1135050B093EE0C8091720C9091730C0E947507C2
S11350608F3F81F09927880F991FFC0123E0EE0FF1
S1135070FF1F2A95E1F7E81BF90BE854FA4F8581E5
S1135080877F8583F601808191810E94A707F601BD
S1135090808191810E9475078F3F41F0EEE08E9FE1
S11350A0F0011124E854FA4F158614862FB7F894AA
S11350B03327F601808191819093730C8093720C55
S11350C0848195819093750C8093740C878180936F
S11350D0770C2FBFC501801B910B459770F080E8BA
S11350E090E0A0E0B0E08093890190938A01A093BE
S11350F08B01B0938C010E945C278091D801882396
S113510059F4FFEFAF16FFEFBF0631F40F5F1F4FE7
S113511019F086E10E94CB011092D801DF91CF9162
S11351201F910F91FF90EF90DF90CF90BF90AF90C1
S11351300895EF92FF920F931F93CF93DF930FB7CE
S1135140F894112781E00E94A50D61E0E62EF12C70
S1135150F092CA01E092C9011092CB011092270289
S11351601092BE020FBF0FB7F89411270E94B20C21
S1135170F0926202E09261021092610389B78F7B20
S113518089BF80E488BF8AB780628ABF8AB78F7E6E
S11351908ABF89B7806489BF0FBF8FB7F894C82FBF
S11351A0DD278091C4019091C501049719F483E02F
S11351B00E94161ECFBF0FB7F8941127C09A80E043
S11351C00E94481A0FBF8FB7F894992722E02093C2
S11351D045088FBF01E00093D5018091D601882353
S11351E011F00E94C1078091CF0184608093CF01A8
S11351F090E08091D201882309F491E0992319F475
S113520086E10E94CB018091CF0182608093CF011F
S11352108091D6018823B9F40093D60180E890E008
S1135220A0E0B0E08093890190938A01A0938B0160
S1135230B0938C010E945C2740E050E260E070E093
S113524085E00E94B80D8091A8018823E1F0409187
S1135250720C5091730C2FB7F894332700930C02FF
S113526080913D0890913E089093730C8093720C4A
S11352701092750C1092740C2FBF4F5F5F4F19F48E
S113528086E10E94CB01DF91CF911F910F91FF9096
S1135290EF9008952F923F924F925F926F927F9278
S11352A08F929F92AF92BF92CF92DF92EF92FF9232
S11352B00F931F93CF93DF93CDB7DEB7AD970FB6A0
S11352C0F894DEBF0FBECDBFA091FC01B091FD01EB
S11352D0FC909D012F0D311DF9018081881F8827C5
S11352E0881FFD0187ABF90180818F77FD0185ABB4
S11352F021503040F9018081FD0184ABA091FC0173
S1135300B091FD01FD0132818FB7F8949927209166
S1135310C5028FBF222309F490C0832F9927969545
S1135320879596958795837090708230910541F5A5
S1135330878146812FB7F89433276091CF0370910A
S1135340D0032FBF9927982F88275527842B952B77
S11353508617970719F481E090E06CC0FD018781FE
S1135360268140E050E09927982F88273327822B05
S1135370932B8F5F9F4F11F441E050E0CA015AC054
S1135380039709F0F4C39E012D5F3F4F4BE458E0AF
S113539088E0FA010190AF01F90101929F01815067
S11353A0C1F79E012D5D3F4FAE014D5F5F4F88E019
S11353B0FA010190AF01F90101929F018150C1F7F7
S11353C09E01255F3F4FAE014D5D5F4F88E0FA01BE
S11353D00190AF01F90101929F018150C1F79E0133
S11353E02D5E3F4FAE01455F5F4F88E0FA010190AB
S11353F0AF01F90101929F018150C1F79E01255E21
S11354003F4FAE014D5E5F4F88E0FA010190AF015E
S1135410F90101929F018150C1F748E050E0BE01BB
S1135420655E7F4FCD0106960E94A741892B09F046
S11354309EC303C0882309F49AC3FCE0FF1508F057
S113544096C3C090FC01D090FD01DDA6CCA6F60168
S11354502281822F992736E0969587953A95E1F730
S1135460039719F468E070E002C062E070E0822FF4
S1135470992796958795969587958370907003974D
S113548019F488E090E002C082E090E026E030E089
S1135490C20ED31E40E050E020E030E0F601E80FF9
S11354A0F91F8AEF9FEFC80ED91E05C08191480FDE
S11354B0511D2F5F3F4F26173707C4F3F601638151
S11354C08FEF8093F90C8FB7F894782F20E030E0B9
S11354D0EDE0F2E0808191818417950731F48281B7
S11354E0861709F41EC32093F90C2F5F3F4F3396A0
S11354F02430310579F77FBF9091F90C3FB7F894C8
S11355009F3F21F08091CC01891799F42091CC011F
S1135510822F9927FC01EE0FFF1FE80FF91FE35FAD
S1135520FD4F5183408362832F5F23702093CC010E
S11355300CC0892F9927FC01EE0FFF1FE80FF91FFC
S1135540E35FFD4F518340836283832F99278FBF8D
S11355500FB7F8941127C6010E945C08FC019081E2
S11355600FBFF60187A9882309F4F0C29F3309F01D
S1135570EDC2878146812FB7F8943327609181016A
S1135580709182012FBF9927982F88275527842B44
S1135590952B8617970761F0878126819927982F85
S11355A088273327822B932B8F5F9F4F09F0D5C217
S11355B0AF2DAD50F60183859927803721F08137CF
S11355C009F0C4C296C1F601878126819927982FD4
S11355D088273327822B932B8F5F9F4F09F08EC030
S11355E0F601818520859927F82EEE243327E22AB7
S11355F0F32A04850E94660BC7010E9475078F3F3A
S113560021F0F601658577270CC00E941E0C182F27
S11356108F3F51F0B7010E94300CF6016585772762
S1135620812F0E94670B1CC087E30E94450C182F32
S11356308F3F09F461C09927880F991FFC0153E03B
S1135640EE0FFF1F5A95E1F7E81BF90BE854FA4FE8
S1135650808191810E941119B701812F0E94300C21
S11356604FE0942E902209F447C0F60180818D50BA
S1135670893218F020E030E003C09601245F3F4FE8
S11356808901080F111D83E0989EC0011124081B95
S1135690190B8FB7F894992760908101709082015B
S11356A08FBFBB2483E0B89EF0011124E00FF11FEB
S11356B0808121819927982F88273327822B932B48
S11356C086159705B1F4A280C7010E9475078F3F24
S11356D081F09927880F991FFC01B3E0EE0FFF1F9B
S11356E0BA95E1F7E81BF90BE854FA4FA18686E076
S11356F08783B394B914B1F60E94660BC6010E9465
S1135700A30C182F682FC6010E944A087C0115308B
S113571009F01CC2F6011185008560E4C6010E94EF
S11357208E0C8BA747010894811C911CF701818181
S113573014010894211C311CF40121819927982F0C
S113574088273327822B932B8F5F9F4F09F4C9C07F
S1135750812F9927B82EAA24802F9927A82AB92AFD
S1135760E3E04E2E512C4E0C5F1CF701838174E054
S1135770672E712C6E0C7F1C24819927982F882703
S11357803327822B932B892B49F5C5010E9475077A
S11357908F3F09F50E941E0C8F3F11F0B50119C00F
S11357A080E00E94450C182F8F3FA9F09927880F9D
S11357B0991FFC0143E0EE0FFF1F4A95E1F7E81B38
S11357C0F90BE854FA4F808191810E941119B501B7
S11357D0812F0E94300CC5010E94A707F201F080BE
S11357E0F301E080F4019080F1018080C5010E9402
S11357F08D078C01C5010E946E0CE82F8A3009F4D4
S113580046C08F2D9927782F66278E2D9927682BD0
S1135810792B892D9927582F4427882D9927482B90
S1135820592B80912502E817F1F40233110578F51C
S11358302FB7F8943327FF27B3E0EE0FFF1FBA9575
S1135840E1F7E553FD4FB182A08253834283758310
S1135850648381E086831782809125028F5F809321
S113586025022FBF14C08FB7F8949927FF27A3E010
S1135870EE0FFF1FAA95E1F7E553FD4FB182A08219
S1135880538342837583648321E026838FBF809191
S11358908801882331F5C5010E946E0CE82F8091A0
S11358A02502E81750F4FF2773E0EE0FFF1F7A95E7
S11358B0E1F7E553FD4F2BA527838091770C8823CF
S11358C019F03BA5332351F08091720C9091730C25
S11358D08A159B0531F48BA5882319F089E10E9470
S11358E0CB0160E8C6010E948E0C882309F42EC106
S11358F01FC1F601F38885858F5F8587A93208F07B
S113590025C1C6010E941E0A20E090910B0289174E
S113591008F421E0222309F019C12091D201822F39
S11359209927B82F882309F441C0A091D001A20F70
S1135930A150B150AD3010F4EA2F02C0EA2FED505F
S1135940FF27EE0FFF1FEF5AF34F0190F081E02D78
S113595000811181F80120894189F60180896189DA
S11359603327322F22275527242B352B9927982F7D
S113597088277727862B972B2817390709F0F2C039
S1135980F8019289F6018289981709F0EBC0F801B1
S11359909585F6018585981709F0E4C0F801938987
S11359A0F6018389981709F0DDC0D0C080910C02FC
S11359B08823A9F0F60180818551082F1127602FD3
S11359C0C6010E944906BC01FBE2FF1609F0BEC0F5
S11359D0402FC6010E94150B9DA78CA7B7C080E07D
S11359E02091E403222309F481E0882309F0AEC066
S11359F09091E303992309F481E0882309F0A6C078
S1135A00992309F4A3C08091F60CE82FFF27EE0F29
S1135A10FF1FE45BF24F00811181118210829150CB
S1135A209093E3038F5F8093F60C8C3011F4109203
S1135A30F60C0115110509F489C0222309F486C066
S1135A408091BC03E82FFF27EE0FFF1FEB5DF74F9C
S1135A50E080F1801182108221502093E4038F5F53
S1135A608093BC038C3011F41092BC03E114F10454
S1135A7009F46CC080E4F70111928A95E9F724E3F4
S1135A8030E0C20ED31E8CE0F60111928A95E9F73C
S1135A902CEC3FEFC20ED31EF801D182C0828FEFEF
S1135AA082838EE18383C8010E946806882391F56E
S1135AB0CE0101960E94B10A882311F5F60186856C
S1135AC027859927982F88273327822B932B298181
S1135AD03A8128173907A0F080E890E0A0E0B0E010
S1135AE08093890190938A01A0938B01B0938C01D8
S1135AF00E945C276CE170E08CE190E00E94222718
S1135B008091850681FD03C086E10E94CB01FDA63C
S1135B10ECA61CC0C7010E94730AC8010E94920A25
S1135B2015C07FBF13C0F60184858078803871F476
S1135B3080E890E0A0E0B0E08093890190938A012E
S1135B40A0938B01B0938C010E945C272CA53DA5EA
S1135B503093FD012093FC010AC0F601838581374F
S1135B60A9F7E1CFA150BB2309F0E3CE1FCF8FB734
S1135B70F8949927109261038FBF0E949B1AAD96E7
S1135B800FB6F894DEBF0FBECDBFDF91CF911F914A
S1135B900F91FF90EF90DF90CF90BF90AF909F90C8
S1135BA08F907F906F905F904F903F902F900895CB
S1135BB0AF92BF92CF92DF92EF920F931F935B014C
S1135BC06C010E948E03AB01BC0101E0E02E960142
S1135BD0850180E00E946F031F910F91EF90DF9089
S1135BE0CF90BF90AF900895EF92FF920F931F93C1
S1135BF0CF93DF937C01EC018A818823A9F4F0928E
S1135C00FE0CE092FD0C8A81882309F08FC0635654
S1135C10724009F08BC01092A90168EE73E080E035
S1135C2090E00E94D82D82C0442309F477C0E70194
S1135C300881198180910B02843009F046C0C801A3
S1135C400E941E0A20910B02622F0E94FC40492FE1
S1135C509217D8F5992359F480919F0599270196B5
S1135C6064E070E00E941C4180939F0529C08091EC
S1135C709F05840F912D911D9C0123703070E901C3
S1135C80CC0FDD1FCC0FDD1FC20FD31F019664E0C4
S1135C9070E00E941C41FC01EE0FFF1FEE0FFF1F7E
S1135CA0E80FF91FC855DD4FE855FD4F85E0019019
S1135CB009928150E1F74F5F80910B024817B8F2C7
S1135CC080910B02815080930B0240910B028091D2
S1135CD09F05840F912D911D83709070D8011C969F
S1135CE0FC01EE0FFF1FEE0FFF1FE80FF91FE85531
