:100000000C947B010C946D120C9477120C94811259
:100010000C948B120C9495120C949F120C947C18D7
:100020000C94A9120C949A010C949A010C946821D6
:100030000C9406230C9437120C944D120C94251337
:100040000C94670E0C9402210C9435100C949A01B8
:100050000C94B1100C94B3120C949A010C949A0164
:100060000C9442120C9404120C94E3110C94EE11B3
:100070000C94F9110C9417120C94C6110C949A015B
:100080000C94D8110C942A1C0C949A01C92FFC2FA3
:100090005430573068306A306D3098309B309E3025
:1000A000A130A430B230043107310D311031133199
:1000B00037314C314F316131C32F85319331683243
:1000C00029335733C235D135E735EA35EC350C36AF
:1000D0001C362D363136353638363C364E365F36A0
:1000E0008A369C369F361B37B236CA36CD36DE3658
:1000F00000002110422063308440A550C660E770A4
:10010000088129914AA16BB18CC1ADD1CEE1EFF14B
:100110003112100273325222B5529442F772D662F3
:10012000399318837BB35AA3BDD39CC3FFF3DEE39B
:100130006224433420040114E664C774A444855443
:100140006AA54BB528850995EEE5CFF5ACC58DD5EB
:100150005336722611163006D776F6669556B44693
:100160005BB77AA719973887DFF7FEE79DD7BCC73B
:10017000C448E5588668A7784008611802282338E3
:10018000CCC9EDD98EE9AFF9488969990AA92BB98B
:10019000F55AD44AB77A966A711A500A333A122A33
:1001A000FDDBDCCBBFFB9EEB799B588B3BBB1AABDB
:1001B000A66C877CE44CC55C222C033C600C411C83
:1001C000AEED8FFDECCDCDDD2AAD0BBD688D499D2B
:1001D000977EB66ED55EF44E133E322E511E700ED3
:1001E0009FFFBEEFDDDFFCCF1BBF3AAF599F788F7B
:1001F0008891A981CAB1EBA10CD12DC14EF16FE15B
:100200008010A100C230E320045025404670676092
:10021000B9839893FBA3DAB33DC31CD37FE35EF3AA
:10022000B1029012F322D2323542145277625672E2
:10023000EAB5CBA5A89589856EF54FE52CD50DC5FA
:10024000E234C324A0148104667447642454054432
:10025000DBA7FAB79987B8975FE77EF71DC73CD74A
:10026000D326F2369106B016576676761546345682
:100270004CD96DC90EF92FE9C899E9898AB9ABA99A
:100280004458654806782768C018E1088238A328D2
:100290007DCB5CDB3FEB1EFBF98BD89BBBAB9ABBEA
:1002A000754A545A376A167AF10AD01AB32A923A22
:1002B0002EFD0FED6CDD4DCDAABD8BADE89DC98D3A
:1002C000267C076C645C454CA23C832CE01CC10C72
:1002D0001FEF3EFF5DCF7CDF9BAFBABFD98FF89F8A
:1002E000176E367E554E745E932EB23ED10EF01EC2
:1002F00000081C18141011241FBECFEFD0E1DEBF80
:10030000CDBF11E0A0E0B1E0E4E3FCE700E00BBF0B
:1003100002C007900D92A433B107D9F71AE0A4E305
:10032000B1E001C01D92A33AB107E1F70E94433743
:100330000C94193E0C9400008FB7F89499270895F7
:100340008FBF08958FB7F894992720914501309178
:1003500046014091A4018FBF8FB7F894E42FFF2787
:10036000EE0FFF1FED5FFE4F318320832091380198
:10037000442311F02B7F01C02D7F20933801109270
:10038000430199278FBF0895282F9FB7F894E82F2E
:10039000FF27E855FE4F80818F3F81F4E0917E0A70
:1003A000E21771F40BC020931F0A04C0FF27E85521
:1003B000FE4F208320937E0A20E007C025E005C081
:1003C00080911F0A8F3F91F7EECF892F99278FBF1A
:1003D000822F9927089580E10E94C40199270895EA
:1003E00085E10E94C401992708958AE20E94C40110
:1003F0009927089581E20E94C401992708951F93C7
:100400001FB7F8948091790A882341F482E00E9412
:10041000C401882319F481E08093790A812F9927F8
:100420008FBF1F910895382FFA01422F293218F0FB
:1004300082E090E008956683872F9927858333872C
:10044000418780913C0190913D01892B19F085E015
:1004500090E008952FB7F894332785E080933F010B
:1004600010924001F0933B01E0933A0182E090E06A
:1004700090933D0180933C01109242011092410102
:10048000445F40933E012FBF8FB7F894282F332746
:10049000809157058A3011F42FBF19C02FBF9FB725
:1004A000F89480915503882311F020E006C081E084
:1004B000809355031092560321E0892F99278FBF0F
:1004C000222329F00E94FF0180E090E0089510921D
:1004D0003D0110923C0181E090E00895CF93DF93BD
:1004E000582FDB01823018F081E090E038C0C82F2F
:1004F000DD27CC0FDD1FC459DC4F88819981892B02
:1005000019F085E090E02BC0798368839B012B5F15
:100510003F4FF901448380910901823018F480E053
:1005200090E01DC0F9018681FB0165817727762F58
:100530006627F90121813327622B732B5093090120
:10054000242FAD010E9413029927282F882329F018
:1005500082E08093090119821882822F9927DF9106
:10056000CF910895CF93DF93FB01DB011596ED0149
:100570008983892F9927858384E68E8381E00E9471
:100580006E029927DF91CF91089581E30E94C40103
:1005900099270895EF920F931F93AE2D99E0899FAD
:1005A000F0011124EA5FFB4F408351836283738320
:1005B0000483158326833783A17080858E7F8A2BE1
:1005C0008260808781E00E94C4011F910F91EF90AB
:1005D00008957FB7F89462B7209185013091860124
:1005E000409187015091880106B601FE0FC081B786
:1005F00092B7280F311D411D511D2F5F3F4F4F4FA7
:100600005F4F290F311D411D511D04C0260F311DA3
:10061000411D511D872F99278FBFCA01B901089528
:10062000AF92BF92CF92DF92EF92FF920F931F9300
:10063000F82E5A016B010E94E902AB01BC01B1E046
:10064000EB2E960185018F2D0E94CA021F910F91FA
:10065000FF90EF90DF90CF90BF90AF900895982FCC
:10066000969596959695E5E0F4E0E90FF11D877073
:1006700021E030E002C0220F331F8A95E2F780812B
:100680008223992708950F931F93CF93DF93182FF9
:100690008FB7F894282F3327022F80916001882389
:1006A00059F581E080936001109384062FBF8FB7C6
:1006B000F8949927379A8FBF8FB7F894C82FDD2702
:1006C0009C2F80911A018730A9F4809160018130BC
:1006D00021F48AE10E94C40109C0823059F480915A
:1006E000840680931A0183E080936001CFBF80E08D
:1006F00090E025C09FBFFBCF80918406811711F445
:100700002FBFF5CF812F0E942F03882319F085E09A
:1007100090E014C0E12FE695E695E695FF27EB5FA4
:10072000FB4F177081E090E002C0880F991F1A9567
:10073000E2F72081282B208380E090E00FBFDF913B
:10074000CF911F910F9108958330A9F0843028F440
:10075000813069F0823068F408C0853081F08530DE
:1007600060F0863071F081E00FC080E00BC081E066
:1007700009C082E007C083E005C084E003C085E0D3
:1007800001C086E00E944303992708958FB7F8942B
:10079000992720917400209322058FBF08950E940D
:1007A000C603809122058E7F806980932205809305
:1007B00074000895982F969596959695E7E3F2E044
:1007C000E90FF11D877021E030E002C0220F331FD6
:1007D0008A95E2F78081822399270895EF92FF920C
:1007E0000F931F93CF93DF93982F8FB7F894E82E32
:1007F00080916601833009F045C080911C01891702
:1008000009F040C080913702882309F045C03EC0FE
:10081000EF2DE695E695E695FF274F2D5527E95CE8
:10082000FD4F9A012770307081E090E002C0880F80
:10083000991F2A95E2F78095208128232083C09371
:10084000650111C02196C230D10511F4C0E0D0E09D
:10085000FC2E8C2F0E94DA038823D1F6C017D10713
:1008600089F74FEF50E040931C028FEF80931C01FB
:1008700081E08093660180E20E94C401EFBE80E0C7
:1008800090E010C0EFBE81E090E00CC082E0809369
:100890001C0110926601F2CF80916501082F11278B
:1008A000E801D0CFDF91CF911F910F91FF90EF9092
:1008B0000895982F969596959695E3E3F2E0E90FC3
:1008C000F11D877021E030E002C0220F331F8A95AE
:1008D000E2F780818223992708959C01685F69323D
:1008E00018F080E090E008950C9611F0C90144964C
:1008F0000895AC01209158012D3018F081E090E06E
:10090000089580915701E82FFF27EE0FFF1FE8574A
:10091000F64F518340838F5F809357018D3011F4E0
:10092000109257012F5F2093580180E090E00895C6
:100930008FB7F89499272BB332E023272BBB8FBFB7
:1009400008950F931F93182F8FB7F894282F3327EC
:10095000022F80917701882399F491E09093770199
:10096000109323052FBF80917801882321F48FE213
:100970000E94C40102C09093790180E090E023C0FE
:1009800080912305811711F42FBFF7CF812F0E948B
:100990005904882319F085E090E014C0E12FE69512
:1009A000E695E695FF27ED5CFD4F177081E090E03E
:1009B00002C0880F991F1A95E2F72081282B208307
:1009C00080E090E00FBF1F910F910895982F9695AA
:1009D00096959695EAE7FAE0E90FF11D877021E018
:1009E00030E002C0220F331F8A95E2F78081822314
:1009F00099270895982F969596959695E6EAF1E0B1
:100A0000E90FF11D877021E030E002C0220F331F93
:100A10008A95E2F780818223992708950F931F9387
:100A2000182F8FB7F894282F3327022F8091620157
:100A3000882399F491E090936201109326032FBFCD
:100A400080916301882321F48EE10E94C40102C0D9
:100A50009093640180E090E023C080912603811789
:100A600011F42FBFF7CF812F0E94FA04882319F0C9
:100A700085E090E014C0E12FE695E695E695FF2726
:100A8000EA55FE4F177081E090E002C0880F991F71
:100A90001A95E2F72081282B208380E090E00FBF99
:100AA0001F910F9108959FB7F894292F3327422F54
:100AB00090911C01981741F480916601833021F4D4
:100AC0002FBF81E090E008954FBF80E090E008954F
:100AD00080E00E9453059927089581E00E94530504
:100AE00099270895982F969596959695E6E7F3E0C1
:100AF000E90FF11D877021E030E002C0220F331FA3
:100B00008A95E2F78081822399270895982F9695F8
:100B100096959695E4EBF9E0E90FF11D877021E0D9
:100B200030E002C0220F331F8A95E2F780818223D2
:100B3000992708958091270A833099F0843028F40A
:100B4000813099F0823078F412C0853031F08530F0
:100B500030F0863071F4E8E031C0E8E02CC0E8E025
:100B600027C0E8E022C0E8E01DC0E8E018C0E8E0E7
:100B700013C08330C9F0843028F4813079F082309A
:100B800080F409C08530B1F0853088F08630A9F056
:100B90002FE1E0E014C0E0E02EE111C0E0E023E04E
:100BA0000EC0E0E024E00BC0E0E021E008C0E0E09F
:100BB00022E005C0E0E026E002C0E0E025E0622F90
:100BC0007FB7F894809136028E7F8093360287B18A
:100BD000982F9F71829586958695837019F080E095
:100BE00090E012C0822F8850863118F081E090E0AA
:100BF0000BC040E050E03327892F99272817390789
:100C000011F441E050E0CA01982F9170990F809142
:100C100036028178262F2F71422F440F440F892BE3
:100C2000842B80933602332727B9E83059F5809119
:100C3000200A9091210A21E08638920718F087E077
:100C400090E01FC0833C910518F086E090E019C049
:100C50008136910518F085E090E013C0803391054E
:100C600018F084E090E00DC08831910518F083E021
:100C700090E007C00C9718F082E090E002C080E09E
:100C800090E0E82FE770887D8E2B886D992786B9D4
:100C9000872F99278FBF089591E0909357038093F2
:100CA000270A0E949A0580E090E00895AC01E7E7EA
:100CB000F3E080E090E09C01858180FF05C08081A9
:100CC00091818417950741F0C90101963E968A30BB
:100CD000910589F72FEF30E0C90108950E9456066B
:100CE0008F3F99F09927880F991FFC0123E0EE0FA1
:100CF000FF1F2A95E1F7E81BF90BE958FC4F8581A6
:100D000081FF03C08285938508958FEF90E0089559
:100D10000E9456068F3F19F481E090E008959927CC
:100D2000880F991FFC0143E0EE0FFF1F4A95E1F782
:100D3000E81BF90BE958FC4F85818860858380E0CA
:100D400090E008952F923F924F925F926F927F9220
:100D50008F929F92AF92BF92CF92DF92EF92FF92CB
:100D60000F931F93CF93DF93CDB7DEB729970FB6BD
:100D7000F894DEBF0FBECDBF6FB76983F8942090A3
:100D80002E0330902F03409030035090310366249F
:100D900077248824EEE4AE2E73E8B72ECC24DD242D
:100DA000EE24FF2400E010E0222D332D442D552D9C
:100DB000662D772D882D90E00E94573A2A833B8339
:100DC0004C835D836E837F8388879987822E932EE1
:100DD000A42EB52E2401350100E20E94553BA22E1F
:100DE000B32EC42ED52EA301920156954795379563
:100DF00027952A0D3B1D4C1D5D1D57FF05C05F77D4
:100E00002F5F3F4F4F4F5F4F20932E0330932F03A1
:100E10004093300350933103E9818E2F99278FBF80
:100E2000CA01B90129960FB6F894DEBF0FBECDBF37
:100E3000DF91CF911F910F91FF90EF90DF90CF90B6
:100E4000BF90AF909F908F907F906F905F904F90EA
:100E50003F902F9008959C016E5F693218F080E0FA
:100E600090E008950C9611F0C9010E960895FC01CA
:100E70006683672F772767830895FC01828199270E
:100E8000582F442781819927482B592BCA01892F34
:100E9000992786958695837090708230910559F0D8
:100EA0008330910559F0892B19F420E030E008C017
:100EB0002CE93FEF05C022E030E002C028E030E03E
:100EC000CA0184E0989F812D9927112482309105D1
:100ED00059F08330910559F0892B19F480E090E0A6
:100EE00008C08CE99FEF05C082E090E002C088E076
:100EF00090E0280F391F2A5F3F4FCF01820F931FC9
:100F00000895282F9FB7F894662349F0E82FFF270C
:100F1000E558FA4F8081882311F021E006C0E22FC6
:100F2000FF27E558FA4F608320E0892F99278FBF6C
:100F3000822F99270895E82F8FB7F894282F332709
:100F400090E0FF27E558FA4F8081861709F491E079
:100F50002FBF892F99270895682F81E00E949B0752
:100F600099270895882311F06E9A08956E98089530
:100F7000882311F06F9A08956F98089580E00E9479
:100F8000B207BA9ABB98B99AB89A6C9A80E00E9454
:100F9000B8076B986A9881E00E94B207709A8DB189
:100FA0008C7F8DB908950F931F93CF93DF93182FE4
:100FB0008FB7F894C82FDD270C2F61E080E00E94E6
:100FC0008107882321F0CFBF85E090E024C0809185
:100FD0000D018823A1F480914E01823081F409C073
:100FE00082E080934E0110920D010E94BE07B89AD4
:100FF000C09810930A0180E00FBF99270CC0809120
:101000004E01882369F38FB7F894992710927B05D6
:101010008FBF81E0F1CFDF91CF911F910F910895A4
:101020001F93182F81E00E94B2071FB9779BFECF54
:101030008FB199271F9108958F929F92AF92BF927F
:10104000CF92DF92EF92FF920F931F93CF93DF9394
:101050008FB7F8949927C090350AD090360A8090BF
:10106000E0049090E104C0916A03D0916B03209159
:101070008101309182014AE0A42EB12CAC0EBD1E3C
:101080002A153B0508F459018FBF7401EC0EFD1EB3
:1010900086010C0F1D1F14C0C114D10419F0F801F2
:1010A000808101C080E00E9410088114910411F039
:1010B000F701808321960894E11CF11C0F5F1F4FFC
:1010C000C5010197C817D90738F381E00E94B80716
:1010D0009FB7F894C114D10431F0CC0EDD1EF60197
:1010E00080818FB901C01FB8D0936B03C0936A038E
:1010F000892F99278FBF80E090E0DF91CF911F91DA
:101100000F91FF90EF90DF90CF90BF90AF909F90A6
:101110008F9008952FB7F89433275093820140930E
:1011200081019093360A8093350A7093E1046093AD
:10113000E00410926B0310926A032FBF452B29F035
:101140008FB10E941C089927089581E10E94C40173
:1011500080E090E008958FB7F894992710927D056C
:101160008FBF0895FC01CB01428553859A0163E04E
:10117000220F331F6A95E1F7240F351F2B5F3F4F76
:10118000820F931F6AE070E00E94663D738762875A
:101190000895FC0164859585662339F48AE0989F5B
:1011A000B00111246A5070400BC077278AE0989FE5
:1011B000C00111240E947A3D6A5070401486158641
:1011C000CF010E94B208089580915601E82FFF27B1
:1011D000EE0FFF1FE857F64F0190F081E02D2091B0
:1011E0005801222351F08F5F809356018D3011F406
:1011F00010925601215020935801CF010895CF92AB
:10120000DF92FF920F931F93CF93DF936C01F090C7
:101210008B0160915E0370E08C01005F1F4F2CC05A
:10122000D6011C96462F43705527E601288933279F
:10123000322F2227F80181819927282B392BFA0197
:10124000EE0FFF1FEE0FFF1FE40FF51FE15EFD4FD6
:10125000808191812817390769F4ED019E8182818F
:10126000891741F499818481891721F49F818381B1
:10127000891721F07F5F6F5F7F1591F6872F992780
:10128000DF91CF911F910F91FF90DF90CF90089544
:10129000AC0120915B032C3018F081E090E00895C0
:1012A00080913303682F620F712D711DFB016C302B
:1012B000710508F03C97EE0FFF1FE45AFA4F518377
:1012C00040832F5F20935B0380E090E00895AC01A2
:1012D00020915A032C3018F081E090E0089580911D
:1012E0002C0A682F620F712D711DFB016C30710586
:1012F00008F03C97EE0FFF1FE058F54F51834083F5
:101300002F5F20935A0380E090E008950F931F937E
:10131000CF93DF93EC01892BE9F02091A90930915B
:10132000AA098FEF2F3F3807A9F080918C018130F7
:1013300019F4198218820BC00091AB091091AC0905
:10134000C9010E946E06080F191F1983088380E0E7
:1013500090E002C081E090E0DF91CF911F910F916A
:101360000895EF92FF921F93CF93DF937C01EB01DF
:10137000142F0E949804163151F58091340188236E
:1013800031F1A3EAB2E0FE0186E101900D928150B5
:10139000E1F78FEF80939D0280939C028BE2809314
:1013A000A20246E167E972E080E00E946E028823B3
:1013B00059F491E0909336012FB7F89433278BB30B
:1013C00089278BBB2FBF03C0DA98D998D898C7015B
:1013D000DF91CF911F91FF90EF90089508950F93A3
:1013E0001F93CF93DF93282F3327C901880F991FAD
:1013F000FC0113E0EE0FFF1F1A95E1F7E81BF90B54
:10140000E958FC4F858182FF03C062838B7F85830F
:101410008281962F981B628383818F5F838386E00E
:101420008683992361F08481890F815084839B3066
:1014300030F0148281E08383178211861086C901FF
:10144000880F991FFC01A3E0EE0FFF1FAA95E1F79B
:10145000E81BF90BE958FC4F8381833008F471C015
:1014600000811181C7E7D3E08881998180179107B6
:1014700009F061C08D8180FF5EC08E81882311F0EC
:1014800081508E838F81882311F081508F838E81CC
:10149000882351F48F81882339F48D8191E0892745
:1014A0008D831986188642C08D8182608D839B81D1
:1014B0006C81690F633008F463E077278FEF989FA2
:1014C000C00111240E947A3D888529E0829FC001D5
:1014D00011240596860F911D6AE070E00E947A3D06
:1014E00068871B821C824985662301F14423F1F041
:1014F000772781E09EEF0E94663DCB019B01F3E0E0
:10150000220F331FFA95E1F7642F7727880F991F71
:10151000820F931F0E94663D6A5070406F3F7105B5
:1015200019F010F06CE370E0772702C06CE370E014
:10153000CE010E94B2082E9684E0C330D80709F08D
:1015400093CFDF91CF911F910F91089580E090E0AC
:10155000ECE7F3E09C01808180FF08C0C90101969F
:101560003E968A309105B1F72FEF30E0C90108951A
:101570009EE0899FF0011124E958FC4F718360833C
:1015800012821382148285E0858386E086838783B6
:1015900010861186138612860895982F60E070E0F9
:1015A000AFEF40E050E0ECE7F3E08081282F3327F5
:1015B00020FF0BC021FF09C023FD07C02581368114
:1015C0002617370710F0B901A42F4F5F5F4F3E96E3
:1015D0004A30510551F7892F99276817790718F470
:1015E0008FEF90E008958A2F99270895AC013091EC
:1015F000A5018FEF4F3F580711F020E012C0832F55
:1016000099270895E22FFF2783E0EE0FFF1F8A95A9
:10161000E1F7EE5BFD4F808191818417950719F00A
:101620002F5F231779F7822F992708951F93CF9360
:10163000DF93162FC0E0D0E066E20E942B07FC018A
:1016400080818123811711F4C1E0D0E0CE01DF91C8
:10165000CF911F910895FC018081448555274F70DB
:1016600050709A01220F331F240F351F821B8F5099
:101670009927089580E88093A2011092D8021092D1
:10168000280A10921E0A10923D020895CF93DF930C
:10169000FC0111AEDC01DA96ED011B821A8219827F
:1016A00080E882AFDF91CF9108958FB7F894609171
:1016B0003403709135032CB53DB506B602FE04C067
:1016C0006F5F7F4F2CB53DB599278FBF882799272E
:1016D000CB017727662744275527622B732B842B52
:1016E000952B0895EF92FF920F931F930E94550B35
:1016F0007B018C01209142033091430340914403CC
:10170000509145038091380390913903A0913A0399
:10171000B0913B03820F931FA41FB51FE216F3067F
:101720000407150730F082179307A407B50758F090
:1017300005C082179307A407B507E0F5E816F90678
:101740000A071B07B8F59C01AD012E193F09400B94
:10175000510B213060E8360760E0460760E056072D
:1017600068F180E090E8A0E0B0E0E80EF91E0A1F02
:101770001B1FE0924203F092430300934403109333
:10178000450380E090E8AFEFBFEFE80EF91E0A1FB7
:101790001B1F205030484040504020933803309366
:1017A000390340933A0350933B0320E030E840E094
:1017B00050E014C020E030E040E050E0809342036D
:1017C00090934303A0934403B093450310923803CE
:1017D0001092390310923A0310923B03A901B7010A
:1017E0002CB53DB5C9018E199F090396841795073D
:1017F00020F0B9016D5F7F4F02C0640F751F611546
:10180000710511F461E070E0615070407BBD6ABD0C
:1018100080E186BF87B7806187BF1F910F91FF90DE
:10182000EF9008950F931F930FB7F89411276093CB
:1018300042037093430380934403909345032093A2
:1018400038033093390340933A0350933B030E948B
:10185000720B0FBF1F910F91089597B79F7D97BF90
:1018600090E296BF882319F08EB5806402C08EB5D1
:101870008F7B8EBD87B7806287BF80E090E0089540
:10188000809157058A3021F48091DB02843021F069
:1018900081E080933701089584E00E94C401109292
:1018A000370108952FB7F89433278CB95E9A2FBF6C
:1018B0000895FC016115710519F481E090E0089527
:1018C00080914C0390914D03892B19F085E090E0B5
:1018D00008957093B2096093B109F0934D03E093BA
:1018E0004C0310921D0310921C0381E080931E0391
:1018F0005E9A569A808121E030E030931D03209358
:101900001C030E94520C80E090E008958FB7F89479
:101910009927209148012E7F209348012EE720939C
:101920001E028FBF61E070E08EE192E00E94590CD0
:10193000992708951F93CF93DF938FB7F894109250
:10194000790A2091570540E0283009F441E030E061
:10195000293009F431E0442311F4332351F010927B
:101960005705E0910304FF27EE0FFF1FED5AFC4FD0
:10197000108299278FBF442311F4332331F19FB78D
:10198000F8948091260A8F5F8093260A8091410304
:10199000833479F42091630380916203821779F094
:1019A000822F8F5F80936303863048F01092630329
:1019B00006C0A0E0442309F4A1E071E002C070E099
:1019C000A0E0892F99278FBF06C0222311F010E0D5
:1019D0006CC070E0A0E08FB7F89499272091370190
:1019E0008FBF222341F08FB7F89499272AE02093E4
:1019F00057058FBF42C08FB7F89499276091530362
:101A0000409155038FBF8FB7F894282F332750E0AC
:101A10009091620380916303981709F451E02FBFFE
:101A2000552341F5662331F55FB7F89482E0809342
:101A300053038FB7F894282F332740E09091620327
:101A400080916303981709F441E02FBF442311F0FC
:101A500080E006C0E0916303FF27EE59FC4F8281CE
:101A60008093540383E48093410310920304852FF1
:101A700099270EC04150423010F010E00BC08FB7D4
:101A8000F894992725E42093410321E0209303044F
:101A90008FBF11E0772349F08FB7F8949927A0936F
:101AA00040018FBF86E00E94C4018FB7F894C82F11
:101AB000DD27809157058A3021F40E94400CCFBF6A
:101AC0001DC0CFBF1123D1F02FB7F8943327109248
:101AD0009A0A1092990A1092370381E08093570571
:101AE0002FBF0E94860C882349F08FB7F89499275E
:101AF00029E0209357058FBF0E94FF01DF91CF910E
:101B00001F910895DF92EF92FF920F931F938FB76B
:101B1000F894282F3327D22E91B782B746B798175B
:101B200011F041FF02C02FBF6AC08091610388237A
:101B3000E1F10E94E902E0907705F09078050091CC
:101B4000790510917A0520919E0130919F01409175
:101B5000A0015091A1016E197F09800B910B6217B2
:101B600073078407950720F01092610371E01EC08F
:101B70002E0D3F1D401F511F8091850190918601C0
:101B8000A0918701B0918801281B390B4A0B5B0B90
:101B9000273E31054105510540F4822F223010F0D7
:101BA00070E005C070E082E002C070E086EE682F51
:101BB000615000B601FCFDCF82B7681709F46F5F72
:101BC00020918501309186014091870150918801D3
:101BD000DA01C9010196A11DB11D860F911DA11D3C
:101BE000B11D82179307A407B50710F4622F609503
:101BF00061BFDFBE772319F080E00E94C4011F910E
:101C00000F91FF90EF90DF900895AFB7F894BB2746
:101C1000E1E0E0936103609377057093780580932A
:101C2000790590937A0520939E0130939F0140930C
:101C3000A0015093A101AFBF0E94820D0895AF9201
:101C4000BF92CF92DF92EF92FF920F931F93CF93A9
:101C5000DF93CDB7DEB728970FB6F894DEBF0FBE7F
:101C6000CDBF20E070E0E0910001F091010132E190
:101C70004DE65CE46FE4809101019E2F28960FB63B
:101C8000F894DEBF0FBECDBFDF91CF911F910F91B2
:101C9000FF90EF90DF90CF90BF90AF9008958FB7F7
:101CA000F894282F3327922F809157058A3041F0DE
:101CB0008091DB02843021F02FBF89E090E008950D
:101CC0009FBF83E00E94C40180E090E008951F92CE
:101CD0000F920FB60F9211248F9383B783BF00B674
:101CE00000FCFDCF8F910F900FBE0F901F901895A5
:101CF000E0EFF0E06927660FF11DE60FF11DC895D2
:101D0000982F802D3196C89590250895982F809111
:101D10004301882389F5992379F531E03093430114
:101D2000809102018093440120913801822F8170BB
:101D30008093A4018091070190910801909346013E
:101D4000809345018091390180934701322731709A
:101D5000267EE32FFF27EE0FFF1FED5FFE4F8081F2
:101D600091819093080180930701232B20933801E0
:101D700087E00E94C40108958091380180FF02C06D
:101D80008B7F01C08D7F8093380108950F931F933F
:101D9000082F162F8091DB028130D9F0813038F086
:101DA000823009F44AC0833009F028C159C00023A9
:101DB00009F458C11092A5091092A40910925B056C
:101DC0001092B50910921F031092730310927203C0
:101DD00039C1002309F046C18091720390917303C9
:101DE0000E94780E909373038093720382E0809335
:101DF000DB021093B509143409F000C125C18695A2
:101E0000869503C0809138018695817009F0F6C0EF
:101E100080913801992311F0846001C08260809321
:101E2000380180913801877E886080933801109254
:101E300039018FEF8093020115C1002309F0DEC044
:101E400060931F0380917203909173030E94780E38
:101E5000909373038093720383E08093DB0202C14B
:101E600080915B058F3F09F4C9C0002309F461C06C
:101E7000823008F4C3C0E091A409EE2309F4EBC05A
:101E80004E2F4150E42FFF27EC55F64F82819927C2
:101E9000382F2227442311F4E2E002C0E42FE1505E
:101EA000FF27EC55F64F82819927282B392B8091FB
:101EB0007203909173032817390709F09FC080E0DF
:101EC0000E94860E30911F0380916203209163036C
:101ED000982F9F5F963008F090E0921771F0E82FEE
:101EE000FF27EE59FC4F32838F5F80936203863069
:101EF00010F0109262030E94FF011092A509109247
:101F0000A40994E09093DB0210925B051092B5094E
:101F100010921F0310927303109272038091480174
:101F20008D7F8093480180913701882309F49AC0FE
:101F300084C0823008F44EC0E091A509FF27EC551B
:101F4000F64F8281482F5527342F20913801822F58
:101F5000869586958695837099278130910519F02D
:101F60000297F9F40EC0277E2061209338014423A4
:101F700011F485E001C080E08093390130930201C3
:101F800010C080913901803460F4E0910701F09134
:101F90000801E80FF11D4083809139018F5F809324
:101FA00039018091A509E82FFF27EC55F64F628192
:101FB0008F5F8093A509833010F01092A5097727D1
:101FC00080917203909173030E94780E9093730333
:101FD000809372038091A409E82FFF27EC55F64FF8
:101FE00012838F5F8093A409833010F01092A409AC
:101FF00080915B058F5F80935B0534C01092A509CB
:102000001092A40914E01093DB0210925B05109269
:10201000B50910921F0310927303109272038091FE
:1020200048018D7F8093480181E00E94860E809157
:102030003701882329F01093DB020E94400C12C064
:10204000002381F081E009CF80913801982F9170B1
:1020500080FDD5CED7CE8091A8099927382F222789
:1020600042E01CCF1F910F9108951F920F920FB65F
:102070000F9211242F933F934F935F936F937F930E
:102080008F939F93AF93BF93EF93FF935F9B3DC05D
:102090006CB1E0917403F09175033097F9F0809181
:1020A000770A9091780AE80FF91F60830196909360
:1020B000780A8093770A20919B0A30919C0A8217B4
:1020C000930718F110927503109274038091240500
:1020D0008330D9F057981092240517C06E3719F441
:1020E00060E081E010C0809148016D3721F482608A
:1020F000809348010AC081FF05C08D7F809348010D
:1021000080E2682780E00E94C60EFF91EF91BF91A8
:10211000AF919F918F917F916F915F914F913F917F
:102120002F910F900FBE0F901F901895982F8D57DD
:10213000823068F48091480181608093480180E298
:10214000892780935A058DE780931E0202C09093E1
:102150001E0261E070E08EE192E00E94590C992726
:10216000089578941F920F920FB60F921124FF9248
:102170000F931F932F933F934F935F936F937F938F
:102180008F939F93AF93BF93CF93DF93EF93FF937F
:1021900020911C0330911D038091B1099091B209E7
:1021A0002817390780F4E0914C03F0914D03E20FBA
:1021B000F31F80812F5F3F4F30931D0320931C033B
:1021C0000E94520CCDC010924D0310924C031092FD
:1021D0001E035698FFB6F8948091480180FF0EC008
:1021E0008E7F8093480180915A0580931E0261E0A2
:1021F00070E08EE192E00E94590CAFC080915705CB
:10220000843009F48CC0853040F4823021F1833071
:10221000B8F5813009F09CC00DC0863009F48DC03E
:10222000863008F483C0873009F48EC0883009F006
:102230008FC091C0809141030E949610082F83E0C7
:1022400080935705609141038091990A90919A0A71
:102250000E94780E10C08091260A0E949610082FC6
:1022600083E0809357056091260A8091990A9091A6
:102270009A0A0E94780E90939A0A8093990A66C0EF
:10228000E0910304FF27EE0FFF1FEC5AFC4F808103
:102290000E949610082F10910304C12FDD27FE0124
:1022A000EE0FFF1FEC5AFC4F60818091990A9091CC
:1022B0009A0A0E94780E90939A0A8093990A209124
:1022C00037032F5F20933703113039F580913F0199
:1022D000E0913A01F0913B01E80FF11DE0818F5F41
:1022E00080933F0190913E01981730F482E08093F3
:1022F000550340E050E002C04E2F5527DE01AA0FE3
:10230000BB1FFD01ED5AFC4F8081823031F02F3F21
:1023100021F0AC5ABC4F4C9319C084E012C080919C
:10232000990A0E949610082F85E00BC080919A0AA6
:102330000E949610082F86E004C00E94860C082F89
:1023400087E08093570502C088E003C0002329F08E
:1023500089E0809357050E94FF018F2D99278FBF39
:10236000FF91EF91DF91CF91BF91AF919F918F91AD
:102370007F916F915F914F913F912F911F910F919D
:10238000FF900F900FBE0F901F9018951F920F9205
:102390000FB60F9211248F9380919B0087FF02C08C
:1023A00080919C008F910F900FBE0F901F901895F9
:1023B00078941F920F920FB60F9211240F900FBEB8
:1023C0000F901F90189578941F920F920FB60F924E
:1023D00011240F900FBE0F901F90189578941F92A4
:1023E0000F920FB60F9211240F900FBE0F901F90F7
:1023F000189578941F920F920FB60F9211240F9098
:102400000FBE0F901F90189578941F920F920FB6E1
:102410000F9211248F939F9380918000909181005F
:102420009F918F910F900FBE0F901F9018957894E9
:102430001F920F920FB60F9211242F933F938F93F9
:102440009F932FB7F8943327809170039091710375
:10245000019690937103809370032FBF9F918F918A
:102460003F912F910F900FBE0F901F901895789469
:102470001F920F920FB60F9211240F900FBE0F9064
:102480001F90189578941F920F920FB60F921124F7
:102490000F900FBE0F901F90189578941F920F9277
:1024A0000FB60F9211242F933F938F939F932FB7C3
:1024B000F8943327809134039091350301969093DB
:1024C0003503809334032FBF9F918F913F912F91BC
:1024D0000F900FBE0F901F9018951F920F920FB67E
:1024E0000F9211240F900FBE0F901F9018951F92FE
:1024F0000F920FB60F9211240F900FBE0F901F90E6
:1025000018951F920F920FB60F9211240F900FBEC5
:102510000F901F9018951F920F920FB60F921124D3
:102520000F900FBE0F901F9018951F920F920FB62D
:102530000F9211240F900FBE0F901F9018951F92AD
:102540000F920FB60F9211240F900FBE0F901F9095
:1025500018951F920F920FB60F9211240F900FBE75
:102560000F901F9018951F920F920FB60F92112483
:102570002F933F934F935F936F937F938F939F938B
:10258000AF93BF93EF93FF9344B155B178948FB756
:10259000F894992720913602322F369531702170A8
:1025A0008FBF2223D9F4339880915703813021F0D3
:1025B000823009F039C00AC0332351F050935605D8
:1025C000409355058BE10E94C4012EC0332319F4BA
:1025D0000E949A0529C01092570326C08FB7F8941D
:1025E00099278FBF2FB7F894332786B1582F57708C
:1025F000482F4072987D942B952B8074977B982B55
:1026000090619F77892F992786B9887D842B852BA8
:1026100087738061992786B9887D842B852B877B7A
:102620008069992786B92FBFFF91EF91BF91AF9134
:102630009F918F917F916F915F914F913F912F91DA
:102640000F900FBE0F901F9018951F920F920FB60C
:102650000F9211242F933F934F935F936F937F9328
:102660008F939F93AF93BF93EF93FF9383B783BFF2
:1026700000B600FCFDCF81B799270196AA27BB279A
:102680002091850130918601409187015091880108
:10269000280F391F4A1F5B1F209385013093860145
:1026A000409387015093880178940E94820DFF9196
:1026B000EF91BF91AF919F918F917F916F915F91BA
:1026C0004F913F912F910F900FBE0F901F90189533
:1026D000EF92FF920F931F93CF93DF93982F8FB7B3
:1026E000F894E82E80917701833009F045C08091FD
:1026F0002501891709F040C080913302882309F031
:1027000049C03EC0EF2DE695E695E695FF274F2D93
:102710005527ED5CFD4F9A012770307081E090E005
:1027200002C0880F991F2A95E2F7809520812823FF
:102730002083C093760111C02196C230D10511F4D7
:10274000C0E0D0E0FC2E8C2F0E9459048823D1F6E3
:10275000C017D10789F74FEF50E0409323058FEF63
:102760008093250181E0809377018EE20E94C4016D
:10277000EFBE80E090E014C0EFBE81E090E010C0BA
:1027800082E0809325011092770181E080937801A7
:1027900080E3ECCF80917601082F1127E801CCCFA0
:1027A000DF91CF911F910F91FF90EF9008950F93BC
:1027B0001F93CF93DF93182F8FB7F894282F3327C9
:1027C000022F80916601882331F581E080936601B4
:1027D00010931C022FBF8FB7F894C82FDD279C2FB2
:1027E00080911C018230A9F480916601813021F42E
:1027F00080E20E94C40109C0823059F480911C0219
:1028000080931C0183E080936601CFBF80E090E05D
:1028100025C09FBFFBCF80911C02811711F42FBFF1
:10282000F5CF812F0E94DA03882319F085E090E02C
:1028300014C0E12FE695E695E695FF27E95CFD4F8C
:10284000177081E090E002C0880F991F1A95E2F797
:102850002081282B208380E090E00FBFDF91CF9173
:102860001F910F91089581E00E94D7139927089531
:10287000EF92FF920F931F93CF93DF93982F8FB711
:10288000F894E82E80916201833009F045C0809170
:102890001B01891709F040C08091A601882309F027
:1028A00049C03EC0EF2DE695E695E695FF274F2DF2
:1028B0005527EA55FE4F9A012770307081E090E06D
:1028C00002C0880F991F2A95E2F78095208128235E
:1028D0002083C093610111C02196C230D10511F44B
:1028E000C0E0D0E0FC2E8C2F0E94FA048823D1F6A1
:1028F000C017D10789F74FEF50E0409326038FEFC1
:1029000080931B0181E0809362018DE10E94C401EC
:10291000EFBE80E090E014C0EFBE81E090E010C018
:1029200082E080931B011092620181E08093630139
:102930008FE1ECCF80916101082F1127E801CCCF06
:10294000DF91CF911F910F91FF90EF900895EF923B
:10295000FF920F931F93CF93DF93982F8FB7F89425
:10296000E82E80916001833009F045C080911A0102
:10297000891709F040C080910504882309F046C0FA
:102980003EC0EF2DE695E695E695FF274F2D55279E
:10299000EB5FFB4F9A012770307081E090E002C03E
:1029A000880F991F2A95E2F780952081282320839C
:1029B000C0935F0111C02196C730D10511F4C0E06A
:1029C000D0E0FC2E8C2F0E942F038823D1F6C01755
:1029D000D10789F74FEF50E0409384068FEF809343
:1029E0001A0181E0809360018AE10E94C401EFBE78
:1029F00080E090E011C0EFBE81E090E00DC087E084
:102A000080931A01109260013798F1CF80915F0195
:102A1000082F1127E801CFCFDF91CF911F910F91A0
:102A2000FF90EF900895982F80916F01833009F007
:102A300047C080912201891709F042C0809120018E
:102A400020E030E08F3F11F421E030E0232BF9F457
:102A50008F3F19F42FEF30E00EC0282F3327F901F4
:102A6000E75DF54F8081809320018F3F11F48093C3
:102A700021018FEF8083209380018FEF80932201CB
:102A800081E080936F0189E20E94C40116C082E058
:102A90008093220110926F0180917001813069F45E
:102AA0000E94C603809122058A7680932205809336
:102AB0007400909891981092700180E090E00895D1
:102AC00081E090E008950F931F93182F0FB7F894AB
:102AD00061E080E00E948107882371F510930A016C
:102AE00080910D018823A9F580914E01823089F5EE
:102AF00080E10CC00E94BE0780914E01882349F4FA
:102B000081E080934E011092400282E10E94C40154
:102B10002AC0809140038F3F31F5E0910C01EE23F4
:102B200011F11CC010920B0104C0FF27E05CFC4FA8
:102B3000108210920C0117C081E090E002C0880F53
:102B4000991F1A95E2F720914D01282B20934D01F2
:102B50000AC080914E018823E1F6CCCF80910B0111
:102B60008F3F19F7DFCF802F99278FBF80E090E04C
:102B70001F910F9108951F938FB7F894282F332733
:102B8000122F80917D0A882321F02FBF81E090E0F1
:102B900013C081E080937D0A80914A0190914B019E
:102BA000049721F481E00E94631503C08EE00E9427
:102BB000C4011FBF80E090E01F9108951F9383E040
:102BC0000E94D3079927182F882319F083E00E94C9
:102BD0006315812F99271F91089580917C018C3175
:102BE00018F04CE150E002C0482F55278CE1E3E497
:102BF000FAE011928A95E9F790917C0180917A012F
:102C000020E030E0A3E4BAE00FC0E82FFF27E6574A
:102C1000FA4FE081992329F08F5F8A3F09F480E021
:102C20009150ED932F5F3F4F2417350771F7909325
:102C30007C0180937A014CE167E37AE08FEF9FEFAC
:102C40000E94B202882319F081E30E94C401089512
:102C50008FB7F894282F332780917D01813021F49C
:102C60002FBF80E090E0089590E080917C01882360
:102C700009F491E0992321F02FBF81E090E00895BD
:102C800081E080937D012FBF0E94ED1580E090E0F0
:102C90000895662351F480917C01882319F00E94E5
:102CA000ED15089510927D01089581E30E94C401FD
:102CB00008950F931F9380912B0A882371F110E0E0
:102CC00001E020912B0A822F8023F9F0E12FFF27CA
:102CD000EE0FFF1FE459FC4F408151811182108299
:102CE000802F8095282320932B0A112319F011306F
:102CF00061F406C04759524069F4109236010AC087
:102D000063E0CA010E94491605C01F5F183028F40D
:102D1000000FD7CF000F1F5FD4CF1F910F910895E1
:102D2000CF92DF92FF920F931F93CF93DF93082FE1
:102D30006B01F42EE82FFF27EE0FFF1FE459FC4F25
:102D400011821082809109019927019662E070E05A
:102D50000E947A3D682F8093090110E0462F552785
:102D6000FA01EE0FFF1FE459FC4FA081B1811097CB
:102D700099F0E62FE695E695E695FF27E55DF54F98
:102D8000808199279A012770307002C095958795A8
:102D90002A95E2F780FF0DC0CA01019662E070E05B
:102DA0000E947A3D682F1F5F1230C1F6109309010F
:102DB0001AC0609309016230B0F4FD013596248198
:102DC0003327ED016D817727762F6627818199273B
:102DD000682B792BAD0186810E941302882319F09C
:102DE00089E00E94C401002319F0013069F408C091
:102DF00087E9C81682E0D80639F41092360104C07B
:102E00006F2DC6010E944916DF91CF911F910F913E
:102E1000FF90DF90CF90089580910901E82FFF2760
:102E2000EE0FFF1FE459FC4F6081718141E00E9469
:102E3000901608951F93182F80917D01882349F4DF
:102E400080917C018D3728F081E080937D010E9484
:102E5000ED158FB7F894282F332790917C019A3F76
:102E6000A8F480917B01E82FFF27E657FA4F1083E3
:102E70008F5F80937B018A3F11F410927B019F5FEB
:102E800090937C012FBF80E090E003C02FBF8FEFB5
:102E90009FEF1F910895CF93DF93EC010E94F60AF4
:102EA000282F8091A5012817D1F0382F3150309369
:102EB000A50113C0822F992753E0880F991F5A95B7
:102EC000E1F7DC01AE5BBD4FFC01E65BFD4F88E046
:102ED00001900D928150E1F72F5F231758F38091F5
:102EE000A9099091AA098C179D07A1F48FEF9FEF74
:102EF0009093AA098093A9091092AC091092AB098A
:102F00001092AD091092AE0981E080935E0188E1D4
:102F10000E94C401DF91CF910895CF92DF92EF928A
:102F2000FF920F931F93CF93DF938C01F62E6A01CC
:102F3000E22E8FB7F894C82FDD2760E080E00E9472
:102F40009B07882321F0CFBF80E090E01EC0CFBF59
:102F50000F0D111D802F80680E941008F82E169505
:102F60000795802F807C0E9410080E2D0AC0EE2D40
:102F7000FF27E01BF109EC0DFD1D80810E94100868
:102F800001500023A1F78F2D9927DF91CF911F9139
:102F90000F91FF90EF90DF90CF900895CF93DF9344
:102FA000CDB7DEB72C970FB6F894DEBF0FBECDBFFE
:102FB0008FB7F894282FAE014F5F5F4FDA01E2E838
:102FC000F5E088E001900D928150E1F780912003B7
:102FD000909121038987892F99278A8780914603B9
:102FE000909147038B87892F99278C872FBF2CE0DF
:102FF00060E080E691E00E948D172C960FB6F89461
:10300000DEBF0FBECDBFDF91CF9108951F93CF9349
:10301000DF93182F8FB7F894C82FDD2760E080E08A
:103020000E949B07882321F0CFBF80E090E005C07D
:10303000CFBF812F0E9410089927DF91CF911F9158
:103040000895EF92FF920F931F93CF93DF93182F62
:103050007B01042F8FB7F894C82FDD2760E080E054
:103060000E949B07882321F0CFBF80E090E014C02E
:10307000CFBF1064812F992790934F0380934E0305
:103080000E941008182F402F5527B70180E090E0CC
:103090000E948A08812F9927DF91CF911F910F916C
:1030A000FF90EF900895C09860917E0170917F012C
:1030B00041E08FE30E942118089582E090E0909310
:1030C000DB018093DA0181E08093D80220E030E0D8
:1030D00080910A01843011F421E030E0232B29F49F
:1030E00084E00E94D307882319F40E94531808959E
:1030F00084E00E94631508951F920F920FB60F92FD
:1031000011242F933F934F935F936F937F938F93EC
:103110009F93AF93BF93EF93FF938091DA019091C8
:10312000DB01019749F482E090E09093DB0180930A
:10313000DA010E945D1805C080913D028F5F809387
:103140003D02FF91EF91BF91AF919F918F917F9140
:103150006F915F914F913F912F910F900FBE0F9004
:103160001F9018951F9380914D01882309F04BC043
:1031700010910A011F3F09F046C060E00E949B07C2
:10318000882309F440C081E0809386098091A701DB
:103190008823E1F11092860985E090E045C09230E5
:1031A00069F5C09A80910B0120E030E08F3F11F467
:1031B00021E030E0232BE9F410930D018F3F19F447
:1031C0002FEF30E00DC0282F3327F901E05CFC4FD2
:1031D000808180930B018F3F11F410930C011083B9
:1031E0002093400281E080934E0182E10E94C4015D
:1031F00005C010930D0110924E0111C080914E0137
:10320000882369F00FC081E090E00EC080910D012D
:1032100090914E01882319F2923021F0EFCF80E097
:103220000E94B20780E090E01F9108951F93CF9312
:10323000DF939FB7F894C92FDD271C2F90910A01C7
:10324000981721F0CFBF81E090E03AC08FEF8093D4
:103250000A0130914D013323F1F48FB7F894992787
:1032600010927B058FBF0E94B218CFBF11C0209370
:103270000A0181E090E002C0880F991F4A95E2F7A9
:103280008095382330934D0180E10E94C4011FBF17
:1032900080E090E015C080E065E0E32FFF270E940A
:1032A0005A3D292F492F5527CF01042E02C095954D
:1032B00087950A94E2F780FDDACF822F8F5FEFCFF8
:1032C000DF91CF911F91089583E00E9416199927ED
:1032D00008951F93CF93DF938FB7F894C82FDD27FE
:1032E0001C2F8091DA019091DB01892B29F484E075
:1032F0000E941619CFBF1EC01092D80280913D02C5
:10330000882311F0B79904C00E9908C0882319F0DA
:10331000815080933D020E945D180BC081E090E0D7
:103320009093DB018093DA0110923D0284E00E94C9
:1033300016191FBFDF91CF911F9108950E943A0B7C
:10334000C09AC09888E00E94061888E00E9406187B
:10335000C09A84E00E9416190E9469190895FF928C
:103360000F931F93CF93DF93F82E8B018FB7F894B1
:10337000C82FDD2760E080E00E949B07882321F0B2
:10338000CFBF80E090E00CC0CFBF8F2D0E9410080F
:10339000812F99270E941008802F0E9410089927DA
:1033A000DF91CF911F910F91FF9008951F931FB749
:1033B000F89480913C02882319F460E070E009C021
:1033C00060E08091320A882309F461E081E0682797
:1033D000772780912703882319F480E090E00AC0C2
:1033E00090E080918105882309F491E081E098279D
:1033F000892F9927762F6627770F770F770FA4E00D
:10340000880F991FAA95E1F7826E9262682B792B3B
:1034100081E10E94AF19812F99278FBF1F910895D5
:103420008FB7F8949927609185068FBF85E0689FD4
:10343000B0011124625D7E4F706488E10E94AF1973
:103440000895EF92FF921F93CF93DF93E0902803AC
:10345000F0902903F70186A99927182F882309F4EA
:103460001FE1C09880913502811749F0612F7727BD
:103470006F717070606E706885E10E94AF19109373
:103480003502F70110818FB7F894C82FDD2760E06F
:1034900080E00E949B07882311F0CFBF12C0CFBFEE
:1034A0008EE390E090934F0380934E038EE30E944F
:1034B00010081150412F552760E070E0C7010E94AD
:1034C0008A08DF91CF911F91FF90EF9008950F939D
:1034D0001F93CF93DF93EC010FB7F89411270E944D
:1034E0003D07FC018FE380830FBF10922E0A1092DC
:1034F0002D0A61E082E00E948107882319F085E0AF
:1035000090E072C0809187098F5F80938709815016
:103510008B838FB7F894082F112762E081E00E9417
:103520009B07882329F40FBF0E94AB0881E05BC092
:103530008FB7F894992724E020937C058FBFD09310
:103540005D03C0935C030FBFFE0131968181298129
:103550009927982F88273327822B932B80729C7C66
:103560008983892F992781832981982F8827332759
:103570002164822B932B8983892F9927818318AE0D
:103580001CAA1DAA1DAE1CAE1BAE80E88AAF61E06E
:1035900060937F0540915C0350915D038FB7F89471
:1035A000282F332780914F01909150018830910549
:1035B00011F0019711F02FBF15C082E090E09093B9
:1035C000500180934F0160937F0A509329034093E9
:1035D0002803109283012FBF0E94DE15882311F467
:1035E0000E94211A80E09927DF91CF911F910F91BE
:1035F0000895CF93DF93DA01422F293218F082E049
:1036000090E05EC0ED018B876E83872F99278F83B3
:103610002FB7F894332780912003909121032FBF77
:10362000FD018483892F992785832FB7F894332749
:1036300080910E0190910F012FBF8887892F9927C4
:1036400089873196818129819927982F8827332767
:1036500020643868822B932B8983892F9927818353
:10366000435F4C934D5080911101882359F0109283
:103670001101642FCD010E94671A9927282F8823F2
:10368000A9F417C0842F9927909359038093580366
:10369000B0935401A093530184E10E94C40180912E
:1036A0001101882349F489E090E00AC08FEF8093EC
:1036B0001101822F992704C01092320380E090E01C
:1036C000DF91CF910895CF93DF93582FFB01823084
:1036D00018F081E090E033C0C82FDD27CC0FDD1F4C
:1036E000C652D64F88819981892B19F085E090E0E8
:1036F00026C079836883435F40834D5080911401D5
:10370000823018F480E090E01AC0838567817727C3
:10371000762F662726813327622B732B5093140153
:10372000242FAF010E94F91A9927282F882329F006
:1037300082E08093140119821882822F9927DF91E9
:10374000CF9108951F938FB7F894282F3327809136
:103750004C01882311F02FBF30C02FBF80B39927B1
:1037600016E0969587951A95E1F7182F11709091AC
:103770004A0380914B038917D9F01917C9F484E0E3
:1037800090E090934B0180934A018FB7F89499276A
:1037900021E020934C018FBF60E070E08DE10E943A
:1037A000AF190E94CE17C09AC0988AE00E94C40147
:1037B00010934B038FE00E94C4011F9108951F9343
:1037C000182F81E090E09093500180934F01109268
:1037D000A7010E94B2188FB7F89499271093490156
:1037E0008FBF8CE00E94C4011F9108951F93182F72
:1037F0000E94C603809122058A7F809322058093D0
:1038000074000E94C6038091220584608093220583
:103810008093740081E0809370018091710188230E
:10382000B9F480912301882319F0813089F406C00E
:103830000E94CF0380E00E9413150AC00E94CF03AC
:1038400081E00E94131510933B028DE20E94C40197
:103850001F9108951F920F920FB60F9211242F936C
:103860003F934F935F936F937F938F939F93AF9308
:10387000BF93EF93FF930E94C60380917001843041
:1038800009F4D9C0863021F0833009F001C141C06C
:1038900090917100987F80917101813041F4903452
:1038A000B1F583E0809370012091B30947C098314E
:1038B00071F583E0809370019091B3098091840148
:1038C00020912205981708F475C0922F9E7F90933F
:1038D00022058091980A81FF07C08D7F8093980A06
:1038E00090619093220503C02E772093220580914A
:1038F00022058093740081E0809370018091230100
:10390000882309F487C0813009F0C2C089C084E0EF
:10391000A7C0809171019091B309813009F044C032
:10392000E0913E02F0913F02E90FF11D809173009A
:1039300080832091B3092F5F2093B3098091840184
:103940002817A0F43327992701972817390749F436
:103950008091980A82FD05C0809122058F7B80931B
:103960002205809122058093740092C090912205D7
:10397000292F2E7F209322058091980A81FF09C06C
:103980008D7F8093980A2061209322058091710099
:1039900003C09E7790932205809122058093740046
:1039A00081E08093700174C0809184012091220590
:1039B000981778F4E0913E02F0913F02E90FF11D73
:1039C0008081809373009F5F9093B309209374006C
:1039D0005FC0922F9E7F909322058091980A81FF6D
:1039E00007C08D7F8093980A90619093220503C051
:1039F0002E7720932205809122058093740081E028
:103A00008093700180912301882321F0813009F097
:103A10003FC006C00E94CF0380E00E94131538C04B
:103A20000E94CF0381E00E94131510923B028DE2A9
:103A30000E94C4012DC08091980A8E7F8093980ABD
:103A4000909122059F7D9093220580917100887F3F
:103A5000883049F080917100887F803121F081E0C9
:103A60000E94F61B15C0392F3064309322059091C7
:103A70002A03990F20E080917101813009F421E03F
:103A8000922B9093730086E08093700130937400C2
:103A9000FF91EF91BF91AF919F918F917F916F9126
:103AA0005F914F913F912F910F900FBE0F901F90FC
:103AB0001895EF92FF920F931F93F62EE22E9FB769
:103AC000F894292F332790912301981711F02FBFD5
:103AD0009CC02FBF8FB7F894282F33278091700197
:103AE000813041F582E0809370012FBF8FB7F89449
:103AF000992750932B0340932A0310933F0200937E
:103B00003E02E09284016093980A1092B3091092E9
:103B100071018FBF0E94C6038FB7F894182F909140
:103B20002205916C9F7E909322056F2D772760FD73
:103B30000BC011C0882321F42FBF84E090E06FC038
:103B40002FBF85E090E06BC090629093220584E0E7
:103B5000809370015DC0EE2009F449C083E080933A
:103B600070012091B30980918401281778F4E091C5
:103B70003E02F0913F02E20FF11D808180937300BD
:103B80002F5F2093B3099093740046C0292F2E7F96
:103B9000209322058091980A81FF07C08D7F809332
:103BA000980A20612093220503C09E7790932205F6
:103BB000809122058093740081E080937001809150
:103BC0002301882319F0813039F506C00E94CF0304
:103BD00080E00E94131520C00E94CF0381E00E9464
:103BE000131510923B028DE20E94C40115C061FFC3
:103BF00008C085E0809370019F7B906190932205BF
:103C000007C081E0809370011FBF81E090E007C092
:103C100080912205809374001FBF80E090E01F9187
:103C20000F91FF90EF900895CF92DF92EF92FF9265
:103C30000F931F93CFB6F894DD240E94A206DC01F7
:103C4000CB0166E470E00E94663D0BE0E02EF12CB3
:103C5000E80EF91EF0927C0AE0927B0A0E94550B56
:103C600000271127A80197010E94120CCFBE1F91B7
:103C70000F91FF90EF90DF90CF9008951F93CF9317
:103C8000DF938FB7F894C82FDD271C2F80914F0149
:103C9000909150010897C9F489E00E94061883E0CA
:103CA0000E941619C09A81E090E090935001809391
:103CB0004F018FB7F894992723E0209349018FBFD4
:103CC0008CE00E94C401CFBF30C0C09880917F0AB1
:103CD000882311F085E001C084E00E94061883FD6E
:103CE00009C080E00E94061883FF04C085E090E0D0
:103CF00020E003C083E090E021E0909350018093A6
:103D00004F01C09A1FBF222341F01092830183E02C
:103D10000E9416190E94141E08C00E94550B20E430
:103D200031E040E050E00E94120CDF91CF911F91F2
:103D300008951F93CF93DF938FB7F894992710912D
:103D40000A018FBF123009F465C0133030F411231B
:103D500059F0113009F0ACC048C0133009F474C0F8
:103D6000143009F0A5C0A2C0C0988FB7F894C82F2E
:103D7000DD2780914A0190914B010297A1F583E0E4
:103D800090E090934B0180934A0168E170E08DE1EF
:103D90000E94AF1981E080934A0310924C0180B3D6
:103DA000992726E0969587952A95E1F7817090707E
:103DB00080934B038FE00E94C40181E00E940618AB
:103DC0006FE772E08CE10E94AF190E94101A0E9406
:103DD000D61966E57AE287E10E94AF196FEF70E8C5
:103DE00085E10E94AF19CFBF63C0C09886E00E94F2
:103DF00006180E94101A0E94D6190E94CE17C09A67
:103E0000C09883E00E940618C09A81E00E941619AB
:103E10008EE045C0C0988FB7F894C82FDD2760E0CA
:103E200080E00E949B07882311F0CFBF0AC0CFBF5C
:103E300083E50E94100880E00E94100880E00E9444
:103E40001008C09A82E02FC08FB7F894992720916C
:103E50004F018FBF243039F0283041F0223011F566
:103E60000E94211A25C00E943E1E22C0C09889E0EF
:103E70000E940618C09A83E00E9416198FB7F89422
:103E8000992721E030E03093500120934F018FBFFC
:103E90008FB7F8949927109349018FBF8CE00E9447
:103EA000C40106C083E00E94161902C00E94531884
:103EB000DF91CF911F910895EF92FF920F931F937F
:103EC000CF93DF938B0180914E0390914F0386FF38
:103ED00040C18F7B8F3309F08EC1C0917E01D0919C
:103EE0007F01588150931D028091DA019091DB018E
:103EF0008530910509F443C08630910509F48AC0E4
:103F0000029709F01FC185E090E09093DB01809358
:103F1000DA014091A201852F99270196242F33279A
:103F2000281739074CF1B79906C00E9904C0451BF4
:103F300041504093A20140911D024633E8F44423CE
:103F4000A1F0BE016F5F7F4F483018F047E050E0AE
:103F500007C086E090E09093DB018093DA0155275B
:103F600080E090E00E948A0846C11092D802C09A70
:103F700084E00E941619E3C00E949E193CC186E0AD
:103F800090E09093DB018093DA01809127038823EE
:103F900009F439C0809181058823A9F5898185FFBD
:103FA00032C08F814E812FB7F8943327609146033A
:103FB000709147032FBF9927982F88275527842B67
:103FC000952B8617970759F08F812E819927982F67
:103FD00088273327822B932B8F5F9F4FA1F48981F2
:103FE0008770813081F4C09AC0988AE00E940618D8
:103FF000C09AC09840911D0247502896BE018FE399
:104000000E942118F8C040911D024750552728965C
:10401000BE01A6CFC09A80913D02882339F484E086
:104020000E94161980913D02882311F0B7990AC0A9
:104030000E9B08C090911E0A992321F080911D02C9
:104040008B3038F480917E0190917F010E94460B65
:104050003DC0913001F5E091280AFF27EE0FFF1FC8
:10406000EE0FFF1FE654F64F2081318142815381CC
:10407000E0917E01F0917F0125AFBB27A52F942F02
:10408000832F84AFCA01AA27BB2783AF252F3327ED
:104090004427552722AF8091280A9927019668E086
:1040A00070E00E947A3D8093280A80911E0A815018
:1040B00080931E0A882351F080917E0190917F01A8
:1040C0000E94460B1092280A10921E0A80911D022F
:1040D000FE01E80FF11D808187FF31C0012B79F1CE
:1040E00069816770E0917E01F0917F01623019F57E
:1040F000A0912803B0912903109709F180914F01F5
:10410000909150010797D9F4ED019B818381981715
:10411000B1F487B78F7E87BF908181E088AFE90FC8
:10412000F11D829131968CAB80818F778DAB80E0D1
:104130000E94DF1B04C0613011F483E12AC00E9499
:10414000691959C01092D802C09A84E00E941619C9
:1041500052C08E3309F04FC0C09A80914F019091A8
:1041600050010897C9F4C09889E00E940618C09AC7
:1041700083E00E94161981E090E0909350018093B3
:104180004F018FB7F894992723E0209349018FBFFF
:104190008CE00E94C4012FC080917F0A882349F4DB
:1041A00084E090E09093500180934F010E943E1E66
:1041B00022C083E00E94161983E090E090935001A2
:1041C00080934F010E94A206DC01CB0166E371E0FF
:1041D0000E94663D3BE0E32EF12CE80EF91EF092C2
:1041E0009A01E09299010E94550B00271127A8011E
:1041F00097010E94120CDF91CF911F910F91FF90B8
:10420000EF9008951F920F920FB60F9211242F93E3
:104210003F934F935F936F937F938F939F93AF934E
:10422000BF93EF93FF932FB1E091E004F091E1048D
:10423000309739F080916A0390916B03E80FF91F72
:10424000208380916A0390916B03019690936B0396
:1042500080936A0380E00E94B807409181015091E9
:10426000820180916A0390916B038417950718F47B
:104270000E941C081CC06091E0047091E1048091D0
:10428000350A9091360A1092E1041092E0041092DF
:10429000360A1092350A1092820110928101109212
:1042A0006B0310926A032FB120E00E945C1FFF9104
:1042B000EF91BF91AF919F918F917F916F915F919E
:1042C0004F913F912F910F900FBE0F901F90189517
:1042D00078941F920F920FB60F9211242F923F9253
:1042E0004F925F926F927F928F929F92AF92BF9206
:1042F000CF92DF92EF92FF920F931F932F933F93F2
:104300004F935F936F937F938F939F93AF93BF93DD
:10431000CF93DF93EF93FF93C6B5D7B58FB7F894DC
:10432000282E0E94550B9B012C1B3D0B4427552723
:104330002B013C01421A530A640A750A80914F010D
:10434000909150018530910521F0069709F0E0C069
:10435000BFC086E090E09093500180934F0131E020
:10436000332E309296021092510180E00E942D0C63
:10437000E0912803F091290345AEBB27A72D962D88
:10438000852D84AFC301AA27BB2783AF872D99272B
:10439000AA27BB2782AFE0912803F091290381ADC2
:1043A000882309F484C06081655077274F01860E09
:1043B000971EF4012081E1808281A3809927AA279A
:1043C000BB27BA2FA92F982F882733274427552793
:1043D000522F442733272227FF2400271127870144
:1043E000FF24EE242E293F29402B512BBB24CC2423
:1043F000DD242A293B294C295D29822B932BA42BD0
:10440000B52B84199509A609B7098383292F3A2F5B
:104410004B2F552722839D014427552721838B2F1E
:104420009927AA27BB278083C09824E0A40180E0B5
:1044300090E00E948D17C09AF4012081E180828172
:10444000A3809927AA27BB27BA2FA92F982F88279F
:10445000332744275527522F442733272227FF2469
:10446000002711278701FF24EE242E293F29402B06
:10447000512BBB24CC24DD242A293B294C295D293E
:10448000822B932BA42BB52B840D951DA61DB71D38
:104490008383292F3A2F4B2F552722839D014427B1
:1044A000552721838B2F9927AA27BB278083E0914B
:1044B0002803F0912903818185FF02C03092A70172
:1044C00083E00E94161987B78F7E87BF84997AC0D0
:1044D0001092960281E00E942D0CE0912803F09149
:1044E0002903818185FF0FC087E090E09093500100
:1044F00080934F010E94550B20E031E040E050E0F6
:104500000E94120C03C080E00E94DF1B849B5AC0F3
:1045100080915101882391F580919602882371F54D
:1045200011E0109396020E942D0C80B320911E0A78
:10453000283098F4E091280AE20FFF27E770F07026
:10454000EE0FFF1FEE0FFF1FE654F64F4082518221
:10455000628273822F5F20931E0A10935101D093C1
:104560005103C093500384992DC0992724E0969558
:1045700087952A95E1F7182F117001C010E08091FE
:1045800096028130F9F4109296020E942D0C10923E
:1045900051011123B9F48091500390915103C81B2C
:1045A000D90B2A9778F480911E0A882319F081503C
:1045B00080931E0A8091280390912903009711F09F
:1045C0000E94460B2FBEFF91EF91DF91CF91BF91DB
:1045D000AF919F918F917F916F915F914F913F919B
:1045E0002F911F910F91FF90EF90DF90CF90BF9090
:1045F000AF909F908F907F906F905F904F903F9083
:104600002F900F900FBE0F901F90189578941F92C7
:104610000F920FB60F9211241F932F933F934F9336
:104620005F936F937F938F939F93AF93BF93EF931A
:10463000FF9387B78F7E87BF78941FB7F8948091D8
:10464000380390913903A0913A03B0913B0300974E
:10465000A105B10509F051C080914F019091500121
:104660008530910561F18630910530F483309105F4
:1046700049F0049781F51AC087309105F1F0089749
:1046800051F514C0869B0FC084E090E090935001D8
:1046900080934F010E94550B27E030E040E050E04E
:1046A0000E94120C18C00E94141E15C00E94DE1534
:1046B000882389F40E943E1E0EC080E00AC089E073
:1046C0000E94061881E00E942D0C83E00E941619BA
:1046D00087E00E94DF1B80914A0190914B01019776
:1046E00071F482E090E090934B0180934A01DE9850
:1046F000DE9A80E00E94631502C00E94720B812F37
:1047000099278FBFFF91EF91BF91AF919F918F91AB
:104710007F916F915F914F913F912F911F910F90DA
:104720000FBE0F901F90189561E081E00E948107F5
:104730008823E9F48FB7F894282F332780914A0112
:1047400090914B01892B11F02FBF20C081E090E0A8
:1047500090934B0180934A012FBFDD9A0E94550B25
:1047600024E130E040E050E00E94120C0FC062E013
:1047700081E00E949B07882319F089E090E008956A
:1047800061E081E00E949B07882319F080E090E0BF
:10479000089585E090E00895EF920F931F9389B7F5
:1047A0008F7789BFA39AAB9AA69AAE98AE9A80915A
:1047B0001F0110923802809339028FB7F894282F86
:1047C0003327922F80916F01882309F045C0F1E0D3
:1047D000EF2EE0926F01109280012FBF8FB7F894F7
:1047E000082F1127809170018823C9F4909A919A1B
:1047F000889889981092710081E4809370001092DB
:104800007200109274000E94C60380912205846099
:104810008E7F8093220580937400E09270010FBF19
:104820008FB7F894082F1127902F809122018230A2
:1048300059F580916F01813021F489E20E94C40111
:1048400009C0823009F5809180018093220183E0C4
:1048500080936F010FBF1FC080918001882311F4E6
:104860002FBF19C08091290A8F3F71F4E091210177
:10487000EE2351F00BC01092200104C0FF27E75D2A
:10488000F54F1082109221019FBF05C08091200139
:104890008F3FA1F7F0CF0E94E902AB01BC01E1E03C
:1048A000EE2E00EB14E020E030E088E00E94CA0227
:1048B00080E090E01F910F91EF900895EF920F9399
:1048C0001F93A59AAD9A0E94E902AB01BC01A1E039
:1048D000EA2E04E610E020E030E089E00E94CA02FF
:1048E00080E090E01F910F91EF900895AF92BF92FA
:1048F000CF92DF92EF920F931F935B016C010E94A6
:10490000E902AB01BC01B1E0EB2E9601850180E02C
:104910000E94CA021F910F91EF90DF90CF90BF903D
:10492000AF900895EF92FF920F931F93CF93DF9371
:104930007C01EC018A818823A9F4F092340AE09288
:10494000330A8A81882309F08FC06C5D714009F0B9
:104950008BC01092350164E670E080E090E00E9428
:10496000762482C0442309F477C0E70108811981C5
:1049700080918B01843009F046C0C8010E94FF0875
:1049800020918B01622F0E945A3D492F9217D8F532
:10499000992359F480915E039927019664E070E0B1
:1049A0000E947A3D80935E0329C080915E03840F4C
:1049B000912D911D9C0123703070E901CC0FDD1FFA
:1049C000CC0FDD1FC20FD31F019664E070E00E9480
:1049D0007A3DFC01EE0FFF1FEE0FFF1FE80FF91FDE
:1049E000C15EDD4FE15EFD4F85E00190099281508F
:1049F000E1F74F5F80918B014817B8F280918B01EE
:104A0000815080938B0140918B0180915E03840FD4
:104A1000912D911D83709070D8011C96FC01EE0FB2
:104A2000FF1FEE0FFF1FE80FF91FE15EFD4FE801CA
:104A300088899927982F882729893327822B932BB8
:104A400091838083ED018E818283898184838F812C
:104A500083834F5F40938B01F701808191810E9496
:104A60004809C7010E946709DF91CF911F910F91FB
:104A7000FF90EF900895AF92BF92CF92DF92EF92A6
:104A80000F931F935B016C010E94E902AB01BC0113
:104A9000E1E0EE2E9601850184E00E94CA021F919A
:104AA0000F91EF90DF90CF90BF90AF900895CF928D
:104AB000DF92EF92FF920F931F936C017B010E9494
:104AC000A206DC01CB01B6010E94663DE80EF91E8C
:104AD00000271127C801B7010E943B251F910F91A4
:104AE000FF90EF90DF90CF9008950F931F93CF9397
:104AF000DF93EC01E0915601FF27EE0FFF1FE8570F
:104B0000F64F00811181662329F06CE170E08CE1A1
:104B100090E02FC08091550183FF3DC088AD882370
:104B2000D1F58F819927982F88272E813327822BC3
:104B3000932B0E945606982F8F3F71F08EE0989F1E
:104B4000F0011124E958FC4F85858F5F85878530FA
:104B500018F0CF010E94C90888E10E94C401F80141
:104B6000838181508383882339F067E070E087E098
:104B700090E00E9457253FC00E94E40880915501B3
:104B80008F7E8093550167E070E087E090E00E949F
:104B9000572540E02CC00E94E408809155018F7E8B
:104BA0008093550167E070E087E090E00E94572510
:104BB0008F819927982F88272E813327822B932B3B
:104BC0000E945606982F8F3F89F08EE0989FF00143
:104BD0001124E958FC4F84858F5F848785858F5F1A
:104BE0008587853018F0CF010E94C90841E0BE01D9
:104BF000C8010E949224DF91CF911F910F910895D7
:104C0000282FCB01222319F0213071F404C0642F26
:104C10000E94752508956C5D724031F480915D01AC
:104C2000882311F010925D010895FF920F931F9356
:104C3000CF93DF93082FEB01F42EE82FFF27EE0F21
:104C4000FF1FE652F64F11821082809114019927BE
:104C5000019662E070E00E947A3D682F8093140113
:104C600010E0462F5527FA01EE0FFF1FE652F64FD0
:104C7000A081B181109799F0E62FE695E695E6952B
:104C8000FF27EA5CFC4F808199279A0127703070DA
:104C900002C0959587952A95E2F780FF0DC0CA015D
:104CA000019662E070E00E947A3D682F1F5F12302B
:104CB000C1F61093140119C0609314016230A8F476
:104CC0002C912D503327FD0167817727762F66279A
:104CD00086819927682B792BAD0183850E94F91A6B
:104CE000882319F087E10E94C401002319F00130E4
:104CF00079F405C06F2DCE010E94752509C0CC5DE9
:104D0000D24031F480915D01882311F010925D0151
:104D1000DF91CF911F910F91FF9008959B0180919A
:104D20001401823068F4E82FFF27EE0FFF1FE652D0
:104D3000F64F608171816217730711F40E94152686
:104D40000895CF93DF93C0915301D09154016091A6
:104D50005803CE010E94671A482F5527442351F06B
:104D60008FEF8093110160915301709154018B85F5
:104D70000E948E26DF91CF910895AF92BF92CF927D
:104D8000DF92EF92FF920F931F93CF93DF93CDB7F4
:104D9000DEB722970FB6F894DEBF0FBECDBF80916D
:104DA000550184FDD6C090E080915801882309F414
:104DB00091E0992309F0CDC080918C01882359F4AA
:104DC00020E08091A9099091AA098F5F9F4F09F077
:104DD00021E0222331F0CE0101960E94860988232A
:104DE00039F060E177E280E090E00E943B25B1C0BD
:104DF000E0915601FF27EE0FFF1FE857F64FC080E6
:104E0000D180D601ED91FC91F080A090A909B090DD
:104E1000AA09CF010E94FF0820E090918B01891719
:104E200008F421E0222359F00E94E408F601808171
:104E300091810E944809C6010E94670987C080913C
:104E40008C01D601ED91FC91882359F1B388A09192
:104E50004803B091490380E401900D928150E1F73D
:104E60000091480310914903F80180818551E82E93
:104E7000FF246E2DC8010E946D04BC01FBE2BF1629
:104E800029F44E2DC8010E94B1098C0110934903E9
:104E90000093480360E0D6018D919C910E94752596
:104EA00058C089819A818787892F99278687D6015B
:104EB000ED91FC91119784858F7384874D915C915E
:104EC000DA011196FD0121813327322F2227FA01C1
:104ED000818199278062282B392B2183232F332727
:104EE000FD0121838091550188608093550180FFE9
:104EF0000BC0D601ED91FC918485806484878091FC
:104F000055018E7F80935501F60100811181B50115
:104F1000C8010E94370781E7F8018387F3EFFF0E8E
:104F20004F2D5527B80180E00E94631B99278823E5
:104F300031F4809155018061809355010AC082301F
:104F400041F4D601ED91FC9185E3808385E10E94D7
:104F5000C40122960FB6F894DEBF0FBECDBFDF911D
:104F6000CF911F910F91FF90EF90DF90CF90BF9066
:104F7000AF900895AF92BF92CF92DF92EF920F93CE
:104F80001F935B016C010E94E902AB01BC0111E0BF
:104F9000E12E9601850182E00E94CA021F910F91C5
:104FA000EF90DF90CF90BF90AF900895EF92FF9277
:104FB0000F931F938091160190911701A0911801F2
:104FC000B0911901B695A795979587958093920210
:104FD00090939302A0939402B09395020E94A2062C
:104FE000E0909202F0909302009194021091950249
:104FF000A80197010E948D3D6E0D7F1D801F911F9E
:10500000609392027093930280939402909395021E
:105010001092A2090E94BA271F910F91FF90EF9062
:10502000089580E890E0A0E0B0E0809316019093AE
:105030001701A0931801B09319010E94D627089573
:105040003F924F925F926F927F928F929F92AF9218
:10505000BF92CF92DF92EF92FF920F931F93CF9365
:10506000DF93CDB7DEB7AC970FB6F894DEBF0FBEB7
:10507000CDBFA0917E01B0917F01FC909D012F0DCD
:10508000311DF9018081881F8827881FFD0187ABAA
:10509000F90180818F77FD0185AB21503040F90106
:1050A0008081FD0184ABA0917E01B0917F01FD0163
:1050B00032818FB7F894992720913C028FBF222329
:1050C00009F490C0832F9927969587959695879593
:1050D000837090708230910541F5878146812FB7AA
:1050E000F894332760914603709147032FBF9927A7
:1050F000982F88275527842B952B8617970719F407
:1051000081E090E06CC0FD018781268140E050E0A5
:105110009927982F88273327822B932B8F5F9F4FB8
:1051200011F441E050E0CA015AC0039709F0EBC303
:105130009E012D5F3F4F42E855E088E0FA01019063
:10514000AF01F90101929F018150C1F79E012D5DD0
:105150003F4FAE014D5F5F4F88E0FA010190AF0114
:10516000F90101929F018150C1F79E01255F3F4FD8
:10517000AE014D5D5F4F88E0FA010190AF01F9018A
:1051800001929F018150C1F79E012D5E3F4FAE01FC
:10519000455F5F4F88E0FA010190AF01F90101928C
:1051A0009F018150C1F79E01255E3F4FAE014D5ECC
:1051B0005F4F88E0FA010190AF01F90101929F0170
:1051C0008150C1F748E050E0BE01655E7F4FCD01E0
:1051D00006960E94053E892B09F095C303C08823DB
:1051E00009F491C3FCE0FF1508F08DC3C0907E0167
:1051F000D0907F01DCA6CBA6F6012281822F9927D1
:1052000036E0969587953A95E1F7039719F468E0AB
:1052100070E002C062E070E0822F99279695879532
:105220009695879583709070039719F488E090E0C5
:1052300002C082E090E026E030E0C20ED31E40E0E3
:1052400050E020E030E0F601E80FF91F8AEF9FEF11
:10525000C80ED91E05C08191480F511D2F5F3F4FC9
:1052600026173707C4F3F60163818FEF80932F0A67
:105270008FB7F894782F20E030E0EDE8F1E08081FE
:1052800091818417950731F48281861709F415C33B
:1052900020932F0A2F5F3F4F33962430310579F743
:1052A0007FBF90912F0A3FB7F8949F3F21F08091E4
:1052B0005201891799F420915201822F9927FC01FC
:1052C000EE0FFF1FE80FF91FE357FE4F5183408396
:1052D00062832F5F2370209352010CC0892F99277E
:1052E000FC01EE0FFF1FE80FF91FE357FE4F51833C
:1052F00040836283832F99278FBF0FB7F8941127BC
:10530000C6010E943D07FC0190810FBFF60187A9ED
:10531000882309F4E7C29F3309F0E4C287814681FC
:105320002FB7F894332760910E0170910F012FBFB2
:105330009927982F88275527842B952B8617970711
:1053400061F0878126819927982F88273327822B20
:10535000932B8F5F9F4F09F0CCC2AF2DAD50F6015C
:1053600083859927803721F0813709F0BBC28DC131
:10537000F601878126819927982F88273327822B4A
:10538000932B8F5F9F4F09F08EC0F601818520859A
:105390009927F82EEE243327E22AF32A04850E9467
:1053A000EE09C7010E9456068F3F21F0F601658580
:1053B00077270CC00E94A60A182F8F3F51F0B70123
:1053C0000E94B80AF60165857727812F0E94EF09B0
:1053D0001CC087E30E94CD0A182F8F3F09F461C0DB
:1053E0009927880F991FFC0153E0EE0FFF1F5A9574
:1053F000E1F7E81BF90BE958FC4F808191810E948D
:105400004B17B701812F0E94B80A4FE0942E9022CB
:1054100009F447C0F60180818D50893218F020E0F0
:1054200030E003C09601245F3F4F8901080F111D32
:1054300083E0989EC0011124081B190B8FB7F894C4
:10544000992760900E0170900F018FBFBB2483E0FD
:10545000B89EF0011124E00FF11F8081218199276E
:10546000982F88273327822B932B86159705B1F425
:10547000A280C7010E9456068F3F81F09927880FAE
:10548000991FFC01A3E0EE0FFF1FAA95E1F7E81BAF
:10549000F90BE958FC4FA18686E08783B394B914D1
:1054A000B1F60E94EE09C6010E942B0B182F682F3F
:1054B000C6010E942B077C01153009F013C2F601CA
:1054C0001185908460E4C6010E94160B382E5701A6
:1054D0000894A11CB11CF701818125010894411C8D
:1054E000511CF50121819927982F88273327822B7A
:1054F000932B8F5F9F4F09F4C0C0812F9927182FDE
:105500000027892D9927082B192B53E0852E912CE4
:105510008E0C9F1CF701838144E0642E712C6E0C6D
:105520007F1C24819927982F88273327822B932B40
:10553000892B51F5C8010E9456068F3F11F50E9434
:10554000A60A8F3F11F0B8011AC080E00E94CD0A70
:10555000F82EFFEF8F17A9F09927880F991FFC01EC
:10556000A3E0EE0FFF1FAA95E1F7E81BF90BE9583E
:10557000FC4F808191810E944B17B8018F2D0E94B2
:10558000B80AC8010E948806F4019080F301808067
:10559000F501B080F201A080C8010E946E067C0176
:1055A000C8010E94F60A482F8A3009F43FC0892DAD
:1055B0009927782F6627882D9927682B792B8B2D93
:1055C0009927382F22278A2D9927282B392B80912C
:1055D000A5014817D1F4F2E3EF16F10438F5E42FF2
:1055E000FF2753E0EE0FFF1F5A95E1F7EE5BFD4FEB
:1055F00011830083338322837583648381E08683F0
:1056000017824F5F4093A50111C0E42FFF2793E05D
:10561000EE0FFF1F9A95E1F7EE5BFD4F11830083BC
:10562000338322837583648381E0868380911501AF
:10563000882319F5C8010E94F60AE82F8091A50178
:10564000E81748F4FF2783E0EE0FFF1F8A95E1F784
:10565000EE5BFD4F37828091AE09882311F0332035
:1056600049F08091A9099091AA098017910729F41E
:10567000332019F088E10E94C40160E8C6010E944D
:10568000160B882309F42EC11FC1F601F388858506
:105690008F5F8587A93208F025C1C6010E94FF08E7
:1056A00020E090918B01891708F421E0222309F072
:1056B00019C120915801822F9927B82F882309F406
:1056C00041C0A0915601A20FA150B150AD3010F4CD
:1056D000EA2F02C0EA2FED50FF27EE0FFF1FE85719
:1056E000F64F0190F081E02D00811181F8012089B1
:1056F0004189F601808961893327322F2227552776
:10570000242B352B9927982F88277727862B972BA3
:105710002817390709F0F2C0F8019289F601828949
:10572000981709F0EBC0F8019585F6018585981763
:1057300009F0E4C0F8019389F6018389981709F00C
:10574000DDC0D0C080918C018823A9F0F601808152
:105750008551082F1127602FC6010E946D04BC01DE
:10576000FBE2FF1609F0BEC0402FC6010E94B1093E
:105770009CA78BA7B7C080E020915B03222309F48C
:1057800081E0882309F0AEC090915A03992309F46F
:1057900081E0882309F0A6C0992309F4A3C0809171
:1057A0002C0AE82FFF27EE0FFF1FE058F54F00816E
:1057B000118111821082915090935A038F5F8093D0
:1057C0002C0A8C3011F410922C0A0115110509F4E1
:1057D00089C0222309F486C080913303E82FFF2774
:1057E000EE0FFF1FE45AFA4FE080F1801182108221
:1057F000215020935B038F5F809333038C3011F42F
:1058000010923303E114F10409F46CC080E4F70151
:1058100011928A95E9F724E330E0C20ED31E8CE0A2
:10582000F60111928A95E9F72CEC3FEFC20ED31ED8
:10583000F801D182C0828FEF82838EE18383C80119
:105840000E947904882391F5CE0101960E94860971
:10585000882311F5F601868527859927982F8827B3
:105860003327822B932B29813A8128173907A0F0FF
:1058700080E890E0A0E0B0E08093160190931701DB
:10588000A0931801B09319010E94D6276CE170E033
:105890008CE190E00E9457258091320481FD03C085
:1058A00085E10E94C401FCA6EBA61CC0C7010E94B2
:1058B0004809C8010E94670915C07FBF13C0F601DF
:1058C00084858078803871F480E890E0A0E0B0E0D2
:1058D0008093160190931701A0931801B0931901BA
:1058E0000E94D6272BA53CA530937F0120937E01F3
:1058F0000AC0F60183858137A9F7E1CFA150BB2308
:1059000009F0E3CE1FCF8FB7F89499271092D802F1
:105910008FBF0E946919AC960FB6F894DEBF0FBE18
:10592000CDBFDF91CF911F910F91FF90EF90DF904E
:10593000CF90BF90AF909F908F907F906F905F902F
:105940004F903F900895EF92FF920F931F930FB7E0
:10595000F894112781E00E942D0C81E0E82EF12CB3
:10596000F0925001E0924F01109251011092A70164
:10597000109235020FBF0FB7F89411270E943A0B0F
:10598000F092DB01E092DA011092D80289B78F7BA6
:1059900089BF80E488BF8AB780628ABF8AB78F7E5A
:1059A0008ABF89B7806489BF0FBF8FB7F894082F6B
:1059B000112780914A0190914B01049719F483E0DB
:1059C0000E9406180FBF0FB7F8941127C09A80E005
:1059D0000E9416190FBF8FB7F894992722E02093E1
:1059E0007C058FBF01E0F02EF0925B0180915C019D
:1059F000882311F00E94A206809155018460809353
:105A0000550190E080915801882309F491E0992391
:105A100019F485E10E94C401809155018260809350
:105A200055018FB7F894992720910E0130910F01FD
:105A30008FBF309375052093740580915C01882396
:105A4000E1F4F0925C0180E890E0A0E0B0E08093A7
:105A5000160190931701A0931801B09319010E94A9
:105A6000D6270E94E902AB01BC01EE2400E010E25F
:105A700020E030E083E00E94CA0280913401882354
:105A8000E1F02091A9093091AA09F0928C0180914E
:105A90007405909175059093AA098093A9091092B5
:105AA000AC091092AB092F5F3F4F69F485E10E946A
:105AB000C40180913401882331F464E670E080E011
:105AC00090E00E9476241F910F91FF90EF9008952F
:105AD0008F929F92AF92BF92DF92EF92FF920F93BD
