S01800006275696C642F6D6963617A2F6D61696E2E73726563E5
S11300000C947C000C9489110C9493110C949D1104
S11300100C94A7110C94B1110C94BB110C94D5162B
S11300200C94C5110C949B000C949B000C9410240C
S11300300C94AE250C9453110C9469110C94411238
S11300400C94A70D0C9482230C94670F0C949B00C2
S11300500C94E30F0C94CF110C949B000C949B0014
S11300600C945E110C9420110C94FF100C940A1142
S11300700C9415110C9433110C94E2100C949B0005
S11300800C94F4100C949C1E0C949B005F2FDB2F9B
S11300900E3069304E3169316B316E319731582FE2
S11300A0DD31EB31EE31FC31FF31023208320B32FB
S11300B00E32113214325B366B366E36713674364C
S11300C05D3760376337663769376C376F37733737
S11300D07637863797379A379D37A037A437B537A1
S11300E0B837DE37E137E4372B38E737FA37FD37EF
S11300F00E3800081C18141011241FBECFEFD0E1D5
S1130100DEBFCDBF11E0A0E0B1E0E8EBFEE700E028
S11301100BBF02C007900D92A433B107D9F71CE0BE
S1130120A4E3B1E001C01D92AE39B107E1F70E942A
S113013062380C945B3F0C9400008FB7F8949927B5
S113014008958FBF0895282F9FB7F894E82FFF27AD
S1130150E255FE4F80818F3F81F4E091790CE217E4
S113016071F40BC020931A0C04C0FF27E255FE4F14
S113017020832093790C20E007C025E005C08091FE
S11301801A0C8F3F91F7EECF892F99278FBF822FBB
S11301909927089580E00E94A300992708952FB716
S11301A0F89433278091490280930D0182E0809373
S11301B054012FBF80910D01882329F4B89AC09867
S11301C081E10E94A300089589E10E94A300992778
S11301D0089586E10E94A300992708951D98159813
S11301E088E20E94A30080E090E008951F931FB767
S11301F0F8948091740C882341F483E00E94A30056
S1130200882319F481E08093740C812F99278FBF80
S11302101F910895382FFA01422F293218F082E0F5
S113022090E008956683872F9927858333872187F4
S11302308091420190914301892B19F085E090E06F
S113024008952FB7F894332785E0809345011092E1
S11302504601F0934101E093400182E090E09093E5
S11302604301809342011092480110924701445F78
S1130270409344012FBF8FB7F894282F33278091E0
S113028052078A3011F42FBF19C02FBF9FB7F894BB
S113029080915E03882311F020E006C081E0809302
S11302A05E0310925F0321E0892F99278FBF2223D9
S11302B029F00E94F60080E090E008951092430136
S11302C01092420181E090E00895CF93DF93582F7C
S11302D0DB01823018F081E090E038C0C82FDD27C0
S11302E0CC0FDD1FCB5ADA4F88819981892B19F005
S11302F085E090E02BC0798368839B012B5F3F4F9F
S1130300F901448380910901823018F480E090E07F
S11303101DC0F9018681FB0165817727762F662749
S1130320F90121813327622B732B50930901242F68
S1130330AD010E940A019927282F882329F082E021
S11303408093090119821882822F9927DF91CF9116
S11303500895CF93DF93FB01DB011596ED018983AB
S1130360892F9927858384E68E8381E00E94650125
S11303709927DF91CF91089582E30E94A3009927E2
S11303800895EF920F931F93AE2D99E0899FF0018A
S11303901124E151FA4F40835183628373830483B0
S11303A0158326833783A17080858E7F8A2B826094
S11303B0808782E00E94A3001F910F91EF9008951F
S11303C07FB7F89462B720918B0130918C014091F2
S11303D08D0150918E0106B601FE0FC081B792B710
S11303E0280F311D411D511D2F5F3F4F4F4F5F4F50
S11303F0290F311D411D511D04C0260F311D411D02
S1130400511D872F99278FBFCA01B9010895AF9253
S1130410BF92CF92DF92EF92FF920F931F93F82E29
S11304205A016B010E94E001AB01BC01E1E0EE2E38
S1130430960185018F2D0E94C1011F910F91FF909C
S1130440EF90DF90CF90BF90AF900895982F96953E
S113045096959695EEEEF5E0E90FF11D877021E093
S113046030E002C0220F331F8A95E2F78081822395
S1130470992708950F931F93CF93DF93182F8FB766
S1130480F894282F3327022F80916601882359F589
S113049081E08093660110937F082FBF8FB7F89493
S11304A09927379A8FBF8FB7F894C82FDD279C2FD1
S11304B080911A018730A9F480916601813021F47A
S11304C08BE10E94A30009C0823059F480917F0817
S11304D080931A0183E080936601CFBF80E090E0AF
S11304E025C09FBFFBCF80917F08811711F42FBFD8
S11304F0F5CF812F0E942602882319F085E090E031
S113050014C0E12FE695E695E695FF27E251FA4FF0
S1130510177081E090E002C0880F991F1A95E2F7E6
S11305202081282B208380E090E00FBFDF91CF91C2
S11305301F910F9108958330A9F0843028F48130FD
S113054069F0823068F408C0853081F0853060F04D
S1130550863071F081E00FC080E00BC081E009C0FB
S113056082E007C083E005C084E003C085E001C0E9
S113057086E00E943A02992708958FB7F894992744
S113058020912F0320931B0123E0209368018FBF48
S113059080911B01882321F481E00E949B0208952D
S11305A0813019F482E00E949B0208952FB7F894D9
S11305B0332780917B078093240183E08093790122
S11305C02FBF80912401882319F484E00E949B02A8
S11305D008958FB7F89499272091740020931D07EC
S11305E08FBF08950E94E90280911D078E7F806964
S11305F080931D07809374000895982F969596957F
S11306009695E0E4F2E0E90FF11D877021E030E017
S113061002C0220F331F8A95E2F780818223992733
S11306200895EF92FF920F931F93CF93DF93982F28
S11306308FB7F894E82E80916C01833009F045C09F
S113064080911C01891709F040C0809140028823E1
S113065009F045C03EC0EF2DE695E695E695FF27E7
S11306604F2D5527E05CFD4F9A012770307081E0D3
S113067090E002C0880F991F2A95E2F780952081A7
S113068028232083C0936B0111C02196C230D10569
S113069011F4C0E0D0E0FC2E8C2F0E94FD028823D0
S11306A0D1F6C017D10789F74FEF50E040932302EA
S11306B08FEF80931C0181E080936C0181E20E94A2
S11306C0A300EFBE80E090E010C0EFBE81E090E0B8
S11306D00CC082E080931C0110926C01F2CF8091D7
S11306E06B01082F1127E801D0CFDF91CF911F9123
S11306F00F91FF90EF900895982F96959695969563
S1130700ECE3F2E0E90FF11D877021E030E002C074
S1130710220F331F8A95E2F7808182239927089557
S1130720EF92FF920F931F93CF93DF93982F8FB77E
S1130730F894E82E80917D01833009F045C08091C2
S11307402501891709F040C080913C02882309F0F3
S113075049C03EC0EF2DE695E695E695FF274F2D5F
S11307605527E45CFD4F9A012770307081E090E0DA
S113077002C0880F991F2A95E2F7809520812823CB
S11307802083C0937C0111C02196C230D10511F49D
S1130790C0E0D0E0FC2E8C2F0E947C038823D1F68D
S11307A0C017D10789F74FEF50E040931E078FEF32
S11307B08093250181E080937D018FE20E94A30054
S11307C0EFBE80E090E014C0EFBE81E090E010C086
S11307D082E08093250110927D0181E080937E0167
S11307E081E3ECCF80917C01082F1127E801CCCF65
S11307F0DF91CF911F910F91FF90EF9008959C018D
S1130800685F693218F080E090E008950C9611F06A
S1130810C90144960895FC01892B69F08091A40BC9
S11308209091A50B2FEF8F3F920729F0918380833E
S113083080E090E0089581E090E008957727762F96
S113084066276827792728E041E250E1CB01880F29
S1130850991F77FF04C0BC016427752701C0BC0140
S11308602150A1F7CB010895FF920F931F93CF93CB
S1130870DF93EC018C0186E1F82E80E090E0F80132
S113088061918F010E941E04FA94C9F78F8B892FFE
S113089099278E8BDF91CF911F910F91FF9008952F
S11308A0AC0120915E012D3018F081E090E00895B4
S11308B080915D01E82FFF27EE0FFF1FED57F44FE6
S11308C0518340838F5F80935D018D3011F41092CA
S11308D05D012F5F20935E0180E090E008958FB763
S11308E0F89499272BB332E023272BBB8FBF0895AD
S11308F00F931F93182F8FB7F894282F3327022FA5
S113090080917D01882399F491E090937D01109367
S11309101E072FBF80917E01882321F480E30E946B
S1130920A30002C090937F0180E090E023C08091F7
S11309301E07811711F42FBFF7CF812F0E947C036C
S1130940882319F085E090E014C0E12FE695E69540
S1130950E695FF27E45CFD4F177081E090E002C04C
S1130960880F991F1A95E2F72081282B208380E0B5
S113097090E00FBF1F910F910895982F969596952B
S11309809695E5E7FCE0E90FF11D877021E030E082
S113099002C0220F331F8A95E2F7808182239927B0
S11309A00895982F969596959695ECEAF1E0E90FBF
S11309B0F11D877021E030E002C0220F331F8A95B9
S11309C0E2F780818223992708950F931F93182FAC
S11309D08FB7F894282F3327022F8091680188233A
S11309E099F491E09093680110932F032FBF8091A5
S11309F06901882321F48FE10E94A30002C090932F
S1130A006A0180E090E023C080912F03811711F4E4
S1130A102FBFF7CF812F0E94D104882319F085E0DE
S1130A2090E014C0E12FE695E695E695FF27E4559E
S1130A30FE4F177081E090E002C0880F991F1A954D
S1130A40E2F72081282B208380E090E00FBF1F91E4
S1130A500F9108959FB7F894292F3327422F90912F
S1130A601C01981741F480916C01833021F42FBF4D
S1130A7081E090E008954FBF80E090E00895982FC2
S1130A80969596959695EFE5F5E0E90FF11D87703B
S1130A9021E030E002C0220F331F8A95E2F7808103
S1130AA0822399270895982F969596959695EFEA1F
S1130AB0FBE0E90FF11D877021E030E002C0220F56
S1130AC0331F8A95E2F780818223992708958091C4
S1130AD0220C833099F0843028F4813099F08230EC
S1130AE078F412C0853031F0853030F0863071F4FE
S1130AF0E8E031C0E8E02CC0E8E027C0E8E022C02C
S1130B00E8E01DC0E8E018C0E8E013C08330C9F095
S1130B10843028F4813079F0823080F409C0853043
S1130B20B1F0853088F08630A9F02FE1E0E014C000
S1130B30E0E02EE111C0E0E023E00EC0E0E024E0BC
S1130B400BC0E0E021E008C0E0E022E005C0E0E006
S1130B5026E002C0E0E025E0622F7FB7F8948091A0
S1130B603F028E7F80933F0287B1982F9F718295B9
S1130B7086958695837019F080E090E012C0822FEC
S1130B808850863118F081E090E00BC040E050E0DE
S1130B903327892F99272817390711F441E050E0AA
S1130BA0CA01982F9170990F80913F028178262F66
S1130BB02F71422F440F440F892B842B80933F02C3
S1130BC0332727B9E83059F580911B0C90911C0C00
S1130BD021E08638920718F087E090E01FC0833C3C
S1130BE0910518F086E090E019C08136910518F05F
S1130BF085E090E013C08033910518F084E090E024
S1130C000DC08831910518F083E090E007C00C977F
S1130C1018F082E090E002C080E090E0E82FE770F6
S1130C20887D8E2B886D992786B9872F99278FBF4A
S1130C300895AC01E0E6F5E080E090E09C01858158
S1130C4080FF05C0808191818417950741F0C90117
S1130C5001963E968A30910589F72FEF30E0C9015D
S1130C6008950E9419068F3F99F09927880F991FBC
S1130C70FC0123E0EE0FFF1F2A95E1F7E81BF90BB7
S1130C80E05AFA4F858181FF03C0828593850895D8
S1130C908FEF90E008950E9419068F3F19F481E0C8
S1130CA090E008959927880F991FFC0143E0EE0F07
S1130CB0FF1F4A95E1F7E81BF90BE05AFA4F8581CB
S1130CC08860858380E090E008952F923F924F9250
S1130CD05F926F927F928F929F92AF92BF92CF92C8
S1130CE0DF92EF92FF920F931F93CF93DF93CDB7D1
S1130CF0DEB729970FB6F894DEBF0FBECDBF6FB72E
S1130D006983F89420903703309038034090390376
S1130D1050903A03662477248824EEE4AE2E73E8D8
S1130D20B72ECC24DD24EE24FF2400E010E0222D95
S1130D30332D442D552D662D772D882D90E00E945E
S1130D40993B2A833B834C835D836E837F838887AF
S1130D509987822E932EA42EB52E2401350100E20C
S1130D600E94973CA22EB32EC42ED52EA30192012D
S1130D7056954795379527952A0D3B1D4C1D5D1DAE
S1130D8057FF05C05F772F5F3F4F4F4F5F4F209353
S1130D903703309338034093390350933A03E9817E
S1130DA08E2F99278FBFCA01B90129960FB6F894DF
S1130DB0DEBF0FBECDBFDF91CF911F910F91FF908A
S1130DC0EF90DF90CF90BF90AF909F908F907F90E7
S1130DD06F905F904F903F902F9008959C016E5FAD
S1130DE0693218F080E090E008950C9611F0C90182
S1130DF00E960895FC016683672F7727678308950D
S1130E00FC0182819927582F442781819927482BF7
S1130E10592BCA01892F99278695869583709070DE
S1130E208230910559F08330910559F0892B19F4DA
S1130E3020E030E008C02CE93FEF05C022E030E0BC
S1130E4002C028E030E0CA0184E0989F812D9927F0
S1130E5011248230910559F08330910559F0892B82
S1130E6019F480E090E008C08CE99FEF05C082E0AF
S1130E7090E002C088E090E0280F391F2A5F3F4FBE
S1130E80CF01820F931F0895282F9FB7F8946623EC
S1130E9049F0E82FFF27EA58F84F8081882311F0A2
S1130EA021E006C0E22FFF27EA58F84F608320E0D4
S1130EB0892F99278FBF822F99270895E82F8FB7FD
S1130EC0F894282F332790E0FF27EA58F84F8081C1
S1130ED0861709F491E02FBF892F99270895882355
S1130EE011F06E9A08956E980895882311F06F9A00
S1130EF008956F98089580E00E946F07BA9ABB988E
S1130F00B99AB89A6C9A80E00E9475076B986A98AF
S1130F1081E00E946F07709A8DB18C7F8DB908951E
S1130F200F931F93CF93DF93182F8FB7F894C82F85
S1130F30DD270C2F61E080E00E944407882321F024
S1130F40CFBF85E090E024C080910D018823A1F4F7
S1130F5080915401823081F409C082E0809354016D
S1130F6010920D010E947B07B89AC09810930A0151
S1130F7080E00FBF99270CC080915401882369F346
S1130F808FB7F8949927109276078FBF81E0F1CF3D
S1130F90DF91CF911F910F9108951F93182F81E036
S1130FA00E946F071FB9779BFECF8FB199271F91BE
S1130FB008958F929F92AF92BF92CF92DF92EF9259
S1130FC0FF920F931F93CF93DF938FB7F8949927D2
S1130FD0C090300CD090310C8090DB069090DC06F1
S1130FE0C0915305D0915405209187013091880117
S1130FF04AE0A42EB12CAC0EBD1E2A153B0508F404
S113100059018FBF7401EC0EFD1E86010C0F1D1FCC
S113101014C0C114D10419F0F801808101C080E02A
S11310200E94CD078114910411F0F7018083219669
S11310300894E11CF11C0F5F1F4FC5010197C817ED
S1131040D90738F381E00E9475079FB7F894C1145B
S1131050D10431F0CC0EDD1EF60180818FB901C0C0
S11310601FB8D0935405C0935305892F99278FBF78
S113107080E090E0DF91CF911F910F91FF90EF906E
S1131080DF90CF90BF90AF909F908F9008952FB72F
S1131090F894332750938801409387019093310C3F
S11310A08093300C7093DC066093DB061092540539
S11310B0109253052FBF452B29F08FB10E94D907F9
S11310C09927089582E10E94A30080E090E00895AA
S11310D08FB7F8949927109278078FBF0895FC0171
S11310E0CB01428553859A0163E0220F331F6A9531
S11310F0E1F7240F351F2B5F3F4F820F931F6AE0E8
S113110070E00E94A83E738762870895FC0164859D
S11311109585662339F48AE0989FB00111246A50BA
S113112070400BC077278AE0989FC00111240E9469
S1131130BC3E6A50704014861586CF010E946F0829
S1131140089580915C01E82FFF27EE0FFF1FED57F4
S1131150F44F0190F081E02D20915E01222351F0A3
S11311608F5F80935C018D3011F410925C012150EB
S113117020935E01CF010895CF92DF92FF920F93E7
S11311801F93CF93DF936C01F09091016091470519
S113119070E08C01005F1F4F2CC0D6011C96462FB7
S11311A043705527E60128893327322F2227F80177
S11311B081819927282B392BFA01EE0FFF1FEE0F9F
S11311C0FF1FE40FF51FE85DFD4F80819181281713
S11311D0390769F4ED019E818281891741F499816F
S11311E08481891721F49F818381891721F07F5F8E
S11311F06F5F7F1591F6872F9927DF91CF911F910C
S11312000F91FF90DF90CF900895AC01209164037B
S11312102C3018F081E090E0089580913C03682F11
S1131220620F712D711DFB016C30710508F03C9744
S1131230EE0FFF1FE95AF84F518340832F5F20932D
S1131240640380E090E00895AC01209163032C30A6
S113125018F081E090E008958091270C682F620FC8
S1131260712D711DFB016C30710508F03C97EE0F78
S1131270FF1FE558F34F518340832F5F209363038F
S113128080E090E008950F931F93CF93DF93EC01D8
S1131290892BE9F02091A40B3091A50B8FEF2F3F00
S11312A03807A9F080919201813019F419821882CB
S11312B00BC00091A60B1091A70BC9010E94310627
S11312C0080F191F1983088380E090E002C081E0B1
S11312D090E0DF91CF911F910F910895CF93DF9309
S11312E0CDB7DEB720913B0130913C01243131056B
S11312F018F081E090E028C08091390190913A0182
S1131300FC01EE0FFF1FE80FF91F73E0EE0FFF1F44
S11313107A95E1F7E959FC4FDE01159648E10D9005
S113132001924150E1F7019664E170E00E94A83E09
S113133090933A01809339012F5F3F4F30933C01E2
S113134020933B0180E090E0DF91CF910895CF920C
S1131350DF92EF92FF921F93CF93DF93CDB7DEB767
S113136068970FB6F894DEBF0FBECDBF6C017B014A
S1131370142F0E946F04183149F580913401882399
S113138029F1DE011196F70188E101900D92815057
S1131390E1F78DB79EB748970FB6F8949EBF0FBE7E
S11313A08DBFEDB7FEB73196DE01119688E10D9041
S11313B001928150E1F70E946E098DB79EB748965D
S11313C00FB6F8949EBF0FBE8DBF03C0DA98D998AC
S11313D0D898C60168960FB6F894DEBF0FBECDBF8D
S11313E0DF91CF911F91FF90EF90DF90CF90089500
S11313F008950F931F93CF93DF93282F3327C901A9
S1131400880F991FFC01A3E0EE0FFF1FAA95E1F7D7
S1131410E81BF90BE05AFA4F858182FF03C062830F
S11314208B7F85838281962F981B628383818F5F54
S1131430838386E08683992361F08481890F8150B8
S113144084839B3030F0148281E083831782118679
S11314501086C901880F991FFC0163E0EE0FFF1F7E
S11314606A95E1F7E81BF90BE05AFA4F8381833060
S113147008F471C000811181C0E6D5E088819981AA
S11314808017910709F061C08D8180FF5EC08E8155
S1131490882311F081508E838F81882311F081502D
S11314A08F838E81882351F48F81882339F48D8131
S11314B091E089278D831986188642C08D818260C8
S11314C08D839B816C81690F633008F463E0772717
S11314D08FEF989FC00111240E94BC3E888529E0AB
S11314E0829FC00111240596860F911D6AE070E069
S11314F00E94BC3E68871B821C824985662301F1D9
S11315004423F1F0772781E09EEF0E94A83ECB01AF
S11315109B0153E0220F331F5A95E1F7642F77277D
S1131520880F991F820F931F0E94A83E6A50704033
S11315306F3F710519F010F06CE370E0772702C07B
S11315406CE370E0CE010E946F082E9685E0CC3EDD
S1131550D80709F093CFDF91CF911F910F91089590
S113156080E090E0E5E6F5E09C01808180FF08C022
S1131570C90101963E968A309105B1F72FEF30E00C
S1131580C90108959EE0899FF0011124E05AFA4FA1
S11315907183608312821382148285E0858386E0DE
S11315A08683878310861186138612860895982F62
S11315B0AFEF60E070E040E050E0E5E6F5E0808108
S11315C0282F332720FF0BC021FF09C023FD07C0AC
S11315D0258136812617370710F0A42FB9014F5FF4
S11315E05F4F3E964A30510551F7892F9927681766
S11315F0790718F48FEF90E008958A2F99270895BA
S1131600AC013091AB018FEF4F3F580711F020E050
S113161012C0832F99270895E22FFF2783E0EE0F4E
S1131620FF1F8A95E1F7E55BFD4F80819181841767
S1131630950719F02F5F231779F7822F99270895BB
S11316401F93CF93DF93162FC0E0D0E066E20E9491
S1131650EE06FC0180818123811711F4C1E0D0E002
S1131660CE01DF91CF911F910895FC0180814485C3
S113167055274F7050709A01220F331F240F351FC6
S1131680821B8F509927089580E88093A8011092B7
S1131690E1021092230C1092190C10924602089544
S11316A0CF93DF93FC0111AEDC01DA96ED011B82CE
S11316B01A82198280E882AFDF91CF9108958FB7A3
S11316C0F89460913D0370913E032CB53DB506B688
S11316D002FE04C06F5F7F4F2CB53DB599278FBFC5
S11316E088279927CB017727662744275527622B1C
S11316F0732B842B952B0895EF92FF920F931F93D6
S11317000E945F0B7B018C0120914B0330914C03B1
S113171040914D0350914E038091410390914203B7
S1131720A0914303B0914403820F931FA41FB51FDC
S1131730E216F3060407150730F082179307A4078F
S1131740B50758F005C082179307A407B507E0F55D
S1131750E816F9060A071B07B8F59C01AD012E1916
S11317603F09400B510B213060E8360760E0460723
S113177060E0560768F180E090E8A0E0B0E0E80E91
S1131780F91E0A1F1B1FE0924B03F0924C030093B7
S11317904D0310934E0380E090E8AFEFBFEFE80EE7
S11317A0F91E0A1F1B1F2050304840405040209310
S11317B0410330934203409343035093440320E096
S11317C030E840E050E014C020E030E040E050E079
S11317D080934B0390934C03A0934D03B0934E031B
S11317E01092410310924203109243031092440357
S11317F0A901B7012CB53DB5C9018E199F090396FE
S11318008417950720F0B9016D5F7F4F02C0640F04
S1131810751F6115710511F461E070E0615070404D
S11318207BBD6ABD80E186BF87B7806187BF1F919A
S11318300F91FF90EF9008950F931F930FB7F894B3
S1131840112760934B0370934C0380934D03909343
S11318504E03209341033093420340934303509338
S113186044030E947C0B0FBF1F910F91089597B7FB
S11318709F7D97BF90E296BF882319F08EB5806450
S113188002C08EB58F7B8EBD87B7806287BF80E034
S113189090E00895AF92BF92CF92DF92EF92FF92C1
S11318A00F931F93F82E5A016B010E94E001AB01C4
S11318B0BC01EE24960185018F2D0E94C1011F9168
S11318C00F91FF90EF90DF90CF90BF90AF9008956D
S11318D0809152078A3021F48091E402843021F00F
S11318E081E080933D01089585E00E94A300109259
S11318F03D0108952FB7F89433278CB95E9A2FBF12
S11319000895FC016115710519F481E090E00895D2
S11319108091550390915603892B19F085E090E04E
S113192008957093AD0B6093AC0BF0935603E09362
S11319305503109226031092250381E08093270318
S11319405E9A569A808121E030E0309326032093FA
S113195025030E947A0C80E090E008958FB7F894F4
S1131960992720914E012E7F20934E012EE720933C
S113197027028FBF61E070E087E292E00E94810C51
S113198099270895DF92EF92FF920F931F938FB7D9
S1131990F894282F3327D22E91B782B746B79817D9
S11319A011F041FF02C02FBF6AC080914A0588230D
S11319B0E1F10E94E001E0907207F090730700915A
S11319C07407109175072091A4013091A5014091ED
S11319D0A6015091A7016E197F09800B910B621724
S11319E073078407950720F010924A0571E01EC022
S11319F02E0D3F1D401F511F80918B0190918C0132
S1131A00A0918D01B0918E01281B390B4A0B5B0B01
S1131A10273E31054105510540F4822F223010F054
S1131A2070E005C070E082E002C070E086EE682FCE
S1131A30615000B601FCFDCF82B7681709F46F5FEF
S1131A4020918B0130918C0140918D0150918E0138
S1131A50DA01C9010196A11DB11D860F911DA11DB9
S1131A60B11D82179307A407B50710F4622F609580
S1131A7061BFDFBE772319F081E00E94A3001F91AC
S1131A800F91FF90EF90DF900895AFB7F894BB27C4
S1131A90E1E0E0934A0560937207709373078093C3
S1131AA07407909375072093A4013093A501409384
S1131AB0A6015093A701AFBF0E94C20C0895AF9234
S1131AC0BF92CF92DF92EF92FF920F931F93CF9327
S1131AD0DF93CDB7DEB728970FB6F894DEBF0FBEFD
S1131AE0CDBF20E070E0E0910001F091010132E10E
S1131AF04DE65CE46FE4809101019E2F28960FB6B9
S1131B00F894DEBF0FBECDBFDF91CF911F910F912F
S1131B10FF90EF90DF90CF90BF90AF9008958FB774
S1131B20F894282F3327922F809152078A3041F05E
S1131B308091E402843021F02FBF89E090E0089581
S1131B409FBF84E00E94A30080E090E008951F926C
S1131B500F920FB60F9211248F9383B783BF00B6F1
S1131B6000FCFDCF8F910F900FBE0F901F90189522
S1131B70982F80914901882389F5992379F531E0DB
S1131B80309349018091020180934A0120913E01E2
S1131B90822F81708093AA0180910701909108019E
S1131BA090934C0180934B0180913F0180934D01B0
S1131BB032273170267EE32FFF27EE0FFF1FED5FE4
S1131BC0FE4F808191819093080180930701232B1C
S1131BD020933E0188E00E94A300089580913E0175
S1131BE080FF02C08B7F01C08D7F80933E010895EA
S1131BF00F931F93082F162F8091E4028130D9F0A0
S1131C00813038F0823009F44AC0833009F028C1A9
S1131C1059C0002309F458C11092A00B10929F0BD5
S1131C20109256071092B00B1092280310925C0584
S1131C3010925B0539C1002309F046C180915B0510
S1131C4090915C050E941E0490935C0580935B0553
S1131C5082E08093E4021093B00B143409F000C1C5
S1131C6025C18695869503C080913E018695817035
S1131C7009F0F6C080913E01992311F0846001C0FF
S1131C80826080933E0180913E01877E88608093CC
S1131C903E0110923F018FEF8093020115C1002392
S1131CA009F0DEC06093280380915B0590915C0588
S1131CB00E941E0490935C0580935B0583E08093EF
S1131CC0E40202C1809156078F3F09F4C9C0002382
S1131CD009F461C0823008F4C3C0E0919F0BEE2385
S1131CE009F4EBC04E2F4150E42FFF27E156F44F87
S1131CF082819927382F2227442311F4E2E002C07D
S1131D00E42FE150FF27E156F44F82819927282BD5
S1131D10392B80915B0590915C052817390709F0F0
S1131D209FC080E00E94B80D3091280380914B053C
S1131D3020914C05982F9F5F963008F090E0921701
S1131D4071F0E82FFF27E55BFA4F32838F5F8093B2
S1131D504B05863010F010924B050E94F60010924D
S1131D60A00B10929F0B94E09093E40210925607FC
S1131D701092B00B1092280310925C0510925B0530
S1131D8080914E018D7F80934E0180913D01882387
S1131D9009F49AC084C0823008F44EC0E091A00BCC
S1131DA0FF27E156F44F8281482F5527342F209185
S1131DB03E01822F8695869586958370992781307A
S1131DC0910519F00297F9F40EC0277E2061209343
S1131DD03E01442311F485E001C080E080933F017B
S1131DE03093020110C080913F01803460F4E0918F
S1131DF00701F0910801E80FF11D408380913F0134
S1131E008F5F80933F018091A00BE82FFF27E1565D
S1131E10F44F62818F5F8093A00B833010F0109297
S1131E20A00B772780915B0590915C050E941E04AE
S1131E3090935C0580935B0580919F0BE82FFF27AF
S1131E40E156F44F12838F5F80939F0B833010F021
S1131E5010929F0B809156078F5F8093560734C072
S1131E601092A00B10929F0B14E01093E4021092B6
S1131E7056071092B00B1092280310925C05109232
S1131E805B0580914E018D7F80934E0181E00E941D
S1131E90B80D80913D01882329F01093E4020E943B
S1131EA0680C12C0002381F081E009CF80913E01CB
S1131EB0982F917080FDD5CED7CE8091A30B992712
S1131EC0382F222742E01CCF1F910F9108951F92B3
S1131ED00F920FB60F9211242F933F934F935F935A
S1131EE06F937F938F939F93AF93BF93EF93FF93DE
S1131EF05F9B3DC06CB1E0915D05F0915E0530974C
S1131F00F9F08091720C9091730CE80FF91F6083C3
S1131F1001969093730C8093720C2091960C3091DF
S1131F20970C8217930718F110925E0510925D05C5
S1131F3080911F078330D9F0579810921F0717C05C
S1131F406E3719F460E081E010C080914E016D3766
S1131F5021F4826080934E010AC081FF05C08D7F09
S1131F6080934E0180E2682780E00E94F80DFF9183
S1131F70EF91BF91AF919F918F917F916F915F91FD
S1131F804F913F912F910F900FBE0F901F90189576
S1131F90982F8D57823068F480914E018160809330
S1131FA04E0180E28927809355078DE780932702AD
S1131FB002C09093270261E070E087E292E00E9401
S1131FC0810C9927089578941F920F920FB60F925F
S1131FD011240F931F932F933F934F935F936F930A
S1131FE07F938F939F93AF93BF93EF93FF9320912E
S1131FF02503309126038091AC0B9091AD0B2817EB
S1132000390780F4E0915503F0915603E20FF31F72
S113201080812F5F3F4F30932603209325030E9436
S11320207A0CBDC0109256031092550310922703E8
S113203056980FB7F89480914E0180FF0EC08E7FA2
S113204080934E01809155078093270261E070E0F0
S113205087E292E00E94810C9FC0809152078430F5
S113206009F47CC0853040F48230F1F0833088F587
S1132070813009F08CC00DC0863009F47DC08630F3
S113208008F473C0873009F47EC0883009F07FC03B
S113209081C080914A030E94C80F182F83E0809367
S11320A0520760914A030AC08091210C0E94C80F14
S11320B0182F83E0809352076091210C8091940C37
S11320C09091950C0E941E049093950C8093940C0F
S11320D05CC0E091EC05FF27EE0FFF1FE35AFC4FB5
S11320E080810E94C80F182FE091EC05FF27EE0FA6
S11320F0FF1FE35AFC4F60818091940C9091950CE2
S11321000E941E049093950C8093940C209140039C
S11321102F5F209340038091EC058130E9F4809196
S11321204501E0914001F0914101E80FF11DE0818A
S11321308F5F8093450190914401981720F482E0C9
S113214080935E0309C080915E03823029F02F3FA3
S113215019F0E0935F0319C084E012C08091940CDD
S11321600E94C80F182F85E00BC08091950C0E9427
S1132170C80F182F86E004C00E94AE0C182F87E009
S11321808093520702C088E003C0112329F089E03C
S1132190809352070E94F600802F99278FBFFF91EA
S11321A0EF91BF91AF919F918F917F916F915F91CB
S11321B04F913F912F911F910F910F900FBE0F9050
S11321C01F9018951F920F920FB60F9211248F93A0
S11321D080919B0087FF02C080919C008F910F909B
S11321E00FBE0F901F90189578941F920F920FB600
S11321F00F9211240F900FBE0F901F901895789492
S11322001F920F920FB60F9211240F900FBE0F90D2
S11322101F90189578941F920F920FB60F92112465
S11322200F900FBE0F901F90189578941F920F92E5
S11322300FB60F9211240F900FBE0F901F90189598
S113224078941F920F920FB60F9211248F939F933D
S113225080918000909181009F918F910F900FBE8B
S11322600F901F90189578941F920F920FB60F92AB
S113227011242F933F938F939F932FB7F894332771
S11322808091590590915A05019690935A0580932F
S113229059052FBF9F918F913F912F910F900FBEA2
S11322A00F901F90189578941F920F920FB60F926B
S11322B011240F900FBE0F901F90189578941F92C1
S11322C00F920FB60F9211240F900FBE0F901F9014
S11322D0189578941F920F920FB60F9211242F9392
S11322E03F938F939F932FB7F894332780913D03A7
S11322F090913E03019690933E0380933D032FBF3C
S11323009F918F913F912F910F900FBE0F901F902F
S113231018951F920F920FB60F9211240F900FBEB3
S11323200F901F9018951F920F920FB60F921124C1
S11323300F900FBE0F901F9018951F920F920FB61B
S11323400F9211240F900FBE0F901F9018951F929B
S11323500F920FB60F9211240F900FBE0F901F9083
S113236018951F920F920FB60F9211240F900FBE63
S11323700F901F9018951F920F920FB60F92112471
S11323800F900FBE0F901F9018951F920F920FB6CB
S11323900F9211240F900FBE0F901F9018951F924B
S11323A00F920FB60F9211242F933F934F935F9385
S11323B06F937F938F939F93AF93BF93EF93FF9309
S11323C044B155B178948FB7F894992720913F027E
S11323D0322F3695317021708FBF2223D9F4339870
S11323E080916003813021F0823009F039C00AC045
S11323F0332351F050935107409350078CE10E94CE
S1132400A3002EC0332319F40E94670529C010923B
S1132410600326C08FB7F89499278FBF2FB7F8941D
S1132420332786B1582F5770482F4072987D942BCC
S1132430952B8074977B982B90619F77892F992790
S113244086B9887D842B852B87738061992786B90B
S1132450887D842B852B877B8069992786B92FBF3C
S1132460FF91EF91BF91AF919F918F917F916F9168
S11324705F914F913F912F910F900FBE0F901F903E
S113248018951F920F920FB60F9211242F933F931A
S11324904F935F936F937F938F939F93AF93BF9368
S11324A0EF93FF9383B783BF00B600FCFDCF81B7E2
S11324B099270196AA27BB2720918B0130918C0183
S11324C040918D0150918E01280F391F4A1F5B1FC7
S11324D020938B0130938C0140938D0150938E0196
S11324E078940E94C20CFF91EF91BF91AF919F919C
S11324F08F917F916F915F914F913F912F910F90A9
S11325000FBE0F901F901895982F809175018330FE
S113251009F047C080912201891709F042C08091D7
S1132520200120E030E08F3F11F421E030E0232B44
S1132530F9F48F3F19F42FEF30E00EC0282F332722
S1132540F901EC5DF34F8081809320018F3F11F4FA
S1132550809321018FEF8083209386018FEF8093F6
S1132560220181E0809375018AE20E94A30016C0D3
S113257082E080932201109275018091760181306E
S113258069F40E94E90280911D078A7680931D07F1
S113259080937400909891981092760180E090E076
S11325A0089581E090E008950F931F93CF93DF93F4
S11325B0182F8FB7F894282F3327022F80916C019E
S11325C0882331F581E080936C01109323022FBF9F
S11325D08FB7F894C82FDD279C2F80911C0182307F
S11325E0A9F480916C01813021F481E20E94A3005E
S11325F009C0823059F48091230280931C0183E046
S113260080936C01CFBF80E090E025C09FBFFBCFDB
S113261080912302811711F42FBFF5CF812F0E94DF
S1132620FD02882319F085E090E014C0E12FE695BF
S1132630E695E695FF27E05CFD4F177081E090E09A
S113264002C0880F991F1A95E2F72081282B208356
S113265080E090E00FBFDF91CF911F910F9108951B
S113266080E00E94D4129927089581E00E94D41238
S11326709927089581E00E941103809174018130AB
S113268011F40E94D4128FB7F89499271092740110
S1132690109273018FBF0895EF92FF920F931F93CF
S11326A0CF93DF93982F8FB7F894E82E8091680129
S11326B0833009F045C080911B01891709F040C09F
S11326C08091AC01882309F049C03EC0EF2DE69506
S11326D0E695E695FF274F2D5527E455FE4F9A01C1
S11326E02770307081E090E002C0880F991F2A950E
S11326F0E2F78095208128232083C093670111C0CD
S11327002196C230D10511F4C0E0D0E0FC2E8C2F0C
S11327100E94D1048823D1F6C017D10789F74FEF5F
S113272050E040932F038FEF80931B0181E080934F
S113273068018EE10E94A300EFBE80E090E014C027
S1132740EFBE81E090E010C082E080931B01109204
S1132750680181E08093690180E2ECCF8091670198
S1132760082F1127E801CCCFDF91CF911F910F9152
S1132770FF90EF900895EF92FF920F931F93CF93E2
S1132780DF93982F8FB7F894E82E809166018330F9
S113279009F045C080911A01891709F040C0809161
S11327A0EE05882309F046C03EC0EF2DE695E69578
S11327B0E695FF274F2D5527E251FA4F9A012770CE
S11327C0307081E090E002C0880F991F2A95E2F7EB
S11327D08095208128232083C093650111C0219610
S11327E0C730D10511F4C0E0D0E0FC2E8C2F0E943C
S11327F026028823D1F6C017D10789F74FEF50E09E
S113280040937F088FEF80931A0181E080936601E3
S11328108BE10E94A300EFBE80E090E011C0EFBE08
S113282081E090E00DC087E080931A011092660168
S11328303798F1CF80916501082F1127E801CFCF98
S1132840DF91CF911F910F91FF90EF9008950F9317
S11328501F93182F0FB7F89461E080E00E9444079B
S1132860882371F510930A0180910D018823A9F53D
S113287080915401823089F581E10CC00E947B076C
S113288080915401882349F481E08093540110928B
S1132890490283E10E94A3002AC0809149038F3F2B
S11328A031F5E0910C01EE2311F11CC010920B01E3
S11328B004C0FF27E75BFC4F108210920C0117C085
S11328C081E090E002C0880F991F1A95E2F72091E9
S11328D05301282B209353010AC08091540188236B
S11328E0E1F6CCCF80910B018F3F19F7DFCF802F1A
S11328F099278FBF80E090E01F910F9108951F9357
S11329008FB7F894282F3327122F8091780C8823BF
S113291021F02FBF81E090E013C081E08093780C18
S11329208091500190915101049721F481E00E941B
S1132930271403C08FE00E94A3001FBF80E090E033
S11329401F9108951F9383E00E9490079927182FE1
S1132950882319F083E00E942714812F99271F915F
S11329600895809182018C3118F04CE150E002C04E
S1132970482F55278CE1EEE3FCE011928A95E9F7A4
S1132980909182018091800120E030E0AEE3BCE0D0
S11329900FC0E82FFF27EB57F84FE081992329F068
S11329A08F5F8A3F09F480E09150ED932F5F3F4F92
S11329B02417350771F790938201809380014CE1CD
S11329C062E37CE08FEF9FEF0E94A901882319F056
S11329D082E30E94A30008958FB7F894282F332729
S11329E080918301813021F42FBF80E090E008952D
S11329F090E080918201882309F491E0992321F0E9
S1132A002FBF81E090E0089581E0809383012FBF80
S1132A100E94B11480E090E008951F93182F8091D4
S1132A208301882349F4809182018D3728F081E065
S1132A30809383010E94B1148FB7F894282F332711
S1132A40909182019A3FA8F480918101E82FFF2799
S1132A50EB57F84F10838F5F809381018A3F11F405
S1132A60109281019F5F909382012FBF80E090E0DC
S1132A7003C02FBF8FEF9FEF1F910895662351F47A
S1132A8080918201882319F00E94B1140895109254
S1132A908301089582E30E94A3000895282FCB01A7
S1132AA0222319F0213069F409C0605A724049F4B4
S1132AB01092360180E00E94A3000895642F0E94C2
S1132AC03E1508958FB7F894992720917F08209395
S1132AD01A0123E0209366018FBF90911A0193306D
S1132AE019F1943028F4913081F0923088F407C0C1
S1132AF09530D1F0953088F0963029F51DC081E0ED
S1132B00809360031092220C14C0909360030FC052
S1132B1081E08093600382E004C081E080936003DD
S1132B2084E08093220C05C081E08093600390933D
S1132B30220C0E946705089581E0809360039093BE
S1132B40220C0E9467050895CF93DF93EC010E9445
S1132B50000B282F8091AB012817D1F0382F31506A
S1132B603093AB0113C0822F992743E0880F991F3C
S1132B704A95E1F7DC01A55BBD4FFC01ED5AFD4F21
S1132B8088E001900D928150E1F72F5F231758F3ED
S1132B908091A40B9091A50B8C179D07A1F48FEF46
S1132BA09FEF9093A50B8093A40B1092A70B109208
S1132BB0A60B1092A80B1092A90B81E080936401DC
S1132BC089E10E94A300DF91CF910895CF92DF9213
S1132BD0EF92FF920F931F93CF93DF938C01F62E06
S1132BE06A01E22E8FB7F894C82FDD2760E080E0F9
S1132BF00E945E07882321F0CFBF80E090E01EC0D2
S1132C00CFBF0F0D111D802F80680E94CD07F82EB5
S1132C1016950795802F807C0E94CD070E2D0AC043
S1132C20EE2DFF27E01BF109EC0DFD1D80810E94B4
S1132C30CD0701500023A1F78F2D9927DF91CF9164
S1132C401F910F91FF90EF90DF90CF900895CF9355
S1132C50DF93CDB7DEB72C970FB6F894DEBF0FBE67
S1132C60CDBF8FB7F894282FAE014F5F5F4FDA01C5
S1132C70EDE7F7E088E001900D928150E1F7809153
S1132C80290390912A038987892F99278A8780911C
S1132C904F03909150038B87892F99278C872FBFDF
S1132CA02CE060E080E691E00E94E6152C960FB6D9
S1132CB0F894DEBF0FBECDBFDF91CF9108951F936F
S1132CC0CF93DF93182F8FB7F894C82FDD2760E0D8
S1132CD080E00E945E07882321F0CFBF80E090E06F
S1132CE005C0CFBF812F0E94CD079927DF91CF91D7
S1132CF01F910895EF92FF920F931F93CF93DF9349
S1132D00182F7B01042F8FB7F894C82FDD2760E0BC
S1132D1080E00E945E07882321F0CFBF80E090E02E
S1132D2014C0CFBF1064812F9927909358038093C8
S1132D3057030E94CD07182F402F5527B70180E075
S1132D4090E00E944708812F9927DF91CF911F912E
S1132D500F91FF90EF900895C09860918401709155
S1132D60850141E08FE30E947A16089582E090E0A5
S1132D709093E2018093E10181E08093E10220E0FD
S1132D8030E080910A01843011F421E030E0232BFB
S1132D9029F484E00E949007882319F40E94AC1659
S1132DA0089584E00E94271408951F920F920FB68D
S1132DB00F9211242F933F934F935F936F937F93BD
S1132DC08F939F93AF93BF93EF93FF938091E10110
S1132DD09091E201019749F482E090E09093E2013E
S1132DE08093E1010E94B61605C0809146028F5F70
S1132DF080934602FF91EF91BF91AF919F918F9184
S1132E007F916F915F914F913F912F910F900FBEE2
S1132E100F901F9018951F9380915301882309F0F8
S1132E204BC010910A011F3F09F046C060E00E94A8
S1132E305E07882309F440C081E08093810B809170
S1132E40AD018823E1F11092810B85E090E045C04B
S1132E50923069F5C09A80910B0120E030E08F3FF9
S1132E6011F421E030E0232BE9F410930D018F3F9E
S1132E7019F42FEF30E00DC0282F3327F901E75B59
S1132E80FC4F808180930B018F3F11F410930C0150
S1132E9010832093490281E08093540183E10E94CE
S1132EA0A30005C010930D011092540111C080912C
S1132EB05401882369F00FC081E090E00EC0809136
S1132EC00D0190915401882319F2923021F0EFCF33
S1132ED080E00E946F0780E090E01F9108951F93A7
S1132EE0CF93DF939FB7F894C92FDD271C2F9091C0
S1132EF00A01981721F0CFBF81E090E03AC08FEF2C
S1132F0080930A01309153013323F1F48FB7F8947D
S1132F109927109276078FBF0E940B17CFBF11C05D
S1132F2020930A0181E090E002C0880F991F4A951E
S1132F30E2F7809538233093530181E10E94A30086
S1132F401FBF80E090E015C080E065E0E32FFF271D
S1132F500E949C3E292F492F5527CF01042E02C0E1
S1132F60959587950A94E2F780FDDACF822F8F5FDB
S1132F70EFCFDF91CF911F9108951F93CF93DF93EC
S1132F808FB7F894C82FDD271C2F8091E101909111
S1132F90E201892B29F484E00E946F17CFBF1EC081
S1132FA01092E10280914602882311F0B79904C07F
S1132FB00E9908C0882319F08150809346020E941C
S1132FC0B6160BC081E090E09093E2018093E1019A
S1132FD01092460284E00E946F171FBFDF91CF91C9
S1132FE01F9108950E94440BC09AC09888E00E94E3
S1132FF05F1688E00E945F16C09A84E00E946F17F3
S11330000E94BD170895FF920F931F93CF93DF93F0
S1133010F82E8B018FB7F894C82FDD2760E080E08D
S11330200E945E07882321F0CFBF80E090E00CC0AF
S1133030CFBF8F2D0E94CD07812F99270E94CD07E6
S1133040802F0E94CD079927DF91CF911F910F9177
S1133050FF9008951F931FB7F89480914502882329
S113306019F460E070E009C060E080912D0C8823C1
S113307009F461E081E06827772780913003882391
S113308019F480E090E00AC090E080917C078823E6
S113309009F491E081E09827892F9927762F6627F4
S11330A0770F770F770FF4E0880F991FFA95E1F700
S11330B0826E9262682B792B81E10E940318812F22
S11330C099278FBF1F9108958FB7F894992760911E
S11330D080088FBF85E0689FB0011124625D7E4F38
S11330E0706488E10E9403180895EF92FF921F9381
S11330F0CF93DF93E0903103F0903203F70186A978
S11331009927182F882309F41FE1C09880913E0263
S1133110811749F0612F77276F717070606E706846
S113312085E10E94031810933E02F70110818FB7C6
S1133130F894C82FDD2760E080E00E945E078823B2
S113314011F0CFBF12C0CFBF8EE390E0909358032D
S1133150809357038EE30E94CD071150412F5527CA
S113316060E070E0C7010E944708DF91CF911F9192
S1133170FF90EF9008950F931F93CF93DF93EC018B
S11331800FB7F89411270E940007FC018FE3808396
S11331900FBF1092290C1092280C61E082E00E946B
S11331A04407882319F085E090E072C08091820B77
S11331B08F5F8093820B81508B838FB7F894082F95
S11331C0112762E081E00E945E07882329F40FBF83
S11331D00E94680881E05BC08FB7F894992724E0C7
S11331E0209377078FBFD0936603C09365030FBF07
S11331F0FE013196818129819927982F88273327C9
S1133200822B932B80729C7C8983892F99278183BD
S11332102981982F882733272164822B932B898334
S1133220892F9927818318AE1CAA1DAA1DAE1CAE36
S11332301BAE80E88AAF61E060937A074091650332
S1133240509166038FB7F894282F33278091550146
S1133250909156018830910511F0019711F02FBF1C
S113326015C082E090E090935601809355016093DD
S11332707A0C5093320340933103109289012FBF8B
S11332800E94A214882311F40E94751880E09927E3
S1133290DF91CF911F910F910895CF93DF93DA01BE
S11332A0422F293218F082E090E05EC0ED018B8756
S11332B06E83872F99278F832FB7F89433278091B4
S11332C0290390912A032FBFFD018483892F992715
S11332D085832FB7F894332780910E0190910F01C5
S11332E02FBF8887892F99278987319681812981E2
S11332F09927982F8827332720643868822B932BAB
S11333008983892F99278183435F4C934D50809102
S11333101101882359F010921101642FCD010E94EC
S1133320BB189927282F8823A9F417C0842F99271D
S11333309093620380936103B0935A01A09359015F
S113334085E10E94A30080911101882349F489E05A
S113335090E00AC08FEF80931101822F992704C057
S113336010923B0380E090E0DF91CF910895CF93DA
S1133370DF93582FFB01823018F081E090E033C0D6
S1133380C82FDD27CC0FDD1FCB52D44F8881998104
S1133390892B19F085E090E026C079836883435F28
S11333A040834D5080911401823018F480E090E005
S11333B01AC0838567817727762F6627268133276E
S11333C0622B732B50931401242FAF010E944D19CB
S11333D09927282F882329F082E0809314011982E9
S11333E01882822F9927DF91CF910895AF92BF92CF
S11333F0CF92DF92EF92FF920F931F93CF93DF93BD
S113340080916301882309F0BAC0E0914703F091E9
S1133410480310828091A40B9091A50BE09147037F
S1133420F09148038283892F9927818380919201A7
S1133430882329F08091A60B9091A70B20C080913E
S1133440A40B9091A50BC091A60BD091A70B2FEFC5
S11334508F3F920781F4E0914703F0914803C483BE
S11334608D2F99278383E0914703F091480380814E
S1133470806880830CC00E9431068C0F9D1FE091F0
S11334804703F09148038483892F99278383E1EFCD
S1133490CE2EE2E0DE2E68E0C6010C970E94EE0616
S11334A075E0E72EF12CE80EF91E40E010E0AA24A6
S11334B0BB2403E080916001992701968A0D9B1D2E
S11334C06AE070E00E94BC3E9C019927880F991F16
S11334D0DC0153E0AA0FBB1F5A95E1F7A81BB90BF7
S11334E0A05ABA4FED018D81992780FF11C081FF49
S11334F00FC08D919C91109FF0011124EE0DFF1DC2
S11335008183892F99278083888582831F5F422F37
S1133510E9E0AE16B10429F00894A11CB11C1B30DB
S113352048F24093600180915F018F5F80935F0157
S11335308150E6018983812F8F708093F1026FEFB0
S11335407FEF85EE92E00E94FA0680E78093F00216
S113355083E0189FC0011124895F482F552765EE29
S113356072E081E00E94B7199927882321F481E051
S11335708093630104C0843011F410926101DF91DF
S1133580CF911F910F91FF90EF90DF90CF90BF905C
S1133590AF9008951F938FB7F894282F3327809105
S11335A05201882311F02FBF30C02FBF80B3992759
S11335B026E0969587952A95E1F7182F117090913A
S11335C05303809154038917D9F01917C9F484E07F
S11335D090E090935101809350018FB7F89499270C
S11335E021E0209352018FBF60E070E08DE10E94E2
S11335F003180E942716C09AC0988BE00E94A3006B
S11336001093540380E10E94A3001F9108951F9317
S1133610182F81E090E09093560180935501109209
S1133620AD010E940B178FB7F894992710934F019F
S11336308FBF8DE00E94A3001F9108959F92AF92C7
S1133640BF92CF92DF92EF92FF920F931F93CF938B
S1133650DF93CDB7DEB722970FB6F894DEBF0FBE67
S1133660CDBF10926003A0905007B0905107809195
S1133670220C8330D1F0843028F4813071F0823010
S113368080F407C08530C9F0853098F08630E9F4BD
S113369018C080E00E94BB138AC281E00E94BB1361
S11336A028C082E00E94BB132DC083E00E94BB139C
S11336B032C084E00E94BB1330C185E00E94BB137A
S11336C07EC186E00E94BB1385C1833021F1843022
S11336D030F4813071F0823009F069C213C0853052
S11336E009F46DC1853008F418C1863009F05FC251
S11336F071C180E00E944C13B0924603A09245032E
S113370081E05AC181E00E944C13B0924905A09215
S1133710480580E05CC180E00E942A05882309F402
S11337207AC090909E0B8FB7F894C82E80916E014A
S1133730833009F041C080911D018915E9F580911C
S11337405F05882309F00FC205C2ED2DE695E695C5
S1133750E695FF274D2D5527E15AFA4F9A01277018
S1133760307081E090E002C0880F991F2A95E2F73B
S1133770809520812823208300936D0112C00F5F60
S11337801F4F0130110511F400E010E0D02E802FFE
S11337900E943F058823C9F60E151F0581F74FEFD8
S11337A050E04093ED058FEF80931D0181E08093FD
S11337B06E0182E20E94A300CFBE992061F5B0920F
S11337C0A301A092A2018FB7F894082F112780912A
S11337D07901882389F491E09093790110927B0711
S11337E00FBF80917A01882321F48CE20E94A30008
S11337F012C090937B010FC080917B07882351F006
S113380080E00E94BD04882329F48091750C8160B6
S11338108093750C0FBF81E00E942A05882309F468
S1133820C6C190905B038FB7F894C82E8091700145
S1133830833009F041C080911E018915E9F580911A
S1133840AF0B882309F09EC194C1ED2DE695E69552
S1133850E695FF274D2D5527E155F44F9A01277022
S1133860307081E090E002C0880F991F2A95E2F73A
S1133870809520812823208300936F0112C00F5F5D
S11338801F4F0130110511F400E010E0D02E802FFD
S11338900E9453058823C9F60E151F0581F74FEFC3
S11338A050E04093A1018FEF80931E0181E080934B
S11338B0700183E20E94A300CFBE992009F077C172
S11338C0B0929001A0928F018FB7F894082F11271E
S11338D080916E01882389F491E090936E01109297
S11338E0ED050FBF80917101882321F484E20E94C9
S11338F0A3005DC1909372015AC18091ED058823A4
S113390051F080E00E943F05882329F480915F05EF
S1133910816080935F050FBF4AC18FB7F894C82EAA
S113392080917901833009F041C08091240188237A
S1133930E9F58091750C882309F033C129C1ED2D77
S1133940E695E695E695FF274D2D5527EB58F34F61
S11339509A012770307081E090E002C0880F991FAF
S11339602A95E2F78095208128232083009378010B
S113397012C00F5F1F4F0130110511F400E010E079
S1133980D02E802F0E94BD048823C9F60E151F0572
S113399081F74FEF50E040937B078FEF8093240132
S11339A081E0809379018BE20E94A300CFBEB092A4
S11339B05407A092530780E00E94E504F8C080E019
S11339C00E949003B092E302A092E20281E00E947E
S11339D07804EDC081E00E9490031A82198273EE8C
S11339E0E72E71E0F72E68E1C7010E94FF038C0106
S11339F08091000190910101F8018183892F992719
S1133A008083CE0101960E940B0489819A81F8017A
S1133A108383892F9927828380913503909136037C
S1133A208583892F9927848380912B0C90912C0C6A
S1133A308783892F9927868380918F0190919001A4
S1133A408187892F992780878091A2019091A30172
S1133A508387892F992782878091530790915407F0
S1133A608587892F99278487809145039091460300
S1133A708787892F992786878091480590914905E2
S1133A80818B892F9927808B8091E2029091E302A8
S1133A90838B892F9927828BA58A8B2D9927848BD9
S1133AA0C8010E9434042FB7F89433278BB394E0F1
S1133AB089278BBB2FBF80913401882309F077C0FD
S1133AC080913501882309F072C080915B0181FFE8
S1133AD03DC08DE28093E30180910001909101014A
S1133AE08093F401892F99278093F3018091A90190
S1133AF08F5F8093A90181508093F5018BE28093BD
S1133B00F6011092F001E0912E0CF0912F0C3097F9
S1133B10E9F0F182E08212828EE18383CF010E9478
S1133B205004882399F480915B0182FF05C084FDD1
S1133B3003C086E10E94A30010922F0C10922E0C59
S1133B4081E0809335010E946F0431C0DA98D998DE
S1133B50D8982DC081E080931D0110926E0180934E
S1133B60710185E227CE80916D01E82EFF24870143
S1133B7006CE81E080931E01109270018093730140
S1133B8087E298CE80916F01E82EFF24870177CEDB
S1133B9081E0809324011092790180937A018DE26F
S1133BA003CF80917801E82EFF248701E2CE22968C
S1133BB00FB6F894DEBF0FBECDBFDF91CF911F913A
S1133BC00F91FF90EF90DF90CF90BF90AF909F90B8
S1133BD008951F93182F0E94E90280911D078A7F80
S1133BE080931D07809374000E94E90280911D0751
S1133BF0846080931D078093740081E08093760134
S1133C00809177018823B9F480912301882319F0E6
S1133C10813089F406C00E94F20280E00E9484127E
S1133C200AC00E94F20281E00E94841210934402AE
S1133C308EE20E94A3001F910895CF92DF92FF921B
S1133C400F931F93CF93DF93082F6B01F42EE82F6C
S1133C50FF27EE0FFF1FEB5AFA4F1182108280915B
S1133C6009019927019662E070E00E94BC3E682F2A
S1133C708093090110E0462F5527FA01EE0FFF1F2C
S1133C80EB5AFA4FA081B181109799F0E62FE6958F
S1133C90E695E695FF27EA5DF34F808199279A011F
S1133CA02770307002C0959587952A95E2F780FFBA
S1133CB00DC0CA01019662E070E00E94BC3E682F0C
S1133CC01F5F1230C1F6109309011AC060930901F5
S1133CD06230B0F4FD01359624813327ED016D8106
S1133CE07727762F662781819927682B792BAD0159
S1133CF086810E940A01882319F08AE00E94A300A9
S1133D00002319F0013081F40BC080EAC81682E068
S1133D10D80651F41092360180E00E94A30004C03A
S1133D206F2DC6010E943E15DF91CF911F910F9117
S1133D30FF90DF90CF9008951F920F920FB60F92CD
S1133D4011242F933F934F935F936F937F938F939C
S1133D509F93AF93BF93EF93FF930E94E9028091E7
S1133D607601843009F4D9C0863021F0833009F01B
S1133D7001C141C090917100987F80917701813099
S1133D8041F49034B1F583E0809376012091AE0B39
S1133D9047C0983171F583E0809376019091AE0B22
S1133DA080918A0120911D07981708F475C0922FFD
S1133DB09E7F90931D078091930C81FF07C08D7F98
S1133DC08093930C906190931D0703C02E772093EA
S1133DD01D0780911D078093740081E08093760114
S1133DE080912301882309F487C0813009F0C2C07F
S1133DF089C084E0A7C0809177019091AE0B813097
S1133E0009F044C0E0914702F0914802E90FF11D26
S1133E108091730080832091AE0B2F5F2093AE0BB3
S1133E2080918A012817A0F433279927019728172E
S1133E30390749F48091930C82FD05C080911D07D8
S1133E408F7B80931D0780911D078093740092C01F
S1133E5090911D07292F2E7F20931D078091930C8D
S1133E6081FF09C08D7F8093930C206120931D07EF
S1133E708091710003C09E7790931D0780911D0768
S1133E808093740081E08093760174C080918A01EC
S1133E9020911D07981778F4E0914702F0914802A9
S1133EA0E90FF11D8081809373009F5F9093AE0BA7
S1133EB0209374005FC0922F9E7F90931D07809182
S1133EC0930C81FF07C08D7F8093930C9061909336
S1133ED01D0703C02E7720931D0780911D07809333
S1133EE0740081E08093760180912301882321F07E
S1133EF0813009F03FC006C00E94F20280E00E94B7
S1133F00841238C00E94F20281E00E94841210924E
S1133F1044028EE20E94A3002DC08091930C8E7FF8
S1133F208093930C90911D079F7D90931D07809122
S1133F307100887F883049F080917100887F8031DA
S1133F4021F081E00E94E91D15C0392F30643093BF
S1133F501D0790913303990F20E080917701813000
S1133F6009F421E0922B9093730086E0809376010C
S1133F7030937400FF91EF91BF91AF919F918F9116
S1133F807F916F915F914F913F912F910F900FBE51
S1133F900F901F901895EF92FF920F931F93F62E98
S1133FA0E22E9FB7F894292F332790912301981775
S1133FB011F02FBF9CC02FBF8FB7F894282F332741
S1133FC080917601813041F582E0809376012FBFA4
S1133FD08FB7F89499275093340340933303109385
S1133FE0480200934702E0928A016093930C109276
S1133FF0AE0B109277018FBF0E94E9028FB7F8943D
S1134000182F90911D07916C9F7E90931D076F2D23
S1134010772760FD0BC011C0882321F42FBF84E0F3
S113402090E06FC02FBF85E090E06BC090629093EA
S11340301D0784E0809376015DC0EE2009F449C039
S113404083E0809376012091AE0B80918A0128173A
S113405078F4E0914702F0914802E20FF11D80816B
S1134060809373002F5F2093AE0B9093740046C02F
S1134070292F2E7F20931D078091930C81FF07C069
S11340808D7F8093930C206120931D0703C09E773E
S113409090931D0780911D078093740081E08093A5
S11340A0760180912301882319F0813039F506C007
S11340B00E94F20280E00E94841220C00E94F20258
S11340C081E00E948412109244028EE20E94A300B6
S11340D015C061FF08C085E0809376019F7B9061E5
S11340E090931D0707C081E0809376011FBF81E094
S11340F090E007C080911D07809374001FBF80E08B
S113410090E01F910F91FF90EF9008950F931F93EC
S113411001E412E022E04DE250E063E080E00E941E
S1134120CB1F1F910F910895CF92DF92EF92FF92D0
S11341300F931F93CFB6F894DD240E946506DC012B
S1134140CB0166E470E00E94A83E2BE0E22EF12C45
S1134150E80EF91EF092770CE092760C0E945F0B49
S113416000271127A80197010E941C0CCFBE1F91A4
S11341700F91FF90EF90DF90CF9008951F93CF930E
S1134180DF938FB7F894C82FDD271C2F809155013A
S1134190909156010897C9F489E00E945F1683E064
S11341A00E946F17C09A81E090E09093560180932B
S11341B055018FB7F894992723E020934F018FBFBF
S11341C08DE00E94A300CFBF30C0C09880917A0CCC
S11341D0882311F085E001C084E00E945F1683FD0E
S11341E009C080E00E945F1683FF04C085E090E070
S11341F020E003C083E090E021E090935601809397
S11342005501C09A1FBF222341F01092890183E017
S11342100E946F170E94942008C00E945F0B20E444
S113422031E040E050E00E941C0CDF91CF911F91DF
S113423008951F93CF93DF938FB7F8949927109124
S11342400A018FBF123009F465C0133030F4112312
S113425059F0113009F0ACC048C0133009F474C0EF
S1134260143009F0A5C0A2C0C0988FB7F894C82F25
S1134270DD2780915001909151010297A1F583E0CF
S113428090E0909351018093500168E170E08DE1DA
S11342900E94031881E0809353031092520180B36B
S11342A0992736E0969587953A95E1F78170907055
S11342B08093540380E10E94A30081E00E945F1672
S11342C06FE772E08CE10E9403180E9464180E9458
S11342D02A1866E57AE287E10E9403186FEF70E816
S11342E085E10E940318CFBF63C0C09886E00E9496
S11342F05F160E9464180E942A180E942716C09A0A
S1134300C09883E00E945F16C09A81E00E946F17F4
S11343108FE045C0C0988FB7F894C82FDD2760E0C0
S113432080E00E945E07882311F0CFBF0AC0CFBF90
S113433083E50E94CD0780E00E94CD0780E00E94C3
S1134340CD07C09A82E02FC08FB7F89499272091A7
S113435055018FBF243039F0283041F0223011F557
S11343600E94751825C00E94BE2022C0C09889E012
S11343700E945F16C09A83E00E946F178FB7F8946B
S1134380992721E030E030935601209355018FBFE7
S11343908FB7F894992710934F018FBF8DE00E9437
S11343A0A30006C083E00E946F1702C00E94AC16EF
S11343B0DF91CF911F910895EF92FF920F931F9376
S11343C0CF93DF938B01809157039091580386FF1D
S11343D040C18F7B8F3309F08EC1C0918401D0918D
S11343E085015881509326028091E1019091E20168
S11343F08530910509F443C08630910509F48AC0DB
S1134400029709F01FC185E090E09093E201809348
S1134410E1014091A801852F99270196242F332784
S1134420281739074CF1B79906C00E9904C0451BEB
S113443041504093A801409126024633E8F44423B6
S1134440A1F0BE016F5F7F4F483018F047E050E0A5
S113445007C086E090E09093E2018093E101552744
S113446080E090E00E94470846C11092E102C09AA1
S113447084E00E946F17E3C00E94F2173CC186E0FB
S113448090E09093E2018093E101809130038823CE
S113449009F439C080917C078823A9F5898185FFB7
S11344A032C08F814E812FB7F894332760914F0328
S11344B0709150032FBF9927982F88275527842B55
S11344C0952B8617970759F08F812E819927982F5E
S11344D088273327822B932B8F5F9F4FA1F48981E9
S11344E08770813081F4C09AC0988AE00E945F1678
S11344F0C09AC0984091260247502896BE018FE387
S11345000E947A16F8C040912602475055272896F3
S1134510BE01A6CFC09A80914602882339F484E074
S11345200E946F1780914602882311F0B7990AC040
S11345300E9B08C09091190C992321F080912602BA
S11345408B3038F480918401909185010E94500B46
S11345503DC0913001F5E091230CFF27EE0FFF1FC2
S1134560EE0FFF1FEB54F44F2081318142815381C0
S1134570E0918401F091850125AFBB27A52F942FED
S1134580832F84AFCA01AA27BB2783AF252F3327E4
S11345904427552722AF8091230C9927019668E080
S11345A070E00E94BC3E8093230C8091190C8150D2
S11345B08093190C882351F0809184019091850196
S11345C00E94500B1092230C1092190C8091260219
S11345D0FE01E80FF11D808187FF31C0012B79F1C5
S11345E069816770E0918401F0918501623019F569
S11345F0A0913103B0913203109709F180915501D4
S1134600909156010797D9F4ED019B818381981706
S1134610B1F487B78F7E87BF908181E088AFE90FBF
S1134620F11D829131968CAB80818F778DAB80E0C8
S11346300E94071B04C0613011F484E12AC00E9467
S1134640BD1759C01092E102C09A84E00E946F170E
S113465052C08E3309F04FC0C09A80915501909199
S113466056010897C9F4C09889E00E945F16C09A61
S113467083E00E946F1781E090E09093560180934D
S113468055018FB7F894992723E020934F018FBFEA
S11346908DE00E94A3002FC080917A0C882349F4F6
S11346A084E090E090935601809355010E94BE20CF
S11346B022C083E00E946F1783E090E0909356013C
S11346C0809355010E946506DC01CB0166E371E02D
S11346D00E94A83E4BE0E42EF12CE80EF91EF09265
S11346E0A001E0929F010E945F0B00271127A801FF
S11346F097010E941C0CDF91CF911F910F91FF90A5
S1134700EF9008951F920F920FB60F9211242F93DA
S11347103F934F935F936F937F938F939F93AF9345
S1134720BF93EF93FF932FB1E091DB06F091DC068A
S1134730309739F08091530590915405E80FF91F93
S113474020838091530590915405019690935405CC
S11347508093530580E00E94750740918701509132
S1134760880180915305909154058417950718F496
S11347700E94D9071CC06091DB067091DC06809111
S1134780300C9091310C1092DC061092DB061092E2
S1134790310C1092300C1092880110928701109203
S11347A05405109253052FB120E00E94DC21FF91A3
S11347B0EF91BF91AF919F918F917F916F915F9195
S11347C04F913F912F910F900FBE0F901F9018950E
S11347D00F931F930FB7F8941127409187015091BD
S11347E088016091DB067091DC068091300C909119
S11347F0310C1092DC061092DB061092310C1092F0
S1134800300C109288011092870110925405109276
S1134810530520E00E94DC210FBF1F910F910895E2
S113482078941F920F920FB60F9211242F923F92F9
S11348304F925F926F927F928F929F92AF92BF92AC
S1134840CF92DF92EF92FF920F931F932F933F9398
S11348504F935F936F937F938F939F93AF93BF9384
S1134860CF93DF93EF93FF93C6B5D7B58FB7F89483
S1134870282E0E945F0B9B012C1B3D0B44275527C0
S11348802B013C01421A530A640A750A80915501AE
S1134890909156018530910521F0069709F0E0C00A
S11348A0BFC086E090E0909356018093550131E0BB
S11348B0332E30929F021092570180E00E94370CF1
S11348C0E0913103F091320345AEBB27A72D962D1D
S11348D0852D84AFC301AA27BB2783AF872D9927D2
S11348E0AA27BB2782AFE0913103F091320381AD57
S11348F0882309F484C06081655077274F01860EB0
S1134900971EF4012081E1808281A3809927AA2740
S1134910BB27BA2FA92F982F882733274427552739
S1134920522F442733272227FF24002711278701EA
S1134930FF24EE242E293F29402B512BBB24CC24C9
S1134940DD242A293B294C295D29822B932BA42B76
S1134950B52B84199509A609B7098383292F3A2F02
S11349604B2F552722839D014427552721838B2FC5
S11349709927AA27BB278083C09824E0A40180E05C
S113498090E00E94E615C09AF4012081E1808281C2
S1134990A3809927AA27BB27BA2FA92F982F882746
S11349A0332744275527522F442733272227FF2410
S11349B0002711278701FF24EE242E293F29402BAD
S11349C0512BBB24CC24DD242A293B294C295D29E5
S11349D0822B932BA42BB52B840D951DA61DB71DDF
S11349E08383292F3A2F4B2F552722839D01442758
S11349F0552721838B2F9927AA27BB278083E091F2
S1134A003103F0913203818185FF02C03092AD0100
S1134A1083E00E946F1787B78F7E87BF84997AC01F
S1134A2010929F0281E00E94370CE0913103F091D3
S1134A303203818185FF0FC087E090E09093560197
S1134A40809355010E945F0B20E031E040E050E08C
S1134A500E941C0C03C080E00E94071B849B5AC068
S1134A6080915701882391F580919F02882371F5E5
S1134A7011E010939F020E94370C80B32091190C0F
S1134A80283098F4E091230CE20FFF27E770F070D0
S1134A90EE0FFF1FEE0FFF1FEB54F44F40825182C5
S1134AA0628273822F5F2093190C10935701D09365
S1134AB05A03C093590384992DC0992724E09695ED
S1134AC087952A95E1F7182F117001C010E08091A5
S1134AD09F028130F9F410929F020E94370C1092C9
S1134AE057011123B9F48091590390915A03C81BBB
S1134AF0D90B2A9778F48091190C882319F08150E6
S1134B008093190C8091310390913203009711F036
S1134B100E94500B2FBEFF91EF91DF91CF91BF9177
S1134B20AF919F918F917F916F915F914F913F9141
S1134B302F911F910F91FF90EF90DF90CF90BF9036
S1134B40AF909F908F907F906F905F904F903F9029
S1134B502F900F900FBE0F901F90189578941F926E
S1134B600F920FB60F9211241F932F933F934F93DD
S1134B705F936F937F938F939F93AF93BF93EF93C1
S1134B80FF9387B78F7E87BF78941FB7F89480917F
S1134B90410390914203A0914303B09144030097D1
S1134BA0A105B10509F051C08091550190915601BC
S1134BB08530910561F18630910530F4833091059B
S1134BC049F0049781F51AC087309105F1F00897F0
S1134BD051F514C0869B0FC084E090E09093560179
S1134BE0809355010E945F0B27E030E040E050E0E5
S1134BF00E941C0C18C00E94942015C00E94A2148C
S1134C00882389F40E94BE200EC080E00AC089E097
S1134C100E945F1681E00E94370C83E00E946F17A8
S1134C2087E00E94071B80915001909151010197E8
S1134C3071F482E090E09093510180935001DE98EA
S1134C40DE9A80E00E94271402C00E947C0B812F10
S1134C5099278FBFFF91EF91BF91AF919F918F9152
S1134C607F916F915F914F913F912F911F910F9081
S1134C700FBE0F901F90189561E081E00E944407D9
S1134C808823E9F48FB7F894282F332780915001B3
S1134C9090915101892B11F02FBF20C081E090E049
S1134CA090935101809350012FBFDD9A0E945F0BB6
S1134CB024E130E040E050E00E941C0C0FC062E0B0
S1134CC081E00E945E07882319F089E090E008954E
S1134CD061E081E00E945E07882319F080E090E0A3
S1134CE0089585E090E00895EF920F931F938FB796
S1134CF0F89499272091230220931C0123E0209308
S1134D006C018FBF80911C01882319F0813099F4C4
S1134D1003C0159A1D9A02C0A09AA89A0E94E001A5
S1134D20AB01BC01E1E0EE2E0AE010E020E030E04F
S1134D3089E00E94C1011F910F91EF900895EF92B5
S1134D400F931F9389B78F7789BFA39AAB9AA69ABB
S1134D50AE98AE9A80911F01109241028093420254
S1134D608FB7F894282F3327922F809175018823C9
S1134D7009F045C0A1E0EA2EE09275011092860187
S1134D802FBF8FB7F894082F1127809176018823BD
S1134D90C9F4909A919A889889981092710081E444
S1134DA08093700010927200109274000E94E902C5
S1134DB080911D0784608E7F80931D07809374000B
S1134DC0E09276010FBF8FB7F894082F1127902F28
S1134DD080912201823059F580917501813021F44E
S1134DE08AE20E94A30009C0823009F580918601FD
S1134DF08093220183E0809375010FBF1FC08091CF
S1134E008601882311F42FBF19C08091240C8F3F91
S1134E1071F4E0912101EE2351F00BC010922001B6
S1134E2004C0FF27EC5DF34F1082109221019FBF55
S1134E3005C0809120018F3FA1F7F0CF0E94E001CF
S1134E40AB01BC01F1E0EF2E00EB14E020E030E018
S1134E508AE00E94C10180E090E01F910F91EF90E1
S1134E60089589B78F7789BFAB98A39880917B0108
S1134E70813011F40E949F268FB7F89499271092DD
S1134E807B0110927A018FBF80E090E00895EF9249
S1134E900F931F93A59AAD9A0E94E001AB01BC0148
S1134EA0B1E0EB2E04E610E020E030E08BE00E945D
S1134EB0C10180E090E01F910F91EF900895AF92AF
S1134EC0BF92CF92DF92EF920F931F935B016C011D
S1134ED00E94E001AB01BC0111E0E12E96018501C5
S1134EE080E00E94C1011F910F91EF90DF90CF905D
S1134EF0BF90AF900895EF92FF920F931F93CF93BB
S1134F00DF937C01EC018A818823A9F4F0922F0CB1
S1134F10E0922E0C8A81882309F08FC0635E714071
S1134F2009F08BC01092350160E070E080E090E001
S1134F300E945F2782C0442309F477C0E7010881F7
S1134F40198180919101843009F046C0C8010E9402
S1134F50BC0820919101622F0E949C3E492F921718
S1134F60D8F5992359F4809147059927019664E06F
S1134F7070E00E94BC3E8093470529C0809147059C
S1134F80840F912D911D9C0123703070E901CC0F89
S1134F90DD1FCC0FDD1FC20FD31F019664E070E04C
S1134FA00E94BC3EFC01EE0FFF1FEE0FFF1FE80F37
S1134FB0F91FC85DDD4FE85DFD4F85E00190099262
S1134FC08150E1F74F5F809191014817B8F28091C9
S1134FD09101815080939101409191018091470505
S1134FE0840F912D911D83709070D8011C96FC0143
S1134FF0EE0FFF1FEE0FFF1FE80FF91FE85DFD4FD7
S1135000E80188899927982F882729893327822BB3
S1135010932B91838083ED018E81828389818483A4
S11350208F8183834F5F40939101F7018081918148
S11350300E940509C7010E942409DF91CF911F91A5
S11350400F91FF90EF900895AF92BF92CF92DF92AD
S1135050EF920F931F935B016C010E94E001AB017F
S1135060BC01E1E0EE2E9601850186E00E94C101BB
S11350701F910F91EF90DF90CF90BF90AF90089564
S1135080CF92DF92EF92FF920F931F936C017B01FB
S11350900E946506DC01CB01B6010E94A83EE80E21
S11350A0F91E00271127C801B7010E9424281F9167
S11350B00F91FF90EF90DF90CF9008950F931F937F
S11350C0CF93DF93EC01E0915C01FF27EE0FFF1F0C
S11350D0ED57F44F00811181662329F06CE170E0F3
S11350E08CE190E02FC080915B0183FF3DC088ADCF
S11350F08823D1F58F819927982F88272E813327EC
S1135100822B932B0E941906982F8F3F71F08EE00B
S1135110989FF0011124E05AFA4F85858F5F8587A7
S1135120853018F0CF010E94860889E10E94A3000F
S1135130F801838181508383882339F067E070E02C
S113514087E090E00E9440283FC00E94A10880911F
S11351505B018F7E80935B0167E070E087E090E005
S11351600E94402840E02CC00E94A10880915B016D
S11351708F7E80935B0167E070E087E090E00E949F
S113518040288F819927982F88272E813327822BB7
S1135190932B0E941906982F8F3F89F08EE0989FD9
S11351A0F0011124E05AFA4F84858F5F8487858546
S11351B08F5F8587853018F0CF010E94860841E013
S11351C0BE01C8010E947B27DF91CF911F910F91EF
S11351D008950F931F9380913F03882391F110E06A
S11351E001E020913F03822F802319F1E12FFF2753
S11351F0EE0FFF1FEB52F44F408151811182108258
S1135200802F8095282320933F03112319F0113018
S113521081F405C063E0CA010E945E280FC0455EA8
S1135220524061F480916301882341F0109263013C
S113523005C01F5F183028F4000FD3CF000F1F5F85
S1135240D0CF1F910F910895FF920F931F93CF9387
S1135250DF93082FEB01F42EE82FFF27EE0FFF1F3B
S1135260EB52F44F11821082809114019927019618
S113527062E070E00E94BC3E682F8093140110E04D
S1135280462F5527FA01EE0FFF1FEB52F44FA08172
S1135290B181109799F0E62FE695E695E695FF27FC
S11352A0E15CFC4F808199279A012770307002C01D
S11352B0959587952A95E2F780FF0DC0CA0101965E
S11352C062E070E00E94BC3E682F1F5F1230C1F69E
S11352D01093140119C0609314016230A8F42C9146
S11352E02D503327FD0167817727762F6627868126
S11352F09927682B792BAD0183850E944D1988234A
S113530019F088E10E94A300002319F0013079F418
S113531005C06F2DCE010E945E2809C0C55ED24033
S113532031F480916301882311F010926301DF91BD
S1135330CF911F910F91FF9008959B0180911401CB
S1135340823068F4E82FFF27EE0FFF1FEB52F44F73
S1135350608171816217730711F40E9424290895F2
S1135360CF93DF93C0915901D0915A0160916103A9
S1135370CE010E94BB18482F5527442351F08FEFCC
S1135380809311016091590170915A018B850E949B
S11353909D29DF91CF910895FF920F931F93CF938F
S11353A0DF938FB7F8949927F0904F018FBF63E094
S11353B081E00E945E07882359F10FB7F894112702
S11353C0109256011092550187B78F7E87BF87B719
S11353D08F7D87BF83E00E946F17C09A0FBF0FB7FE
S11353E0F89411271092E2011092E1010E94440BFB
S11353F0C09A89B78F7B89BF0FBF10925101109259
S11354005001DE98DD98DE9A8CE00E94A30007C06C
S11354108FB7F894992722E0209377078FBFC09124
S11354206503D09166030E9468088091280C9091CE
S1135430290C892B41F48FEF809311014F2DBE016C
S11354408B850E949D29DF91CF911F910F91FF9031
S1135450089580911401E82FFF27EE0FFF1FEB52F0
S1135460F44F6081718141E00E9424290895AF9234
S1135470BF92CF92DF92EF92FF920F931F93CF933D
S1135480DF93CDB7DEB722970FB6F894DEBF0FBE19
S1135490CDBF80915B0184FDD6C090E080915E0118
S11354A0882309F491E0992309F0CDC080919201F9
S11354B0882359F420E08091A40B9091A50B8F5F71
S11354C09F4F09F021E0222331F0CE0101960E9482
S11354D04309882339F060E177E280E090E00E949C
S11354E02428B1C0E0915C01FF27EE0FFF1FED57A8
S11354F0F44FC080D180D601ED91FC91F080A09052
S1135500A40BB090A50BCF010E94BC0820E09091A1
S11355109101891708F421E0222359F00E94A1087F
S1135520F601808191810E940509C6010E94240927
S113553087C080919201D601ED91FC91882359F1A5
S1135540B388A0915103B091520380E401900D926D
S11355508150E1F70091510310915203F8018081C9
S11355608551E82EFF246E2DC8010E94FF03BC0163
S1135570FBE2BF1629F44E2DC8010E94A7098C0135
S1135580109352030093510360E0D6018D919C91D6
S11355900E945E2858C089819A818787892F99271C
S11355A08687D601ED91FC91119784858F7384874A
S11355B04D915C91DA011196FD0121813327322F3F
S11355C02227FA01818199278062282B392B218394
S11355D0232F3327FD01218380915B018860809311
S11355E05B0180FF0BC0D601ED91FC918485806442
S11355F0848780915B018E7F80935B01F60100813B
S11356001181B501C8010E94FA0681E7F801838778
S1135610F3EFFF0E4F2D5527B80180E00E94B71914
S11356209927882331F480915B01806180935B0129
S11356300AC0823041F4D601ED91FC9185E3808368
S113564086E10E94A30022960FB6F894DEBF0FBE37
S1135650CDBFDF91CF911F910F91FF90EF90DF901D
S1135660CF90BF90AF900895AF92BF92CF92DF9248
S1135670EF920F931F935B016C010E94E001AB0159
S1135680BC0111E0E12E9601850184E00E94C10174
S11356901F910F91EF90DF90CF90BF90AF9008953E
S11356A0EF92FF920F931F9380911601909117012F
S11356B0A0911801B0911901B695A7959795879572
S11356C080939B0290939C02A0939D02B0939E02B0
S11356D00E946506E0909B02F0909C0200919D025E
S11356E010919E02A80197010E94CF3E6E0D7F1D6E
S11356F0801F911F60939B0270939C0280939D0274
S113570090939E0210929D0B0E94342B1F910F9137
S1135710FF90EF90089580E890E0A0E0B0E08093DF
S1135720160190931701A0931801B09319010E94D8
S1135730502B0895EF92FF920F931F93CF93DF9313
S11357400FB7F894112781E00E94370C81E0E82E0E
S1135750F12CF0925601E0925501109257011092EB
S1135760AD0110923E020FBF0FB7F89411270E94AB
S1135770440BF092E201E092E1011092E10289B758
S11357808F7B89BF80E488BF8AB780628ABF8AB76B
S11357908F7E8ABF89B7806489BF0FBF8FB7F894A3
S11357A0C82FDD278091500190915101049719F47D
S11357B083E00E945F16CFBF0FB7F8941127C09AF9
S11357C080E00E946F170FBF8FB7F894992722E0EB
S11357D0209377078FBF01E00093610180916201FC
S11357E0882311F00E94650680915B018460809398
S11357F05B0190E080915E01882309F491E0992394
S113580019F486E10E94A30080915B018260809379
S11358105B01809162018823B9F40093620180E8FE
S113582090E0A0E0B0E08093160190931701A0935C
S11358301801B09319010E94502B40E050E260E03F
S113584070E085E00E944A0C809134018823E1F0E5
S11358504091A40B5091A50B2FB7F89433270093D4
S1135860920180916F07909170079093A50B80939C
S1135870A40B1092A70B1092A60B2FBF4F5F5F4F84
S113588019F486E10E94A300DF91CF911F910F913B
S1135890FF90EF9008956F927F928F929F92AF92B4
S11358A0BF92DF92EF92FF920F931F93CF93DF93F8
S11358B0CDB7DEB7E2970FB6F894DEBF0FBECDBF0B
S11358C04B015C01662477246FEE75E0FB01D08404
S11358D0D1FE7BC22081318142815381E480F580F5
S11358E006811781D501C401821B930BA40BB50B50
S11358F08E159F05A007B10708F467C2D0FE05C046
S1135900FDEFDF22FB01D08609C02E0D3F1D401F95
S1135910511FFB012083318342835383F6E06F16CA
S113592009F41EC1F615B0F022E0621609F4B2C003
S1135930261538F0662031F181E0681609F04FC26F
S113594049C094E0691609F4A9C0E5E06E1609F0AF
S113595046C2FAC0F9E06F1609F444C1F61548F0DE
S113596027E0621609F403C188E0681609F037C21B
S113597000C19AE0691609F4B4C1EBE06E1609F0AF
S11359802EC2E8C18FB7F894082F112780917001B7
S1135990882379F491E0909370011092A1010FBFD4
S11359A080917301882311F486E275C09093740189
S11359B016C28091A101882309F403C280E00E94E9
S11359C05305882309F0FDC18091AF0B816080935A
S11359D0AF0BF7C180913401882309F400C2809190
S11359E00001909101018C83892F99278B83CE012B
S11359F001960E940B0489819A818E83892F9927AD
S1135A008D8380913503909136038887892F992758
S1135A108F8380912B0C90912C0C8A87892F992746
S1135A2089871C861B861E861D86188A1F861A8AED
S1135A30198A1C8A1B8A1E8A1D8A188E1F8A8E0147
S1135A400D5F1F4FC8010E943404DE015B96F8010C
S1135A5088E101900D928150E1F78DB79EB7489788
S1135A600FB6F8949EBF0FBE8DBFEDB7FEB731964B
S1135A70DE015B9688E10D9001928150E1F70E946E
S1135A806E09EDB7FEB778960FB6F894FEBF0FBE59
S1135A90EDBFA5C180E00E94A300A1C18091610176
S1135AA0882309F49CC180916201882309F497C179
S1135AB080919D0B882301F589E10E94A3008AE16E
S1135AC00E94A30060911601709117018091180142
S1135AD09091190120919B0230919C0240919D026A
S1135AE050919E02621B730B840B950B21E0209353
S1135AF09D0B0E94342B73C1809116019091170164
S1135B00A0911801B0911901880F991FAA1FBB1FFA
S1135B108093160190931701A0931801B093190173
S1135B208150904DA740B04060F080E090EDA7E038
S1135B30B0E08093160190931701A0931801B093DD
S1135B4019010E94502B4BC180916101882309F4F3
S1135B5046C180916201882309F441C189E19BCF48
S1135B6080915B018F7E80935B0186E194CFAA983C
S1135B7036C19FB7F89420916801222319F421E0DB
S1135B8030E00FC080911B01823019F020E030E03A
S1135B9008C040E050E02150223010F441E050E0D1
S1135BA09A01892F99278FBF222309F418C18FB72F
S1135BB0F894082F1127902F80911B01823009F04F
S1135BC002C180916801813011F48EE1EEC082300F
S1135BD009F0F9C080912F0380931B0183E0809327
S1135BE06801EFC080E00E942A05882309F43AC0C6
S1135BF09FB7F89420916E01222319F421E030E03C
S1135C000FC080911D01813019F020E030E008C000
S1135C1040E050E02150223010F441E050E09A017D
S1135C20892F99278FBF2223E9F08FB7F894082F83
S1135C301127902F80911D01813099F480916E017C
S1135C40813021F482E20E94A30009C0823049F429
S1135C508091ED0580931D0183E080936E010FBF59
S1135C6001C09FBF81E00E942A05882309F4B7C0C0
S1135C709FB7F89420917001222319F421E030E0B9
S1135C800FC080911E01813019F020E030E008C07F
S1135C9040E050E02150223010F441E050E09A01FD
S1135CA0892F99278FBF222309F499C08FB7F894BD
S1135CB0082F1127902F80911E01813009F083C095
S1135CC080917001813011F483E26FC0823009F059
S1135CD07AC08091A10180931E0183E080937001BA
S1135CE070C09FB7F89420917901222319F421E020
