S01800006275696C642F6D6963617A2F6D61696E2E73726563E5
S11300000C947C010C94CD120C94D7120C94E11234
S11300100C94EB120C94F5120C94FF120C94C0186F
S11300200C9409130C949B010C949B010C940D23C8
S11300300C94881F0C9497120C94AD120C942E14EB
S11300400C94C70E0C947F220C9495100C949B0175
S11300500C9411110C94BC130C949B010C949B01F3
S11300600C94A2120C9464120C9443120C944E122D
S11300700C9459120C9477120C9426120C949B0134
S11300800C9438120C94E11C0C949B018F31933125
S1130090C6311E3202331D331F3322332533463318
S11300A049334C334F335D3360337A338033BA335F
S11300B0BD33C033C333C633D833883100340E3430
S11300C0ED34B235E03510381F3837383A383C381B
S11300D0553858385B385E3862386538693879384D
S11300E07C38A738AA38AD381D39C038C338C6386B
S11300F0D73800002110422063308440A550C660E8
S1130100E770088129914AA16BB18CC1ADD1CEE1D0
S1130110EFF13112100273325222B5529442F77247
S1130120D662399318837BB35AA3BDD39CC3FFF320
S1130130DEE36224433420040114E664C774A44457
S113014085546AA54BB528850995EEE5CFF5ACC570
S11301508DD55336722611163006D776F666955627
S1130160B4465BB77AA719973887DFF7FEE79DD7C0
S1130170BCC7C448E5588668A778400861180228B7
S11301802338CCC9EDD98EE9AFF9488969990AA910
S11301902BB9F55AD44AB77A966A711A500A333A87
S11301A0122AFDDBDCCBBFFB9EEB799B588B3BBB60
S11301B01AABA66C877CE44CC55C222C033C600C17
S11301C0411CAEED8FFDECCDCDDD2AAD0BBD688DB0
S11301D0499D977EB66ED55EF44E133E322E511E67
S11301E0700E9FFFBEEFDDDFFCCF1BBF3AAF599F00
S11301F0788F8891A981CAB1EBA10CD12DC14EF1A0
S11302006FE18010A100C230E32004502540467005
S11302106760B9839893FBA3DAB33DC31CD37FE330
S11302205EF3B1029012F322D23235421452776255
S11302305672EAB5CBA5A89589856EF54FE52CD500
S11302400DC5E234C324A0148104667447642454A5
S11302500544DBA7FAB79987B8975FE77EF71DC710
S11302603CD7D326F2369106B016576676761546F5
S113027034564CD96DC90EF92FE9C899E9898AB960
S1130280ABA94458654806782768C018E108823845
S1130290A3287DCB5CDB3FEB1EFBF98BD89BBBAB70
S11302A09ABB754A545A376A167AF10AD01AB32A95
S11302B0923A2EFD0FED6CDD4DCDAABD8BADE89DC0
S11302C0C98D267C076C645C454CA23C832CE01CE5
S11302D0C10C1FEF3EFF5DCF7CDF9BAFBABFD98F50
S11302E0F89F176E367E554E745E932EB23ED10E35
S11302F0F01E00081C18141011241FBECFEFD0E10B
S1130300DEBFCDBF11E0A0E0B1E0ECE4F0E800E036
S11303100BBF02C007900D92A433B107D9F71CE0BC
S1130320A4E3B1E001C01D92A637B107E1F70E9432
S11303304F390C9425400C9400008FB7F8949927FA
S113034008958FBF0895282F9FB7F894E82FFF27AB
S1130350E055FE4F80818F3F81F4E091510CE2170C
S113036071F40BC02093F20B04C0FF27E055FE4F3D
S113037020832093510C20E007C025E005C0809124
S1130380F20B8F3F91F7EECF892F99278FBF822FE2
S11303909927089580E00E94A301992708958FE08A
S11303A00E94A3019927089580E10E94A30199273F
S11303B008952FB7F89433278091490280930D0153
S11303C082E0809356012FBF80910D01882329F488
S11303D0B89AC09881E10E94A301089586E10E9421
S11303E0A301992708958BE20E94A30199270895F8
S11303F082E20E94A3019927089580917C018823B9
S113040021F48CE20E94A301089581E080937D0190
S1130410089583E20E94A301992708951F931FB7AB
S1130420F89480914C0C882341F483E00E94A3014A
S1130430882319F481E080934C0C812F99278FBF76
S11304401F910895382FFA01422F293218F082E0C3
S113045090E008956683872F9927858333872187C2
S11304608091440190914501892B19F085E090E039
S113047008952FB7F894332785E0809347011092AD
S11304804801F0934301E093420182E090E09093AD
S113049045018093440110924A0110924901445F3E
S11304A0409346012FBF8FB7F894282F33278091AC
S11304B02A078A3011F42FBF19C02FBF9FB7F894B1
S11304C080915E03882311F020E006C081E08093D0
S11304D05E0310925F0321E0892F99278FBF2223A7
S11304E029F00E940E0280E090E0089510924501E8
S11304F01092440181E090E00895CF93DF93582F48
S1130500DB01823018F081E090E038C0C82FDD278D
S1130510CC0FDD1FC35DDA4F88819981892B19F0D7
S113052085E090E02BC0798368839B012B5F3F4F6C
S1130530F901448380910901823018F480E090E04D
S11305401DC0F9018681FB0165817727762F662717
S1130550F90121813327622B732B50930901242F36
S1130560AD010E9422029927282F882329F082E0D6
S11305708093090119821882822F9927DF91CF91E4
S11305800895CF93DF93FB01DB011596ED01898379
S1130590892F9927858384E68E8381E00E947D02DA
S11305A09927DF91CF91089582E30E94A3019927AF
S11305B00895EF920F931F93AE2D99E0899FF00158
S11305C01124E953FA4F4083518362837383048374
S11305D0158326833783A17080858E7F8A2B826062
S11305E0808782E00E94A3011F910F91EF900895EC
S11305F07FB7F89462B720918D0130918E014091BC
S11306008F015091900106B601FE0FC081B792B7D9
S1130610280F311D411D511D2F5F3F4F4F4F5F4F1D
S1130620290F311D411D511D04C0260F311D411DCF
S1130630511D872F99278FBFCA01B9010895982F9B
S1130640969596959695E6ECF5E0E90FF11D877081
S113065021E030E002C0220F331F8A95E2F7808147
S11306608223992708950F931F93CF93DF93182F15
S11306708FB7F894282F3327022F8091680188239D
S113068059F581E080936801109357082FBF8FB705
S1130690F8949927379A8FBF8FB7F894C82FDD271E
S11306A09C2F80911A018730A9F4809168018130D0
S11306B021F48BE10E94A30109C0823059F4809196
S11306C0570880931A0183E080936801CFBF80E0CC
S11306D090E025C09FBFFBCF80915708811711F48C
S11306E02FBFF5CF812F0E941F03882319F085E0C7
S11306F090E014C0E12FE695E695E695FF27EA53CE
S1130700FA4F177081E090E002C0880F991F1A9584
S1130710E2F72081282B208380E090E00FBFDF9157
S1130720CF911F910F9108958330A9F0843028F45C
S1130730813069F0823068F408C0853081F08530FA
S113074060F0863071F081E00FC080E00BC081E082
S113075009C082E007C083E005C084E003C085E0EF
S113076001C086E00E943303992708952FB7F894B7
S113077033278091C50580931D0183E08093700128
S11307802FBF80911D018093760B83E00E94940318
S113079008952FB7F89433278091A30180931E0105
S11307A083E0809372012FBF80911E0180935B03CD
S11307B083E00E94940308952FB7F894332780911F
S11307C053078093240183E080937B012FBF8091A2
S11307D02401882319F484E00E94940308958FB7B8
S11307E0F89499272091F6062093250123E020937D
S11307F07F018FBF80912501882321F485E00E9429
S113080094030895813019F486E00E9494030895B6
S11308108FB7F8949927209174002093F5068FBF21
S113082008950E9408048091F5068E7F8069809364
S1130830F506809374000895982F9695969596954D
S1130840E0E4F2E0E90FF11D877021E030E002C03E
S1130850220F331F8A95E2F7808182239927089516
S1130860EF92FF920F931F93CF93DF93982F8FB73D
S1130870F894E82E80916E01833009F045C0809190
S11308801C01891709F040C080914002882309F0B7
S113089045C03EC0EF2DE695E695E695FF274F2D22
S11308A05527E05CFD4F9A012770307081E090E09D
S11308B002C0880F991F2A95E2F78095208128238A
S11308C02083C0936D0111C02196C230D10511F46B
S11308D0C0E0D0E0FC2E8C2F0E941C048823D1F6AB
S11308E0C017D10789F74FEF50E0409325028FEFEF
S11308F080931C0181E080936E0181E20E94A30138
S1130900EFBE80E090E010C0EFBE81E090E00CC04C
S113091082E080931C0110926E01F2CF80916D01F0
S1130920082F1127E801D0CFDF91CF911F910F91AC
S1130930FF90EF90089580E00E9430049927089575
S1130940982F969596959695ECE3F2E0E90FF11DB4
S1130950877021E030E002C0220F331F8A95E2F74E
S11309608081822399270895EF92FF920F931F931A
S1130970CF93DF93982F8FB7F894E82E80917F015F
S1130980833009F045C080912501891709F040C0E2
S113099080913C02882309F049C03EC0EF2DE695C2
S11309A0E695E695FF274F2D5527E45CFD4F9A0108
S11309B02770307081E090E002C0880F991F2A955B
S11309C0E2F78095208128232083C0937E0111C003
S11309D02196C230D10511F4C0E0D0E0FC2E8C2F5A
S11309E00E94A0048823D1F6C017D10789F74FEFDE
S11309F050E04093F6068FEF8093250181E08093C9
S1130A007F018FE20E94A301EFBE80E090E014C05A
S1130A10EFBE81E090E010C082E080932501109247
S1130A207F0181E08093800181E3ECCF80917E019E
S1130A30082F1127E801CCCFDF91CF911F910F919F
S1130A40FF90EF9008959C01685F693218F080E090
S1130A5090E008950C9611F0C90144960895FC01A4
S1130A60892B69F080917C0B90917D0B2FEF8F3F48
S1130A70920729F09183808380E090E0089581E0DB
S1130A8090E00895AC01209160012D3018F081E0D0
S1130A9090E0089580915F01E82FFF27EE0FFF1F7C
S1130AA0E55AF44F518340838F5F80935F018D300B
S1130AB011F410925F012F5F2093600180E090E0B9
S1130AC008958FB7F89499272BB332E023272BBBD3
S1130AD08FBF08950F931F93182F8FB7F894282F63
S1130AE03327022F80917F01882399F491E090931A
S1130AF07F011093F6062FBF80918001882321F493
S1130B0080E30E94A30102C09093810180E090E001
S1130B1023C08091F606811711F42FBFF7CF812FE0
S1130B200E94A004882319F085E090E014C0E12F0E
S1130B30E695E695E695FF27E45CFD4F177081E0A6
S1130B4090E002C0880F991F1A95E2F72081282BA4
S1130B50208380E090E00FBF1F910F910895982F9C
S1130B60969596959695EDE4FCE0E90FF11D877056
S1130B7021E030E002C0220F331F8A95E2F7808122
S1130B80822399270895982F969596959695EEEA3F
S1130B90F1E0E90FF11D877021E030E002C0220F7F
S1130BA0331F8A95E2F780818223992708950F9352
S1130BB01F93182F8FB7F894282F3327022F809173
S1130BC06A01882399F491E090936A0110932F03AA
S1130BD02FBF80916B01882321F48FE10E94A30130
S1130BE002C090936C0180E090E023C080912F03B9
S1130BF0811711F42FBFF7CF812F0E94C3058823DB
S1130C0019F085E090E014C0E12FE695E695E695AD
S1130C10FF27E255FE4F177081E090E002C0880F75
S1130C20991F1A95E2F72081282B208380E090E019
S1130C300FBF1F910F9108959FB7F894292F332761
S1130C40422F90911C01981741F480916E018330DA
S1130C5021F42FBF81E090E008954FBF80E090E041
S1130C60089580E00E941C069927089581E00E945F
S1130C701C0699270895982F969596959695E7E3DF
S1130C80F5E0E90FF11D877021E030E002C0220F8A
S1130C90331F8A95E2F78081822399270895982F3C
S1130CA0969596959695E7E8FBE0E90FF11D877018
S1130CB021E030E002C0220F331F8A95E2F78081E1
S1130CC0822399270895FF920F931F93CF93DF9365
S1130CD080917101082F1127E8012196C130D105B7
S1130CE011F4C0E0D0E08C2F0E944F068823D1F08D
S1130CF0EC2FE695E695E695FF274C2F5527E95707
S1130D00F44F9A012770307081E090E002C0880FA0
S1130D10991F2A95E2F78095208128232083C09388
S1130D20710105C0C017D107C1F64FEF50E0CA01E9
S1130D30DF91CF911F910F91FF9008958091FA0B4D
S1130D40833099F0843028F4813099F0823078F43B
S1130D5012C0853031F0853030F0863071F4E8E02F
S1130D6031C0E8E02CC0E8E027C0E8E022C0E8E0B9
S1130D701DC0E8E018C0E8E013C08330C9F0843037
S1130D8028F4813079F0823080F409C08530B1F0E4
S1130D90853088F08630A9F02FE1E0E014C0E0E06F
S1130DA02EE111C0E0E023E00EC0E0E024E00BC03F
S1130DB0E0E021E008C0E0E022E005C0E0E026E059
S1130DC002C0E0E025E0622F7FB7F89480913F02F3
S1130DD08E7F80933F0287B1982F9F71829586956D
S1130DE08695837019F080E090E012C0822F8850BD
S1130DF0863118F081E090E00BC040E050E03327EA
S1130E00892F99272817390711F441E050E0CA01C6
S1130E10982F9170990F80913F028178262F2F711E
S1130E20422F440F440F892B842B80933F02332796
S1130E3027B9E83059F58091F30B9091F40B21E038
S1130E408638920718F087E090E01FC0833C910534
S1130E5018F086E090E019C08136910518F085E01D
S1130E6090E013C08033910518F084E090E00DC049
S1130E708831910518F083E090E007C00C9718F0D2
S1130E8082E090E002C080E090E0E82FE770887D87
S1130E908E2B886D992786B9872F99278FBF089540
S1130EA091E0909360038093FA0B0E949E0680E089
S1130EB090E00895AC01E8E3F5E080E090E09C0167
S1130EC0858180FF05C0808191818417950741F059
S1130ED0C90101963E968A30910589F72FEF30E0DB
S1130EE0C90108950E945A078F3F99F09927880FE6
S1130EF0991FFC0173E0EE0FFF1F7A95E1F7E81BE1
S1130F00F90BE85CFA4F858181FF03C082859385E4
S1130F1008958FEF90E008950E945A078F3F19F4C7
S1130F2081E090E008959927880F991FFC01A3E0C0
S1130F30EE0FFF1FAA95E1F7E81BF90BE85CFA4FE7
S1130F4085818860858380E090E008952F923F92A8
S1130F504F925F926F927F928F929F92AF92BF92C5
S1130F60CF92DF92EF92FF920F931F93CF93DF9371
S1130F70CDB7DEB729970FB6F894DEBF0FBECDBF4D
S1130F806FB76983F894209037033090380340900A
S1130F90390350903A036624772488248EE4A82EDB
S1130FA003E8B02ECC24DD24EE24FF2400E010E07E
S1130FB0222D332D442D552D662D772D882D90E02F
S1130FC00E94633C2A833B834C835D836E837F83CF
S1130FD088879987822E932EA42EB52E240135015D
S1130FE000E20E94613DA22EB32EC42ED52EA30191
S1130FF0920156954795379527952A0D3B1D4C1D13
S11310005D1D57FF05C05F772F5F3F4F4F4F5F4F09
S113101020933703309338034093390350933A03B2
S1131020E9818E2F99278FBFCA01B90129960FB67E
S1131030F894DEBF0FBECDBFDF91CF911F910F910A
S1131040FF90EF90DF90CF90BF90AF909F908F90E4
S11310507F906F905F904F903F902F9008959C01E8
S11310606E5F693218F080E090E008950C9611F0FC
S1131070C9010E960895FC016683672F772767835D
S11310800895FC0182819927582F4427818199274B
S1131090482B592BCA01892F9927869586958370E9
S11310A090708230910559F08330910559F0892B65
S11310B019F420E030E008C02CE93FEF05C022E03D
S11310C030E002C028E030E0CA0184E0989F812D1E
S11310D0992711248230910559F08330910559F0F4
S11310E0892B19F480E090E008C08CE99FEF05C0DB
S11310F082E090E002C088E090E0280F391F2A5F68
S11311003F4FCF01820F931F0895282F9FB7F89464
S1131110662349F0E82FFF27E25BF84F808188239C
S113112011F021E006C0E22FFF27E25BF84F608355
S113113020E0892F99278FBF822F99270895E82FC0
S11311408FB7F894282F332790E0FF27E25BF84FFE
S11311508081861709F491E02FBF892F992708957C
S1131160882311F06E9A08956E980895882311F0DB
S11311706F9A08956F98089580E00E94B008BA9A13
S1131180BB98B99AB89A6C9A80E00E94B6086B989A
S11311906A9881E00E94B008709A8DB18C7F8DB9F5
S11311A008951F93182F81E00E94B0081FB9779B00
S11311B0FECF8FB199271F9108958F929F92AF927E
S11311C0BF92CF92DF92EF92FF920F931F93CF9330
S11311D0DF938FB7F8949927C090080CD090090C2E
S11311E08090B3069090B406C0912B05D0912C0545
S11311F02091890130918A01EAE0AE2EB12CAC0E27
S1131200BD1E2A153B0508F459018FBF7401EC0E6D
S1131210FD1E86010C0F1D1F14C0C114D10419F04A
S1131220F801808101C080E00E94D10881149104FA
S113123011F0F701808321960894E11CF11C0F5FE3
S11312401F4FC5010197C817D90738F381E00E94E1
S1131250B6089FB7F894C114D10431F0CC0EDD1E4A
S1131260F60180818FB901C01FB8D0932C05C093BB
S11312702B05892F99278FBF80E090E0DF91CF91D4
S11312801F910F91FF90EF90DF90CF90BF90AF90A0
S11312909F908F9008952FB7F894332750938A0125
S11312A0409389019093090C8093080C7093B406C1
S11312B06093B30610922C0510922B052FBF452B7B
S11312C029F08FB10E94DD089927089582E10E94D8
S11312D0A30180E090E008958FB7F89499271092C5
S11312E050078FBF0895FC01CB01428553859A01B5
S11312F0A3E0220F331FAA95E1F7240F351F2B5FBC
S11313003F4F820F931F6AE070E00E94723F738721
S113131062870895FC0164859585662339F48AE023
S1131320989FB00111246A5070400BC077278AE05F
S1131330989FC00111240E94863F6A507040148611
S11313401586CF010E947309089580915E01E82FEC
S1131350FF27EE0FFF1FE55AF44F0190F081E02DB7
S113136020916001222351F08F5F80935E018D30C4
S113137011F410925E01215020936001CF01089571
S1131380AF92BF92CF92DF92EF920F931F935B01C4
S11313906C010E94F802AB01BC0111E0E12E960140
S11313A0850180E00E94D9021F910F91EF90DF9098
S11313B0CF90BF90AF900895CF92DF92FF920F939A
S11313C01F93CF93DF936C01F090930160911F05FD
S11313D070E08C01005F1F4F2CC0D6011C96462F75
S11313E043705527E60128893327322F2227F80135
S11313F081819927282B392BFA01EE0FFF1FEE0F5D
S1131400FF1FE40FF51FE85DFD4F808191812817D0
S1131410390769F4ED019E818281891741F499812C
S11314208481891721F49F818381891721F07F5F4B
S11314306F5F7F1591F6872F9927DF91CF911F91C9
S11314400F91FF90DF90CF900895AC012091640339
S11314502C3018F081E090E0089580913C03682FCF
S1131460620F712D711DFB016C30710508F03C9702
S1131470EE0FFF1FE15DF84F518340832F5F2093F0
S1131480640380E090E00895AC01209163032C3064
S113149018F081E090E008958091FF0B682F620FAF
S11314A0712D711DFB016C30710508F03C97EE0F36
S11314B0FF1FED5AF34F518340832F5F2093630343
S11314C080E090E008950F931F93CF93DF93EC0196
S11314D0892BE9F020917C0B30917D0B8FEF2F3F0E
S11314E03807A9F080919401813019F41982188287
S11314F00BC000917E0B10917F0BC9010E947207F3
S1131500080F191F1983088380E090E002C081E06E
S113151090E0DF91CF911F910F910895CF93DF93C6
S1131520CDB7DEB720913B0130913C012431310528
S113153018F081E090E028C04091390150913A01BF
S113154086E190E0489FF001499FF00D589FF00D0F
S11315501124E959FC4FDE01159686E10D900192A4
S11315608150E1F7CA01019664E170E00E94723F84
S113157090933A01809339012F5F3F4F30933C01A0
S113158020933B0180E090E0DF91CF910895CF92CA
S1131590DF92EF92FF921F93CF93DF93CDB7DEB725
S11315A066970FB6F894DEBF0FBECDBF6C017B010A
S11315B0142F0E946105163149F580913401882366
S11315C029F1DE011196F70186E101900D92815017
S11315D0E1F78DB79EB746970FB6F8949EBF0FBE3E
S11315E08DBFEDB7FEB73196DE01119686E10D9001
S11315F001928150E1F70E948E0A8DB79EB74696FC
S11316000FB6F8949EBF0FBE8DBF03C0DA98D99869
S1131610D898C60166960FB6F894DEBF0FBECDBF4C
S1131620DF91CF911F91FF90EF90DF90CF900895BD
S113163008950F931F93CF93DF93282F3327C90166
S1131640880F991FFC0113E0EE0FFF1F1A95E1F7B5
S1131650E81BF90BE85CFA4F858182FF03C06283C3
S11316608B7F85838281962F981B628383818F5F12
S1131670838386E08683992361F08481890F815076
S113168084839B3030F0148281E083831782118637
S11316901086C901880F991FFC01A3E0EE0FFF1FFC
S11316A0AA95E1F7E81BF90BE85CFA4F83818330D4
S11316B008F471C000811181C8E3D5E08881998163
S11316C08017910709F061C08D8180FF5EC08E8113
S11316D0882311F081508E838F81882311F08150EB
S11316E08F838E81882351F48F81882339F48D81EF
S11316F091E089278D831986188642C08D81826086
S11317008D839B816C81690F633008F463E07727D4
S11317108FEF989FC00111240E94863F888529E09D
S1131720829FC00111240596860F911D6AE070E026
S11317300E94863F68871B821C824985662301F1CB
S11317404423F1F0772781E09EEF0E94723FCB01A2
S11317509B01F3E0220F331FFA95E1F7642F7727FB
S1131760880F991F820F931F0E94723F6A50704026
S11317706F3F710519F010F06CE370E0772702C039
S11317806CE370E0CE010E9473092E9685E0C43CA0
S1131790D80709F093CFDF91CF911F910F9108954E
S11317A080E090E0EDE3F5E09C01808180FF08C0DB
S11317B0C90101963E968A309105B1F72FEF30E0CA
S11317C0C90108959EE0899FF0011124E85CFA4F55
S11317D07183608312821382148285E0858386E09C
S11317E08683878310861186138612860895982F20
S11317F0AFEF60E070E040E050E0EDE3F5E08081C1
S1131800282F332720FF0BC021FF09C023FD07C069
S1131810258136812617370710F0A42FB9014F5FB1
S11318205F4F3E964A30510551F7892F9927681723
S1131830790718F48FEF90E008958A2F9927089577
S1131840AC013091AD018FEF4F3F580711F020E00C
S113185012C0832F99270895E22FFF2783E0EE0F0C
S1131860FF1F8A95E1F7E55BFD4F80819181841725
S1131870950719F02F5F231779F7822F9927089579
S11318801F93CF93DF93162FC0E0D0E066E20E944F
S11318902F08FC0180818123811711F4C1E0D0E07D
S11318A0CE01DF91CF911F910895FC018081448581
S11318B055274F7050709A01220F331F240F351F84
S11318C0821B8F509927089580E88093AA01109273
S11318D0E1021092FB0B1092F10B10924602089554
S11318E0CF93DF93FC0111AEDC01DA96ED011B828C
S11318F01A82198280E882AFDF91CF9108958FB761
S1131900F89460913D0370913E032CB53DB506B645
S113191002FE04C06F5F7F4F2CB53DB599278FBF82
S113192088279927CB017727662744275527622BD9
S1131930732B842B952B0895EF92FF920F931F9393
S11319400E947F0C7B018C0120914B0330914C034E
S113195040914D0350914E03809141039091420375
S1131960A0914303B0914403820F931FA41FB51F9A
S1131970E216F3060407150730F082179307A4074D
S1131980B50758F005C082179307A407B507E0F51B
S1131990E816F9060A071B07B8F59C01AD012E19D4
S11319A03F09400B510B213060E8360760E04607E1
S11319B060E0560768F180E090E8A0E0B0E0E80E4F
S11319C0F91E0A1F1B1FE0924B03F0924C03009375
S11319D04D0310934E0380E090E8AFEFBFEFE80EA5
S11319E0F91E0A1F1B1F20503048404050402093CE
S11319F0410330934203409343035093440320E054
S1131A0030E840E050E014C020E030E040E050E036
S1131A1080934B0390934C03A0934D03B0934E03D8
S1131A201092410310924203109243031092440314
S1131A30A901B7012CB53DB5C9018E199F090396BB
S1131A408417950720F0B9016D5F7F4F02C0640FC2
S1131A50751F6115710511F461E070E0615070400B
S1131A607BBD6ABD80E186BF87B7806187BF1F9158
S1131A700F91FF90EF9008950F931F930FB7F89471
S1131A80112760934B0370934C0380934D03909301
S1131A904E032093410330934203409343035093F6
S1131AA044030E949C0C0FBF1F910F91089597B798
S1131AB09F7D97BF90E296BF882319F08EB580640E
S1131AC002C08EB58F7B8EBD87B7806287BF80E0F2
S1131AD090E00895AF92BF92CF92DF92EF92FF927F
S1131AE00F931F93F82E5A016B010E94F802AB0169
S1131AF0BC01EE24960185018F2D0E94D9021F910D
S1131B000F91FF90EF90DF90CF90BF90AF9008952A
S1131B1080912A078A3021F48091E402843021F0F4
S1131B2081E080933F01089585E00E94A301109213
S1131B303F0108952FB7F89433278CB95E9A2FBFCD
S1131B400895FC016115710519F481E090E0089590
S1131B508091550390915603892B19F085E090E00C
S1131B6008957093850B6093840BF0935603E09370
S1131B705503109226031092250381E080932703D6
S1131B805E9A569A808121E030E0309326032093B8
S1131B9025030E949A0D80E090E008958FB7F89491
S1131BA09927209150012E7F209350012EE72093F6
S1131BB027028FBF61E070E087E292E00E94A10DEE
S1131BC099270895DF92EF92FF920F931F938FB797
S1131BD0F894282F3327D22E91B782B746B7981797
S1131BE011F041FF02C02FBF6AC0809122058823F3
S1131BF0E1F10E94F802E0904A07F0904B0700914F
S1131C004C0710914D072091A6013091A7014091F6
S1131C10A8015091A9016E197F09800B910B6217DD
S1131C2073078407950720F01092220571E01EC007
S1131C302E0D3F1D401F511F80918D0190918E01EB
S1131C40A0918F01B0919001281B390B4A0B5B0BBB
S1131C50273E31054105510540F4822F223010F012
S1131C6070E005C070E082E002C070E086EE682F8C
S1131C70615000B601FCFDCF82B7681709F46F5FAD
S1131C8020918D0130918E0140918F0150919001EE
S1131C90DA01C9010196A11DB11D860F911DA11D77
S1131CA0B11D82179307A407B50710F4622F60953E
S1131CB061BFDFBE772319F081E00E94A3011F9169
S1131CC00F91FF90EF90DF900895AFB7F894BB2782
S1131CD0E1E0E093220560934A0770934B078093F9
S1131CE04C0790934D072093A6013093A70140938E
S1131CF0A8015093A901AFBF0E94E20D0895AF92CD
S1131D00BF92CF92DF92EF92FF920F931F93CF93E4
S1131D10DF93CDB7DEB728970FB6F894DEBF0FBEBA
S1131D20CDBF20E070E0E0910001F091010132E1CB
S1131D304DE65CE46FE4809101019E2F28960FB676
S1131D40F894DEBF0FBECDBFDF91CF911F910F91ED
S1131D50FF90EF90DF90CF90BF90AF9008958FB732
S1131D60F894282F3327922F80912A078A3041F044
S1131D708091E402843021F02FBF89E090E008953F
S1131D809FBF84E00E94A30180E090E008951F9229
S1131D900F920FB60F9211248F9383B783BF00B6AF
S1131DA000FCFDCF8F910F900FBE0F901F901895E0
S1131DB0E2EFF0E06927660FF11DE60FF11DC8950B
S1131DC0982F802D3196C89590250895982F80914D
S1131DD04B01882389F5992379F531E030934B0140
S1131DE08091020180934C0120914001822F8170E7
S1131DF08093AC01809107019091080190934E016A
S1131E0080934D018091410180934F0132273170BD
S1131E10267EE32FFF27EE0FFF1FED5FFE4F80812D
S1131E2091819093080180930701232B2093400113
S1131E3088E00E94A30108958091400180FF02C0C0
S1131E408B7F01C08D7F8093400108950F931F9372
S1131E50082F162F8091E4028130D9F0813038F0B8
S1131E60823009F44AC0833009F028C159C00023E4
S1131E7009F458C11092780B1092770B10922E0728
S1131E801092880B10922803109234051092330597
S1131E9039C1002309F046C180913305909134057E
S1131EA00E94D80E909334058093330582E080938A
S1131EB0E4021093880B143409F000C125C18695FF
S1131EC0869503C0809140018695817009F0F6C023
S1131ED080914001992311F0846001C08260809355
S1131EE0400180914001877E886080934001109278
S1131EF041018FEF8093020115C1002309F0DEC078
S1131F006093280380913305909134050E94D80E84
S1131F10909334058093330583E08093E40202C1F7
S1131F2080912E078F3F09F4C9C0002309F461C0D2
S1131F30823008F4C3C0E091770BEE2309F4EBC0C0
S1131F404E2F4150E42FFF27E958F44F82819927FF
S1131F50382F2227442311F4E2E002C0E42FE15099
S1131F60FF27E958F44F82819927282B392B809138
S1131F703305909134052817390709F09FC080E094
S1131F800E94E60E309128038091230520912405B8
S1131F90982F9F5F963008F090E0921771F0E82F29
S1131FA0FF27ED5DFA4F32838F5F809323058630E0
S1131FB010F0109223050E940E021092780B1092DA
S1131FC0770B94E09093E40210922E071092880B02
S1131FD01092280310923405109233058091500119
S1131FE08D7F8093500180913F01882309F49AC02A
S1131FF084C0823008F44EC0E091780BFF27E95882
S1132000F44F8281482F5527342F20914001822F8D
S1132010869586958695837099278130910519F068
S11320200297F9F40EC0277E2061209340014423D7
S113203011F485E001C080E08093410130930201F6
S113204010C080914101803460F4E0910701F09167
S11320500801E80FF11D4083809141018F5F809357
S113206041018091780BE82FFF27E958F44F6281F2
S11320708F5F8093780B833010F01092780B772762
S113208080913305909134050E94D80E90933405C5
S1132090809333058091770BE82FFF27E958F44F9D
S11320A012838F5F8093770B833010F01092770B3D
S11320B080912E078F5F80932E0734C01092780B87
S11320C01092770B14E01093E40210922E071092F2
S11320D0880B1092280310923405109233058091D6
S11320E050018D7F8093500181E00E94E60E809123
S11320F03F01882329F01093E4020E94880D12C046
S1132100002381F081E009CF80914001982F9170E4
S113211080FDD5CED7CE80917B0B9927382F2227EF
S113212042E01CCF1F910F9108951F920F920FB69A
S11321300F9211242F933F934F935F936F937F9349
S11321408F939F93AF93BF93EF93FF935F9B3DC098
S11321506CB1E0913505F09136053097F9F0809136
S11321604A0C90914B0CE80FF91F608301969093F1
S11321704B0C80934A0C20916E0C30916F0C82179B
S1132180930718F110923605109235058091F706E1
S11321908330D9F057981092F70617C06E3719F4A8
S11321A060E081E010C0809150016D3721F48260BD
S11321B0809350010AC081FF05C08D7F8093500138
S11321C080E2682780E00E94260FFF91EF91BF9183
S11321D0AF919F918F917F916F915F914F913F91BB
S11321E02F910F900FBE0F901F901895982F8D5719
S11321F0823068F48091500181608093500180E2C4
S1132200892780932D078DE78093270202C090933E
S1132210270261E070E087E292E00E94A10D992715
S1132220089578941F920F920FB60F921124FF9283
S11322300F931F932F933F934F935F936F937F93CA
S11322408F939F93AF93BF93CF93DF93EF93FF93BA
S113225020912503309126038091840B9091850B66
S11322602817390780F4E0915503F0915603E20FE3
S1132270F31F80812F5F3F4F309326032093250364
S11322800E949A0DCDC010925603109255031092DD
S113229027035698FFB6F8948091500180FF0EC032
S11322A08E7F8093500180912D078093270261E0F7
S11322B070E087E292E00E94A10DAFC080912A07EE
S11322C0843009F48CC0853040F4823021F18330AD
S11322D0B8F5813009F09CC00DC0863009F48DC07A
S11322E0863008F483C0873009F48EC0883009F042
S11322F08FC091C080914A030E94F610082F83E09A
S113230080932A0760914A0380916C0C90916D0C24
S11323100E94D80E10C08091F90B0E94F610082F6D
S113232083E080932A076091F90B80916C0C909163
S11323306D0C0E94D80E90936D0C80936C0C66C04B
S1132340E091C405FF27EE0FFF1FE35AFC4F808185
S11323500E94F610082F1091C405C12FDD27FE013D
S1132360EE0FFF1FE35AFC4F608180916C0C90913B
S11323706D0C0E94D80E90936D0C80936C0C209180
S113238040032F5F20934003113039F580914701BA
S1132390E0914201F0914301E80FF11DE0818F5F6C
S11323A08093470190914601981730F482E080931E
S11323B05E0340E050E002C04E2F5527DE01AA0F15
S11323C0BB1FFD01E45AFC4F8081823031F02F3F66
S11323D021F0A35ABC4F4C9319C084E012C08091E1
S11323E06C0C0E94F610082F85E00BC080916D0CD8
S11323F00E94F610082F86E004C00E94CE0D082F1C
S113240087E080932A0702C088E003C0002329F0F4
S113241089E080932A070E940E028F2D99278FBF8F
S1132420FF91EF91DF91CF91BF91AF919F918F91E8
S11324307F916F915F914F913F912F911F910F91D8
S1132440FF900F900FBE0F901F9018951F920F9240
S11324500FB60F9211248F9380919B0087FF02C0C7
S113246080919C008F910F900FBE0F901F90189534
S113247078941F920F920FB60F9211240F900FBEF3
S11324800F901F90189578941F920F920FB60F9289
S113249011240F900FBE0F901F90189578941F92DF
S11324A00F920FB60F9211240F900FBE0F901F9032
S11324B0189578941F920F920FB60F9211240F90D3
S11324C00FBE0F901F90189578941F920F920FB61D
S11324D00F9211248F939F9380918000909181009B
S11324E09F918F910F900FBE0F901F901895789425
S11324F01F920F920FB60F9211242F933F938F9335
S11325009F932FB7F894332780913105909132052A
S1132510019690933205809331052FBF9F918F913F
S11325203F912F910F900FBE0F901F9018957894A4
S11325301F920F920FB60F9211240F900FBE0F909F
S11325401F90189578941F920F920FB60F92112432
S11325500F900FBE0F901F90189578941F920F92B2
S11325600FB60F9211242F933F938F939F932FB7FE
S1132570F894332780913D0390913E030196909304
S11325803E0380933D032FBF9F918F913F912F91E5
S11325900F900FBE0F901F9018951F920F920FB6B9
S11325A00F9211240F900FBE0F901F9018951F9239
S11325B00F920FB60F9211240F900FBE0F901F9021
S11325C018951F920F920FB60F9211240F900FBE01
S11325D00F901F9018951F920F920FB60F9211240F
S11325E00F900FBE0F901F9018951F920F920FB669
S11325F00F9211240F900FBE0F901F9018951F92E9
S11326000F920FB60F9211240F900FBE0F901F90D0
S113261018951F920F920FB60F9211240F900FBEB0
S11326200F901F901895EF92FF920F931F93CF93E3
S1132630DF937C01EC018A818823A9F4F092070CD2
S1132640E092060C8A81882309F08FC0655E714090
S113265009F08BC01092350164E670E080E090E0F0
S11326600E94C00982C0442309F477C0E7010881AD
S1132670198180919301843009F046C0C8010E94F9
S1132680DC0920919301622F0E94663F492F921723
S1132690D8F5992359F480911F059927019664E090
S11326A070E00E94863F80931F0529C080911F051A
S11326B0840F912D911D9C0123703070E901CC0F82
S11326C0DD1FCC0FDD1FC20FD31F019664E070E045
S11326D00E94863FFC01EE0FFF1FEE0FFF1FE80F65
S11326E0F91FC85DDD4FE85DFD4F85E0019009925B
S11326F08150E1F74F5F809193014817B8F28091C0
S113270093018150809393014091930180911F051F
S1132710840F912D911D83709070D8011C96FC013B
S1132720EE0FFF1FEE0FFF1FE80FF91FE85DFD4FCF
S1132730E80188899927982F882729893327822BAC
S1132740932B91838083ED018E818283898184839D
S11327508F8183834F5F40939301F701808191813F
S11327600E94250AC7010E94440ADF91CF911F915C
S11327700F91FF90EF9008951F920F920FB60F9252
S113278011242F933F934F935F936F937F938F9372
S11327909F93AF93BF93EF93FF9344B155B1789454
S11327A08FB7F894992720913F02322F36953170D4
S11327B021708FBF2223D9F4339880916003813034
S11327C021F0823009F039C00AC0332351F050930C
S11327D02907409328078CE10E94A3012EC03323CC
S11327E019F40E949E0629C01092600326C08FB778
S11327F0F89499278FBF2FB7F894332786B1582FB1
S11328005770482F4072987D942B952B8074977B3A
S1132810982B90619F77892F992786B9887D842B7F
S1132820852B87738061992786B9887D842B852BB6
S1132830877B8069992786B92FBFFF91EF91BF915C
S1132840AF919F918F917F916F915F914F913F9144
S11328502F910F900FBE0F901F9018951F920F92FB
S11328600FB60F9211242F933F934F935F936F935F
S11328707F938F939F93AF93BF93EF93FF9383B70C
S113288083BF00B600FCFDCF81B799270196AA2724
S1132890BB2720918D0130918E0140918F01509181
S11328A09001280F391F4A1F5B1F20938D0130931D
S11328B08E0140938F015093900178940E94E20D11
S11328C0FF91EF91BF91AF919F918F917F916F9104
S11328D05F914F913F912F910F900FBE0F901F90DA
S11328E018950F931F93CF93DF93182F8FB7F894F6
S11328F0C82FDD270C2F61E080E00E948508882323
S113290021F0CFBF85E090E024C080910D018823A1
S1132910A1F480915601823081F409C082E0809351
S1132920560110920D010E94BC08B89AC0981093E9
S11329300A0180E00FBF99270CC0809156018823BB
S113294069F38FB7F894992710924E078FBF81E0EF
S1132950F1CFDF91CF911F910F910895EF92FF92E4
S11329600F931F93CF93DF93982F8FB7F894E82E8C
S113297080916A01833009F045C080911B01891759
S113298009F040C08091AE01882309F049C03EC0DF
S1132990EF2DE695E695E695FF274F2D5527E25551
S11329A0FE4F9A012770307081E090E002C0880FDA
S11329B0991F2A95E2F78095208128232083C093CC
S11329C0690111C02196C230D10511F4C0E0D0E0F4
S11329D0FC2E8C2F0E94C3058823D1F6C017D10783
S11329E089F74FEF50E040932F038FEF80931B0143
S11329F081E080936A018EE10E94A301EFBE80E032
S1132A0090E014C0EFBE81E090E010C082E08093BB
S1132A101B0110926A0181E080936B0180E2ECCF8C
S1132A2080916901082F1127E801CCCFDF91CF9164
S1132A301F910F91FF90EF9008950F931F93CF93E1
S1132A40DF93182F8FB7F894282F3327022F809104
S1132A506E01882331F581E080936E011093250285
S1132A602FBF8FB7F894C82FDD279C2F80911C01AE
S1132A708230A9F480916E01813021F481E20E94B8
S1132A80A30109C0823059F48091250280931C016E
S1132A9083E080936E01CFBF80E090E025C09FBFAC
S1132AA0FBCF80912502811711F42FBFF5CF812F21
S1132AB00E941C04882319F085E090E014C0E12FE3
S1132AC0E695E695E695FF27E05CFD4F177081E0FB
S1132AD090E002C0880F991F1A95E2F72081282BF5
S1132AE0208380E090E00FBFDF91CF911F910F9181
S1132AF0089580E00E941D159927089581E00E94A1
S1132B001D1599270895982F80917701833009F036
S1132B1047C080912201891709F042C080912001A9
S1132B2020E030E08F3F11F421E030E0232BF9F472
S1132B308F3F19F42FEF30E00EC0282F3327F9010F
S1132B40E450F44F8081809320018F3F11F48093EF
S1132B5021018FEF8083209388018FEF80932201DE
S1132B6081E0809377018AE20E94A30116C082E08B
S1132B70809322011092770180917801813069F469
S1132B800E9408048091F5068A768093F506809366
S1132B907400909891981092780180E090E00895E4
S1132BA081E090E0089581E00E94300480917601F4
S1132BB0813011F40E941D158FB7F8949927109253
S1132BC07601109275018FBF0895EF92FF920F93D3
S1132BD01F93CF93DF93982F8FB7F894E82E8091AB
S1132BE06801833009F045C080911A01891709F002
S1132BF040C08091C605882309F046C03EC0EF2D31
S1132C00E695E695E695FF274F2D5527EA53FA4FAB
S1132C109A012770307081E090E002C0880F991FFC
S1132C202A95E2F78095208128232083C0936701A9
S1132C3011C02196C730D10511F4C0E0D0E0FC2EBC
S1132C408C2F0E941F038823D1F6C017D10789F760
S1132C504FEF50E0409357088FEF80931A0181E0C3
S1132C60809368018BE10E94A301EFBE80E090E0B5
S1132C7011C0EFBE81E090E00DC087E080931A019F
S1132C80109268013798F1CF80916701082F1127BE
S1132C90E801CFCFDF91CF911F910F91FF90EF907B
S1132CA00895809184018C3118F04CE150E002C009
S1132CB0482F55278CE1E6E1FCE011928A95E9F76B
S1132CC0909184018091820120E030E0A6E1BCE093
S1132CD00FC0E82FFF27E35AF84FE081992329F02A
S1132CE08F5F8A3F09F480E09150ED932F5F3F4F4F
S1132CF02417350771F790938401809382014CE186
S1132D006AE07CE08FEF9FEF0E94C102882319F0F4
S1132D1082E30E94A30108958FB7F894282F3327E4
S1132D2080918501813021F42FBF80E090E00895E7
S1132D3090E080918401882309F491E0992321F0A3
S1132D402FBF81E090E0089581E0809385012FBF3B
S1132D500E94511680E090E008951F93182F8091EF
S1132D608501882349F4809184018D3728F081E01E
S1132D70809385010E9451168FB7F894282F33272A
S1132D80909184019A3FA8F480918301E82FFF2752
S1132D90E35AF84F10838F5F809383018A3F11F4C5
S1132DA0109283019F5F909384012FBF80E090E095
S1132DB003C02FBF8FEF9FEF1F910895662351F437
S1132DC080918401882319F00E945116089510926D
S1132DD08501089582E30E94A30108950F931F9330
S1132DE08091FE0B882389F110E001E02091FE0B15
S1132DF0822F802311F1E12FFF27EE0FFF1FE35DE8
S1132E00FA4F4081518111821082802F80952823AE
S1132E102093FE0B112319F0113079F409C0405AA4
S1132E20524081F41092360180E00E94A3010AC04E
S1132E3063E0CA010E94DE1605C01F5F183028F443
S1132E40000FD4CF000F1F5FD1CF1F910F910895B2
S1132E500F931F93182F0FB7F89461E080E00E943E
S1132E608508882371F510930A0180910D01882348
S1132E70A9F580915601823089F581E10CC00E9448
S1132E80BC0880915601882349F481E0809356015F
S1132E901092490283E10E94A3012AC08091490350
S1132EA08F3F31F5E0910C01EE2311F11CC010921B
S1132EB00B0104C0FF27E75BFC4F108210920C014A
S1132EC017C081E090E002C0880F991F1A95E2F7BD
S1132ED020915501282B209355010AC08091560159
S1132EE08823E1F6CCCF80910B018F3F19F7DFCF18
S1132EF0802F99278FBF80E090E01F910F91089554
S1132F001F9383E00E9471149927182F882319F0C6
S1132F1083E00E942817812F99271F910895CF934A
S1132F20DF93EC010E94200C282F8091AD0128171B
S1132F30D1F0382F31503093AD0113C0822F99272F
S1132F4073E0880F991F7A95E1F7DC01A55BBD4F0B
S1132F50FC01ED5AFD4F88E001900D928150E1F79C
S1132F602F5F231758F380917C0B90917D0B8C1766
S1132F709D07A1F48FEF9FEF90937D0B80937C0BC3
S1132F8010927F0B10927E0B1092800B1092810B8B
S1132F9081E08093660189E10E94A301DF91CF91D2
S1132FA00895CF92DF92EF92FF920F931F93CF93E6
S1132FB0DF938C01F62E6A01E22E8FB7F894C82FA6
S1132FC0DD2760E080E00E949F08882321F0CFBFC6
S1132FD080E090E01EC0CFBF0F0D111D802F8068D0
S1132FE00E94D108F82E16950795802F807C0E94A8
S1132FF0D1080E2D0AC0EE2DFF27E01BF109EC0DC0
S1133000FD1D80810E94D10801500023A1F78F2D5E
S11330109927DF91CF911F910F91FF90EF90DF904F
S1133020CF900895CF93DF93CDB7DEB72C970FB62B
S1133030F894DEBF0FBECDBF8FB7F894282FAE0132
S11330404F5F5F4FDA01E5E5F7E088E001900D920C
S11330508150E1F78091290390912A038987892F70
S113306099278A8780914F03909150038B87892FEA
S113307099278C872FBF2CE060E080E691E00E94C6
S1133080D1172C960FB6F894DEBF0FBECDBFDF91DB
S1133090CF9108951F93CF93DF93182F8FB7F89490
S11330A0C82FDD2760E080E00E949F08882321F07C
S11330B0CFBF80E090E005C0CFBF812F0E94D10830
S11330C09927DF91CF911F910895EF92FF920F936B
S11330D01F93CF93DF93182F7B01042F8FB7F8949E
S11330E0C82FDD2760E080E00E949F08882321F03C
S11330F0CFBF80E090E014C0CFBF1064812F992728
S113310090935803809357030E94D108182F402F9F
S11331105527B70180E090E00E944B09812F992741
S1133120DF91CF911F910F91FF90EF900895C09878
S1133130609186017091870141E08FE30E946518D8
S1133140089582E090E09093E4018093E30181E0AC
S11331508093E10220E030E080910A01843011F490
S113316021E030E0232B29F484E00E9471148823A9
S113317019F40E949718089584E00E94281708956E
S11331801F920F920FB60F9211242F933F934F93D8
S11331905F936F937F938F939F93AF93BF93EF93BB
S11331A0FF938091E3019091E401019749F482E057
S11331B090E09093E4018093E3010E94A11805C07C
S11331C0809146028F5F80934602FF91EF91BF91F9
S11331D0AF919F918F917F916F915F914F913F91AB
S11331E02F910F900FBE0F901F9018951F938091F1
S11331F05501882309F04BC010910A011F3F09F0C3
S113320046C060E00E949F08882309F440C081E022
S11332108093590B8091AF018823E1F11092590BEF
S113322085E090E045C0923069F5C09A80910B0129
S113323020E030E08F3F11F421E030E0232BE9F46B
S113324010930D018F3F19F42FEF30E00DC0282F9C
S11332503327F901E75BFC4F808180930B018F3F9B
S113326011F410930C0110832093490281E08093A0
S1133270560183E10E94A30105C010930D01109231
S1133280560111C080915601882369F00FC081E076
S113329090E00EC080910D0190915601882319F29F
S11332A0923021F0EFCF80E00E94B00880E090E0FF
S11332B01F9108951F93CF93DF939FB7F894C92F5D
S11332C0DD271C2F90910A01981721F0CFBF81E0D0
S11332D090E03AC08FEF80930A0130915501332377
S11332E0F1F48FB7F894992710924E078FBF0E947C
S11332F0F618CFBF11C020930A0181E090E002C00C
S1133300880F991F4A95E2F7809538233093550129
S113331081E10E94A3011FBF80E090E015C080E01E
S113332065E0E32FFF270E94663F292F492F552789
S1133330CF01042E02C0959587950A94E2F780FD8B
S1133340DACF822F8F5FEFCFDF91CF911F91089556
S11333501F93CF93DF938FB7F894C82FDD271C2FCB
S11333608091E3019091E401892B29F484E00E9487
S11333705A19CFBF1EC01092E102809146028823E1
S113338011F0B79904C00E9908C0882319F0815030
S1133390809346020E94A1180BC081E090E09093B4
S11333A0E4018093E3011092460284E00E945A19DA
S11333B01FBFDF91CF911F9108950E94640CC09AA2
S11333C0C09888E00E944A1888E00E944A18C09A6F
S11333D084E00E945A190E94A8190895FF920F933D
S11333E01F93CF93DF93F82E8B018FB7F894C82FD8
S11333F0DD2760E080E00E949F08882321F0CFBF92
S113340080E090E00CC0CFBF8F2D0E94D108812FA7
S113341099270E94D108802F0E94D1089927DF9113
S1133420CF911F910F91FF9008951F931FB7F894A8
S113343080914502882319F460E070E009C060E0DF
S11334408091050C882309F461E081E068277727DF
S113345080913003882319F480E090E00AC090E062
S113346080915407882309F491E081E09827892FFB
S11334709927762F6627770F770F770F24E0880F29
S1133480991F2A95E1F7826E9262682B792B81E16C
S11334900E94EE19812F99278FBF1F9108958FB72E
S11334A0F8949927609158088FBF85E0689FB00110
S11334B01124625D7E4F706488E10E94EE190895C4
S11334C0EF92FF921F93CF93DF93E0903103F0903C
S11334D03203F70186A99927182F882309F41FE1DD
S11334E0C09880913E02811749F0612F77276F7150
S11334F07070606E706885E10E94EE1910933E0250
S1133500F70110818FB7F894C82FDD2760E080E0C1
S11335100E949F08882311F0CFBF12C0CFBF8EE353
S113352090E090935803809357038EE30E94D10850
S11335301150412F552760E070E0C7010E944B09EC
S1133540DF91CF911F91FF90EF9008950F931F93F8
S1133550CF93DF93EC010FB7F89411270E94410831
S1133560FC018FE380830FBF1092010C1092000CBA
S113357061E082E00E948508882319F085E090E0EC
S113358072C080915A0B8F5F80935A0B81508B834A
S11335908FB7F894082F112762E081E00E949F08FA
S11335A0882329F40FBF0E946C0981E05BC08FB7A8
S11335B0F894992724E020934F078FBFD093660394
S11335C0C09365030FBFFE0131968181298199273C
S11335D0982F88273327822B932B80729C7C898396
S11335E0892F992781832981982F8827332721645C
S11335F0822B932B8983892F9927818318AE1CAA48
S11336001DAA1DAE1CAE1BAE80E88AAF61E06093BC
S1133610520740916503509166038FB7F894282FA1
S1133620332780915701909158018830910511F00A
S1133630019711F02FBF15C082E090E090935801DC
S1133640809357016093520C50933203409331039B
S113365010928B012FBF0E948017882311F40E94BF
S1133660601A80E09927DF91CF911F910F910895FF
S1133670CF93DF93DA01422F293218F082E090E0F1
S11336805EC0ED018B876E83872F99278F832FB7B9
S1133690F89433278091290390912A032FBFFD01C9
S11336A08483892F992785832FB7F89433278091B2
S11336B00E0190910F012FBF8887892F9927898741
S11336C03196818129819927982F8827332720646F
S11336D03868822B932B8983892F99278183435FB1
S11336E04C934D5080911101882359F0109211018F
S11336F0642FCD010E94A61A9927282F8823A9F4A4
S113370017C0842F99279093620380936103B09329
S11337105C01A0935B0185E10E94A30180911101EA
S1133720882349F489E090E00AC08FEF8093110167
S1133730822F992704C010923B0380E090E0DF9130
S1133740CF910895CF93DF93582FFB01823018F067
S113375081E090E033C0C82FDD27CC0FDD1FC355B7
S1133760D44F88819981892B19F085E090E026C097
S113377079836883435F40834D5080911401823084
S113378018F480E090E01AC0838567817727762F4C
S1133790662726813327622B732B50931401242F21
S11337A0AF010E94381B9927282F882329F082E033
S11337B08093140119821882822F9927DF91CF9167
S11337C008951F93182F81E090E0909358018093FF
S11337D057011092AF010E94F6188FB7F8949927F9
S11337E0109351018FBF8DE00E94A3011F91089592
S11337F0CF92DF92FF920F931F93CF93DF93082F03
S11338006B01F42EE82FFF27EE0FFF1FE35DFA4F45
S113381011821082809109019927019662E070E07B
S11338200E94863F682F8093090110E0462F552798
S1133830FA01EE0FFF1FE35DFA4FA081B1811097EB
S113384099F0E62FE695E695E695FF27E250F44FCA
S1133850808199279A012770307002C095958795C9
S11338602A95E2F780FF0DC0CA01019662E070E07C
S11338700E94863F682F1F5F1230C1F61093090122
S11338801AC0609309016230B0F4FD0135962481B9
S11338903327ED016D817727762F6627818199275C
S11338A0682B792BAD0186810E942202882319F0AE
S11338B08AE00E94A301002319F0013081F40BC0B7
S11338C080EAC81682E0D80651F41092360180E0EE
S11338D00E94A30104C06F2DC6010E94DE16DF9171
S11338E0CF911F910F91FF90DF90CF900895109288
S11338F04501109244018FB7F894992740914801EB
S11339008FBF80914901811143E0209142013091A0
S1133910430180914A01882389F48091090182300E
S113392068F4E82FFF27EE0FFF1FE35DFA4F608175
S113393071816217730711F40E94F81B0895809136
S11339400901E82FFF27EE0FFF1FE35DFA4F6081A7
S1133950718141E00E94F81B08951F93182F0E9463
S113396008048091F5068A7F8093F506809374009D
S11339700E9408048091F50684608093F506809384
S1133980740081E080937801809179018823B9F4EF
S113399080912301882319F0813089F406C00E94A4
S11339A0110480E00E9483150AC00E94110481E082
S11339B00E948315109344028EE20E94A3011F917A
S11339C008951F920F920FB60F9211242F933F93D5
S11339D04F935F936F937F938F939F93AF93BF9313
S11339E0EF93FF930E94080480917801843009F4D6
S11339F0D9C0863021F0833009F001C141C09091D3
S1133A007100987F80917901813041F49034B1F54F
S1133A1083E0809378012091860B47C0983171F53B
S1133A2083E0809378019091860B80918C012091A2
S1133A30F506981708F475C0922F9E7F9093F506AB
S1133A4080916B0C81FF07C08D7F80936B0C90611C
S1133A509093F50603C02E772093F5068091F50622
S1133A608093740081E080937801809123018823FE
S1133A7009F487C0813009F0C2C089C084E0A7C0BE
S1133A80809179019091860B813009F044C0E091D6
S1133A904702F0914802E90FF11D80917300808381
S1133AA02091860B2F5F2093860B80918C01281721
S1133AB0A0F43327992701972817390749F48091EF
S1133AC06B0C82FD05C08091F5068F7B8093F50613
S1133AD08091F5068093740092C09091F506292F89
S1133AE02E7F2093F50680916B0C81FF09C08D7F9A
S1133AF080936B0C20612093F5068091710003C0C4
S1133B009E779093F5068091F5068093740081E08A
S1133B108093780174C080918C012091F5069817E8
S1133B2078F4E0914702F0914802E90FF11D808199
S1133B30809373009F5F9093860B209374005FC003
S1133B40922F9E7F9093F50680916B0C81FF07C0A6
S1133B508D7F80936B0C90619093F50603C02E7754
S1133B602093F5068091F5068093740081E080939C
S1133B70780180912301882321F0813009F03FC02E
S1133B8006C00E94110480E00E94831538C00E9480
S1133B90110481E00E948315109244028EE20E9477
S1133BA0A3012DC080916B0C8E7F80936B0C909140
S1133BB0F5069F7D9093F50680917100887F88308B
S1133BC049F080917100887F803121F081E00E946A
S1133BD0AD1C15C0392F30643093F5069091330332
S1133BE0990F20E080917901813009F421E0922B32
S1133BF09093730086E08093780130937400FF9172
S1133C00EF91BF91AF919F918F917F916F915F9150
S1133C104F913F912F910F900FBE0F901F901895C9
S1133C20EF92FF920F931F93F62EE22E9FB7F89414
S1133C30292F332790912301981711F02FBF9CC08F
S1133C402FBF8FB7F894282F3327809178018130C4
S1133C5041F582E0809378012FBF8FB7F8949927BC
S1133C605093340340933303109348020093470264
S1133C70E0928C0160936B0C1092860B1092790188
S1133C808FBF0E9408048FB7F894182F9091F506FF
S1133C90916C9F7E9093F5066F2D772760FD0BC086
S1133CA011C0882321F42FBF84E090E06FC02FBFA0
S1133CB085E090E06BC090629093F50684E0809379
S1133CC078015DC0EE2009F449C083E08093780157
S1133CD02091860B80918C01281778F4E09147029B
S1133CE0F0914802E20FF11D8081809373002F5FF1
S1133CF02093860B9093740046C0292F2E7F209327
S1133D00F50680916B0C81FF07C08D7F80936B0C4F
S1133D1020612093F50603C09E779093F506809169
S1133D20F5068093740081E08093780180912301EB
S1133D30882319F0813039F506C00E94110480E00F
S1133D400E94831520C00E94110481E00E94831503
S1133D50109244028EE20E94A30115C061FF08C0C4
S1133D6085E0809378019F7B90619093F50607C06E
S1133D7081E0809378011FBF81E090E007C08091CB
S1133D80F506809374001FBF80E090E01F910F91AF
S1133D90FF90EF90089561E081E00E9485088823F8
S1133DA0E9F48FB7F894282F33278091520190912A
S1133DB05301892B11F02FBF20C081E090E0909334
S1133DC05301809352012FBFDD9A0E947F0C24E19E
S1133DD030E040E050E00E943C0D0FC062E081E022
S1133DE00E949F08882319F089E090E0089561E01B
S1133DF081E00E949F08882319F080E090E00895F4
S1133E0085E090E00895CF92DF92EF92FF920F93B6
S1133E101F93CFB6F894DD240E94A607DC01CB01E2
S1133E2066E470E00E94723F7BE0E72EF12CE80E1E
S1133E30F91EF0924F0CE0924E0C0E947F0C00276A
S1133E401127A80197010E943C0DCFBE1F910F912D
S1133E50FF90EF90DF90CF9008951F93CF93DF935F
S1133E608FB7F894C82FDD271C2F809157019091AC
S1133E7058010897C9F489E00E944A1883E00E9417
S1133E805A19C09A81E090E09093580180935701A9
S1133E908FB7F894992723E0209351018FBF8DE0C9
S1133EA00E94A301CFBF30C0C0988091520C8823D8
S1133EB011F085E001C084E00E944A1883FD09C026
S1133EC080E00E944A1883FF04C085E090E020E06F
S1133ED003C083E090E021E0909358018093570160
S1133EE0C09A1FBF222341F010928B0183E00E94ED
S1133EF05A190E94031F08C00E947F0C20E431E07D
S1133F0040E050E00E943C0DDF91CF911F91089555
S1133F1078941F920F920FB60F9211241F932F9330
S1133F203F934F935F936F937F938F939F93AF933D
S1133F30BF93EF93FF9387B78F7E87BF78941FB7A4
S1133F40F8948091410390914203A0914303B0916E
S1133F5044030097A105B10509F051C080915701B0
S1133F60909158018530910561F18630910530F4C6
S1133F708330910549F0049781F51AC08730910583
S1133F80F1F0089751F514C0869B0FC084E090E0CF
S1133F9090935801809357010E947F0C27E030E0F2
S1133FA040E050E00E943C0D18C00E94031F15C061
S1133FB00E948017882389F40E942D1F0EC080E080
S1133FC00AC089E00E944A1881E00E94570D83E0EC
S1133FD00E945A1987E00E94E11B8091520190913E
S1133FE05301019771F482E090E090935301809320
S1133FF05201DE98DE9A80E00E94281702C00E94D7
S11340009C0C812F99278FBFFF91EF91BF91AF91A6
S11340109F918F917F916F915F914F913F912F91DC
S11340201F910F900FBE0F901F9018951F93CF9361
S1134030DF938FB7F894992710910A018FBF12303C
S113404009F465C0133030F4112359F0113009F02C
S1134050ACC048C0133009F474C0143009F0A5C0D2
S1134060A2C0C0988FB7F894C82FDD278091520161
S1134070909153010297A1F583E090E0909353014E
S11340808093520168E170E08DE10E94EE1981E0B5
S1134090809353031092540180B39927E6E09695D8
S11340A08795EA95E1F7817090708093540380E1DD
S11340B00E94A30181E00E944A186FE772E08CE13C
S11340C00E94EE190E944F1A0E94151A66E57AE2C0
S11340D087E10E94EE196FEF70E885E10E94EE1906
S11340E0CFBF63C0C09886E00E944A180E944F1A4E
S11340F00E94151A0E941218C09AC09883E00E9468
S11341004A18C09A81E00E945A198FE045C0C098AD
S11341108FB7F894C82FDD2760E080E00E949F08E5
S1134120882311F0CFBF0AC0CFBF83E50E94D10816
S113413080E00E94D10880E00E94D108C09A82E009
S11341402FC08FB7F8949927209157018FBF24303F
S113415039F0283041F0223011F50E94601A25C050
S11341600E942D1F22C0C09889E00E944A18C09A5C
S113417083E00E945A198FB7F894992721E030E020
S113418030935801209357018FBF8FB7F894992724
S1134190109351018FBF8DE00E94A30106C083E0FC
S11341A00E945A1902C00E949718DF91CF911F9163
S11341B00895EF92FF920F931F93CF93DF938B0198
S11341C0809157039091580386FF40C18F7B8F33B2
S11341D009F08EC1C0918601D09187015881509316
S11341E026028091E3019091E4018530910509F460
S11341F043C08630910509F48AC0029709F01FC1B3
S113420085E090E09093E4018093E3014091AA015A
S1134210852F99270196242F3327281739074CF126
S1134220B79906C00E9904C0451B41504093AA019A
S1134230409126024633E8F44423A1F0BE016F5FA7
S11342407F4F483018F047E050E007C086E090E028
S11342509093E4018093E301552780E090E00E946D
S11342604B0946C11092E102C09A84E00E945A1997
S1134270E3C00E94DD193CC186E090E09093E40124
S11342808093E30180913003882309F439C080913D
S113429054078823A9F5898185FF32C08F814E8117
S11342A02FB7F894332760914F03709150032FBFB9
S11342B09927982F88275527842B952B861797079E
S11342C059F08F812E819927982F88273327822BA5
S11342D0932B8F5F9F4FA1F489818770813081F484
S11342E0C09AC0988AE00E944A18C09AC098409127
S11342F0260247502896BE018FE30E946518F8C035
S113430040912602475055272896BE01A6CFC09A51
S113431080914602882339F484E00E945A198091DE
S11343204602882311F0B7990AC00E9B08C09091E9
S1134330F10B992321F0809126028B3038F480917F
S11343408601909187010E94700C3DC0913001F567
S1134350E091FB0BFF27EE0FFF1FEE0FFF1FE3574C
S1134360F44F2081318142815381E0918601F091A3
S1134370870125AFBB27A52F942F832F84AFCA01B4
S1134380AA27BB2783AF252F33274427552722AFDE
S11343908091FB0B9927019668E070E00E94863FAC
S11343A08093FB0B8091F10B81508093F10B882358
S11343B051F080918601909187010E94700C1092B7
S11343C0FB0B1092F10B80912602FE01E80FF11D08
S11343D0808187FF31C0012B79F169816770E09199
S11343E08601F0918701623019F5A0913103B091F3
S11343F03203109709F18091570190915801079762
S1134400D9F4ED019B8183819817B1F487B78F7E2E
S113441087BF908181E088AFE90FF11D82913196C9
S11344208CAB80818F778DAB80E00E94E11B04C050
S1134430613011F484E12AC00E94A81959C0109275
S1134440E102C09A84E00E945A1952C08E3309F0E6
S11344504FC0C09A80915701909158010897C9F4B0
S1134460C09889E00E944A18C09A83E00E945A19B1
S113447081E090E090935801809357018FB7F894AE
S1134480992723E0209351018FBF8DE00E94A3015F
S11344902FC08091520C882349F484E090E09093DB
S11344A05801809357010E942D1F22C083E00E946F
S11344B05A1983E090E090935801809357010E9429
S11344C0A607DC01CB0166E371E00E94723FFBE0CA
S11344D0EF2EF12CE80EF91EF092A201E092A10158
S11344E00E947F0C00271127A80197010E943C0D10
S11344F0DF91CF911F910F91FF90EF9008951F923C
S11345000F920FB60F9211242F933F934F935F9303
S11345106F937F938F939F93AF93BF93EF93FF9387
S11345202FB1E091B306F091B406309739F0809141
S11345302B0590912C05E80FF91F208380912B0502
S113454090912C05019690932C0580932B0580E087
S11345500E94B6084091890150918A0180912B05EF
S113456090912C058417950718F40E94DD081CC04F
S11345706091B3067091B4068091080C9091090C77
S11345801092B4061092B3061092090C1092080C03
S113459010928A011092890110922C0510922B0519
S11345A02FB120E00E94D920FF91EF91BF91AF91EC
S11345B09F918F917F916F915F914F913F912F9137
S11345C00F900FBE0F901F9018950F931F930FB766
S11345D0F89411274091890150918A016091B306A2
S11345E07091B4068091080C9091090C1092B40655
S11345F01092B3061092090C1092080C10928A01C2
S11346001092890110922C0510922B0520E00E9433
S1134610D9200FBF1F910F91089578941F920F9284
S11346200FB60F9211242F923F924F925F926F9286
S11346307F928F929F92AF92BF92CF92DF92EF922E
S1134640FF920F931F932F933F934F935F936F9317
S11346507F938F939F93AF93BF93CF93DF93EF9306
S1134660FF93C6B5D7B58FB7F894282E0E947F0C58
S11346709B012C1B3D0B442755272B013C01421A5F
S1134680530A640A750A8091570190915801853044
S1134690910521F0069709F0E0C0BFC086E090E0E4
S11346A0909358018093570131E0332E30929F024A
S11346B01092590180E00E94570DE0913103F0916E
S11346C0320345AEBB27A72D962D852D84AFC3019C
S11346D0AA27BB2783AF872D9927AA27BB2782AF99
S11346E0E0913103F091320381AD882309F484C051
S11346F06081655077274F01860E971EF401208153
S1134700E1808281A3809927AA27BB27BA2FA92FEA
S1134710982F8827332744275527522F4427332798
S11347202227FF24002711278701FF24EE242E29A6
S11347303F29402B512BBB24CC24DD242A293B299F
S11347404C295D29822B932BA42BB52B8419950915
S1134750A609B7098383292F3A2F4B2F5527228384
S11347609D014427552721838B2F9927AA27BB27EF
S11347708083C09824E0A40180E090E00E94D117D7
S1134780C09AF4012081E1808281A3809927AA271D
S1134790BB27BA2FA92F982F8827332744275527BB
S11347A0522F442733272227FF240027112787016C
S11347B0FF24EE242E293F29402B512BBB24CC244B
S11347C0DD242A293B294C295D29822B932BA42BF8
S11347D0B52B840D951DA61DB71D8383292F3A2F54
S11347E04B2F552722839D014427552721838B2F47
S11347F09927AA27BB278083E0913103F0913203E4
S1134800818185FF02C03092AF0183E00E945A1972
S113481087B78F7E87BF84997AC010929F0281E008
S11348200E94570DE0913103F0913203818185FF9D
S11348300FC087E090E090935801809357010E9445
S11348407F0C20E031E040E050E00E943C0D03C0CA
S113485080E00E94E11B849B5AC080915901882307
S113486091F580919F02882371F511E010939F02C6
S11348700E94570D80B32091F10B283098F4E091F9
S1134880FB0BE20FFF27E770F070EE0FFF1FEE0F38
S1134890FF1FE357F44F40825182628273822F5F7D
S11348A02093F10B10935901D0935A03C0935903E9
S11348B084992DC0992764E0969587956A95E1F7C8
S11348C0182F117001C010E080919F028130F9F41B
S11348D010929F020E94570D109259011123B9F4AE
S11348E08091590390915A03C81BD90B2A9778F4E5
S11348F08091F10B882319F081508093F10B809102
S1134900310390913203009711F00E94700C2FBE76
S1134910FF91EF91DF91CF91BF91AF919F918F91D3
S11349207F916F915F914F913F912F911F910F91C3
S1134930FF90EF90DF90CF90BF90AF909F908F90BB
S11349407F906F905F904F903F902F900F900FBE8D
S11349500F901F901895AF92BF92CF92DF92EF9273
S11349600F931F935B016C010E94F802AB01BC0121
S1134970E1E0EE2E9601850186E00E94D9021F91A6
S11349800F91EF90DF90CF90BF90AF900895CF92AA
S1134990DF92EF92FF920F931F936C017B010E94B1
S11349A0A607DC01CB01B6010E94723FE80EF91E96
S11349B000271127C801B7010E94AB241F910F9152
S11349C0FF90EF90DF90CF9008950F931F93CF93B4
S11349D0DF93EC01E0915E01FF27EE0FFF1FE55A24
S11349E0F44F00811181662329F06CE170E08CE1C1
S11349F090E02FC080915D0183FF3DC088AD882386
S1134A00D1F58F819927982F88272E813327822BE0
S1134A10932B0E945A07982F8F3F71F08EE0989F36
S1134A20F0011124E85CFA4F85858F5F8587853016
S1134A3018F0CF010E948A0989E10E94A301F801BC
S1134A40838181508383882339F067E070E087E0B5
S1134A5090E00E94C7243FC00E94A50980915D0197
S1134A608F7E80935D0167E070E087E090E00E94B4
S1134A70C72440E02CC00E94A50980915D018F7E6F
S1134A8080935D0167E070E087E090E00E94C724B6
S1134A908F819927982F88272E813327822B932B58
S1134AA00E945A07982F8F3F89F08EE0989FF0015B
S1134AB01124E85CFA4F84858F5F848785858F5F36
S1134AC08587853018F0CF010E948A0941E0BE0134
S1134AD0C8010E941313DF91CF911F910F91089584
S1134AE0282FCB01222319F0213071F404C0642F44
S1134AF00E94E5240895655E724031F48091650159
S1134B00882311F0109265010895FF920F931F936B
S1134B10CF93DF93082FEB01F42EE82FFF27EE0F3E
S1134B20FF1FE355F44F11821082809114019927DD
S1134B30019662E070E00E94863F682F8093140122
S1134B4010E0462F5527FA01EE0FFF1FE355F44FEF
S1134B50A081B181109799F0E62FE695E695E69548
S1134B60FF27E15CFC4F808199279A012770307000
S1134B7002C0959587952A95E2F780FF0DC0CA017A
S1134B80019662E070E00E94863F682F1F5F12303A
S1134B90C1F61093140119C0609314016230A8F493
S1134BA02C912D503327FD0167817727762F6627B7
S1134BB086819927682B792BAD0183850E94381B48
S1134BC0882319F088E10E94A301002319F0013021
S1134BD079F405C06F2DCE010E94E52409C0C55E9D
S1134BE0D24031F480916501882311F0109265015F
S1134BF0DF91CF911F910F91FF9008959B018091B8
S1134C001401823068F4E82FFF27EE0FFF1FE355ED
S1134C10F44F608171816217730711F40E94852536
S1134C200895CF93DF93C0915B01D0915C016091B3
S1134C306103CE010E94A61A482F5527442351F040
S1134C408FEF8093110160915B0170915C018B8502
S1134C500E94FE25DF91CF910895FF920F931F9339
S1134C60CF93DF938FB7F8949927F09051018FBFBA
S1134C7063E081E00E949F08882359F10FB7F894FC
S1134C801127109258011092570187B78F7E87BF62
S1134C9087B78F7D87BF83E00E945A19C09A0FBFE0
S1134CA00FB7F89411271092E4011092E3010E94C7
S1134CB0640CC09A89B78F7B89BF0FBF10925301D0
S1134CC010925201DE98DD98DE9A8CE00E94A301D6
S1134CD007C08FB7F894992722E020934F078FBF1E
S1134CE0C0916503D09166030E946C098091000C09
S1134CF09091010C892B41F48FEF809311014F2D7A
S1134D00BE018B850E94FE25DF91CF911F910F91EB
S1134D10FF900895AF92BF92CF92DF92EF92FF92ED
S1134D200F931F93CF93DF93CDB7DEB722970FB6C0
S1134D30F894DEBF0FBECDBF80915D0184FDD6C067
S1134D4090E080916001882309F491E0992309F0AF
S1134D50CDC080919401882359F420E080917C0B8C
S1134D6090917D0B8F5F9F4F09F021E0222331F05A
S1134D70CE0101960E94630A882339F060E177E24C
S1134D8080E090E00E94AB24B1C0E0915E01FF2777
S1134D90EE0FFF1FE55AF44FC080D180D601ED918C
S1134DA0FC91F080A0907C0BB0907D0BCF010E9411
S1134DB0DC0920E090919301891708F421E0222373
S1134DC059F00E94A509F601808191810E94250A6B
S1134DD0C6010E94440A87C080919401D601ED91D6
S1134DE0FC91882359F1B388A0915103B0915203E7
S1134DF080E401900D928150E1F7009151031091EC
S1134E005203F80180818551E82EFF246E2DC801DC
S1134E100E942305BC01FBE2BF1629F44E2DC801F4
S1134E200E94C70A8C01109352030093510360E05F
S1134E30D6018D919C910E94E52458C089819A8164
S1134E408787892F99278687D601ED91FC91119741
S1134E5084858F7384874D915C91DA011196FD01ED
S1134E6021813327322F2227FA01818199278062F9
S1134E70282B392B2183232F3327FD012183809174
S1134E805D01886080935D0180FF0BC0D601ED91C8
S1134E90FC9184858064848780915D018E7F8093FA
S1134EA05D01F60100811181B501C8010E943B0832
S1134EB081E7F8018387F3EFFF0E4F2D5527B801E3
S1134EC080E00E94A21B9927882331F480915D0120
S1134ED0806180935D010AC0823041F4D601ED9176
S1134EE0FC9185E3808386E10E94A30122960FB69C
S1134EF0F894DEBF0FBECDBFDF91CF911F910F910C
S1134F00FF90EF90DF90CF90BF90AF900895AF9255
S1134F10BF92CF92DF92EF920F931F935B016C01CC
S1134F200E94F802AB01BC0111E0E12E960185015B
S1134F3084E00E94D9021F910F91EF90DF90CF90EF
S1134F40BF90AF900895EF92FF920F931F938091BB
S1134F50160190911701A0911801B0911901B6950D
S1134F60A7959795879580939B0290939C02A09315
S1134F709D02B0939E020E94A607E0909B02F090CF
S1134F809C0200919D0210919E02A80197010E942B
S1134F90993F6E0D7F1D801F911F60939B0270933C
S1134FA09C0280939D0290939E021092750B0E9426
S1134FB087271F910F91FF90EF90089580E890E06C
S1134FC0A0E0B0E08093160190931701A09318011C
S1134FD0B09319010E94A3270895EF92FF920F93B3
S1134FE01F93CF93DF930FB7F894112781E00E94AA
S1134FF0570D81E0E82EF12CF0925801E092570110
S1135000109259011092AF0110923E020FBF0FB7D8
S1135010F89411270E94640CF092E401E092E301F9
S11350201092E10289B78F7B89BF80E488BF8AB779
S113503080628ABF8AB78F7E8ABF89B7806489BF3E
S11350400FBF8FB7F894C82FDD278091520190913C
S11350505301049719F483E00E944A18CFBF0FB795
S1135060F8941127C09A80E00E945A190FBF8FB795
S1135070F894992722E020934F078FBF01E0009313
S1135080630180916401882311F00E94A607809136
S11350905D01846080935D0190E0809160018823CC
S11350A009F491E0992319F486E10E94A301809107
S11350B05D01826080935D018FB7F89499272091F8
S11350C00E0130910F018FBF30934807209347079B
S11350D0809164018823B9F40093640180E890E02E
S11350E0A0E0B0E08093160190931701A0931801FB
S11350F0B09319010E94A32740E050E260E070E001
S113510085E00E946A0D809134018823E1F02091AA
S11351107C0B30917D0B0093940180914707909113
S1135120480790937D0B80937C0B10927F0B109219
S11351307E0B2F5F3F4F69F486E10E94A3018091AB
S11351403401882331F464E670E080E090E00E944A
S1135150C009DF91CF911F910F91FF90EF900895B7
S11351603F924F925F926F927F928F929F92AF92F3
S1135170BF92CF92DF92EF92FF920F931F93CF9340
S1135180DF93CDB7DEB7AC970FB6F894DEBF0FBE92
S1135190CDBFA0918601B0918701FC909D012F0D98
S11351A0311DF9018081881F8827881FFD0187AB85
S11351B0F90180818F77FD0185AB21503040F901E1
S11351C08081FD0184ABA0918601B0918701FD012E
S11351D032818FB7F8949927209145028FBF2223FB
S11351E009F490C0832F992796958795969587956E
S11351F0837090708230910541F5878146812FB785
S1135200F894332760914F03709150032FBF99276F
S1135210982F88275527842B952B8617970719F4E1
S113522081E090E06CC0FD018781268140E050E080
S11352309927982F88273327822B932B8F5F9F4F93
S113524011F441E050E0CA015AC0039709F0EBC3DE
S11352509E012D5F3F4F45E557E088E0FA0101903C
S1135260AF01F90101929F018150C1F79E012D5DAB
S11352703F4FAE014D5F5F4F88E0FA010190AF01EF
S1135280F90101929F018150C1F79E01255F3F4FB3
S1135290AE014D5D5F4F88E0FA010190AF01F90165
S11352A001929F018150C1F79E012D5E3F4FAE01D7
S11352B0455F5F4F88E0FA010190AF01F901019267
S11352C09F018150C1F79E01255E3F4FAE014D5EA7
S11352D05F4F88E0FA010190AF01F90101929F014B
S11352E08150C1F748E050E0BE01655E7F4FCD01BB
S11352F006960E941140892B09F095C303C08823A8
S113530009F491C3FCE0FF1508F08DC3C090860139
S1135310D0908701DCA6CBA6F6012281822F9927A3
S113532036E0969587953A95E1F7039719F468E086
S113533070E002C062E070E0822F9927969587950D
S11353409695879583709070039719F488E090E0A0
S113535002C082E090E026E030E0C20ED31E40E0BE
S113536050E020E030E0F601E80FF91F8AEF9FEFEC
S1135370C80ED91E05C08191480F511D2F5F3F4FA4
S113538026173707C4F3F60163818FEF8093020C6D
S11353908FB7F894782F20E030E0E5E9F1E08081E0
S11353A091818417950731F48281861709F415C316
S11353B02093020C2F5F3F4F33962430310579F749
S11353C07FBF9091020C3FB7F8949F3F21F08091EA
S11353D05A01891799F420915A01822F9927FC01C7
S11353E0EE0FFF1FE80FF91FEB56FE4F518340836A
S11353F062832F5F237020935A010CC0892F992751
S1135400FC01EE0FFF1FE80FF91FEB56FE4F51830F
S113541040836283832F99278FBF0FB7F894112796
S1135420C6010E944108FC0190810FBFF60187A9C3
S1135430882309F4E7C29F3309F0E4C287814681D7
S11354402FB7F894332760910E0170910F012FBF8D
S11354509927982F88275527842B952B86179707EC
S113546061F0878126819927982F88273327822BFB
S1135470932B8F5F9F4F09F0CCC2AF2DAD50F60137
S113548083859927803721F0813709F0BBC28DC10C
S1135490F601878126819927982F88273327822B25
S11354A0932B8F5F9F4F09F08EC0F6018185208575
S11354B09927F82EEE243327E22AF32A04850E9442
S11354C0180BC7010E945A078F3F21F0F60165852A
S11354D077270CC00E94D00B182F8F3F51F0B701D3
S11354E00E94E20BF60165857727812F0E94190B34
S11354F01CC087E30E94F70B182F8F3F09F461C08B
S11355009927880F991FFC0153E0EE0FFF1F5A954E
S1135510E1F7E81BF90BE85CFA4F808191810E9466
S11355208F17B701812F0E94E20B4FE0942E902237
S113553009F447C0F60180818D50893218F020E0CB
S113554030E003C09601245F3F4F8901080F111D0D
S113555083E0989EC0011124081B190B8FB7F8949F
S1135560992760900E0170900F018FBFBB2483E0D8
S1135570B89EF0011124E00FF11F80812181992749
S1135580982F88273327822B932B86159705B1F400
S1135590A280C7010E945A078F3F81F09927880F84
S11355A0991FFC01A3E0EE0FFF1FAA95E1F7E81B8A
S11355B0F90BE85CFA4FA18686E08783B394B914AB
S11355C0B1F60E94180BC6010E94550C182F682FC3
S11355D0C6010E942F087C01153009F013C2F601A0
S11355E01185908460E4C6010E94400C382E570156
S11355F00894A11CB11CF701818125010894411C68
S1135600511CF50121819927982F88273327822B54
S1135610932B8F5F9F4F09F4C0C0812F9927182FB8
S11356200027892D9927082B192B53E0852E912CBF
S11356308E0C9F1CF701838144E0642E712C6E0C48
S11356407F1C24819927982F88273327822B932B1B
S1135650892B51F5C8010E945A078F3F11F50E940A
S1135660D00B8F3F11F0B8011AC080E00E94F70BF5
S1135670F82EFFEF8F17A9F09927880F991FFC01C7
S1135680A3E0EE0FFF1FAA95E1F7E81BF90BE85C16
S1135690FA4F808191810E948F17B8018F2D0E944B
S11356A0E20BC8010E948C07F4019080F301808012
S11356B0F501B080F201A080C8010E9472077C014C
S11356C0C8010E94200C482F8A3009F43FC0892D5C
S11356D09927782F6627882D9927682B792B8B2D6E
S11356E09927382F22278A2D9927282B392B809107
S11356F0AD014817D1F4F2E3EF16F10438F5E42FC5
S1135700FF2753E0EE0FFF1F5A95E1F7E55BFD4FCE
S113571011830083338322837583648381E08683CA
S113572017824F5F4093AD0111C0E42FFF2793E030
S1135730EE0FFF1F9A95E1F7E55BFD4F11830083A0
S1135740338322837583648381E08683809115018A
S1135750882319F5C8010E94200CE82F8091AD011F
S1135760E81748F4FF2783E0EE0FFF1F8A95E1F75F
S1135770E55BFD4F37828091810B882311F0332044
S113578049F080917C0B90917D0B8017910729F44F
S1135790332019F089E10E94A30160E8C6010E9448
S11357A0400C882309F42EC11FC1F601F3888585B6
S11357B08F5F8587A93208F025C1C6010E94DC09E4
S11357C020E090919301891708F421E0222309F045
S11357D019C120916001822F9927B82F882309F4D9
S11357E041C0A0915E01A20FA150B150AD3010F4A0
S11357F0EA2F02C0EA2FED50FF27EE0FFF1FE55AF4
S1135800F44F0190F081E02D00811181F80120898D
S11358104189F601808961893327322F2227552750
S1135820242B352B9927982F88277727862B972B7E
S11358302817390709F0F2C0F8019289F601828924
S1135840981709F0EBC0F8019585F601858598173E
S113585009F0E4C0F8019389F6018389981709F0E7
S1135860DDC0D0C0809194018823A9F0F601808125
S11358708551082F1127602FC6010E942305BC0102
S1135880FBE2FF1609F0BEC0402FC6010E94C70A02
S11358909CA78BA7B7C080E020916403222309F45E
S11358A081E0882309F0AEC090916303992309F441
S11358B081E0882309F0A6C0992309F4A3C080914C
S11358C0FF0BE82FFF27EE0FFF1FED5AF34F008168
S11358D01181118210829150909363038F5F8093A2
S11358E0FF0B8C3011F41092FF0B0115110509F414
S11358F089C0222309F486C080913C03E82FFF2746
S1135900EE0FFF1FE15DF84FE080F18011821082FD
S11359102150209364038F5F80933C038C3011F4F7
S113592010923C03E114F10409F46CC080E4F70123
S113593011928A95E9F724E330E0C20ED31E8CE07D
S1135940F60111928A95E9F72CEC3FEFC20ED31EB3
S1135950F801D182C0828FEF82838EE18383C801F4
S11359600E944205882391F5CE0101960E94630AA4
S1135970882311F5F601868527859927982F88278E
S11359803327822B932B29813A8128173907A0F0DA
S113599080E890E0A0E0B0E08093160190931701B6
S11359A0A0931801B09319010E94A3276CE170E041
S11359B08CE190E00E94C7248091050681FD03C01C
S11359C086E10E94A301FCA6EBA61CC0C7010E94AD
S11359D0250AC8010E94440A15C07FBF13C0F601FE
S11359E084858078803871F480E890E0A0E0B0E0AD
S11359F08093160190931701A0931801B093190195
S1135A000E94A3272BA53CA53093870120938601F0
S1135A100AC0F60183858137A9F7E1CFA150BB23E2
S1135A2009F0E3CE1FCF8FB7F89499271092E102C3
S1135A308FBF0E94A819AC960FB6F894DEBF0FBEB4
S1135A40CDBFDF91CF911F910F91FF90EF90DF9029
S1135A50CF90BF90AF909F908F907F906F905F900A
S1135A604F903F9008956F927F928F929F92AF9242
S1135A70BF92DF92EF92FF920F931F93CF93DF9326
S1135A80CDB7DEB768970FB6F894DEBF0FBECDBFB3
S1135A904B015C016624772467EC75E0FB01D0843C
S1135AA0D1FE6DC22081318142815381E480F58031
S1135AB006811781D501C401821B930BA40BB50B7E
S1135AC08E159F05A007B10708F459C2D0FE05C082
S1135AD0FDEFDF22FB01D08609C02E0D3F1D401FC4
S1135AE0511FFB012083318342835383F6E06F16F9
S1135AF009F410C1F615B0F022E0621609F4A4C04E
S1135B00261538F0662031F181E0681609F041C2AB
S1135B1049C094E0691609F49BC0E5E06E1609F0EB
S1135B2038C2ECC0F9E06F1609F436C1F61548F036
S1135B3027E0621609F4F5C088E0681609F029C266
S1135B40F2C09AE0691609F4A6C1EBE06E1609F0FA
S1135B5020C2DAC18FB7F894082F112780917201FF
S1135B60882379F491E0909372011092A3010FBFFE
S1135B7080917501882311F486E267C090937601C1
S1135B8008C28091A301882309F4F5C180E00E9432
S1135B904F06882309F0EFC18091870B81608093C1
S1135BA0870BE9C180913401882309F4F2C1009183
S1135BB0000110910101CE0101960E942F05698117
S1135BC07A8140913503509136032091030C309132
S1135BD0040C1F8A188E1D8A1E8A1B8A1C8A198A25
S1135BE01A8A1F86188A1D861E861B861C86832F8A
S1135BF0992789872A87852F99278F834887872F15
S1135C0099278D836E83812F99278B830C838DB77E
S1135C109EB746970FB6F8949EBF0FBE8DBFEDB7E3
S1135C20FEB73196DE01139686E10D900192815004
S1135C30E1F70E948E0AEDB7FEB776960FB6F89498
S1135C40FEBF0FBEEDBFA5C180E00E94A301A1C1AC
S1135C5080916301882309F49CC1809164018823A5
S1135C6009F497C18091750B882301F589E10E949D
S1135C70A3018AE10E94A3016091160170911701AA
S1135C80809118019091190120919B0230919C02FE
S1135C9040919D0250919E02621B730B840B950BE5
S1135CA021E02093750B0E94872773C18091160110
S1135CB090911701A0911801B0911901880F991FB3
S1135CC0AA1FBB1F8093160190931701A09318017C
S1135CD0B09319018150904DA740B04060F080E02E
S1135CE090EDA7E0B0E08093160190931701A09384
