S01800006275696C642F6D6963617A2F6D61696E2E73726563E5
S11300000C947F010C943A120C9444120C944E12EA
S11300100C9458120C9462120C946C120C94A81A3E
S11300200C9476120C949E010C949E010C941B2447
S11300300C94B9250C9404120C941A120C94F21218
S11300400C94340E0C948D230C9402100C949E0189
S11300500C947E100C9480120C949E010C949E01BE
S11300600C940F120C94D1110C94B0110C94BB117C
S11300700C94C6110C94E4110C9493110C949E01ED
S11300800C94A5110C9432200C949E017A31F23117
S1130090283280326533803384338733B2336C3112
S11300A0FA3308340B3419346C3488348F34C8343C
S11300B03F354235453548355A3573315C366A36F5
S11300C0543719381C381F382F3849384C385038B1
S11300D070387338763879387F38823888389A3867
S11300E0AC38B438B838C738FF38133916395439EE
S11300F01C39353938394939000021104220633020
S11301008440A550C660E770088129914AA16BB16B
S11301108CC1ADD1CEE1EFF1311210027332522213
S1130120B5529442F772D662399318837BB35AA3BB
S1130130BDD39CC3FFF3DEE36224433420040114E3
S1130140E664C774A44485546AA54BB5288509950B
S1130150EEE5CFF5ACC58DD55336722611163006B3
S1130160D776F6669556B4465BB77AA7199738875B
S1130170DFF7FEE79DD7BCC7C448E5588668A77873
S11301804008611802282338CCC9EDD98EE9AFF9AB
S1130190488969990AA92BB9F55AD44AB77A966A53
S11301A0711A500A333A122AFDDBDCCBBFFB9EEBFB
S11301B0799B588B3BBB1AABA66C877CE44CC55C23
S11301C0222C033C600C411CAEED8FFDECCDCDDD4B
S11301D02AAD0BBD688D499D977EB66ED55EF44EF3
S11301E0133E322E511E700E9FFFBEEFDDDFFCCF9B
S11301F01BBF3AAF599F788F8891A981CAB1EBA1EF
S11302000CD12DC14EF16FE18010A100C230E3206A
S11302100450254046706760B9839893FBA3DAB312
S11302203DC31CD37FE35EF3B1029012F322D232BA
S11302303542145277625672EAB5CBA5A8958985E2
S11302406EF54FE52CD50DC5E234C324A01481040A
S11302506674476424540544DBA7FAB79987B897B2
S11302605FE77EF71DC73CD7D326F2369106B0165A
S113027057667676154634564CD96DC90EF92FE972
S1130280C899E9898AB9ABA94458654806782768AA
S1130290C018E1088238A3287DCB5CDB3FEB1EFB52
S11302A0F98BD89BBBAB9ABB754A545A376A167AFA
S11302B0F10AD01AB32A923A2EFD0FED6CDD4DCD22
S11302C0AABD8BADE89DC98D267C076C645C454C4A
S11302D0A23C832CE01CC10C1FEF3EFF5DCF7CDFF2
S11302E09BAFBABFD98FF89F176E367E554E745E9A
S11302F0932EB23ED10EF01E00081C1814101124C7
S11303001FBECFEFD0E1DEBFCDBF11E0A0E0B1E072
S1130310EEEEF0E800E00BBF02C007900D92A433AC
S1130320B107D9F71CE0A4E3B1E001C01D92A937DD
S1130330B107E1F70E9485390C9476400C940000D3
S11303408FB7F894992708958FBF0895282F9FB7E2
S1130350F894E82FFF27E255FE4F80818F3F81F408
S1130360E091540CE21771F40BC02093F50B04C018
S1130370FF27E255FE4F20832093540C20E007C052
S113038025E005C08091F50B8F3F91F7EECF892FC3
S113039099278FBF822F9927089580E00E94A60194
S11303A0992708958FE00E94A6019927089580E176
S11303B00E94A601992708958FB7F894992760930E
S11303C04F018FBF8DE00E94A60108952FB7F894C6
S11303D0332780914A0280930D0182E08093540177
S11303E02FBF80910D01882329F4B89AC09881E128
S11303F00E94A601089586E10E94A6019927089506
S11304001F931FB7F89480914F0C882341F483E025
S11304100E94A601882319F481E080934F0C812F58
S113042099278FBF1F910895382FFA01422F29323F
S113043018F082E090E008956683872F99278583DA
S1130440338721878091420190914301892B19F0D0
S113045085E090E008952FB7F894332785E08093E2
S1130460450110924601F0934101E093400182E07E
S113047090E09093430180934201109248011092BE
S11304804701445F409344012FBF8FB7F894282F4E
S1130490332780912D078A3011F42FBF19C02FBF45
S11304A09FB7F89480916103882311F020E006C07F
S11304B081E0809361031092620321E0892F9927E0
S11304C08FBF222329F00E94000280E090E008956B
S11304D0109243011092420181E090E00895CF937D
S11304E0DF93582FDB01823018F081E090E038C0B0
S11304F0C82FDD27CC0FDD1FC05DDA4F88819981BD
S1130500892B19F085E090E02BC0798368839B01E7
S11305102B5F3F4FF901448380910901823018F425
S113052080E090E01DC0F9018681FB016581772799
S1130530762F6627F90121813327622B732B509381
S11305400901242FAD010E9414029927282F882322
S113055029F082E08093090119821882822F992759
S1130560DF91CF910895CF93DF93FB01DB011596C3
S1130570ED018983892F9927858384E68E8381E021
S11305800E946F029927DF91CF91089585E30E941D
S1130590A60199270895EF920F931F93AE2D99E02A
S11305A0899FF0011124E653FA4F408351836283FB
S11305B073830483158326833783A17080858E7F9C
S11305C08A2B8260808782E00E94A6011F910F918E
S11305D0EF9008957FB7F89462B720918B01309122
S11305E08C0140918D0150918E0106B601FE0FC021
S11305F081B792B7280F311D411D511D2F5F3F4F09
S11306004F4F5F4F290F311D411D511D04C0260F4F
S1130610311D411D511D872F99278FBFCA01B90173
S11306200895AF92BF92CF92DF92EF92FF920F9311
S11306301F93F82E5A016B010E94EA02AB01BC0120
S1130640E1E0EE2E960185018F2D0E94CB021F91D1
S11306500F91FF90EF90DF90CF90BF90AF900895EF
S1130660982F969596959695E9ECF5E0E90FF11D8E
S1130670877021E030E002C0220F331F8A95E2F731
S113068080818223992708958FB7F8949927209120
S113069074002093F8068FBF08951F93CF93DF93C0
S11306A0A39AAB9AA69AAE9A8FB7F894282F3327B9
S11306B0922F80917501882309F044C011E01093B2
S11306C07501109286012FBF8FB7F894C82FDD27CC
S11306D0809176018823C9F4909A919A8898899890
S11306E01092710081E48093700010927200109255
S11306F074000E9444038091F80684608E7F809386
S1130700F8068093740010937601CFBF8FB7F894E6
S1130710C82FDD279C2F80912101823059F58091CB
S11307207501813021F48DE20E94A60109C0823056
S113073009F5809186018093210183E080937501FE
S1130740CFBF1FC080918601882311F42FBF19C029
S11307508091FF0B8F3F71F4E0912001EE2351F063
S11307600BC010921F0104C0FF27E150F44F108208
S1130770109220019FBF05C080911F018F3FA1F7F8
S1130780F0CF80E090E0DF91CF911F9108950E9417
S113079044038091F8068E7F80698093F8068093E5
S11307A0740008954FB7F89420917901222319F425
S11307B021E030E00FC080912301813019F020E066
S11307C030E008C080E090E02150223010F481E055
S11307D090E09C01842F99278FBF822F9927089539
S11307E0982F969596959695E3E4F2E0E90FF11D1E
S11307F0877021E030E002C0220F331F8A95E2F7B0
S11308008081822399270895EF92FF920F931F937B
S1130810CF93DF93982F8FB7F894E82E80916C01D3
S1130820833009F045C080911C01891709F040C04C
S113083080914302882309F045C03EC0EF2DE69520
S1130840E695E695FF274F2D5527ED5BFD4F9A0161
S11308502770307081E090E002C0880F991F2A95BC
S1130860E2F78095208128232083C0936B0111C077
S11308702196C230D10511F4C0E0D0E0FC2E8C2FBB
S11308800E94F0038823D1F6C017D10789F74FEFF0
S113089050E0409326028FEF80931C0181E0809307
S11308A06C0181E20E94A601EFBE80E090E010C0DE
S11308B0EFBE81E090E00CC082E080931C011092B6
S11308C06C01F2CF80916B01082F1127E801D0CF82
S11308D0DF91CF911F910F91FF90EF900895EF92C8
S11308E0FF920F931F93CF93DF93982F8FB7F894B2
S11308F0E82E80916601833009F045C080911A0189
S1130900891709F040C08091C905882309F046C0C1
S11309103EC0EF2DE695E695E695FF274F2D55272A
S1130920E753FA4F9A012770307081E090E002C0DB
S1130930880F991F2A95E2F7809520812823208328
S1130940C093650111C02196C730D10511F4C0E0F0
S1130950D0E0FC2E8C2F0E9430038823D1F6C017E0
S1130960D10789F74FEF50E040935A088FEF8093F7
S11309701A0181E0809366018BE10E94A601EFBE1B
S113098080E090E011C0EFBE81E090E00DC087E010
S113099080931A01109266013798F1CF8091650116
S11309A0082F1127E801CFCFDF91CF911F910F912D
S11309B0FF90EF900895982F969596959695EFE36E
S11309C0F2E0E90FF11D877021E030E002C0220F50
S11309D0331F8A95E2F780818223992708959C0129
S11309E0685F693218F080E090E008950C9611F089
S11309F0C90144960895FC01892B69F080917F0B0D
S1130A009091800B2FEF8F3F920729F09183808381
S1130A1080E090E0089581E090E00895AC01209199
S1130A205E012D3018F081E090E0089580915D0121
S1130A30E82FFF27EE0FFF1FE25AF44F5183408344
S1130A408F5F80935D018D3011F410925D012F5FF3
S1130A5020935E0180E090E008958FB7F894992781
S1130A602BB332E023272BBB8FBF08950F931F9323
S1130A70182F8FB7F894282F3327022F80917D01E8
S1130A80882399F491E090937D011093F9062FBF88
S1130A9080917E01882321F483E30E94A60102C091
S1130AA090937F0180E090E023C08091F906811744
S1130AB011F42FBFF7CF812F0E94DB04882319F094
S1130AC085E090E014C0E12FE695E695E695FF27D2
S1130AD0E15CFD4F177081E090E002C0880F991F20
S1130AE01A95E2F72081282B208380E090E00FBF45
S1130AF01F910F910895982F969596959695E0E5F8
S1130B00FCE0E90FF11D877021E030E002C0220F04
S1130B10331F8A95E2F78081822399270895982FBD
S1130B20969596959695ECEAF1E0E90FF11D87709C
S1130B3021E030E002C0220F331F8A95E2F7808162
S1130B408223992708950F931F93182F8FB7F89432
S1130B50282F3327022F80916801882399F491E08C
S1130B6090936801109332032FBF80916901882309
S1130B7021F48FE10E94A60102C090936A0180E0F3
S1130B8090E023C080913203811711F42FBFF7CF77
S1130B90812F0E948F05882319F085E090E014C00E
S1130BA0E12FE695E695E695FF27E455FE4F17708D
S1130BB081E090E002C0880F991F1A95E2F7208126
S1130BC0282B208380E090E00FBF1F910F910895A0
S1130BD09FB7F894292F3327422F90911C0198171F
S1130BE041F480916C01833021F42FBF81E090E0C7
S1130BF008954FBF80E090E00895982F96959695BC
S1130C009695EAE3F5E0E90FF11D877021E030E005
S1130C1002C0220F331F8A95E2F78081822399272D
S1130C200895982F969596959695EAE8FBE0E90F36
S1130C30F11D877021E030E002C0220F331F8A9536
S1130C40E2F780818223992708958091FD0B8330F8
S1130C5099F0843028F4813099F0823078F412C00D
S1130C60853031F0853030F0863071F4E8E031C001
S1130C70E8E02CC0E8E027C0E8E022C0E8E01DC0BE
S1130C80E8E018C0E8E013C08330C9F0843028F4E9
S1130C90813079F0823080F409C08530B1F085303C
S1130CA088F08630A9F02FE1E0E014C0E0E02EE106
S1130CB011C0E0E023E00EC0E0E024E00BC0E0E07F
S1130CC021E008C0E0E022E005C0E0E026E002C048
S1130CD0E0E025E0622F7FB7F894809142028E7F96
S1130CE08093420287B1982F9F718295869586954D
S1130CF0837019F080E090E012C0822F8850863112
S1130D0018F081E090E00BC040E050E03327892FD9
S1130D1099272817390711F441E050E0CA01982FA8
S1130D209170990F809142028178262F2F71422F62
S1130D30440F440F892B842B80934202332727B915
S1130D40E83059F58091F60B9091F70B21E0863845
S1130D50920718F087E090E01FC0833C910518F0DB
S1130D6086E090E019C08136910518F085E090E0A6
S1130D7013C08033910518F084E090E00DC08831F1
S1130D80910518F083E090E007C00C9718F082E01A
S1130D9090E002C080E090E0E82FE770887D8E2B21
S1130DA0886D992786B9872F99278FBF0895AC013D
S1130DB0EBE3F5E080E090E09C01858180FF05C0D5
S1130DC0808191818417950741F0C90101963E966F
S1130DD08A30910589F72FEF30E0C90108950E9408
S1130DE0D7068F3F99F09927880F991FFC01B3E02C
S1130DF0EE0FFF1FBA95E1F7E81BF90BE55CFA4F1C
S1130E00858181FF03C08285938508958FEF90E0EB
S1130E1008950E94D7068F3F19F481E090E0089569
S1130E209927880F991FFC0133E0EE0FFF1F3A95B5
S1130E30E1F7E81BF90BE55CFA4F8581886085834F
S1130E4080E090E008952F923F924F925F926F92CC
S1130E507F928F929F92AF92BF92CF92DF92EF9246
S1130E60FF920F931F93CF93DF93CDB7DEB72997EC
S1130E700FB6F894DEBF0FBECDBF6FB76983F89489
S1130E8020903A0330903B0340903C0350903D0344
S1130E90662477248824EEE4AE2E73E8B72ECC249F
S1130EA0DD24EE24FF2400E010E0222D332D442D18
S1130EB0552D662D772D882D90E00E94B43C2A8311
S1130EC03B834C835D836E837F8388879987822EDF
S1130ED0932EA42EB52E2401350100E20E94B23DCA
S1130EE0A22EB32EC42ED52EA3019201569547955A
S1130EF0379527952A0D3B1D4C1D5D1D57FF05C0D9
S1130F005F772F5F3F4F4F4F5F4F20933A033093EC
S1130F103B0340933C0350933D03E9818E2F992773
S1130F208FBFCA01B90129960FB6F894DEBF0FBE70
S1130F30CDBFDF91CF911F910F91FF90EF90DF9084
S1130F40CF90BF90AF909F908F907F906F905F9065
S1130F504F903F902F9008959C016E5F693218F076
S1130F6080E090E008950C9611F0C9010E96089562
S1130F70FC016683672F772767830895FC018281CC
S1130F809927582F442781819927482B592BCA0127
S1130F90892F992786958695837090708230910564
S1130FA059F08330910559F0892B19F420E030E091
S1130FB008C02CE93FEF05C022E030E002C028E081
S1130FC030E0CA0184E0989F812D99271124823052
S1130FD0910559F08330910559F0892B19F480E07B
S1130FE090E008C08CE99FEF05C082E090E002C069
S1130FF088E090E0280F391F2A5F3F4FCF01820F0E
S1131000931F0895282F9FB7F894662349F0E82F7B
S1131010FF27EF5AF84F8081882311F021E006C0A2
S1131020E22FFF27EF5AF84F608320E0892F99279A
S11310308FBF822F99270895E82F8FB7F894282F10
S1131040332790E0FF27EF5AF84F8081861709F481
S113105091E02FBF892F9927089560E080E00E94D6
S11310601C0899270895682F81E00E941C0899277D
S11310700895882311F06E9A08956E980895882330
S113108011F06F9A08956F98089580E00E943908CE
S1131090BA9ABB98B99AB89A6C9A80E00E943F08B1
S11310A06B986A9881E00E943908709A8DB18C7FA0
S11310B08DB908951F93182F81E00E9439081FB934
S11310C0779BFECF8FB199271F9108958F929F929E
S11310D0AF92BF92CF92DF92EF92FF920F931F9342
S11310E0CF93DF938FB7F8949927C0900B0CD090CF
S11310F00C0C8090B6069090B706C0912E05D09146
S11311002F0520918701309188014AE0A42EB12C4B
S1131110AC0EBD1E2A153B0508F459018FBF74019E
S1131120EC0EFD1E86010C0F1D1F14C0C114D1044A
S113113019F0F801808101C080E00E945A088114EE
S1131140910411F0F701808321960894E11CF11CAD
S11311500F5F1F4FC5010197C817D90738F381E006
S11311600E943F089FB7F894C114D10431F0CC0E0B
S1131170DD1EF60180818FB901C01FB8D0932F0501
S1131180C0932E05892F99278FBF80E090E0DF91CF
S1131190CF911F910F91FF90EF90DF90CF90BF9070
S11311A0AF909F908F9008952FB7F8943327509362
S11311B088014093870190930C0C80930B0C7093DF
S11311C0B7066093B60610922F0510922E052FBF16
S11311D0452B29F08FB10E9466089927089582E172
S11311E00E94A60180E090E008958FB7F8949927B3
S11311F0109253078FBF0895FC01CB01428553859C
S11312009A0163E0220F331F6A95E1F7240F351F1B
S11312102B5F3F4F820F931F6AE070E00E94C33F31
S1131220738762870895FC0164859585662339F484
S11312308AE0989FB00111246A5070400BC0772750
S11312408AE0989FC00111240E94D73F6A507040E1
S113125014861586CF010E94FC08089580915C01D4
S1131260E82FFF27EE0FFF1FE25AF44F0190F081A1
S1131270E02D20915E01222351F08F5F80935C0169
S11312808D3011F410925C01215020935E01CF0146
S11312900895CF92DF92FF920F931F93CF93DF9322
S11312A06C01F09091016091220570E08C01005F67
S11312B01F4F2CC0D6011C96462F43705527E601BC
S11312C028893327322F2227F80181819927282B57
S11312D0392BFA01EE0FFF1FEE0FFF1FE40FF51F6E
S11312E0E55DFD4F808191812817390769F4ED018F
S11312F09E818281891741F499818481891721F41F
S11313009F818381891721F07F5F6F5F7F1591F63D
S1131310872F9927DF91CF911F910F91FF90DF9035
S1131320CF900895AC01209167032C3018F081E030
S113133090E0089580913F03682F620F712D711D15
S1131340FB016C30710508F03C97EE0FFF1FEE5C5B
S1131350F84F518340832F5F2093670380E090E030
S11313600895AC01209166032C3018F081E090E0E0
S113137008958091020C682F620F712D711DFB017D
S11313806C30710508F03C97EE0FFF1FEA5AF34FDB
S1131390518340832F5F2093660380E090E008959B
S11313A00F931F93CF93DF93EC01892BE9F02091E6
S11313B07F0B3091800B8FEF2F3F3807A9F080917E
S11313C09201813019F4198218820BC00091810BAB
S11313D01091820BC9010E94EF06080F191F19838F
S11313E0088380E090E002C081E090E0DF91CF913B
S11313F01F910F910895CF93DF93CDB7DEB720915E
S11314003B0130913C012431310518F081E090E03A
S113141028C04091390150913A0186E190E0489FFB
S1131420F001499FF00D589FF00D1124E659FC4F2F
S1131430DE01159686E10D9001928150E1F7CA0113
S1131440019664E170E00E94C33F90933A01809357
S113145039012F5F3F4F30933C0120933B0180E0E3
S113146090E0DF91CF910895CF92DF92EF92FF92B7
S11314701F93CF93DF93CDB7DEB766970FB6F8947B
S1131480DEBF0FBECDBF6C017B01142F0E942D0562
S1131490163149F580913401882329F1DE01119632
S11314A0F70186E101900D928150E1F78DB79EB767
S11314B046970FB6F8949EBF0FBE8DBFEDB7FEB72B
S11314C03196DE01119686E10D9001928150E1F78B
S11314D00E94FB098DB79EB746960FB6F8949EBF3F
S11314E00FBE8DBF03C0DA98D998D898C601669606
S11314F00FB6F894DEBF0FBECDBFDF91CF911F9121
S1131500FF90EF90DF90CF90089508950F931F936D
S1131510CF93DF93282F3327C901880F991FFC012C
S113152013E0EE0FFF1F1A95E1F7E81BF90BE55CDA
S1131530FA4F858182FF03C062838B7F858382811A
S1131540962F981B628383818F5F838386E08683D3
S1131550992361F08481890F815084839B3030F01A
S1131560148281E08383178211861086C901880F53
S1131570991FFC01A3E0EE0FFF1FAA95E1F7E81BFA
S1131580F90BE55CFA4F8381833008F471C0008164
S11315901181CBE3D5E0888199818017910709F007
S11315A061C08D8180FF5EC08E81882311F08150DF
S11315B08E838F81882311F081508F838E818823BD
S11315C051F48F81882339F48D8191E089278D83AB
S11315D01986188642C08D8182608D839B816C81BF
S11315E0690F633008F463E077278FEF989FC00199
S11315F011240E94D73F888529E0829FC0011124CD
S11316000596860F911D6AE070E00E94D73F6887B7
S11316101B821C824985662301F14423F1F077275C
S113162081E09EEF0E94C33FCB019B01F3E0220FB8
S1131630331FFA95E1F7642F7727880F991F820FDC
S1131640931F0E94C33F6A5070406F3F710519F0A9
S113165010F06CE370E0772702C06CE370E0CE0119
S11316600E94FC082E9685E0C73CD80709F093CF6A
S1131670DF91CF911F910F91089580E090E0E0E415
S1131680F5E09C01808180FF08C0C90101963E9667
S11316908A309105B1F72FEF30E0C90108959EE03B
S11316A0899FF0011124E55CFA4F718360831282F3
S11316B01382148285E0858386E08683878310867F
S11316C01186138612860895982FAFEF60E070E0BC
S11316D040E050E0E0E4F5E08081282F332720FF4C
S11316E00BC021FF09C023FD07C0258136812617C1
S11316F0370710F0A42FB9014F5F5F4F3E964A3071
S1131700510551F7892F99276817790718F48FEF36
S113171090E008958A2F99270895AC013091AB0188
S11317208FEF4F3F580711F020E012C0832F992705
S11317300895E22FFF2783E0EE0FFF1F8A95E1F75C
S1131740E45BFD4F808191818417950719F02F5F29
S1131750231779F7822F992708951F93CF93DF9347
S1131760162FC0E0D0E066E20E94AC07FC01808145
S11317708123811711F4C1E0D0E0CE01DF91CF9134
S11317801F910895FC018081448555274F70507046
S11317909A01220F331F240F351F821B8F50992764
S11317A0089580E88093A8011092E4021092FE0B41
S11317B01092F40B109247020895CF93DF93FC012B
S11317C011AEDC01DA96ED011B821A82198280E8DF
S11317D082AFDF91CF9108958FB7F8946091400361
S11317E0709141032CB53DB506B602FE04C06F5F8F
S11317F07F4F2CB53DB599278FBF88279927CB01FB
S11318007727662744275527622B732B842B952B28
S11318100895EF92FF920F931F930E94EC0B7B01AC
S11318208C0120914E0330914F034091500350910D
S113183051038091440390914503A0914603B091D4
S11318404703820F931FA41FB51FE216F306040774
S1131850150730F082179307A407B50758F005C0A1
S113186082179307A407B507E0F5E816F9060A07F7
S11318701B07B8F59C01AD012E193F09400B510B14
S1131880213060E8360760E0460760E0560768F1FB
S113189080E090E8A0E0B0E0E80EF91E0A1F1B1FEC
S11318A0E0924E03F0924F030093500310935103C0
S11318B080E090E8AFEFBFEFE80EF91E0A1F1B1F90
S11318C02050304840405040209344033093450317
S11318D0409346035093470320E030E840E050E053
S11318E014C020E030E040E050E080934E03909339
S11318F04F03A0935003B0935103109244031092EA
S113190045031092460310924703A901B7012CB571
S11319103DB5C9018E199F0903968417950720F0D8
S1131920B9016D5F7F4F02C0640F751F61157105AA
S113193011F461E070E0615070407BBD6ABD80E1EC
S113194086BF87B7806187BF1F910F91FF90EF908B
S113195008950F931F930FB7F894112760934E03C4
S113196070934F0380935003909351032093440347
S11319703093450340934603509347030E94090C58
S11319800FBF1F910F91089597B79F7D97BF90E266
S113199096BF882319F08EB5806402C08EB58F7B04
S11319A08EBD87B7806287BF80E090E00895AF92D4
S11319B0BF92CF92DF92EF92FF920F931F93F82E74
S11319C05A016B010E94EA02AB01BC01EE249601AC
S11319D085018F2D0E94CB021F910F91FF90EF90F4
S11319E0DF90CF90BF90AF90089580912D078A30FB
S11319F021F48091E702843021F081E080933D015D
S1131A00089585E00E94A60110923D0108952FB724
S1131A10F89433278CB95E9A2FBF0895FC016115A1
S1131A20710519F481E090E0089580915803909134
S1131A305903892B19F085E090E008957093880B81
S1131A406093870BF0935903E09358031092290392
S1131A501092280381E080932A035E9A569A80812B
S1131A6021E030E030932903209328030E94070DDE
S1131A7080E090E008958FB7F894992720914E0163
S1131A802E7F20934E012EE720932A028FBF61E020
S1131A9070E08AE292E00E940E0D99270895DF9289
S1131AA0EF92FF920F931F938FB7F894282F332749
S1131AB0D22E91B782B746B7981711F041FF02C0F2
S1131AC02FBF6AC0809125058823E1F10E94EA02B4
S1131AD0E0904D07F0904E0700914F07109150078A
S1131AE02091A4013091A5014091A6015091A70134
S1131AF06E197F09800B910B621773078407950792
S1131B0020F01092250571E01EC02E0D3F1D401FD0
S1131B10511F80918B0190918C01A0918D01B09106
S1131B208E01281B390B4A0B5B0B273E31054105FF
S1131B30510540F4822F223010F070E005C070E0AF
S1131B4082E002C070E086EE682F615000B601FCAE
S1131B50FDCF82B7681709F46F5F20918B01309134
S1131B608C0140918D0150918E01DA01C9010196D9
S1131B70A11DB11D860F911DA11DB11D82179307D3
S1131B80A407B50710F4622F609561BFDFBE772309
S1131B9019F081E00E94A6011F910F91FF90EF9030
S1131BA0DF900895AFB7F894BB27E1E0E0932505F3
S1131BB060934D0770934E0780934F07909350079F
S1131BC02093A4013093A5014093A6015093A7014B
S1131BD0AFBF0E944F0D0895AF92BF92CF92DF9294
S1131BE0EF92FF920F931F93CF93DF93CDB7DEB79E
S1131BF028970FB6F894DEBF0FBECDBF20E070E08B
S1131C00E0910001F091010132E14DE65CE46FE402
S1131C10809101019E2F28960FB6F894DEBF0FBE67
S1131C20CDBFDF91CF911F910F91FF90EF90DF9087
S1131C30CF90BF90AF9008958FB7F894282F332793
S1131C40922F80912D078A3041F08091E7028430F1
S1131C5021F02FBF89E090E008959FBF84E00E94A7
S1131C60A60180E090E008951F920F920FB60F92A4
S1131C7011248F9383B783BF00B600FCFDCF8F91EF
S1131C800F900FBE0F901F901895E8EFF0E06927B2
S1131C90660FF11DE60FF11DC895982F802D319622
S1131CA0C89590250895982F80914901882389F536
S1131CB0992379F531E030934901809102018093B1
S1131CC04A0120913E01822F81708093AA01809164
S1131CD007019091080190934C0180934B018091EE
S1131CE03F0180934D0132273170267EE32FFF2779
S1131CF0EE0FFF1FED5FFE4F8081918190930801ED
S1131D0080930701232B20933E0188E00E94A601C3
S1131D10089580913E0180FF02C08B7F01C08D7FBA
S1131D2080933E0108950F931F93082F162F8091DF
S1131D30E7028130D9F0813038F0823009F44AC0AA
S1131D40833009F028C159C0002309F458C1109206
S1131D507B0B10927A0B1092310710928B0B10921E
S1131D602B03109237051092360539C1002309F070
S1131D7046C180913605909137050E94450E909397
S1131D8037058093360582E08093E70210938B0B2E
S1131D90143409F000C125C18695869503C080914D
S1131DA03E018695817009F0F6C080913E01992329
S1131DB011F0846001C0826080933E0180913E01F5
S1131DC0877E886080933E0110923F018FEF80935D
S1131DD0020115C1002309F0DEC060932B0380913A
S1131DE03605909137050E94450E909337058093F0
S1131DF0360583E08093E70202C1809131078F3F6B
S1131E0009F4C9C0002309F461C0823008F4C3C0D6
S1131E10E0917A0BEE2309F4EBC04E2F4150E42FEE
S1131E20FF27E658F44F82819927382F222744232D
S1131E3011F4E2E002C0E42FE150FF27E658F44F2A
S1131E4082819927282B392B80913605909137056B
S1131E502817390709F09FC080E00E94530E309183
S1131E602B038091260520912705982F9F5F96309C
S1131E7008F090E0921771F0E82FFF27EA5DFA4F1F
S1131E8032838F5F80932605863010F010922605EA
S1131E900E94000210927B0B10927A0B94E09093B4
S1131EA0E7021092310710928B0B10922B031092C1
S1131EB037051092360580914E018D7F80934E0137
S1131EC080913D01882309F49AC084C0823008F4CB
S1131ED04EC0E0917B0BFF27E658F44F8281482FD8
S1131EE05527342F20913E01822F8695869586951D
S1131EF0837099278130910519F00297F9F40EC087
S1131F00277E206120933E01442311F485E001C023
S1131F1080E080933F013093020110C080913F0123
S1131F20803460F4E0910701F0910801E80FF11D9D
S1131F30408380913F018F5F80933F0180917B0BB1
S1131F40E82FFF27E658F44F62818F5F80937B0B65
S1131F50833010F010927B0B772780913605909197
S1131F6037050E94450E909337058093360580917E
S1131F707A0BE82FFF27E658F44F12838F5F809384
S1131F807A0B833010F010927A0B809131078F5FB7
S1131F908093310734C010927B0B10927A0B14E0BB
S1131FA01093E7021092310710928B0B10922B03BF
S1131FB0109237051092360580914E018D7F8093E3
S1131FC04E0181E00E94530E80913D01882329F047
S1131FD01093E7020E94F50C12C0002381F081E007
S1131FE009CF80913E01982F917080FDD5CED7CE38
S1131FF080917E0B9927382F222742E01CCF1F9116
S11320000F9108951F920F920FB60F9211242F93E0
S11320103F934F935F936F937F938F939F93AF936C
S1132020BF93EF93FF935F9B3DC06CB1E091380584
S1132030F09139053097F9F080914D0C90914E0C48
S1132040E80FF91F6083019690934E0C80934D0C1A
S11320502091710C3091720C8217930718F1109231
S11320603905109238058091FA068330D9F05798D3
S11320701092FA0617C06E3719F460E081E010C0C0
S113208080914E016D3721F4826080934E010AC025
S113209081FF05C08D7F80934E0180E2682780E038
S11320A00E94930EFF91EF91BF91AF919F918F91F9
S11320B07F916F915F914F913F912F910F900FBE40
S11320C00F901F901895982F8D57823068F4809147
S11320D04E01816080934E0180E28927809330070E
S11320E08DE780932A0202C090932A0261E070E097
S11320F08AE292E00E940E0D9927089578941F9227
S11321000F920FB60F921124FF920F931F932F93E8
S11321103F934F935F936F937F938F939F93AF936B
S1132120BF93CF93DF93EF93FF93209128033091D4
S113213029038091870B9091880B2817390780F425
S1132140E0915803F0915903E20FF31F80812F5F50
S11321503F4F30932903209328030E94070DCDC0DD
S1132160109259031092580310922A035698FFB6FE
S1132170F89480914E0180FF0EC08E7F80934E01B3
S11321808091300780932A0261E070E08AE292E055
S11321900E940E0DAFC080912D07843009F48CC0CD
S11321A0853040F4823021F18330B8F5813009F074
S11321B09CC00DC0863009F48DC0863008F483C0FD
S11321C0873009F48EC0883009F08FC091C08091A7
S11321D04D030E946310082F83E080932D076091C4
S11321E04D0380916F0C9091700C0E94450E10C0AD
S11321F08091FC0B0E946310082F83E080932D07CD
S11322006091FC0B80916F0C9091700C0E94450EB4
S11322109093700C80936F0C66C0E091C705FF2704
S1132220EE0FFF1FE05AFC4F80810E946310082FBD
S11322301091C705C12FDD27FE01EE0FFF1FE05AE5
S1132240FC4F608180916F0C9091700C0E94450E40
S11322509093700C80936F0C209143032F5F209315
S11322604303113039F580914501E0914001F0912B
S11322704101E80FF11DE0818F5F8093450190914A
S11322804401981730F482E08093610340E050E009
S113229002C04E2F5527DE01AA0FBB1FFD01E15AD4
S11322A0FC4F8081823031F02F3F21F0A05ABC4F87
S11322B04C9319C084E012C080916F0C0E9463108B
S11322C0082F85E00BC08091700C0E946310082FCA
S11322D086E004C00E943B0D082F87E080932D0701
S11322E002C088E003C0002329F089E080932D0711
S11322F00E9400028F2D99278FBFFF91EF91DF91EC
S1132300CF91BF91AF919F918F917F916F915F9189
S11323104F913F912F911F910F91FF900F900FBEFE
S11323200F901F9018951F920F920FB60F921124C1
S11323308F9380919B0087FF02C080919C008F91B6
S11323400F900FBE0F901F90189578941F920F92C4
S11323500FB60F9211240F900FBE0F901F90189577
S113236078941F920F920FB60F9211240F900FBE04
S11323700F901F90189578941F920F920FB60F929A
S113238011240F900FBE0F901F90189578941F92F0
S11323900F920FB60F9211240F900FBE0F901F9043
S11323A0189578941F920F920FB60F9211248F9361
S11323B09F9380918000909181009F918F910F90C5
S11323C00FBE0F901F90189578941F920F920FB61E
S11323D00F9211242F933F938F939F932FB7F894C9
S11323E033278091340590913505019690933505F6
S11323F0809334052FBF9F918F913F912F910F9020
S11324000FBE0F901F90189578941F920F920FB6DD
S11324100F9211240F900FBE0F901F90189578946F
S11324201F920F920FB60F9211240F900FBE0F90B0
S11324301F90189578941F920F920FB60F92112443
S11324402F933F938F939F932FB7F89433278091C3
S1132450400390914103019690934103809340037C
S11324602FBF9F918F913F912F910F900FBE0F908F
S11324701F9018951F920F920FB60F9211240F9070
S11324800FBE0F901F9018951F920F920FB60F92C8
S113249011240F900FBE0F901F9018951F920F924A
S11324A00FB60F9211240F900FBE0F901F90189526
S11324B01F920F920FB60F9211240F900FBE0F9020
S11324C01F9018951F920F920FB60F9211240F9020
S11324D00FBE0F901F9018951F920F920FB60F9278
S11324E011240F900FBE0F901F9018951F920F92FA
S11324F00FB60F9211240F900FBE0F901F901895D6
S11325001F920F920FB60F9211242F933F934F9364
S11325105F936F937F938F939F93AF93BF93EF9347
S1132520FF9344B155B178948FB7F89499272091CB
S11325304202322F3695317021708FBF2223D9F495
S1132540339880916303813021F0823009F039C0DF
S11325500AC0332351F050932C0740932B078CE18E
S11325600E94A6012EC0332319F40E94250629C017
S11325701092630326C08FB7F89499278FBF2FB7A3
S1132580F894332786B1582F5770482F4072987D9E
S1132590942B952B8074977B982B90619F77892F30
S11325A0992786B9887D842B852B87738061992729
S11325B086B9887D842B852B877B8069992786B98A
S11325C02FBFFF91EF91BF91AF919F918F917F9119
S11325D06F915F914F913F912F910F900FBE0F908C
S11325E01F9018951F920F920FB60F9211242F93DC
S11325F03F934F935F936F937F938F939F93AF9387
S1132600BF93EF93FF9383B783BF00B600FCFDCF66
S113261081B799270196AA27BB2720918B01309176
S11326208C0140918D0150918E01280F391F4A1F52
S11326305B1F20938B0130938C0140938D01509349
S11326408E0178940E944F0DFF91EF91BF91AF914D
S11326509F918F917F916F915F914F913F912F91B6
S11326600F900FBE0F901F9018950F931F93CF9349
S1132670DF93182F8FB7F894C82FDD270C2F61E054
S113268080E00E940208882321F0CFBF85E090E01B
S113269024C080910D018823A1F4809154018230DB
S11326A081F409C082E08093540110920D010E94CC
S11326B04508B89AC09810930A0180E00FBF992783
S11326C00CC080915401882369F38FB7F89499273B
S11326D0109251078FBF81E0F1CFDF91CF911F910D
S11326E00F910895EF92FF920F931F93CF93DF936F
S11326F0982F8FB7F894E82E80917D01833009F0EC
S113270045C080912401891709F040C080913F029F
S1132710882309F049C03EC0EF2DE695E695E6957D
S1132720FF274F2D5527E15CFD4F9A01277030702C
S113273081E090E002C0880F991F2A95E2F7809506
S1132740208128232083C0937C0111C02196C230AC
S1132750D10511F4C0E0D0E0FC2E8C2F0E94DB04E4
S11327608823D1F6C017D10789F74FEF50E0409383
S1132770F9068FEF8093240181E080937D0182E349
S11327800E94A601EFBE80E090E014C0EFBE81E09D
S113279090E010C082E08093240110927D0181E0DA
S11327A080937E0184E3ECCF80917C01082F112774
S11327B0E801CCCFDF91CF911F910F91FF90EF9063
S11327C00895EF92FF920F931F93CF93DF93982F67
S11327D08FB7F894E82E80916801833009F045C0E2
S11327E080911B01891709F040C08091AC018823B6
S11327F009F049C03EC0EF2DE695E695E695FF2722
S11328004F2D5527E455FE4F9A012770307081E013
S113281090E002C0880F991F2A95E2F780952081E5
S113282028232083C093670111C02196C230D105AB
S113283011F4C0E0D0E0FC2E8C2F0E948F05882379
S1132840D1F6C017D10789F74FEF50E04093320318
S11328508FEF80931B0181E0809368018EE10E94D9
S1132860A601EFBE80E090E014C0EFBE81E090E0EE
S113287010C082E080931B011092680181E0809374
S1132880690180E2ECCF80916701082F1127E801EC
S1132890CCCFDF91CF911F910F91FF90EF900895CE
S11328A0CF93DF938FB7F894C82FDD279C2F8091A7
S11328B023018130A9F480917901813021F48EE2E1
S11328C00E94A60109C0823059F480915607809372
S11328D0230183E080937901CFBF80E090E003C0BF
S11328E09FBF81E090E0DF91CF9108950F931F93F4
S11328F0CF93DF93182F8FB7F894282F3327022F05
S113290080916C01882331F581E080936C011093F0
S113291026022FBF8FB7F894C82FDD279C2F8091F4
S11329201C018230A9F480916C01813021F481E290
S11329300E94A60109C0823059F480912602809336
S11329401C0183E080936C01CFBF80E090E025C040
S11329509FBFFBCF80912602811711F42FBFF5CFC3
S1132960812F0E94F003882319F085E090E014C0C1
S1132970E12FE695E695E695FF27ED5BFD4F177091
S113298081E090E002C0880F991F1A95E2F7208138
S1132990282B208380E090E00FBFDF91CF911F911F
S11329A00F91089580E00E9476149927089581E09C
S11329B00E94761499270895982F80917501833089
S11329C009F047C080912101891709F042C0809124
S11329D01F0120E030E08F3F11F421E030E0232B91
S11329E0F9F48F3F19F42FEF30E00EC0282F33276E
S11329F0F901E150F44F808180931F018F3F11F45E
S1132A00809320018FEF8083209386018FEF809342
S1132A10210181E0809375018DE20E94A60116C018
S1132A2082E08093210110927501809176018130BA
S1132A3069F40E9444038091F8068A768093F8062C
S1132A4080937400909891981092760180E090E0C1
S1132A50089581E090E008950F931F93CF93DF933F
S1132A60182F8FB7F894282F3327022F80916601EF
S1132A70882359F581E08093660110935A082FBF8B
S1132A808FB7F8949927379A8FBF8FB7F894C82FC8
S1132A90DD279C2F80911A018730A9F4809166016B
S1132AA0813021F48BE10E94A60109C0823059F4DF
S1132AB080915A0880931A0183E080936601CFBF06
S1132AC080E090E025C09FBFFBCF80915A0881171A
S1132AD011F42FBFF5CF812F0E943003882319F002
S1132AE085E090E014C0E12FE695E695E695FF2792
S1132AF0E753FA4F177081E090E002C0880F991FE6
S1132B001A95E2F72081282B208380E090E00FBF04
S1132B10DF91CF911F910F9108958330A9F08430F4
S1132B2028F4813069F0823068F408C0853081F07F
S1132B30853060F0863071F081E00FC080E00BC01A
S1132B4081E009C082E007C083E005C084E003C0DF
S1132B5085E001C086E00E942C15992708952FB7BF
S1132B60F89433278091C80580931D0183E08093F6
S1132B706E012FBF80911D018093790B83E00E9429
S1132B808D1508952FB7F89433278091A101809370
S1132B901E0183E0809370012FBF80911E018093FA
S1132BA05E0383E00E948D150895809182018C312B
S1132BB018F04CE150E002C0482F55278CE1E9E1C0
S1132BC0FCE011928A95E9F790918201809180014D
S1132BD020E030E0A9E1BCE00FC0E82FFF27E05A75
S1132BE0F84FE081992329F08F5F8A3F09F480E050
S1132BF09150ED932F5F3F4F2417350771F7909352
S1132C008201809380014CE16DE07CE08FEF9FEFC7
S1132C100E94B302882319F085E30E94A601089557
S1132C208FB7F894282F332780918301813021F4C2
S1132C302FBF80E090E0089590E080918201882386
S1132C4009F491E0992321F02FBF81E090E00895E9
S1132C5081E0809383012FBF0E94D51580E090E02E
S1132C6008951F93182F80918301882349F480913C
S1132C7082018D3728F081E0809383010E94D5156D
S1132C808FB7F894282F3327909182019A3FA8F4A4
S1132C9080918101E82FFF27E05AF84F10838F5F5E
S1132CA0809381018A3F11F4109281019F5F909378
S1132CB082012FBF80E090E003C02FBF8FEF9FEF12
S1132CC01F910895662351F480918201882319F09D
S1132CD00E94D515089510928301089585E30E94FA
S1132CE0A60108950F931F93182F0FB7F89461E06E
S1132CF080E00E940208882371F510930A018091F4
S1132D000D018823A9F580915401823089F581E170
S1132D100CC00E94450880915401882349F481E045
S1132D208093540110924A0283E10E94A6012AC0B2
S1132D3080914C038F3F31F5E0910C01EE2311F1AA
S1132D401CC010920B0104C0FF27E45BFC4F1082EF
S1132D5010920C0117C081E090E002C0880F991F07
S1132D601A95E2F720915301282B209353010AC0AE
S1132D70809154018823E1F6CCCF80910B018F3FE1
S1132D8019F7DFCF802F99278FBF80E090E01F9144
S1132D900F9108951F9383E00E9435139927182FEC
S1132DA0882319F083E00E947216812F99271F91BE
S1132DB00895282FCB01222319F0213069F409C08A
S1132DC0615A724049F41092360180E00E94A601D3
S1132DD00895642F0E94621608958FB7F894992776
S1132DE020915A0820931A0123E0209366018FBF93
S1132DF090911A01933019F1943028F4913081F0B4
S1132E00923088F407C09530D1F0953088F0963030
S1132E1029F51DC081E0809363031092FD0B14C05B
S1132E20909363030FC081E08093630382E004C046
S1132E3081E08093630384E08093FD0B05C081E00F
S1132E40809363039093FD0B0E942506089581E00F
S1132E50809363039093FD0B0E9425060895CF93FE
S1132E60DF93EC010E948D0B282F8091AB01281772
S1132E70D1F0382F31503093AB0113C0822F9927F2
S1132E8043E0880F991F4A95E1F7DC01A45BBD4F2D
S1132E90FC01EC5AFD4F88E001900D928150E1F75E
S1132EA02F5F231758F380917F0B9091800B8C1721
S1132EB09D07A1F48FEF9FEF9093800B80937F0B7E
S1132EC01092820B1092810B1092830B1092840B40
S1132ED081E08093640189E10E94A601DF91CF9192
S1132EE00895FF920F931F93CF93DF93F82E8B01D6
S1132EF08FB7F894C82FDD2760E080E00E941C089B
S1132F00882321F0CFBF80E090E00CC0CFBF8F2D8D
S1132F100E945A08812F99270E945A08802F0E94E4
S1132F205A089927DF91CF911F910F91FF9008952F
S1132F301F931FB7F89480914602882319F460E028
S1132F4070E009C060E08091080C882309F461E016
S1132F5081E06827772780913303882319F480E080
S1132F6090E00AC090E080915707882309F491E02B
S1132F7081E09827892F9927762F6627770F770F77
S1132F80770FE4E0880F991FEA95E1F7826E926269
S1132F90682B792B81E10E947117812F99278FBFAC
S1132FA01F9108958FB7F894992760915B088FBF9C
S1132FB085E0689FB0011124625D7E4F706488E1F2
S1132FC00E9471170895BC018DE10E947117992721
S1132FD00895EF92FF921F93CF93DF93E090340311
S1132FE0F0903503F70186A99927182F882309F44F
S1132FF01FE1C09880914102811749F0612F772722
S11330006F717070606E706885E10E947117109323
S11330104102F70110818FB7F894C82FDD2760E0D3
S113302080E00E941C08882311F0CFBF12C0CFBFDC
S11330308EE390E090935B0380935A038EE30E94A7
S11330405A081150412F552760E070E0C7010E94D3
S1133050D408DF91CF911F91FF90EF9008950F93C3
S11330601F93CF93DF93EC010FB7F89411270E94BD
S1133070BE07FC018FE380830FBF1092040C1092F3
S1133080030C61E082E00E940208882319F085E0C5
S113309090E072C080915D0B8F5F80935D0B8150D7
S11330A08B838FB7F894082F112762E081E00E9488
S11330B01C08882329F40FBF0E94F50881E05BC037
S11330C08FB7F894992724E0209352078FBFD093A9
S11330D06903C09368030FBFFE0131968181298182
S11330E09927982F88273327822B932B80729C7CD7
S11330F08983892F992781832981982F88273327CA
S11331002164822B932B8983892F9927818318AE7D
S11331101CAA1DAA1DAE1CAE1BAE80E88AAF61E0DE
S11331206093550740916803509169038FB7F894F1
S1133130282F3327809155019091560188309105AD
S113314011F0019711F02FBF15C082E090E0909329
S11331505601809355016093550C50933503409369
S11331603403109289012FBF0E94CA16882311F4D8
S11331700E94E91780E09927DF91CF911F910F9169
S11331800895CF93DF93DA01422F293218F082E0B9
S113319090E05EC0ED018B876E83872F99278F8324
S11331A02FB7F894332780912C0390912D032FBFD0
S11331B0FD018483892F992785832FB7F8943327BA
S11331C080910E0190910F012FBF8887892F992735
S11331D089873196818129819927982F88273327D8
S11331E020643868822B932B8983892F99278183C4
S11331F0435F4C934D5080911101882359F01092F4
S11332001101642FCD010E942F189927282F88239C
S1133210A9F417C0842F99279093650380936403BE
S1133220B0935A01A093590185E10E94A6018091AF
S11332301101882349F489E090E00AC08FEF80935C
S11332401101822F992704C010923E0380E090E080
S1133250DF91CF910895CF93DF93582FFB018230F4
S113326018F081E090E033C0C82FDD27CC0FDD1FBC
S1133270C055D44F88819981892B19F085E090E05D
S113328026C079836883435F40834D508091140145
S1133290823018F480E090E01AC083856781772734
S11332A0762F662726813327622B732B50931401C4
S11332B0242FAF010E94C1189927282F882329F0B1
S11332C082E08093140119821882822F9927DF915A
S11332D0CF910895CF92DF92EF92FF920F931F93B5
S11332E0CF93DF938C01F62E6A01E22E8FB7F89408
S11332F0C82FDD2760E080E00E941C08882321F0AD
S1133300CFBF80E090E01EC0CFBF0F0D111D802FF6
S113331080680E945A08F82E16950795802F807CA5
S11333200E945A080E2D0AC0EE2DFF27E01BF1095A
S1133330EC0DFD1D80810E945A0801500023A1F765
S11333408F2D9927DF91CF911F910F91FF90EF90CF
S1133350DF90CF900895CF93DF93CDB7DEB72C974E
S11333600FB6F894DEBF0FBECDBF8FB7F894282FE9
S1133370AE014F5F5F4FDA01E8E5F7E088E00190C6
S11333800D928150E1F780912C0390912D03898750
S1133390892F99278A8780915203909153038B87B1
S11333A0892F99278C872FBF2CE060E080E691E07D
S11333B00E946A192C960FB6F894DEBF0FBECDBFDB
S11333C0DF91CF9108951F93CF93DF93182F8FB779
S11333D0F894C82FDD2760E080E00E941C08882351
S11333E021F0CFBF80E090E005C0CFBF812F0E94C5
S11333F05A089927DF91CF911F91089583E00E9485
S1133400E31999270895CF93DF93C0988FB7F89461
S1133410C82FDD2780915001909151010297A1F5A9
S113342083E090E0909351018093500168E170E053
S11334308DE10E94711781E080935603109252012E
S113344080B3992776E0969587957A95E1F7817010
S113345090708093570380E10E94A60181E00E944E
S1133460E3196FE772E08CE10E9471170E94D21792
S11334700E94981766E57AE287E10E9471176FEF60
S113348070E885E10E947117CFBFDF91CF91089555
S113349089E00E94E31999270895EF92FF920F9310
S11334A01F93CF93DF93182F7B01042F8FB7F894CA
S11334B0C82FDD2760E080E00E941C08882321F0EB
S11334C0CFBF80E090E014C0CFBF1064812F992754
S11334D090935B0380935A030E945A08182F402F3D
S11334E05527B70180E090E00E94D408812F9927E6
S11334F0DF91CF911F910F91FF90EF900895C098A5
S1133500609184017091850141E08FE30E944D1A1E
S1133510089582E090E09093E5018093E40181E0D6
S11335208093E40220E030E080910A01843011F4B9
S113353021E030E0232B29F484E00E943513882312
S113354019F40E947F1A089584E00E947216089567
S11335501F920F920FB60F9211242F933F934F9304
S11335605F936F937F938F939F93AF93BF93EF93E7
S1133570FF938091E4019091E501019749F482E081
S113358090E09093E5018093E4010E94891A05C0BC
S1133590809147028F5F80934702FF91EF91BF9123
S11335A0AF919F918F917F916F915F914F913F91D7
S11335B02F910F900FBE0F901F9018951F9380911D
S11335C05301882309F04BC010910A011F3F09F0F1
S11335D046C060E00E941C08882309F440C081E0D2
S11335E080935C0B8091AD018823E1F110925C0B18
S11335F085E090E045C0923069F5C09A80910B0156
S113360020E030E08F3F11F421E030E0232BE9F497
S113361010930D018F3F19F42FEF30E00DC0282FC8
S11336203327F901E45BFC4F808180930B018F3FCA
S113363011F410930C01108320934A0281E08093CB
S1133640540183E10E94A60105C010930D0110925C
S1133650540111C080915401882369F00FC081E0A6
S113366090E00EC080910D0190915401882319F2CD
S1133670923021F0EFCF80E00E94390880E090E0A2
S11336801F9108951F93CF93DF939FB7F894C92F89
S1133690DD271C2F90910A01981721F0CFBF81E0FC
S11336A090E03AC08FEF80930A01309153013323A5
S11336B0F1F48FB7F8949927109251078FBF0E94A5
S11336C0DE1ACFBF11C020930A0181E090E002C04E
S11336D0880F991F4A95E2F7809538233093530158
S11336E081E10E94A6011FBF80E090E015C080E048
S11336F065E0E32FFF270E94B73F292F492F552765
S1133700CF01042E02C0959587950A94E2F780FDB7
S1133710DACF822F8F5FEFCFDF91CF911F91089582
S113372082E00E94421B9927089583E00E94421B75
S1133730992708951F93CF93DF938FB7F894C82FD9
S1133740DD271C2F8091E4019091E501892B29F458
S113375084E00E94421BCFBF1EC01092E4028091FD
S11337604702882311F0B79904C00E9908C0882332
S113377019F08150809347020E94891A0BC081E09E
S113378090E09093E5018093E4011092470284E075
S11337900E94421B1FBFDF91CF911F9108950E9489
S11337A0D10BC09AC09888E00E94E31988E00E9477
S11337B0E319C09A84E00E94421B0E949A1B089558
S11337C09F92AF92BF92CF92DF92EF92FF920F93AC
S11337D01F93CF93DF93CDB7DEB722970FB6F8943C
S11337E0DEBF0FBECDBF10926303A0902B07B09035
S11337F02C078091FD0B8330D1F0843028F4813084
S113380071F0823080F407C08530C9F0853098F0BB
S11338108630E9F418C080E00E946F0486C281E01B
S11338200E946F0428C082E00E946F042DC083E0D0
S11338300E946F0432C084E00E946F0430C185E0AE
S11338400E946F047EC186E00E946F0485C18330AC
S113385021F1843030F4813071F0823009F065C296
S113386013C0853009F46DC1853008F418C1863061
S113387009F05BC271C180E00E94E113B092490378
S1133880A092480381E05AC181E00E94E113B09202
S11338902405A092230580E05CC180E00E94E80535
S11338A0882309F47AC09090790B8FB7F894C82EC6
S11338B080916E01833009F041C080911D0189150A
S11338C0E9F580913A05882309F00BC201C2ED2D78
S11338D0E695E695E695FF274D2D5527E65CFA4FCC
S11338E09A012770307081E090E002C0880F991F20
S11338F02A95E2F7809520812823208300936D0187
S113390012C00F5F1F4F0130110511F400E010E0E9
S1133910D02E802F0E94FD058823C9F60E151F05A1
S113392081F74FEF50E04093C8058FEF80931D015E
S113393081E080936E0182E20E94A601CFBE9920AD
S113394061F5B092A301A092A2018FB7F894082F59
S1133950112780917901882389F491E0909379016A
S1133960109256070FBF80917A01882321F48FE2C9
S11339700E94A60112C090937B010FC0809156074C
S1133980882351F080E00E947B05882329F48091EC
S1133990500C81608093500C0FBF81E00E94E805B9
S11339A0882309F4C2C190905E038FB7F894C82E9F
S11339B080917001833009F041C080911E01891506
S11339C0E9F580918A0B882309F09AC190C1ED2D05
S11339D0E695E695E695FF274D2D5527E657F44FD6
S11339E09A012770307081E090E002C0880F991F1F
S11339F02A95E2F7809520812823208300936F0184
S1133A0012C00F5F1F4F0130110511F400E010E0E8
S1133A10D02E802F0E9411068823C9F60E151F058B
S1133A2081F74FEF50E04093A1018FEF80931E0187
S1133A3081E08093700183E20E94A601CFBE9920A9
S1133A4009F073C1B0929001A0928F018FB7F894DE
S1133A50082F112780916E01882389F491E09093B7
S1133A606E011092C8050FBF80917101882321F463
S1133A7084E20E94A60159C19093720156C18091BB
S1133A80C805882351F080E00E94FD05882329F4AD
S1133A9080913A05816080933A050FBF46C18FB784
S1133AA0F894C82E80917901833009F041C0809147
S1133AB023018823E9F58091500C882309F02FC154
S1133AC025C1ED2DE695E695E695FF274D2D552765
S1133AD0E05BF34F9A012770307081E090E002C000
S1133AE0880F991F2A95E2F7809520812823208347
S1133AF00093780112C00F5F1F4F0130110511F4BC
S1133B0000E010E0D02E802F0E947B058823C9F6A8
S1133B100E151F0581F74FEF50E0409356078FEFC6
S1133B208093230181E0809379018EE20E94A601B3
S1133B30CFBEB0922F07A0922E0780E00E94A3056B
S1133B40F4C080E00E947213B092E602A092E502F3
S1133B5081E00E943605E9C081E00E9472131A8256
S1133B601982B6EEEB2EB1E0FB2E66E1C7010E948E
S1133B70EF048C018091000190910101F80181838F
S1133B80892F99278083CE0101960E94FB048981A5
S1133B909A81F8018383892F99278283809138033E
S1133BA0909139038583892F992784838091060C0A
S1133BB09091070C8783892F9927868380918F01A1
S1133BC0909190018187892F992780878091A20104
S1133BD09091A3018387892F9927828780912E074B
S1133BE090912F078587892F99278487809148038F
S1133BF0909149038787892F992786878091230588
S1133C0090912405818B892F9927808B8091E502DF
S1133C109091E602838B892F9927828BA58A8B2D1D
S1133C209927848B2FB7F89433278BB394E0892793
S1133C308BBB2FBF80913401882309F076C080911B
S1133C403501882309F071C080915B0181FF3CC07C
S1133C508BE28093E60120910001309101012093D1
S1133C60F701232F33272093F6019091A9019F5F39
S1133C709093A90191509093F8018093F9011092C7
S1133C80F301E091090CF0910A0C3097E9F0F1820C
S1133C90E08212828EE18383CF010E940E05882385
S1133CA099F480915B0182FF05C084FD03C086E125
S1133CB00E94A60110920A0C1092090C81E08093D4
S1133CC035010E942D0531C0DA98D998D8982DC0B5
S1133CD081E080931D0110926E018093710185E251
S1133CE02BCE80916D01E82EFF2487010ACE81E05E
S1133CF080931E01109270018093730187E29CCE21
S1133D0080916F01E82EFF2487017BCE81E08093B0
S1133D1023011092790180937A0180E307CF809187
S1133D207801E82EFF248701E6CE22960FB6F89498
S1133D30DEBF0FBECDBFDF91CF911F910F91FF90DA
S1133D40EF90DF90CF90BF90AF909F9008951F9316
S1133D50182F81E090E090935601809355011092C2
S1133D60AD010E94DE1A8FB7F894992710934F0182
S1133D708FBF8DE00E94A6011F9108951F93182FF5
S1133D800E9444038091F8068A7F8093F80680930A
S1133D9074000E9444038091F80684608093F806BE
S1133DA08093740081E08093760180917701882369
S1133DB0E1F480912201882319F08130B1F40BC021
S1133DC00E94C70380E00E94DC14112311F48AE2EC
S1133DD00AC08BE208C00E94C70381E00E94DC1481
S1133DE01093450281E30E94A6011F910895CF928A
S1133DF0DF92FF920F931F93CF93DF93082F6B01F2
S1133E00F42EE82FFF27EE0FFF1FE05DFA4F11821B
S1133E101082809109019927019662E070E00E9466
S1133E20D73F682F8093090110E0462F5527FA01E8
S1133E30EE0FFF1FE05DFA4FA081B181109799F05A
S1133E40E62FE695E695E695FF27EF5FF34F808131
S1133E5099279A012770307002C0959587952A9505
S1133E60E2F780FF0DC0CA01019662E070E00E9493
S1133E70D73F682F1F5F1230C1F6109309011AC093
S1133E80609309016230B0F4FD0135962481332733
S1133E90ED016D817727762F662781819927682B1D
S1133EA0792BAD0186810E941402882319F08AE0DF
S1133EB00E94A601002319F0013081F40BC081EAAD
S1133EC0C81682E0D80651F41092360180E00E94B0
S1133ED0A60104C06F2DC6010E946216DF91CF9126
S1133EE01F910F91FF90DF90CF900895EF92FF9272
S1133EF00F931F93F62EE22E9FB7F894292F3327A2
S1133F0090912201981711F02FBF9DC02FBF8FB73A
S1133F10F894282F332780917601813041F582E08F
S1133F20809376012FBF8FB7F89499275093370366
S1133F30409336031093490200934802E0928A01A9
S1133F4060936E0C1092890B109277018FBF0E94C0
S1133F5044038FB7F894182F9091F806916C9F7EC4
S1133F609093F8066F2D772760FD0BC011C088234E
S1133F7021F42FBF84E090E070C02FBF85E090E073
S1133F806CC090629093F80684E0809376015EC0E2
S1133F90EE2009F44AC083E0809376012091890BD6
S1133FA080918A01281778F4E0914802F09149023F
S1133FB0E20FF11D8081809373002F5F2093890BA2
S1133FC09093740047C0292F2E7F2093F806809188
S1133FD06E0C81FF07C08D7F80936E0C206120934F
S1133FE0F80603C09E779093F8068091F8068093B4
S1133FF0740081E08093760180912201882319F076
S1134000813041F507C00E94C70380E00E94DC14A0
S11340108AE208C00E94C70381E00E94DC14109267
S1134020450281E30E94A60115C061FF08C085E036
S1134030809376019F7B90619093F80607C081E09E
S1134040809376011FBF81E090E007C08091F8065D
S1134050809374001FBF80E090E01F910F91FF9048
S1134060EF9008951F920F920FB60F9211242F9381
S11340703F934F935F936F937F938F939F93AF93EC
S1134080BF93EF93FF930E944403809176018430A1
S113409009F4DAC0863021F0833009F002C141C04E
S11340A090917100987F80917701813041F4903430
S11340B0B1F583E0809376012091890B47C0983154
S11340C071F583E0809376019091890B80918A0148
S11340D02091F806981708F475C0922F9E7F90934C
S11340E0F80680916E0C81FF07C08D7F80936E0C63
S11340F090619093F80603C02E772093F806809180
S1134100F8068093740081E0809376018091220107
S1134110882309F487C0813009F0C3C08AC084E0D1
S1134120A8C0809177019091890B813009F044C037
S1134130E0914802F0914902E90FF11D809173006A
S113414080832091890B2F5F2093890B80918A01B2
S11341502817A0F43327992701972817390749F41A
S113416080916E0C82FD05C08091F8068F7B809350
S1134170F8068091F8068093740093C09091F80635
S1134180292F2E7F2093F80680916E0C81FF09C0A1
S11341908D7F80936E0C20612093F80680917100CE
S11341A003C09E779093F8068091F806809374007C
S11341B081E08093760175C080918A012091F80690
S11341C0981778F4E0914802F0914902E90FF11D43
S11341D08081809373009F5F9093890B2093740078
S11341E060C0922F9E7F9093F80680916E0C81FFA1
S11341F007C08D7F80936E0C90619093F80603C086
S11342002E772093F8068091F8068093740081E05D
S11342108093760180912201882321F0813009F076
S113422040C007C00E94C70380E00E94DC148AE2F9
S113423008C00E94C70381E00E94DC14109245026A
S113424081E30E94A6012DC080916E0C8E7F809325
S11342506E0C9091F8069F7D9093F8068091710002
S1134260887F883049F080917100887F803121F007
S113427081E00E94BE1E15C0392F30643093F806C9
S113428090913603990F20E080917701813009F4F1
S113429021E0922B9093730086E080937601309313
S11342A07400FF91EF91BF91AF919F918F917F9196
S11342B06F915F914F913F912F910F900FBE0F908F
S11342C01F901895CF92DF92EF92FF920F931F9356
S11342D0CFB6F894DD240E942307DC01CB0166E409
S11342E070E00E94C33F2BE0E22EF12CE80EF91E91
S11342F0F092520CE092510C0E94EC0B0027112713
S1134300A80197010E94A90CCFBE1F910F91FF90A5
S1134310EF90DF90CF9008951F93CF93DF938FB7E3
S1134320F894C82FDD271C2F8091550190915601D8
S11343300897C9F489E00E94E31983E00E94421BB4
S1134340C09A81E090E090935601809355018FB715
S1134350F894992723E020934F018FBF8DE00E94AA
S1134360A601CFBF30C0C0988091550C882311F0AE
S113437085E001C084E00E94E31983FD09C080E068
S11343800E94E31983FF04C085E090E020E003C0AD
S113439083E090E021E09093560180935501C09A08
S11343A01FBF222341F01092890183E00E94421B27
S11343B00E94622108C00E94EC0B20E431E040E03E
S11343C050E00E94A90CDF91CF911F910895EF92C4
S11343D0FF920F931F93CF93DF938B0180915A0326
S11343E090915B0386FF40C18F7B8F3309F08EC1B0
S11343F0C0918401D0918501588150932902809104
S1134400E4019091E5018530910509F443C08630BB
S1134410910509F48AC0029709F01FC185E090E074
S11344209093E5018093E4014091A801852F992799
S11344300196242F3327281739074CF1B79906C062
S11344400E9904C0451B41504093A8014091290294
S11344504633E8F44423A1F0BE016F5F7F4F483038
S113446018F047E050E007C086E090E09093E50143
S11344708093E401552780E090E00E94D40846C16F
S11344801092E402C09A84E00E94421BE3C00E949E
S1134490CF1B3CC186E090E09093E5018093E4015A
S11344A080913303882309F439C080915707882306
S11344B0A9F5898185FF32C08F814E812FB7F89489
S11344C0332760915203709153032FBF9927982F7C
S11344D088275527842B952B8617970759F08F81AA
S11344E02E819927982F88273327822B932B8F5F30
S11344F09F4FA1F489818770813081F4C09AC0985C
S11345008AE00E94E319C09AC0984091290247505A
S11345102896BE018FE30E944D1AF8C040912902EB
S1134520475055272896BE01A6CFC09A80914702CE
S1134530882339F484E00E94421B80914702882337
S113454011F0B7990AC00E9B08C09091F40B9923FF
S113455021F0809129028B3038F48091840190916C
S113456085010E94DD0B3DC0913001F5E091FE0B09
S1134570FF27EE0FFF1FEE0FFF1FE057F44F2081C0
S1134580318142815381E0918401F091850125AF0D
S1134590BB27A52F942F832F84AFCA01AA27BB273B
S11345A083AF252F33274427552722AF8091FE0B55
S11345B09927019668E070E00E94D73F8093FE0B34
S11345C08091F40B81508093F40B882351F08091F7
S11345D08401909185010E94DD0B1092FE0B1092D4
S11345E0F40B80912902FE01E80FF11D808187FF01
S11345F031C0012B79F169816770E0918401F091F8
S11346008501623019F5A0913403B09135031097F8
S113461009F180915501909156010797D9F4ED0164
S11346209B8183819817B1F487B78F7E87BF908170
S113463081E088AFE90FF11D829131968CAB8081C6
S11346408F778DAB80E00E94A71E04C0613011F407
S113465084E12AC00E949A1B59C01092E402C09AB5
S113466084E00E94421B52C08E3309F04FC0C09AAE
S113467080915501909156010897C9F4C09889E03A
S11346800E94E319C09A83E00E94421B81E090E0FB
S113469090935601809355018FB7F894992723E09E
S11346A020934F018FBF8DE00E94A6012FC08091FF
S11346B0550C882349F484E090E09093560180934C
S11346C055010E948C2122C083E00E94421B83E09A
S11346D090E090935601809355010E942307DC01DA
S11346E0CB0166E371E00E94C33F3BE0E32EF12C73
S11346F0E80EF91EF092A001E0929F010E94EC0BDB
S113470000271127A80197010E94A90CDF91CF91DE
S11347101F910F91FF90EF9008951F920F920FB683
S11347200F9211242F933F934F935F936F937F9333
S11347308F939F93AF93BF93EF93FF932FB1E09128
S1134740B606F091B706309739F080912E05909116
S11347502F05E80FF91F208380912E0590912F05D6
S1134760019690932F0580932E0580E00E943F08C8
S1134770409187015091880180912E0590912F05D9
S11347808417950718F40E9466081CC06091B60649
S11347907091B70680910B0C90910C0C1092B70697
S11347A01092B60610920C0C10920B0C1092880109
S11347B01092870110922F0510922E052FB120E040
S11347C00E94E721FF91EF91BF91AF919F918F914B
S11347D07F916F915F914F913F912F910F900FBEF9
S11347E00F901F9018950F931F930FB7F8941127EC
S11347F040918701509188016091B6067091B70687
S113480080910B0C90910C0C1092B7061092B60686
S113481010920C0C10920B0C1092880110928701CC
S113482010922F0510922E0520E00E94E7210FBF61
S11348301F910F91089578941F920F920FB60F92C3
S113484011242F923F924F925F926F927F928F9298
S11348509F92AF92BF92CF92DF92EF92FF920F930B
S11348601F932F933F934F935F936F937F938F93F4
S11348709F93AF93BF93CF93DF93EF93FF93C6B50B
S1134880D7B58FB7F894282E0E94EC0B9B012C1BF4
S11348903D0B442755272B013C01421A530A640A55
S11348A0750A80915501909156018530910521F04A
S11348B0069709F0E0C0BFC086E090E090935601EF
S11348C08093550131E0332E3092A00210925701AB
S11348D080E00E94C40CE0913403F091350345AEAE
S11348E0BB27A72D962D852D84AFC301AA27BB27EF
S11348F083AF872D9927AA27BB2782AFE091340382
S1134900F091350381AD882309F484C0608165503A
S113491077274F01860E971EF4012081E180828162
S1134920A3809927AA27BB27BA2FA92F982F8827B6
S1134930332744275527522F442733272227FF2480
S1134940002711278701FF24EE242E293F29402B1D
S1134950512BBB24CC24DD242A293B294C295D2955
S1134960822B932BA42BB52B84199509A609B7097F
S11349708383292F3A2F4B2F552722839D014427C8
S1134980552721838B2F9927AA27BB278083C0987B
S113499024E0A40180E090E00E946A19C09AF40126
S11349A02081E1808281A3809927AA27BB27BA2F7F
S11349B0A92F982F8827332744275527522F442778
S11349C033272227FF24002711278701FF24EE2401
S11349D02E293F29402B512BBB24CC24DD242A290A
S11349E03B294C295D29822B932BA42BB52B840DB9
S11349F0951DA61DB71D8383292F3A2F4B2F5527AD
S1134A0022839D014427552721838B2F9927AA2789
S1134A10BB278083E0913403F0913503818185FFC6
S1134A2002C03092AD0183E00E94421B87B78F7EA3
S1134A3087BF84997AC01092A00281E00E94C40CBE
S1134A40E0913403F0913503818185FF0FC087E045
S1134A5090E090935601809355010E94EC0B20E066
S1134A6031E040E050E00E94A90C03C080E00E94C5
S1134A70A71E849B5AC080915701882391F5809189
S1134A80A002882371F511E01093A0020E94C40CC7
S1134A9080B32091F40B283098F4E091FE0BE20FE0
S1134AA0FF27E770F070EE0FFF1FEE0FFF1FE057B8
S1134AB0F44F40825182628273822F5F2093F40B01
S1134AC010935701D0935D03C0935C0384992DC068
S1134AD0992724E0969587952A95E1F7182F117068
S1134AE001C010E08091A0028130F9F41092A0027C
S1134AF00E94C40C109257011123B9F480915C03F5
S1134B0090915D03C81BD90B2A9778F48091F40B1C
S1134B10882319F081508093F40B80913403909191
S1134B203503009711F00E94DD0B2FBEFF91EF912A
S1134B30DF91CF91BF91AF919F918F917F916F91B1
S1134B405F914F913F912F911F910F91FF90EF90A3
S1134B50DF90CF90BF90AF909F908F907F906F9099
S1134B605F904F903F902F900F900FBE0F901F902B
S1134B70189578941F920F920FB60F9211241F93D9
S1134B802F933F934F935F936F937F938F939F9351
S1134B90AF93BF93EF93FF9387B78F7E87BF7894CC
S1134BA01FB7F8948091440390914503A091460364
S1134BB0B09147030097A105B10509F051C0809158
S1134BC05501909156018530910561F1863091052A
S1134BD030F48330910549F0049781F51AC0873089
S1134BE09105F1F0089751F514C0869B0FC084E03D
S1134BF090E090935601809355010E94EC0B27E0BE
S1134C0030E040E050E00E94A90C18C00E946221EC
S1134C1015C00E94CA16882389F40E948C210EC0F4
S1134C2080E00AC089E00E94E31981E00E94C40C7C
S1134C3083E00E94421B87E00E94A71E80915001DE
S1134C4090915101019771F482E090E090935101A9
S1134C5080935001DE98DE9A80E00E94721602C0B2
S1134C600E94090C812F99278FBFFF91EF91BF916B
S1134C70AF919F918F917F916F915F914F913F91F0
S1134C802F911F910F900FBE0F901F90189561E008
S1134C9081E00E9402088823E9F48FB7F894282F52
S1134CA033278091500190915101892B11F02FBF2E
S1134CB020C081E090E090935101809350012FBF78
S1134CC0DD9A0E94EC0B24E130E040E050E00E94C9
S1134CD0A90C0FC062E081E00E941C08882319F02F
S1134CE089E090E0089561E081E00E941C08882337
S1134CF019F080E090E0089585E090E00895EF9247
S1134D000F931F93A49AAC9A0E94EA02AB01BC01D0
S1134D10E1E0EE2E01E110E020E030E088E00E94C6
S1134D20CB0280E090E01F910F91EF900895EF92F5
S1134D300F931F93A09AA89A0E94EA02AB01BC01A8
S1134D40F1E0EF2E0AE010E020E030E089E00E947C
S1134D50CB021F910F91EF900895EF920F931F9341
S1134D60A59AAD9A0E94EA02AB01BC01A1E0EA2E29
S1134D7004E610E020E030E08BE00E94CB0280E00B
S1134D8090E01F910F91EF900895AF92BF92CF9250
S1134D90DF92EF920F931F935B016C010E94EA0272
S1134DA0AB01BC01B1E0EB2E9601850186E00E94C7
S1134DB0CB021F910F91EF90DF90CF90BF90AF90F7
S1134DC00895CF92DF92EF92FF920F931F936C019D
S1134DD07B010E942307DC01CB01B6010E94C33F83
S1134DE0E80EF91E00271127C801B7010E94C52645
S1134DF01F910F91FF90EF90DF90CF900895AF92A5
S1134E00BF92CF92DF92EF920F931F935B016C01DD
S1134E100E94EA02AB01BC0111E0E12E960185017A
S1134E2084E00E94CB021F910F91EF90DF90CF900E
S1134E30BF90AF900895EF92FF920F931F938091CC
S1134E40160190911701A0911801B0911901B6951E
S1134E50A7959795879580939C0290939D02A09324
S1134E609E02B0939F020E942307E0909C02F09060
S1134E709D0200919E0210919F02A80197010E9439
S1134E80EA3F6E0D7F1D801F911F60939C027093FB
S1134E909D0280939E0290939F021092780B0E9431
S1134EA0FF261F910F91FF90EF90089580E890E006
S1134EB0A0E0B0E08093160190931701A09318012D
S1134EC0B09319010E941B270895EF92FF920F934C
S1134ED01F93CF93DF930FB7F894112781E00E94BB
S1134EE0C40C81E0E82EF12CF0925601E0925501B9
S1134EF0109257011092AD01109241020FBF0FB7EB
S1134F00F89411270E94D10BF092E501E092E4019C
S1134F101092E40289B78F7B89BF80E488BF8AB787
S1134F2080628ABF8AB78F7E8ABF89B7806489BF4F
S1134F300FBF8FB7F894C82FDD278091500190914F
S1134F405101049719F483E00E94E319CFBF0FB70E
S1134F50F8941127C09A80E00E94421B0FBF8FB7BC
S1134F60F894992722E0209352078FBF01E0009321
S1134F70610180916201882311F00E9423078091CE
S1134F805B01846080935B0190E080915E018823E3
S1134F9009F491E0992319F486E10E94A601809115
S1134FA05B01826080935B01809162018823B9F484
S1134FB00093620180E890E0A0E0B0E080931601E5
S1134FC090931701A0931801B09319010E941B2715
S1134FD040E050E260E070E085E00E94D70C8091F0
S1134FE034018823E1F040917F0B5091800B2FB75F
S1134FF0F89433270093920180914A0790914B07CC
S11350009093800B80937F0B1092820B1092810BF4
S11350102FBF4F5F5F4F19F486E10E94A601DF9115
S1135020CF911F910F91FF90EF9008952F923F928F
S11350304F925F926F927F928F929F92AF92BF92A4
S1135040CF92DF92EF92FF920F931F93CF93DF9350
S1135050CDB7DEB7AD970FB6F894DEBF0FBECDBFA8
S1135060A0918401B0918501FC909D012F0D311D0B
S1135070F9018081881F8827881FFD0187ABF9010A
S113508080818F77FD0185AB21503040F90180810B
S1135090FD0184ABA0918401B0918501FD013281B1
S11350A08FB7F8949927209146028FBF222309F4E1
S11350B090C0832F992796958795969587958370A9
S11350C090708230910541F5878146812FB7F8941D
S11350D0332760915203709153032FBF9927982F60
S11350E088275527842B952B8617970719F481E079
S11350F090E06CC0FD018781268140E050E0992753
S1135100982F88273327822B932B8F5F9F4F11F47F
S113511041E050E0CA015AC0039709F0F4C39E016C
S11351202D5F3F4F48E557E088E0FA010190AF0159
S1135130F90101929F018150C1F79E012D5D3F4FFE
S1135140AE014D5F5F4F88E0FA010190AF01F901B4
S113515001929F018150C1F79E01255F3F4FAE012F
S11351604D5D5F4F88E0FA010190AF01F9010192B2
S11351709F018150C1F79E012D5E3F4FAE01455FF7
S11351805F4F88E0FA010190AF01F90101929F019C
S11351908150C1F79E01255E3F4FAE014D5E5F4FCA
S11351A088E0FA010190AF01F90101929F01815059
S11351B0C1F748E050E0BE01655E7F4FCD01069621
S11351C00E946240892B09F09EC303C0882309F41E
S11351D09AC3FCE0FF1508F096C3C0908401D090F8
S11351E08501DDA6CCA6F6012281822F992716E03F
S11351F0969587951A95E1F7039719F468E070E09E
S113520002C062E070E0822F992796958795969563
S1135210879583709070039719F488E090E002C03A
S113522082E090E026E030E0C20ED31E40E050E081
S113523020E030E0F601E80FF91F8AEF9FEFC80E77
S1135240D91E05C08191480F511D2F5F3F4F26176E
S11352503707C4F3F60163818FEF8093050C8FB792
S1135260F894782F20E030E0E3E9F1E08081918147
S11352708417950731F48281861709F41EC320939D
S1135280050C2F5F3F4F33962430310579F77FBFEC
S11352909091050C3FB7F8949F3F21F080915801FD
S11352A0891799F420915801822F9927FC01EE0F58
S11352B0FF1FE80FF91FED56FE4F518340836283B1
S11352C02F5F2370209358010CC0892F9927FC016C
S11352D0EE0FFF1FE80FF91FED56FE4F5183408379
S11352E06283832F99278FBF0FB7F8941127C601C4
S11352F00E94BE07FC0190810FBFF60187A9882395
S113530009F4F0C29F3309F0EDC2878146812FB7BB
S1135310F894332760910E0170910F012FBF9927E4
S1135320982F88275527842B952B8617970761F08C
S1135330878126819927982F88273327822B932BBF
S11353408F5F9F4F09F0D5C2AF2DAD50F601838515
S11353509927803721F0813709F0C4C296C1F6013C
S1135360878126819927982F88273327822B932B8F
S11353708F5F9F4F09F08EC0F601818520859927A4
S1135380F82EEE243327E22AF32A04850E94850AA4
S1135390C7010E94D7068F3F21F0F6016585772764
S11353A00CC00E943D0B182F8F3F51F0B7010E9493
S11353B04F0BF60165857727812F0E94860A1CC052
S11353C087E30E94640B182F8F3F09F461C099276B
S11353D0880F991FFC01A3E0EE0FFF1FAA95E1F7C8
S11353E0E81BF90BE55CFA4F808191810E942F172D
S11353F0B701812F0E944F0B7FE0972E902209F472
S113540047C0F60180818D50893218F020E030E0E9
S113541003C09601245F3F4F8901080F111D83E0EB
S1135420989EC0011124081B190B8FB7F894992773
S113543060900E0170900F018FBFBB2483E0B89E73
S1135440F0011124E00FF11F808121819927982F09
S113545088273327822B932B86159705B1F4A280D6
S1135460C7010E94D7068F3F81F09927880F991FA3
S1135470FC0143E0EE0FFF1F4A95E1F7E81BF90B2F
S1135480E55CFA4FA18686E08783B394B914B1F63C
S11354900E94850AC6010E94C20B182F682FC601FC
S11354A00E94AC077C01153009F01CC2F60111857D
S11354B0008560E4C6010E94AD0B8BA747010894E8
S11354C0811C911CF701818114010894211C311C59
S11354D0F40121819927982F88273327822B932B36
S11354E08F5F9F4F09F4C9C0812F9927B82EAA2432
S11354F0802F9927A82AB92AB3E04B2E512C4E0CA1
S11355005F1CF7018381A4E06A2E712C6E0C7F1C52
S113551024819927982F88273327822B932B892B33
S113552049F5C5010E94D7068F3F09F50E943D0B3E
S11355308F3F11F0B50119C080E00E94640B182F51
S11355408F3FA9F09927880F991FFC0163E0EE0FA4
S1135550FF1F6A95E1F7E81BF90BE55CFA4F8081C0
S113556091810E942F17B501812F0E944F0BC50115
S11355700E940907F201F080F301E080F4019080B9
S1135580F1018080C5010E94EF068C01C5010E94D3
S11355908D0BE82F8A3009F446C08F2D9927782F78
S11355A066278E2D9927682B792B892D9927582FBB
S11355B04427882D9927482B592B8091AB01E81754
S11355C0F1F40233110578F52FB7F8943327FF2748
S11355D033E0EE0FFF1F3A95E1F7E45BFD4FB18234
S11355E0A082538342837583648381E08683178218
S11355F08091AB018F5F8093AB012FBF14C08FB735
S1135600F8949927FF2793E0EE0FFF1F9A95E1F78F
S1135610E45BFD4FB182A08253834283758364832C
S113562021E026838FBF80911501882331F5C501C0
S11356300E948D0BE82F8091AB01E81750F4FF27EF
S113564003E0EE0FFF1F0A95E1F7E45BFD4F2BA586
S113565027838091840B882319F03BA5332351F0D1
S113566080917F0B9091800B8A159B0531F48BA55B
S1135670882319F089E10E94A60160E8C6010E940E
S1135680AD0B882309F42EC11FC1F601F38885856B
S11356908F5F8587A93208F025C1C6010E94490998
S11356A020E090919101891708F421E0222309F068
S11356B019C120915E01822F9927B82F882309F4FC
S11356C041C0A0915C01A20FA150B150AD3010F4C3
S11356D0EA2F02C0EA2FED50FF27EE0FFF1FE25A18
S11356E0F44F0190F081E02D00811181F8012089AF
S11356F04189F601808961893327322F2227552772
S1135700242B352B9927982F88277727862B972B9F
S11357102817390709F0F2C0F8019289F601828945
S1135720981709F0EBC0F8019585F601858598175F
S113573009F0E4C0F8019389F6018389981709F008
S1135740DDC0D0C0809192018823A9F0F601808148
S11357508551082F1127602FC6010E94EF04BC0158
S1135760FBE2FF1609F0BEC0402FC6010E94340AB6
S11357709DA78CA7B7C080E020916703222309F47A
S113578081E0882309F0AEC090916603992309F45F
S113579081E0882309F0A6C0992309F4A3C080916D
S11357A0020CE82FFF27EE0FFF1FEA5AF34F008188
S11357B01181118210829150909366038F5F8093C0
S11357C0020C8C3011F41092020C0115110509F42D
S11357D089C0222309F486C080913F03E82FFF2764
S11357E0EE0FFF1FEE5CF84FE080F1801182108213
S11357F02150209367038F5F80933F038C3011F413
S113580010923F03E114F10409F46CC080E4F70141
S113581011928A95E9F724E330E0C20ED31E8CE09E
S1135820F60111928A95E9F72CEC3FEFC20ED31ED4
S1135830F801D182C0828FEF82838EE18383C80115
S11358400E940E05882391F5CE0101960E94D0098D
S1135850882311F5F601868527859927982F8827AF
S11358603327822B932B29813A8128173907A0F0FB
S113587080E890E0A0E0B0E08093160190931701D7
S1135880A0931801B09319010E941B276CE170E0EA
S11358908CE190E00E94E1268091080681FD03C01E
S11358A086E10E94A601FDA6ECA61CC0C7010E94C9
S11358B09209C8010E94B10915C07FBF13C0F60147
S11358C084858078803871F480E890E0A0E0B0E0CE
S11358D08093160190931701A0931801B0931901B6
S11358E00E941B272CA53DA530938501209384019C
S11358F00AC0F60183858137A9F7E1CFA150BB2304
S113590009F0E3CE1FCF8FB7F89499271092E402E1
S11359108FBF0E949A1BAD960FB6F894DEBF0FBEE0
S1135920CDBFDF91CF911F910F91FF90EF90DF904A
S1135930CF90BF90AF909F908F907F906F905F902B
S11359404F903F902F900895AF92BF92CF92DF92E5
S1135950EF920F931F935B016C010E94EA02AB016B
S1135960BC01E1E0EE2E9601850180E00E94CB02AD
S11359701F910F91EF90DF90CF90BF90AF9008955B
S1135980EF92FF920F931F93CF93DF937C01EC016F
S11359908A818823A9F4F0920A0CE092090C8A8186
S11359A0882309F08FC0665E714009F08BC01092A5
S11359B0350164E670E080E090E00E94A42C82C08F
S11359C0442309F477C0E70108811981809191018A
S11359D0843009F046C0C8010E9449092091910110
S11359E0622F0E94B73F492F9217D8F5992359F493
S11359F0809122059927019664E070E00E94D73FC8
S1135A008093220529C080912205840F912D911D38
S1135A109C0123703070E901CC0FDD1FCC0FDD1F1A
S1135A20C20FD31F019664E070E00E94D73FFC01CF
S1135A30EE0FFF1FEE0FFF1FE80FF91FC55DDD4FCF
S1135A40E55DFD4F85E0019009928150E1F74F5FDC
S1135A50809191014817B8F280919101815080930F
S1135A6091014091910180912205840F912D911D06
S1135A7083709070D8011C96FC01EE0FFF1FEE0F8F
S1135A80FF1FE80FF91FE55DFD4FE801888999279D
S1135A90982F882729893327822B932B91838083FE
S1135AA0ED018E818283898184838F8183834F5F1B
S1135AB040939101F701808191810E949209C7016D
S1135AC00E94B109DF91CF911F910F91FF90EF9048
S1135AD008950F931F93CF93DF93EC01E0915C0142
S1135AE0FF27EE0FFF1FE25AF44F00811181662356
S1135AF029F06CE170E08CE190E02FC080915B01B3
S1135B0083FF3DC088AD8823D1F58F819927982FD5
S1135B1088272E813327822B932B0E94D706982F18
S1135B208F3F71F08EE0989FF0011124E55CFA4FED
S1135B3085858F5F8587853018F0CF010E94130912
S1135B4089E10E94A601F80183818150838388231F
S1135B5039F067E070E087E090E00E94E1263FC002
S1135B600E942E0980915B018F7E80935B0167E028
S1135B7070E087E090E00E94E12640E02CC00E94A3
S1135B802E0980915B018F7E80935B0167E070E05A
S1135B9087E090E00E94E1268F819927982F88273B
S1135BA02E813327822B932B0E94D706982F8F3F69
S1135BB089F08EE0989FF0011124E55CFA4F84850A
S1135BC08F5F848785858F5F8587853018F0CF0147
S1135BD00E94130941E0BE01C8010E94C02CDF915C
S1135BE0CF911F910F910895282FCB01222319F0F3
S1135BF0213071F404C0642F0E94692D0895685EF9
S1135C00724031F480916301882311F01092630192
S1135C100895FF920F931F93CF93DF93082FEB0107
S1135C20F42EE82FFF27EE0FFF1FE055F44F1182EB
S1135C301082809114019927019662E070E00E941D
S1135C40D73F682F8093140110E0462F5527FA019F
S1135C50EE0FFF1FE055F44FA081B181109799F02A
S1135C60E62FE695E695E695FF27EE5BFC4F8081EF
S1135C7099279A012770307002C0959587952A95C7
S1135C80E2F780FF0DC0CA01019662E070E00E9455
S1135C90D73F682F1F5F1230C1F61093140119C04B
S1135CA0609314016230A8F42C912D503327FD0128
S1135CB067817727762F662786819927682B792B2A
S1135CC0AD0183850E94C118882319F088E10E94E0
S1135CD0A601002319F0013079F405C06F2DCE011F
S1135CE00E94692D09C0C85ED24031F480916301DD
