:100000000C945F000C9415050C941F050C942905A5
:100010000C9433050C943D050C9447050C94020C8C
:100020000C9451050C947E000C947E000C94BE162A
:100030000C94A20D0C94A9050C94BF050C946605B4
:100040000C9477060C94D60F0C947E000C947E00D2
:100050000C947E000C94DF050C947E000C947E00C2
:100060000C94B4050C947E000C947E000C947E00DD
:100070000C947E000C947E000C947E000C947E0008
:100080000C947E000C94FD060C947E005C106E10A7
:10009000C910D510B214D9100C1164118611FE11BB
:1000A000041252126D127412AD12631387139B1354
:1000B0004C1454109814A61400081C181410112481
:1000C0001FBECFEFD0E1DEBFCDBF11E0A0E0B1E0B9
:1000D000E2E4FAE300E00BBF02C007900D92AC32FD
:1000E000B107D9F713E0ACE2B1E001C01D92AE3721
:1000F000B107E1F70E94DA140C94201D0C94000063
:100100008FB7F894992708958FBF0895282F9FB728
:10011000F894662349F0E82FFF27E353FD4F8081D1
:10012000882311F021E006C0E22FFF27E353FD4FA3
:10013000608320E0892F99278FBF822F9927089508
:10014000E82F8FB7F894282F332790E0FF27E35349
:10015000FD4F8081861709F491E02FBF892F9927E1
:100160000895882311F06E9A08956E980895882353
:1001700011F06F9A08956F98089580E00E94B10081
:10018000BA9ABB98B99A6C9A80E00E94B700709AAC
:100190006B986A98689881E00E94B10008950F9367
:1001A0001F93CF93DF93182F8FB7F894C82FDD27B5
:1001B0000C2F61E080E00E948600882321F0CFBFF1
:1001C00085E090E024C0809115018823A1F48091FE
:1001D0003901823081F409C082E0809339011092A4
:1001E00015010E94BD00B89AC0981093120180E0DA
:1001F0000FBF99270CC080913901882369F38FB70D
:10020000F89499271092CD028FBF81E0F1CFDF9152
:10021000CF911F910F910895282F9FB7F894E82F41
:10022000FF27E25AFE4F80818F3F81F4E0917403F3
:10023000E21771F40BC02093310304C0FF27E25A88
:10024000FE4F20832093740320E007C025E005C003
:10025000809131038F3F91F7EECF892F99278FBF80
:10026000822F992708951F93182F81E00E94B100D3
:100270001FB9779BFECF8FB199271F910895FF92E9
:100280000F931F93CF93DF93F82E8B018FB7F894C2
:10029000C82FDD2760E080E00E94A000882321F0C5
:1002A000CFBF80E090E00CC0CFBF8F2D0E94330104
:1002B000812F99270E943301802F0E9433019927B3
:1002C000DF91CF911F910F91FF9008958F929F9290
:1002D000AF92BF92CF92DF92EF92FF920F931F9354
:1002E000CF93DF938FB7F8949927C0903903D090BC
:1002F0003A038090C4029090C502C091A202D091AE
:10030000A30220914201309143019AE0A92EB12C21
:10031000AC0EBD1E2A153B0508F459018FBF7401B0
:10032000EC0EFD1E86010C0F1D1F14C0C114D1045C
:1003300019F0F801808101C080E00E94330181142E
:10034000910411F0F701808321960894E11CF11CBF
:100350000F5F1F4FC5010197C817D90738F381E018
:100360000E94B7009FB7F894C114D10431F0CC0EAD
:10037000DD1EF60180818FB901C01FB8D093A302A2
:10038000C093A202892F99278FBF80E090E0DF9170
:10039000CF911F910F91FF90EF90DF90CF90BF9082
:1003A000AF909F908F9008952FB7F8943327509374
:1003B00043014093420190933A0380933903709331
:1003C000C5026093C4021092A3021092A2022FBF32
:1003D000452B29F08FB10E946601992708958FE07F
:1003E0000E940C0180E090E008958FB7F89499275F
:1003F0001092CF028FBF089580E880935C01109225
:100400008201109234031092300310927B01089500
:10041000CF93DF93FC0115A6DC019E96ED011B82B4
:100420001A82198280E886A7DF91CF9108952F92D2
:100430003F924F925F926F927F928F929F92AF9274
:10044000BF92CF92DF92EF92FF920F931F93CF93C1
:10045000DF93CDB7DEB728970FB6F894DEBF0FBE97
:10046000CDBF20908B0130908C0140908D01509039
:100470008E016624772488244EE4A42E33E8B32E1C
:10048000CC24DD24EE24FF2400E010E0222D332DC7
:10049000442D552D662D772D882D90E00E945E18F5
:1004A00029833A834B835C836D837E838F83988714
:1004B000822E932EA42EB52E2401350100E20E9437
:1004C0005C19A22EB32EC42ED52EC301B20196956F
:1004D0008795779567956A0D7B1D8C1D9D1D97FFF0
:1004E00005C09F776F5F7F4F8F4F9F4F60938B014A
:1004F00070938C0180938D0190938E0128960FB696
:10050000F894DEBF0FBECDBFDF91CF911F910F9149
:10051000FF90EF90DF90CF90BF90AF909F908F9023
:100520007F906F905F904F903F902F9008958FB77E
:10053000F8946091A6027091A7022CB53DB506B65D
:1005400002FE04C06F5F7F4F2CB53DB599278FBF6A
:1005500088279927CB017727662744275527622BC1
:10056000732B842B952B0895EF92FF920F931F937B
:100570000E9497027B018C0120919102309192029E
:100580004091930250919402809192019091930135
:10059000A0919401B0919501820F931FA41FB51FE4
:1005A000E216F3060407150730F082179307A40735
:1005B000B50758F005C082179307A407B507E0F503
:1005C000E816F9060A071B07B8F59C01AD012E19BC
:1005D0003F09400B510B213060E8360760E04607C9
:1005E00060E0560768F180E090E8A0E0B0E0E80E37
:1005F000F91E0A1F1B1FE0929102F09292020093D3
:1006000093021093940280E090E8AFEFBFEFE80E02
:10061000F91E0A1F1B1F20503048404050402093B5
:10062000920130939301409394015093950120E0FF
:1006300030E840E050E014C020E030E040E050E01E
:100640008093910290939202A0939302B0939402AC
:1006500010929201109293011092940110929501C0
:10066000A901B7012CB53DB5C9018E199F090396A3
:100670008417950720F0B9016D5F7F4F02C0640FAA
:10068000751F6115710511F461E070E061507040F3
:100690007BBD6ABD80E186BF87B7806187BF1F9140
:1006A0000F91FF90EF9008950F931F930FB7F89459
:1006B000112760939102709392028093930290931A
:1006C00094022093920130939301409394015093AC
:1006D00095010E94B4020FBF1F910F9108958FB72B
:1006E000F89499276091D4028FBF85E0689FB0018C
:1006F0001124625D7E4F706488E10E943F0108957D
:100700001F931FB7F89480917A01882319F460E051
:1007100070E009C060E080913803882309F461E04B
:1007200081E06827772780918601882319F480E08B
:1007300090E00AC090E08091D202882309F491E011
:1007400081E09827892F9927762F6627770F770FD3
:10075000770FE4E0880F991FEA95E1F7826E9262C5
:10076000682B792B81E10E943F01812F99278FBF50
:100770001F91089597B79F7D97BF90E296BF8823FA
:1007800019F08EB5806402C08EB58F7B8EBD87B7A1
:10079000806287BF80E090E00895EF920F931F93EF
:1007A000AE2D99E0899FF0011124E755FD4F40835C
:1007B0005183628373830483158326833783A170F7
:1007C00080858E7F8A2B8260808786E00E940C0164
:1007D0001F910F91EF9008957FB7F89462B7209121
:1007E000460130914701409148015091490106B6B8
:1007F00001FE0FC081B792B7280F311D411D511D59
:100800002F5F3F4F4F4F5F4F290F311D411D511D2E
:1008100004C0260F311D411D511D872F99278FBF01
:10082000CA01B9010895CF93DF93482F8FB7F89489
:10083000282F3327522F80912C01882359F581E0EE
:1008400080932C014093D3022FBF8FB7F894992740
:10085000379A8FBF8FB7F894C82FDD279C2F8091D0
:100860000D018130A9F480912C01813021F480E0C8
:100870000E940C0109C0823059F48091D302809308
:100880000D0183E080932C01CFBF80E090E024C075
:100890009FBFFBCF8091D302841711F42FBFF5CFF8
:1008A000842F869586958695E82FFF27E855FD4F7E
:1008B0002081477081E090E0982F01C0990F4A9500
:1008C000EAF7822F892319F085E090E004C0292BF4
:1008D000208380E090E05FBFDF91CF910895DF92A9
:1008E000EF92FF920F931F938FB7F894282F33271F
:1008F000D22E91B782B746B7981711F041FF02C0C8
:100900002FBF6AC08091A1028823E1F10E94EC030D
:10091000E090C902F090CA020091CB021091CC0283
:10092000209158013091590140915A0150915B0139
:100930006E197F09800B910B621773078407950767
:1009400020F01092A10271E01EC02E0D3F1D401F2D
:10095000511F8091460190914701A0914801B091AB
:100960004901281B390B4A0B5B0B273E310541051A
:10097000510540F4822F223010F070E005C070E085
:1009800082E002C070E086EE682F615000B601FC84
:10099000FDCF82B7681709F46F5F2091460130914F
:1009A00047014091480150914901DA01C90101967E
:1009B000A11DB11D860F911DA11DB11D82179307A9
:1009C000A407B50710F4622F609561BFDFBE7723DF
:1009D00019F085E00E940C011F910F91FF90EF909C
:1009E000DF900895AFB7F894BB27E1E0E093A10250
:1009F0006093C9027093CA028093CB029093CC0299
:100A0000209358013093590140935A0150935B0150
:100A1000AFBF0E946F0408958FB7F8949927209173
:100A200074002093C6028FBF08951F920F920FB6D5
:100A30000F9211240F900FBE0F901F9018951F92C8
:100A40000F920FB60F9211240F900FBE0F901F90B0
:100A500018951F920F920FB60F9211240F900FBE90
:100A60000F901F9018951F920F920FB60F9211249E
:100A70000F900FBE0F901F9018951F920F920FB6F8
:100A80000F9211240F900FBE0F901F9018951F9278
:100A90000F920FB60F9211240F900FBE0F901F9060
:100AA00018951F920F920FB60F9211240F900FBE40
:100AB0000F901F9018950E940C058091C6028E7FA2
:100AC00080698093C6028093740008951F920F92EC
:100AD0000FB60F9211242F933F934F935F936F9311
:100AE0007F938F939F93AF93BF93EF93FF9383B7BE
:100AF00083BF00B600FCFDCF81B799270196AA27D6
:100B0000BB27209146013091470140914801509107
:100B10004901280F391F4A1F5B1F2093460130935C
:100B20004701409348015093490178940E946F0413
:100B3000FF91EF91BF91AF919F918F917F916F91B5
:100B40005F914F913F912F910F900FBE0F901F908B
:100B5000189578941F920F920FB60F9211240F9050
:100B60000FBE0F901F90189578941F920F920FB69A
:100B70000F9211240F900FBE0F901F90189578942C
:100B80001F920F920FB60F9211242F933F938F93C2
:100B90009F932FB7F89433278091A6029091A702D4
:100BA00001969093A7028093A6022FBF9F918F91E9
:100BB0003F912F910F900FBE0F901F9018951F928D
:100BC0000F920FB60F9211240F931F932F933F9301
:100BD0004F935F936F937F938F939F93AF93BF9345
:100BE000EF93FF9364B175B178948FB7F894992718
:100BF00020917901422F4695417021708FBF2223A9
:100C000009F03CC033982FB7F89433278BB392E0A8
:100C100089278BBB2FBF0FB7F89411278091300124
:100C200090913101A0913201B09133010196A11D43
:100C3000B11D8093300190933101A0933201B093A4
:100C40003301242F33273F932F937F936F93BF93C9
:100C5000AF939F938F9380E091E09F938F930E9437
:100C6000781A0FBF87E00E940C018DB79EB70A96D5
:100C70000FB6F8949EBF0FBE8DBF26C08FB7F894F5
:100C800099278FBF2FB7F894332786B1582F577005
:100C9000482F4072987D942B952B8074977B982BCE
:100CA00090619F77892F992786B9887D842B852B22
:100CB00087738061992786B9887D842B852B877BF4
:100CC0008069992786B92FBFFF91EF91BF91AF91AE
:100CD0009F918F917F916F915F914F913F912F9154
:100CE0001F910F910F900FBE0F901F9018951F929C
:100CF0000F920FB60F9211248F9383B783BF00B664
:100D000000FCFDCF8F910F900FBE0F901F90189594
:100D1000582F8FB7F894282F3327422F80911D0129
:100D20008823C1F4E0919001F0919101CF0186599F
:100D300091408A3F910574F4508380919001909185
:100D40009101019690939101809390012FBF80E0D3
:100D500090E008954FBF8FEF9FEF0895982F8091F7
:100D60002D01833009F046C080911001891709F0E8
:100D700041C080910E0120E030E08F3F11F421E06E
:100D800030E0232BF1F48F3F19F42FEF30E00EC049
:100D9000282F3327F901EA56FE4F808180930E01F8
:100DA0008F3F11F480930F018FEF80832093850193
:100DB0008FEF8093100181E080932D010E940C0140
:100DC00016C081E08093100110922D0180912E01B8
:100DD000813069F40E940C058091C6028A77809365
:100DE000C602809374009098919810922E0180E032
:100DF00090E0089581E090E008951F920F920FB661
:100E00000F9211242F933F934F935F936F937F9390
:100E10008F939F93AF93BF93EF93FF930E940C0523
:100E200080912E01873071F480912F01813009F07B
:100E3000EBC084E080932E018091C602806C809389
:100E4000C602E0C0843009F083C080912F019091E8
:100E5000D70230914501813009F042C09317F0F478
:100E6000E0917C01F0917D01E90FF11D809173000B
:100E700080834091D702242F332780914501992701
:100E800001972817390741F58091770382FD24C027
:100E90008091C6028F7B8093C6021EC09091C602CD
:100EA000292F2E7F2093C6028091770381FF09C0EE
:100EB0008D7F8093770320612093C602809171001B
:100EC00003C09E779093C6028091C60280937400FF
:100ED00081E080932E0198C04F5F4093D70290C06D
:100EE0002091C602931778F4E0917C01F0917D0186
:100EF000E90FF11D8081809373009F5F9093D7026B
:100F00002093740081C0922F9E7F9093C60280919F
:100F1000770381FF07C08D7F809377039061909363
:100F2000C60203C02E772093C6028091C60280932A
:100F3000740081E080932E0180911101882309F0D3
:100F400063C00E945B0580E00E94AE0682E03AC06A
:100F5000853009F041C0809177038E7F80937703BD
:100F60009091C6029F7D9093C60280917100887F08
:100F7000883059F180917100887F803131F10E9471
:100F80000C058091C6028A7F8093C602809374000C
:100F90000E940C058091C60284608093C6028093F3
:100FA000740081E080932E0180912F01882361F5E8
:100FB00080911101882341F50E945B0580E00E9429
:100FC000AE0683E00E940C011FC083E080932E01D7
:100FD00090649093C60202C08330B1F480912F01D7
:100FE00090918901813031F4990F91609093730051
:100FF00087E004C0990F9093730084E080932E01E2
:101000008091C60280937400FF91EF91BF91AF91E0
:101010009F918F917F916F915F914F913F912F9110
:101020000F900FBE0F901F9018950F931F93182FBE
:101030000FB7F89461E080E00E948600882371F584
:1010400010931201809115018823A9F5809139012F
:10105000823089F58EE00CC00E94BD00809139017C
:10106000882349F481E08093390110927E0180E168
:101070000E940C012AC0809135038F3F31F5E09129
:101080001401EE2311F11CC01092130104C0FF27BC
:10109000EB5CFC4F10821092140117C081E090E0CD
:1010A00002C0880F991F1A95E2F720913801282B6A
:1010B000209338010AC0809139018823E1F6CCCF12
:1010C000809113018F3F19F7DFCF802F99278FBFB2
:1010D00080E090E01F910F9108951F9383E00E949C
:1010E000CF009927182F882319F083E00E94150854
:1010F000812F99271F910895CF92DF92EF92FF924F
:101100000F931F93CFB6F894DD240E941702DC01E1
:10111000CB0166E470E00E94EB19ABE0EA2EF12C03
:10112000E80EF91EF0927203E09271030E9497029A
:1011300000271127A80197010E945403CFBE1F91D9
:101140000F91FF90EF90DF90CF900895CF92DF92B4
:10115000EF92FF920F931F93CF93DF938C01F62EA4
:101160006A01E22E8FB7F894C82FDD2760E080E097
:101170000E94A000882321F0CFBF80E090E01EC035
:10118000CFBF0F0D111D802F80680E943301F82EF4
:1011900016950795802F807C0E9433010E2D0AC082
:1011A000EE2DFF27E01BF109EC0DFD1D80810E9453
:1011B000330101500023A1F78F2D9927DF91CF91A3
:1011C0001F910F91FF90EF90DF90CF900895CF93F4
:1011D000DF93CDB7DEB724970FB6F894DEBF0FBE0E
:1011E000CDBF8FB7F8949927209183013091840166
:1011F0002983232F33272A83209195023091960249
:101200002B83232F33272C838FBF24E0AE014F5F26
:101210005F4F60E088E691E00E94A60824960FB632
:10122000F894DEBF0FBECDBFDF91CF910895EF924E
:10123000FF921F93CF93DF93E0908701F090880196
:10124000F70182A59927182F882309F41FE1C09878
:1012500080917801811749F0612F77276F71707045
:10126000606E706885E10E943F0110937801F7017C
:1012700010818FB7F894C82FDD2760E080E00E94CE
:10128000A000882311F0CFBF12C0CFBF8EE390E043
:1012900090939A02809399028EE30E943301115039
:1012A000412F552760E070E0C7010E94D401DF9113
:1012B000CF911F91FF90EF900895FF920F931F938E
:1012C000CF93DF93EC01F62E61E082E00E9486006E
:1012D000882319F085E090E069C08091D6028F5F85
:1012E0008093D60281508B838FB7F894082F1127F3
:1012F00062E081E00E94A000882329F40FBF0E94D1
:10130000F50181E052C08FB7F894992724E020932B
:10131000CE028FBFD093A002C0939F020FBF8DE07B
:10132000F80EFE01F192898199278072907089836D
:10133000118289819927816498688983892F9927E7
:1013400081831CA618A619A619AA18AA1FA680E8A8
:101350008EA761E06093D10240919F025091A0025C
:101360008FB7F894282F332780913A0190913B0151
:101370008830910511F0019711F02FBF15C082E060
:1013800090E090933B0180933A01609376035093F1
:10139000880140938701109244012FBF0E946D087D
:1013A000882311F40E94170980E09927DF91CF91DB
:1013B0001F910F91FF900895FA01422F2D3118F0DF
:1013C00082E090E0089583876683872F992787833B
:1013D0002FB7F894332780918301909184012FBF18
:1013E0008483892F992785832FB7F8943327809199
:1013F0001601909117012FBF8087892F9927818728
:1014000080911901882369F0109219018FE3828776
:10141000642FCF010E945D099927282F8823A9F402
:1014200017C0842F992790939E0280939D02F0937A
:101430003F01E0933E0182E10E940C01809119017D
:10144000882349F489E090E008958FEF8093190193
:10145000822F9927089510928F0180E090E00895DF
:10146000CF93DF93FB01DB0116968683892F9927A3
:10147000ED01898384E683878091A4029091A5027F
:10148000892B19F085E090E02BC07093A502609342
:10149000A402435F40834D5080911C01882319F4BE
:1014A00080E090E01DC08385ED0169817727762F6C
:1014B000662726813327622B732B10921C01242F61
:1014C000AF010E94DC099927282F882339F081E099
:1014D00080931C011092A5021092A402822F9927DA
:1014E000DF91CF910895CF93DF93C7E4D3E040918C
:1014F000C7024D3108F04CE1409375038CE1FE01C9
:1015000011928A95E9F755276091900170919101A8
:10151000CE010E94681A4CE1BE016C5070408FEF02
:101520009FEF0E94300A882321F085E10E940C0180
:1015300011C0209175038091C702821B8093C7025E
:101540008091900190919101820F911D9093910152
:1015500080939001DF91CF9108956623C1F480912B
:10156000C702882319F00E94730A089587E991E061
:1015700090939101809390011092C702109275038D
:101580008FB7F894992710921D018FBF089585E1B8
:101590000E940C0108950F931F93CF93DF93182F90
:1015A000EB01042FE82FFF27EE0FFF1FEC55FD4F37
:1015B0001182108210921C01E091A402F091A50208
:1015C000309721F08091360380FF0EC081E0809338
:1015D0001C0103C084E10E940C011123B9F4602FA7
:1015E000CE010E94AD0A12C020812D5033276781A1
:1015F0007727762F662786819927682B792BAF016D
:1016000083850E94DC09882341F3E4CFDF91CF91E9
:101610001F910F9108959B0180911C01882349F42B
:101620006091A4027091A5026217730711F40E94E1
:10163000CB0A0895AF92BF92CF92DF92EF92FF92C2
:101640000F931F93CF93DF935B016C01C0E0D0E059
:10165000E9EAF2E07C2F608561FF4AC02081318198
:1016600042815381E480F58006811781D601C5014E
:10167000821B930BA40BB50B8E159F05A007B1071A
:10168000B8F160FF03C06D7F608708C02E0D3F1D5D
:10169000401F511F2083318342835383772319F0E6
:1016A000723061F504C080E00E94130427C08FB738
:1016B000F894482F5527642F80911D018823B1F499
:1016C000809190019091910127E931E02817390725
:1016D00068F470931D01821B8093C70230939101BF
:1016E000209390014FBF0E94730A08C06FBF06C0CD
:1016F00021963996C330D10509F0ACCF86E00E941F
:101700000C01DF91CF911F910F91FF90EF90DF902F
:10171000CF90BF90AF9008951F93CF93DF93182F72
:101720008FB7F894C82FDD2760E080E00E94A0000A
:10173000882321F0CFBF80E090E005C0CFBF812F8C
:101740000E9433019927DF91CF911F910895EF9265
:10175000FF920F931F93CF93DF93182F7B01042FDA
:101760008FB7F894C82FDD2760E080E00E94A000CA
:10177000882321F0CFBF80E090E014C0CFBF106479
:10178000812F992790939A02809399020E943301A6
:10179000182F402F5527B70180E090E00E94D40118
:1017A000812F9927DF91CF911F910F91FF90EF909B
:1017B0000895C098609140017091410141E08FE32C
:1017C0000E94A70B089582E090E0909375018093AA
:1017D000740181E08093820120E030E08091120169
:1017E000843011F421E030E0232B29F484E00E94BE
:1017F000CF00882319F40E94D90B089584E00E9439
:10180000150808951F920F920FB60F9211242F936F
:101810003F934F935F936F937F938F939F93AF9378
:10182000BF93EF93FF93809174019091750101979D
:1018300049F482E090E090937501809374010E94D6
:10184000E30B05C080917B018F5F80937B01FF914B
:10185000EF91BF91AF919F918F917F916F915F9128
:101860004F913F912F910F900FBE0F901F901895A1
:101870001F9380913801882309F04BC01091120109
:101880001F3F09F046C060E00E94A000882309F4D1
:1018900040C081E08093D50280915D018823E1F111
:1018A0001092D50285E090E045C0923069F5C09A6B
:1018B0008091130120E030E08F3F11F421E030E00F
:1018C000232BE9F4109315018F3F19F42FEF30E02B
:1018D0000DC0282F3327F901EB5CFC4F80818093EA
:1018E00013018F3F11F410931401108320937E0194
:1018F00081E08093390180E10E940C0105C01093C2
:1019000015011092390111C080913901882369F0C5
:101910000FC081E090E00EC08091150190913901D7
:10192000882319F2923021F0EFCF80E00E94B100BD
:1019300080E090E01F9108951F93CF93DF939FB7AE
:10194000F894C92FDD271C2F90911201981721F0D0
:10195000CFBF81E090E03AC08FEF809312013091C9
:1019600038013323F1F48FB7F89499271092CD0200
:101970008FBF0E94380CCFBF11C02093120181E0AD
:1019800090E002C0880F991F4A95E2F780953823AE
:10199000309338018EE00E940C011FBF80E090E080
:1019A00015C080E065E0E32FFF270E94DF19292F93
:1019B000492F5527CF01042E02C0959587950A948B
:1019C000E2F780FDDACF822F8F5FEFCFDF91CF91EB
:1019D0001F9108951F93CF93DF938FB7F894C82F6B
:1019E000DD271C2F8091740190917501892B29F4BA
:1019F00084E00E949C0CCFBF1EC010928201809197
:101A00007B01882311F0B79904C00E9908C0882380
:101A100019F0815080937B010E94E30B0BC081E0A1
:101A200090E0909375018093740110927B0184E0A3
:101A30000E949C0C1FBFDF91CF911F9108950E94BF
:101A4000FC01C09AC09888E00E948C0B88E00E943C
:101A50008C0BC09A84E00E949C0C0E94EA0C0895B2
:101A60001F93182F81E090E090933B0180933A01FF
:101A700010925D010E94380C8FB7F894992710934B
:101A800034018FBF8AE00E940C011F9108951F93BB
:101A9000CF93DF938FB7F894C82FDD271C2F809149
:101AA0003A0190913B010897C9F489E00E948C0BA0
:101AB00083E00E949C0CC09A81E090E090933B01EF
:101AC00080933A018FB7F894992723E0209334014B
:101AD0008FBF8AE00E940C01CFBF30C0C0988091B8
:101AE0007603882311F085E001C084E00E948C0B0E
:101AF00083FD09C080E00E948C0B83FF04C085E059
:101B000090E020E003C083E090E021E090933B016F
:101B100080933A01C09A1FBF222341F010924401E2
:101B200083E00E949C0C0E947C0808C00E949702DF
:101B300020E431E040E050E00E945403DF91CF9177
:101B40001F91089578941F920F920FB60F9211244F
:101B50001F932F933F934F935F936F937F938F9335
:101B60009F93AF93BF93EF93FF9387B78F7E87BF0A
:101B700078941FB7F8948091920190919301A0916D
:101B80009401B09195010097A105B10509F051C0EC
:101B900080913A0190913B018530910561F1863049
:101BA000910530F48330910549F0049781F51AC00E
:101BB00087309105F1F0089751F514C0869B0FC04E
:101BC00084E090E090933B0180933A010E94970259
:101BD00027E030E040E050E00E94540318C00E942B
:101BE0007C0815C00E946D08882389F40E94470D67
:101BF0000EC080E00AC089E00E948C0B81E00E9448
:101C0000BA0383E00E949C0C87E00E94300D809113
:101C1000350190913601019771F482E090E0909344
:101C2000360180933501DE98DE9A80E00E94150827
:101C300002C00E94B402812F99278FBFFF91EF91BC
:101C4000BF91AF919F918F917F916F915F914F91D4
:101C50003F912F911F910F900FBE0F901F901895DD
:101C6000EF92FF920F931F93CF93DF938B0180919D
:101C7000990290919A0286FF40C18F7B8F3309F0C1
:101C80008EC1C0914001D09141015881509376019D
:101C900080917401909175018530910509F443C0DC
:101CA0008630910509F48AC0029709F01FC185E0CA
:101CB00090E0909375018093740140915C01852FB1
:101CC00099270196242F3327281739074CF1B79904
:101CD00006C00E9904C0451B415040935C014091E1
:101CE00076014A32E8F44423A1F0BE016F5F7F4FD2
:101CF000483018F047E050E007C086E090E090934D
:101D0000750180937401552780E090E00E94D40112
:101D100046C110928201C09A84E00E949C0CE3C0EC
:101D20000E941F0D3CC186E090E090937501809366
:101D3000740180918601882309F439C08091D20210
:101D40008823A9F5898185FF32C08F814E812FB705
:101D5000F894332760919502709196022FBF9927CE
:101D6000982F88275527842B952B8617970759F08E
:101D70008F812E819927982F88273327822B932BA9
:101D80008F5F9F4FA1F489818770813081F4C09A61
:101D9000C0988AE00E948C0BC09AC098409176014E
:101DA00047502896BE018FE30E94A70BF8C04091D0
:101DB0007601475055272896BE01A6CFC09A80913C
:101DC0007B01882339F484E00E949C0C80917B0184
:101DD000882311F0B7990AC00E9B08C09091300378
:101DE000992321F0809176018B3038F48091400165
:101DF000909141010E9408023DC0913001F5E091AF
:101E00003403FF27EE0FFF1FEE0FFF1FE452FD4FBD
:101E10002081318142815381E0914001F091410163
:101E200021ABBB27A52F942F832F80ABCA01AA27F4
:101E3000BB2787A7252F33274427552726A780911F
:101E400034039927019668E070E00E94FF1980939F
:101E5000340380913003815080933003882351F004
:101E600080914001909141010E9408021092340338
:101E70001092300380917601FE01E80FF11D808100
:101E800087FF31C0012B79F169816770E0914001D2
:101E9000F0914101623019F5A0918701B09188015C
:101EA000109709F180913A0190913B010797D9F47D
:101EB000ED019B8183819817B1F487B78F7E87BF2F
:101EC000908181E08CA7E90FF11D8291319688A75E
:101ED00080818F7789A780E00E94300D04C0613037
:101EE00011F481E12AC00E94EA0C59C010928201CB
:101EF000C09A84E00E949C0C52C08E3309F04FC0FF
:101F0000C09A80913A0190913B010897C9F4C0981A
:101F100089E00E948C0BC09A83E00E949C0C81E0B7
:101F200090E090933B0180933A018FB7F894992702
:101F300023E0209334018FBF8AE00E940C012FC060
:101F400080917603882349F484E090E090933B01EC
:101F500080933A010E94470D22C083E00E949C0CAE
:101F600083E090E090933B0180933A010E94170236
:101F7000DC01CB0166E371E00E94EB195BE0E52E2A
:101F8000F12CE80EF91EF0925701E09256010E94E2
:101F9000970200271127A80197010E945403DF919F
:101FA000CF911F910F91FF90EF9008951F920F9284
:101FB0000FB60F9211242F933F934F935F936F931C
:101FC0007F938F939F93AF93BF93EF93FF932FB123
:101FD000E091C402F091C502309739F08091A202DD
:101FE0009091A302E80FF91F20838091A2029091A3
:101FF000A30201969093A3028093A20280E00E9424
:10200000B70040914201509143018091A20290910A
:10201000A3028417950718F40E9466011CC0609102
:10202000C4027091C5028091390390913A031092D5
:10203000C5021092C40210923A0310923903109212
:102040004301109242011092A3021092A2022FB1FA
:1020500020E00E94300EFF91EF91BF91AF919F91D0
:102060008F917F916F915F914F913F912F910F9041
:102070000FBE0F901F901895AF92BF92CF92DF9234
:10208000EF92FF920F931F93CF93DF93E82FFF27D9
:10209000E631F10508F066C4EA5BFF4FEE0FFF1F63
:1020A0000590F491E02D099480913603882309F47A
:1020B00059C490E011E01AC42FB7F89433278091E7
:1020C000D30280930D0183E080932C012FBF809178
:1020D0000D01882309F046C487E042C42FB7F89465
:1020E0003327809185018093100153E050932D0197
:1020F0002FBF209110018FB7F894992720931101D9
:102100008FBF222309F02EC410926F0380E48093C6
:1021100070038FB7F894282F3327809111018823FB
:1021200011F02FBF42C02FBF8FB7F894992720918D
:102130002E01213061F542E040932E018FBF2FB771
:10214000F89433278AE590E090938A01809389017F
:102150008FE693E090937D0180937C01409345014D
:10216000509377031092D70210922F012FBF0E9435
:102170000C052FB7F89433278091C602816E8093A7
:10218000C60295E090932E0180937400B5C18FBF75
:102190000CC00E94EC03AB01BC01A1E0EA2E08E8F0
:1021A00013E120E030E080E026C180E00E941304CB
:1021B000D9C380917701882361F52091D8023091AD
:1021C000D9024091DA025091DB02EFB7F894FF2771
:1021D0006091C9027091CA028091CB029091CC02A9
:1021E000E0905801F090590100915A0110915B0163
:1021F0006E0D7F1D801F911FEFBF2093D80230937B
:10220000D9024093DA025093DB02109277010E94C8
:10221000F2040E94EC0343C00E94EC035B016C01DA
:102220008FB7F89499271092A1028FBFFFEFEF2E7E
:10223000FFEFFF2EFFEF0F2FFFE71F2F60E0E9EA10
:10224000F2E0808581FF1CC080819181A281B381F1
:10225000A6019501281B390B4A0B5B0BDA01C9015A
:102260002481358146815781281B390B4A0B5B0B32
:102270002E153F05400751071CF479018A0161E0E2
:10228000399632E0E43CF307E1F6662309F46AC3C9
:102290001E141F04100611062CF0C601B5010E9481
:1022A0001A0B60C3E092D802F092D9020093DA02CE
:1022B0001093DB0281E080937701A8019701C601AA
:1022C000B5010E94F2044EC38FB7F894482F5527EA
:1022D00090917901892F8E7F8093790187B120E0D9
:1022E000829586958695837009F021E081E0282704
:1022F000220F9078922B98609093790182E090E081
:1023000087B98CED90E086B94FBF2CC30FB7F89416
:10231000112781E00E94BA03E1E0EE2EF12CF09249
:102320003B01E0923A0110923C0110925D01109243
:1023300078010FBF0FB7F89411270E94FC01F092AB
:102340007501E09274011092820189B78F7B89BF79
:1023500080E488BF8AB780628ABF8AB78F7E8ABFCF
:1023600089B7806489BF0FBF8FB7F894C82FDD2766
:102370008091350190913601049719F483E00E9411
:102380008C0BCFBF0FB7F8941127C09A80E00E9442
:102390009C0C0FBF8FB7F894992722E02093CE02B0
:1023A0008FBF80911D01813009F0DCC28EE191E088
:1023B00090937B0380937A032FB7F8943327E7E950
:1023C000F1E08AEFDF011D928A95E9F7F093910120
:1023D000E09390011092C7021092750310921D01B4
:1023E0002FBF0E94EC03AB01BC01EE2408EC10E00F
:1023F00020E030E082E00E94CD03B4C28FB7F894B1
:1024000099271092CE026EC08FB7F8949927F0905A
:1024100034018FBF63E081E00E94A000882359F15E
:102420000FB7F894112710923B0110923A0187B729
:102430008F7E87BF87B78F7D87BF83E00E949C0C0C
:10244000C09A0FBF0FB7F894112710927501109220
:1024500074010E94FC01C09A89B78F7B89BF0FBFAE
:102460001092360110923501DE98DD98DE9A89E0EF
:102470000E940C0107C08FB7F894992722E020939F
:10248000CE028FBFC0919F02D091A0020E94F501A1
:102490008A858F3309F066C28FEF809319014F2D23
:1024A000BE011CC28FB7F894282F3327122F8091BA
:1024B0007303882309F581E08093730380913501CC
:1024C00090913601049721F481E00E94150803C021
:1024D0008CE00E940C011FBF45C28FB7F89499276A
:1024E000109273038FBF3EC28FB7F894282F332703
:1024F00080913701882311F02FBF34C22FBF80B3E2
:10250000992776E0969587957A95E1F7182F1170BF
:1025100090919702809198028917D9F01917C9F400
:1025200084E090E090933601809335018FB7F89462
:10253000992721E0209337018FBF60E070E08DE1A3
:102540000E943F010E94E708C09AC09888E00E945C
:102550000C01109398028DE003C28FB7F89499276D
:10256000109112018FBF123009F460C0133030F4A3
:10257000112359F0113009F0F5C143C0133009F4AB
:102580006FC0143009F0EEC19BC0C0988FB7F894AB
:10259000C82FDD278091350190913601029779F59A
:1025A00083E090E0909336018093350168E170E01C
:1025B0008DE10E943F0181E08093970210923701E4
:1025C00080B3992766E0969587956A95E1F78170C3
:1025D0009070809398028DE00E940C0181E00E942F
:1025E0008C0B6FE772E08CE10E943F010E946F0349
:1025F0000E94800366E57AE287E10E943F01CFBF37
:10260000B1C1C09886E00E948C0B0E946F030E94AB
:1026100080030E94E708C09AC09883E00E948C0B58
:10262000C09A81E00E949C0C8CE09AC1C0988FB740
:10263000F894C82FDD2760E080E00E94A000882386
:1026400011F0CFBF0AC0CFBF83E50E94330180E005
:102650000E94330180E00E943301C09A82E02DC0C5
:102660008FB7F894992720913A018FBF243039F021
:10267000283041F0223001F50E94170973C10E94F1
:10268000470D70C1C09889E00E948C0BC09A83E00E
:102690000E949C0C8FB7F894992721E030E030938A
:1026A0003B0120933A018FBF8FB7F894992710937D
:1026B00034018FBF8AE054C183E00E949C0C52C158
:1026C0000E94D90B4FC10FB7F894112740914201D6
:1026D000509143016091C4027091C5028091390309
:1026E00090913A031092C5021092C40210923A03DC
:1026F0001092390310924301109242011092A302EA
:102700001092A20220E00E94300E0FBF2BC12FB703
:10271000F894332780917E018093150182E08093A5
:1027200039012FBF80911501882309F01BC1B89A88
:10273000C0988EE015C1A0914001B09141011C915B
:10274000FD01E10FF11D8081881F8827881FED01A1
:102750008BA780818F7789A73197808188A7E091A7
:102760004001F09141018FB7F894992720917A01A7
:102770008FBF2223F9F0878146812FB7F894332742
:1027800060919502709196022FBF9927982F882704
:102790005527842B952B8617970761F08781268113
:1027A0009927982F88273327822B932B8F5F9F4F52
:1027B00009F069C01D3008F466C0A0914001B091D5
:1027C0004101ED01898528859927582F4427332712
:1027D000422B532B6B818FEF809337038FB7F89485
:1027E000782F20E030E0EAE4F1E0808191818417E5
:1027F000950729F48281861731F1209337032F5FE3
:102800003F4F33962430310581F77FBF90913703D6
:102810003FB7F8949F3F21F080913D018917A9F4BB
:1028200020913D01822F9927FC01EE0FFF1FE80F39
:10283000F91FE65BFE4F5183408362832F5F237055
:1028400020933D010EC07FBF1AC0892F9927FC013C
:10285000EE0FFF1FE80FF91FE65BFE4F5183408329
:102860006283832F99278FBFFD0183A5882339F0C9
:1028700082858F3321F48FB7F89499278FBFB09357
:102880004101A09340018FB7F894992710928201DB
:102890008FBF0E94EA0C66C090918F018091190150
:1028A000981709F45FC0909319019923D9F4C09146
:1028B0003E01D0913F0160919D028FE38A87CE0156
:1028C0000E945D09482F5527442309F44BC08FEF20
:1028D0008093190160913E0170913F018B850E94A8
:1028E0000B0B40C08FEF809319013CC02091360341
:1028F000812F8223C1F0E92FFF27EE0FFF1FEC5538
:10290000FD4F4081518111821082812F80952823B3
:1029100020933603992339F463E0CA010E94AD0A7B
:10292000110F91E0E3CF9F5F9830E0F4110FDECFFD
:1029300080911C01E82FFF27EE0FFF1FEC55FD4F84
:102940006081718141E00E94CB0A0CC04CE16BE3D5
:1029500073E08FEF9FEF0E94300A882319F085E122
:102960000E940C01DF91CF911F910F91FF90EF908A
:10297000DF90CF90BF90AF900895809131038F3F4B
:10298000B1F0282F3327F901E25AFE4F808180935E
:1029900031038F3F11F4809374038FEF80832F3FB7
:1029A00031F0822F0E943C1081E090E0089580E099
:1029B00090E008950F931F93CF93DF930FB7F89490
:1029C00046E150E06FEF70E08EE591E00E94711AF1
:1029D0008FEF809331038093740381E08EBD88E094
:1029E00080BF83E083BF8CB59DB54AE72CB53DB56C
:1029F0002817390708F44150442311F0C901F6CFD4
:102A000092B782B78917E9F32CB53DB592B782B773
:102A10008917E9F38CB59DB5821B930B4096B5E001
:102A200096958795BA95E1F7909333038093320397
:102A300013BE83B78EBD8EB580BF12BE1DBC1CBC3D
:102A40008FEF86BF86B780937C0080B79927877009
:102A50009070892BD1F7D29AD19AD09ADA9AD99AD2
:102A6000D89A15BA8FEF84BBD498DC981DBC1CBCD7
:102A700087B7846087BF8EB5887F84608EBD16B8A7
:102A800080E285BF0E94BD148823E1F78FEF809319
:102A90007F01EAE4F1E08FEF9FEF91838083128260
:102AA000339621E0E635F207C1F70E9417026093E2
:102AB000D60280910B0190910C010196AA27BB27A9
:102AC00080938B0190938C01A0938D01B0938E0124
:102AD0008CEF92E090934101809340018E98B89AD8
:102AE0008C981FEF109335031092CD021092CE02F6
:102AF0001092CF021092D002B89AD69AD59A8FB778
:102B0000F894992720911601309117018FBF3093C7
:102B10009602209395028091180199279093840141
:102B2000809383018FE18093C8028AE18093D4026D
:102B300081E080937A01109238038093860110928D
:102B4000D20280B7886080BF8BE083BF86EE81BFF2
:102B500087B7826087BF0E946F041093960110921E
:102B6000A8020E94BD148823E1F7802F99278FBF08
:102B7000789461E081E00E9486008823E9F48FB7B1
:102B8000F894282F33278091350190913601892BB5
:102B900011F02FBF1BC081E090E09093360180932D
:102BA00035012FBFDD9A0E94970224E130E040E01A
:102BB00050E00E9454030AC062E081E00E94A0003D
:102BC000882321F461E081E00E94A000A39AAB9ADF
:102BD000A69AAE9A8FB7F894282F3327922F809118
:102BE0002D01882309F043C011E010932D011092AC
:102BF00085012FBF8FB7F894C82FDD2780912E0154
:102C00008823C9F4909A919A8898899810927100B3
:102C100081E48093700010927200109274000E9400
:102C20000C058091C60284608E7F8093C6028093DB
:102C3000740010932E01CFBF8FB7F894C82FDD27F3
:102C40009C2F80911001813051F580912D018130B0
:102C500019F40E940C0109C0823009F580918501A8
:102C60008093100183E080932D01CFBF19C0809124
:102C70008501882311F42FBF13C0809196018F3FE7
:102C800071F4E0910F01EE2351F072C010920E0129
:102C900004C0FF27EA56FE4F108210920F019FBF1B
:102CA0008FB7F894482F552748C087B79927837066
:102CB0009070892B19F4E5E0F0E013C080B79927F4
:102CC00087709070892BD1F781B792B7891B8C30B0
:102CD00030F082B7853F18F4E3E0F0E002C0E2E0B4
:102CE000F0E087B7887BC1F480917D008B7FA1F4F1
:102CF0006E9912C08AB190919A00892B807C61F400
:102D00008091740082FD08C0379B03C081E090E091
:102D100005C085E090E002C080E090E025B78E1706
:102D200008F4E82FFF27E854FF4FE491237E206248
:102D3000E22BE5BF78948895F894809131038F3F1A
:102D400009F4B3CF282F3327F901E25AFE4F8081CF
:102D5000809331038F3F11F4809374038FEF80834E
:102D60002F3F09F4A2CF4FBF822F0E943C1098CF73
:102D700080910E018F3F09F08CCF88CF78941F92FD
:102D80000F920FB60F9211242F923F924F925F92A3
:102D90006F927F928F929F92AF92BF92CF92DF926B
:102DA000EF92FF920F931F932F933F934F935F9355
:102DB0006F937F938F939F93AF93BF93CF93DF9343
:102DC000EF93FF93C6B5D7B580E286BF8FB7F8946F
:102DD000282E0E9497029B012C1B3D0B4427552750
:102DE0002B013C01421A530A640A750A80913A0188
:102DF00090913B018530910521F0069709F0E0C0E4
:102E0000BFC086E090E090933B0180933A0131E0AF
:102E1000332E3092800110923C0180E00E94BA0370
:102E2000E0918701F091880141AABB27A72D962D3B
:102E3000852D80ABC301AA27BB2787A7872D99279C
:102E4000AA27BB2786A7E0918701F091880185A575
:102E5000882309F484C06081655077274F01860E6E
:102E6000971EF4012081E1808281A3809927AA27FF
:102E7000BB27BA2FA92F982F8827332744275527F8
:102E8000522F442733272227FF24002711278701A9
:102E9000FF24EE242E293F29402B512BBB24CC2488
:102EA000DD242A293B294C295D29822B932BA42B35
:102EB000B52B84199509A609B7098383292F3A2FC1
:102EC0004B2F552722839D014427552721838B2F84
:102ED0009927AA27BB278083C09824E0A40180E01B
:102EE00090E00E94A608C09AF4012081E1808281CE
:102EF000A3809927AA27BB27BA2FA92F982F882705
:102F0000332744275527522F442733272227FF24CE
:102F1000002711278701FF24EE242E293F29402B6B
:102F2000512BBB24CC24DD242A293B294C295D29A3
:102F3000822B932BA42BB52B840D951DA61DB71D9D
:102F40008383292F3A2F4B2F552722839D01442716
:102F5000552721838B2F9927AA27BB278083E091B0
:102F60008701F0918801818185FF02C030925D0167
:102F700083E00E949C0C87B78F7E87BF84997AC0BC
:102F80001092800181E00E94BA03E0918701F091E4
:102F90008801818185FF0FC087E090E090933B011D
:102FA00080933A010E94970220E031E040E050E037
:102FB0000E94540303C080E00E94300D849B5AC0DD
:102FC00080913C01882391F580918001882371F5DF
:102FD00011E0109380010E94BA0380B32091300366
:102FE000283098F4E0913403E20FFF27E770F07087
:102FF000EE0FFF1FEE0FFF1FE452FD4F4082518284
:10300000628273822F5F2093300310933C01D09330
:103010009C02C0939B0284992DC0992714E0969539
:1030200087951A95E1F7182F117001C010E0809173
:1030300080018130F9F4109280010E94BA0310924D
:103040003C011123B9F480919B0290919C02C81B12
:10305000D90B2A9778F480913003882319F0815096
:10306000809330038091870190918801009711F03F
:103070000E9408022FBEFF91EF91DF91CF91BF9187
:10308000AF919F918F917F916F915F914F913F9100
:103090002F911F910F91FF90EF90DF90CF90BF90F5
:1030A000AF909F908F907F906F905F904F903F90E8
:1030B0002F900F900FBE0F901F901895ACE2B0E0CC
:1030C000E4E6F8E10C94311A222E332E442E552ECC
:1030D000662E772E882E992EFE013196A8E0119249
:1030E000AA95E9F729823A824B825C826D827E82C0
:1030F0008F829886FE013996B8E01192BA95E9F769
:10310000A986BA86CB86DC86ED86FE860F87188B6D
:1031100089819A81AB81BC8189A79AA7ABA7BCA7FB
:103120007C018D018FEF9FEFA0E0B0E0E822F92253
:103130000A231B2389A59AA5ABA5BCA51D01442480
:10314000552489859A85AB85BC858DA39EA3AFA3A5
:10315000B8A75C016D018FEF9FEFA0E0B0E0A8225F
:10316000B922CA22DB228DA19EA1AFA1B8A53D0143
:1031700088249924C801B701A60195010E94121A5A
:1031800069A37AA38BA39CA3C801B701A4019301EF
:103190000E94121A7B018C01C201B101A6019501A6
:1031A0000E94121A5B016C01C201B101A4019301DA
:1031B0000E94121A3B014C01EA0CFB1C0C1D1D1D48
:1031C00089A19AA1ABA1BCA19D01442755272E0D31
:1031D0003F1D401F511F2A153B054C055D0540F45E
:1031E00080E090E0A1E0B0E0680E791E8A1E9B1E90
:1031F000CA01AA27BB27860D971DA81DB91D8D8F53
:103200009E8FAF8FB8A3A9013327222789A19AA146
:10321000ABA1BCA1A070B070280F391F4A1F5B1F63
:10322000298F3A8F4B8F5C8FA98CBA8CCB8CDC8C1E
:10323000ED8CFE8C0F8D18A1FE01719698E0119215
:103240009A95E9F7ED8AFE8A0F8B188F2D813E81C2
:103250004F8158856DA17EA18FA198A50E94121A59
:103260003B014C012D853E854F85588969A57AA57E
:103270008BA59CA50E94121A2D893E894F89588DD5
:10328000260F371F481F591F260D371D481D591D72
:103290002D8B3E8B4F8B588F6D887E888F88988CB6
:1032A0002A2D3B2D4C2D5D2D662D772D882D992DAA
:1032B000E2E1AC960C944D1AA0E1B0E0E2E6F9E14F
:1032C0000C94311A222E332E442E552E662E772E34
:1032D000882E992E002309F466C088E0FE013196FD
:1032E00011928A95E9F729833A834B835C836D8336
:1032F0007E838F829887E0E2E01B1E16CCF52D813D
:103300003E814F815885602F772767FD7095DA01E0
:10331000C901062E04C0B695A795979587950A947E
:10332000D2F78D879E87AF87B88B04C0220F331FDB
:10333000441F551FEA95D2F789819A81AB81BC81E0
:1033400004C0B695A795979587956A95D2F7282BCF
:10335000392B4A2B5B2B29873A874B875C8729843B
:103360003A844B845C846D847E848F8498881BC0EF
:103370001D861E861F86188A2E2F332727FD30951F
:10338000309521953F4F8D819E81AF81B88504C0D6
:10339000B695A795979587952A95D2F789879A87A5
:1033A000AB87BC87DCCF222D332D442D552D662DC8
:1033B000772D882D992DE2E160960C944D1A991B7A
:1033C00079E004C0991F961708F0961B881F7A951C
:1033D000C9F780950895AA1BBB1B51E107C0AA1F1E
:1033E000BB1FA617B70710F0A61BB70B881F991FA6
:1033F0005A95A9F780959095BC01CD01089597FB4A
:10340000092E07260AD077FD04D0E5DF06D000207C
:103410001AF4709561957F4F0895F6F79095819510
:103420009F4F0895629FD001739FF001829FE00D2E
:10343000F11D649FE00DF11D929FF00D839FF00D33
:10344000749FF00D659FF00D9927729FB00DE11DDF
:10345000F91F639FB00DE11DF91FBD01CF011124BC
:1034600008952F923F924F925F926F927F928F9228
:103470009F92AF92BF92CF92DF92EF92FF920F9303
:103480001F93CF93DF93CDB7DEB7CA1BDB0B0FB60D
:10349000F894DEBF0FBECDBF09942A8839884888CA
:1034A0005F846E847D848C849B84AA84B984C88460
:1034B000DF80EE80FD800C811B81AA81B981CE0F57
:1034C000D11D0FB6F894DEBF0FBECDBFED0108953C
:1034D000FB01DC0102C001900D9241505040D8F731
:1034E0000895DC0101C06D9341505040E0F708950C
:1034F000A2E0B0E0EEE7FAE10C94411AFE01379643
:1035000061917191FA83E983AF0180917A0390917F
:103510007B030E948F1AE2E022960C945D1AABE0C6
:10352000B0E0E5E9FAE10C94331A3C014B016A0181
:10353000FC0117821682838181FD03C08FEF9FEF0C
:10354000DAC1F3013381F40133FD859133FF8191B9
:103550004F01882309F4CCC1853239F433FD8591BC
:1035600033FF81914F01853229F4B30199270E94DD
:10357000951CE7CF00E0442455244AE00032B0F423
:103580008B3269F08C3228F4803251F0833271F43E
:103590000BC08D3239F0803349F4016028C00260DD
:1035A000046025C0086023C0006121C007FD29C058
:1035B000282F20532A3078F406FF06C0549EC001FD
:1035C0001124522E580E13C0449EC0011124422EC5
:1035D000480E00620CC08E3221F406FD89C10064E1
:1035E00006C08C3611F4006802C0883651F4F4012C
:1035F00033FD859133FF81914F01882309F46FC01A
:10360000BDCF982F8554833018F08052833038F422
:1036100024E030E0C20ED31E8FE389830FC09336BF
:1036200031F0933799F0933509F05BC023C0F60170
:103630008081898322E030E0C20ED31E7E0108948F
:10364000E11CF11C51E0A52EB12C12C0F601E08066
:10365000F18006FD03C06FEF7FEF02C0652D772775
:1036600022E030E0C20ED31EC7010E948A1C5C011A
:103670000F7713C0F601E080F18006FD03C06FEF05
:103680007FEF02C0652D772722E030E0C20ED31E07
:10369000C7010E947F1C5C01006803FF07C01BC0BC
:1036A000B30180E290E00E94951C4A94842D9927F2
:1036B000A816B906A8F30FC0F70107FD859107FF0B
:1036C00081917F01B30199270E94951C41104A9472
:1036D0000894A108B108A114B10471F706C190E0E3
:1036E0003EC0943611F0993691F507FF0AC0F601F5
:1036F000608171818281938124E030E0C20ED31E0B
:103700000DC0F601808191819C01B901882777FD68
:103710008095982F42E050E0C40ED51E4FE6B42E9F
:10372000B02297FF09C090958095709561957F4F65
:103730008F4F9F4F50E8B52A8E010F5F1F4F2AE031
:1037400030E0A8010E94C21CA82EA01A4DC09537D7
:1037500031F43FEEF32EF0222AE030E023C029EFCF
:10376000F22EF0229F3661F0903720F4983509F060
:10377000BFC012C0903739F0983709F0B9C005C002
:1037800028E030E00FC080E1F82AF4FE02C094E0A7
:10379000F92A20E130E006C0F4FE02C0E6E0FE2A8D
:1037A00020E132E0F7FE0AC0F6016081718182817A
:1037B000938144E050E0C40ED51E0BC0F601808119
:1037C0009181AC01BA0188279927E2E0F0E0CE0EA2
:1037D000DF1E8E010F5F1F4FA8010E94C21CA82E82
:1037E000A01A8FE7B82EBF20B6FE10C0FEEFBF2292
:1037F000A51460F42B2D332724FF1AC022FF02C02A
:10380000052D09C02FEEB222052D01C00A2D2B2D4A
:10381000332724FF0EC0FE01EA0DF11D80818033A5
:1038200019F439EEB32209C00F5F22FF06C004C0AD
:10383000052D822F867809F00F5FEB2CFF24E3FC27
:1038400014C0E0FE0FC0041510F05A2C0BC0542C0D
:10385000501A5A0C042D06C0B30180E290E00E9479
:10386000951C0F5F0415C0F304C0041510F4401A32
:1038700001C04424E4FE10C0B30180E390E00E9444
:10388000951CE2FE1EC0E1FE03C088E590E002C088
:1038900088E790E0B3010CC08E2D867891F0E1FEB0
:1038A00002C08BE201C080E2B7FC8DE2B301992730
:1038B0000E94951C06C0B30180E390E00E94951C15
:1038C0005A94A514C0F3AA94FE01EA0DF11D81815A
:1038D000B30199270E94951CAA2039F0F4CFB301B7
:1038E00080E290E00E94951C4A944420C1F729CEC2
:1038F000F30186819781E0E12B960C944F1AFC012D
:103900000590615070400110D8F7809590958E0F0A
:103910009F1F0895FC016150704001900110D8F77D
:10392000809590958E0F9F1F08950F931F93CF93AF
:10393000DF938C01EB018B81992781FF1BC082FFF4
:103940000DC02E813F818C819D812817390764F439
:10395000E881F9810193F983E88306C0E885F98558
:10396000802F0995892B31F48E819F8101969F8349
:103970008E8302C00FEF1FEFC801DF91CF911F911F
:103980000F910895FA01AA27283051F1203181F1D1
:10399000E8946F936E7F6E5F7F4F8F4F9F4FAF4F57
:1039A000B1E03ED0B4E03CD0670F781F891F9A1F6A
:1039B000A11D680F791F8A1F911DA11D6A0F711D1E
:1039C000811D911DA11D20D009F468943F912AE02A
:1039D000269F11243019305D3193DEF6CF01089512
:1039E000462F4770405D4193B3E00FD0C9F7F6CF43
:1039F000462F4F70405D4A3318F0495D31FD40520B
:103A0000419302D0A9F7EACFB4E0A69597958795A0
:103A100077956795BA95C9F700976105710508957F
:103A20009B01AC010A2E069457954795379527952B
:103A3000BA95C9F7620F731F841F951FA01D0895C3
:023A4000FFCFB6
:103A4200256C642025642025640A00010001FFFF23
:103A520001FFFFFFFFFF010022FFFFFF0101000046
:0C3A6200000200000000880600000000C8
:00000001FF
